{
  "address": "0x44333156C47ac50631236B02c97751583a334f41",
  "abi": [
    {
      "inputs": [
        {
          "internalType": "address",
          "name": "_migrator",
          "type": "address"
        },
        {
          "internalType": "address",
          "name": "_sPana",
          "type": "address"
        }
      ],
      "stateMutability": "nonpayable",
      "type": "constructor"
    },
    {
      "anonymous": false,
      "inputs": [
        {
          "indexed": true,
          "internalType": "address",
          "name": "owner",
          "type": "address"
        },
        {
          "indexed": true,
          "internalType": "address",
          "name": "spender",
          "type": "address"
        },
        {
          "indexed": false,
          "internalType": "uint256",
          "name": "value",
          "type": "uint256"
        }
      ],
      "name": "Approval",
      "type": "event"
    },
    {
      "anonymous": false,
      "inputs": [
        {
          "indexed": true,
          "internalType": "address",
          "name": "delegator",
          "type": "address"
        },
        {
          "indexed": true,
          "internalType": "address",
          "name": "fromDelegate",
          "type": "address"
        },
        {
          "indexed": true,
          "internalType": "address",
          "name": "toDelegate",
          "type": "address"
        }
      ],
      "name": "DelegateChanged",
      "type": "event"
    },
    {
      "anonymous": false,
      "inputs": [
        {
          "indexed": true,
          "internalType": "address",
          "name": "delegate",
          "type": "address"
        },
        {
          "indexed": false,
          "internalType": "uint256",
          "name": "previousBalance",
          "type": "uint256"
        },
        {
          "indexed": false,
          "internalType": "uint256",
          "name": "newBalance",
          "type": "uint256"
        }
      ],
      "name": "DelegateVotesChanged",
      "type": "event"
    },
    {
      "anonymous": false,
      "inputs": [
        {
          "indexed": true,
          "internalType": "address",
          "name": "from",
          "type": "address"
        },
        {
          "indexed": true,
          "internalType": "address",
          "name": "to",
          "type": "address"
        },
        {
          "indexed": false,
          "internalType": "uint256",
          "name": "value",
          "type": "uint256"
        }
      ],
      "name": "Transfer",
      "type": "event"
    },
    {
      "inputs": [
        {
          "internalType": "address",
          "name": "owner",
          "type": "address"
        },
        {
          "internalType": "address",
          "name": "spender",
          "type": "address"
        }
      ],
      "name": "allowance",
      "outputs": [
        {
          "internalType": "uint256",
          "name": "",
          "type": "uint256"
        }
      ],
      "stateMutability": "view",
      "type": "function"
    },
    {
      "inputs": [
        {
          "internalType": "address",
          "name": "spender",
          "type": "address"
        },
        {
          "internalType": "uint256",
          "name": "amount",
          "type": "uint256"
        }
      ],
      "name": "approve",
      "outputs": [
        {
          "internalType": "bool",
          "name": "",
          "type": "bool"
        }
      ],
      "stateMutability": "nonpayable",
      "type": "function"
    },
    {
      "inputs": [],
      "name": "approved",
      "outputs": [
        {
          "internalType": "address",
          "name": "",
          "type": "address"
        }
      ],
      "stateMutability": "view",
      "type": "function"
    },
    {
      "inputs": [
        {
          "internalType": "uint256",
          "name": "_amount",
          "type": "uint256"
        }
      ],
      "name": "balanceFrom",
      "outputs": [
        {
          "internalType": "uint256",
          "name": "",
          "type": "uint256"
        }
      ],
      "stateMutability": "view",
      "type": "function"
    },
    {
      "inputs": [
        {
          "internalType": "address",
          "name": "account",
          "type": "address"
        }
      ],
      "name": "balanceOf",
      "outputs": [
        {
          "internalType": "uint256",
          "name": "",
          "type": "uint256"
        }
      ],
      "stateMutability": "view",
      "type": "function"
    },
    {
      "inputs": [
        {
          "internalType": "address",
          "name": "_address",
          "type": "address"
        }
      ],
      "name": "balanceOfPANA",
      "outputs": [
        {
          "internalType": "uint256",
          "name": "",
          "type": "uint256"
        }
      ],
      "stateMutability": "view",
      "type": "function"
    },
    {
      "inputs": [
        {
          "internalType": "uint256",
          "name": "_amount",
          "type": "uint256"
        }
      ],
      "name": "balanceTo",
      "outputs": [
        {
          "internalType": "uint256",
          "name": "",
          "type": "uint256"
        }
      ],
      "stateMutability": "view",
      "type": "function"
    },
    {
      "inputs": [
        {
          "internalType": "address",
          "name": "_from",
          "type": "address"
        },
        {
          "internalType": "uint256",
          "name": "_amount",
          "type": "uint256"
        }
      ],
      "name": "burn",
      "outputs": [],
      "stateMutability": "nonpayable",
      "type": "function"
    },
    {
      "inputs": [
        {
          "internalType": "address",
          "name": "",
          "type": "address"
        },
        {
          "internalType": "uint256",
          "name": "",
          "type": "uint256"
        }
      ],
      "name": "checkpoints",
      "outputs": [
        {
          "internalType": "uint256",
          "name": "fromBlock",
          "type": "uint256"
        },
        {
          "internalType": "uint256",
          "name": "votes",
          "type": "uint256"
        }
      ],
      "stateMutability": "view",
      "type": "function"
    },
    {
      "inputs": [],
      "name": "decimals",
      "outputs": [
        {
          "internalType": "uint8",
          "name": "",
          "type": "uint8"
        }
      ],
      "stateMutability": "view",
      "type": "function"
    },
    {
      "inputs": [
        {
          "internalType": "address",
          "name": "spender",
          "type": "address"
        },
        {
          "internalType": "uint256",
          "name": "subtractedValue",
          "type": "uint256"
        }
      ],
      "name": "decreaseAllowance",
      "outputs": [
        {
          "internalType": "bool",
          "name": "",
          "type": "bool"
        }
      ],
      "stateMutability": "nonpayable",
      "type": "function"
    },
    {
      "inputs": [
        {
          "internalType": "address",
          "name": "delegatee",
          "type": "address"
        }
      ],
      "name": "delegate",
      "outputs": [],
      "stateMutability": "nonpayable",
      "type": "function"
    },
    {
      "inputs": [
        {
          "internalType": "address",
          "name": "",
          "type": "address"
        }
      ],
      "name": "delegates",
      "outputs": [
        {
          "internalType": "address",
          "name": "",
          "type": "address"
        }
      ],
      "stateMutability": "view",
      "type": "function"
    },
    {
      "inputs": [
        {
          "internalType": "address",
          "name": "account",
          "type": "address"
        }
      ],
      "name": "getCurrentVotes",
      "outputs": [
        {
          "internalType": "uint256",
          "name": "",
          "type": "uint256"
        }
      ],
      "stateMutability": "view",
      "type": "function"
    },
    {
      "inputs": [
        {
          "internalType": "address",
          "name": "account",
          "type": "address"
        },
        {
          "internalType": "uint256",
          "name": "blockNumber",
          "type": "uint256"
        }
      ],
      "name": "getPriorVotes",
      "outputs": [
        {
          "internalType": "uint256",
          "name": "",
          "type": "uint256"
        }
      ],
      "stateMutability": "view",
      "type": "function"
    },
    {
      "inputs": [
        {
          "internalType": "address",
          "name": "spender",
          "type": "address"
        },
        {
          "internalType": "uint256",
          "name": "addedValue",
          "type": "uint256"
        }
      ],
      "name": "increaseAllowance",
      "outputs": [
        {
          "internalType": "bool",
          "name": "",
          "type": "bool"
        }
      ],
      "stateMutability": "nonpayable",
      "type": "function"
    },
    {
      "inputs": [],
      "name": "index",
      "outputs": [
        {
          "internalType": "uint256",
          "name": "",
          "type": "uint256"
        }
      ],
      "stateMutability": "view",
      "type": "function"
    },
    {
      "inputs": [
        {
          "internalType": "address",
          "name": "_staking",
          "type": "address"
        },
        {
          "internalType": "address",
          "name": "_sPana",
          "type": "address"
        }
      ],
      "name": "migrate",
      "outputs": [],
      "stateMutability": "nonpayable",
      "type": "function"
    },
    {
      "inputs": [],
      "name": "migrated",
      "outputs": [
        {
          "internalType": "bool",
          "name": "",
          "type": "bool"
        }
      ],
      "stateMutability": "view",
      "type": "function"
    },
    {
      "inputs": [
        {
          "internalType": "address",
          "name": "_to",
          "type": "address"
        },
        {
          "internalType": "uint256",
          "name": "_amount",
          "type": "uint256"
        }
      ],
      "name": "mint",
      "outputs": [],
      "stateMutability": "nonpayable",
      "type": "function"
    },
    {
      "inputs": [],
      "name": "name",
      "outputs": [
        {
          "internalType": "string",
          "name": "",
          "type": "string"
        }
      ],
      "stateMutability": "view",
      "type": "function"
    },
    {
      "inputs": [
        {
          "internalType": "address",
          "name": "",
          "type": "address"
        }
      ],
      "name": "numCheckpoints",
      "outputs": [
        {
          "internalType": "uint256",
          "name": "",
          "type": "uint256"
        }
      ],
      "stateMutability": "view",
      "type": "function"
    },
    {
      "inputs": [],
      "name": "sPANA",
      "outputs": [
        {
          "internalType": "contract IsPana",
          "name": "",
          "type": "address"
        }
      ],
      "stateMutability": "view",
      "type": "function"
    },
    {
      "inputs": [],
      "name": "symbol",
      "outputs": [
        {
          "internalType": "string",
          "name": "",
          "type": "string"
        }
      ],
      "stateMutability": "view",
      "type": "function"
    },
    {
      "inputs": [],
      "name": "totalSupply",
      "outputs": [
        {
          "internalType": "uint256",
          "name": "",
          "type": "uint256"
        }
      ],
      "stateMutability": "view",
      "type": "function"
    },
    {
      "inputs": [
        {
          "internalType": "address",
          "name": "_to",
          "type": "address"
        },
        {
          "internalType": "uint256",
          "name": "_amount",
          "type": "uint256"
        }
      ],
      "name": "transfer",
      "outputs": [
        {
          "internalType": "bool",
          "name": "",
          "type": "bool"
        }
      ],
      "stateMutability": "nonpayable",
      "type": "function"
    },
    {
      "inputs": [
        {
          "internalType": "address",
          "name": "sender",
          "type": "address"
        },
        {
          "internalType": "address",
          "name": "recipient",
          "type": "address"
        },
        {
          "internalType": "uint256",
          "name": "amount",
          "type": "uint256"
        }
      ],
      "name": "transferFrom",
      "outputs": [
        {
          "internalType": "bool",
          "name": "",
          "type": "bool"
        }
      ],
      "stateMutability": "nonpayable",
      "type": "function"
    }
  ],
  "transactionHash": "0x60cc90e812530d6a6cb03fa4fa191cd5aa472b05f47f356818fe6f531075c37c",
  "args": [
    "0x2d494Cb0a923009C471B9512571048560a44556A",
    "0xe75c7C6C1491B91887FB4b72C4F42b0cD6B6eeBC"
  ],
  "solcInputHash": "e0cf5b0272a43d8bcfbeb7c6531464a4",
  "bytecode": "0x60a06040523480156200001157600080fd5b506040516200202638038062002026833981810160405260408110156200003757600080fd5b5080516020918201516040805180820182526006808252654b617273686160d01b8287019081528351808501909452908352654b415253484160d01b9583019590955280519394929390926012916200009391600391620001cb565b508151620000a9906004906020850190620001cb565b5060f81b7fff000000000000000000000000000000000000000000000000000000000000001660805250506001600160a01b03821662000130576040805162461bcd60e51b815260206004820152601660248201527f5a65726f20616464726573733a204d69677261746f7200000000000000000000604482015290519081900360640190fd5b600680546001600160a01b0319166001600160a01b03848116919091179091558116620001a4576040805162461bcd60e51b815260206004820152601360248201527f5a65726f20616464726573733a207350414e4100000000000000000000000000604482015290519081900360640190fd5b600580546001600160a01b0319166001600160a01b03929092169190911790555062000277565b828054600181600116156101000203166002900490600052602060002090601f0160209004810192826200020357600085556200024e565b82601f106200021e57805160ff19168380011785556200024e565b828001600101855582156200024e579182015b828111156200024e57825182559160200191906001019062000231565b506200025c92915062000260565b5090565b5b808211156200025c576000815560010162000261565b60805160f81c611d916200029560003980610ada5250611d916000f3fe608060405234801561001057600080fd5b50600436106101b95760003560e01c80635c19a95c116100f95780639fef32cc11610097578063a9059cbb11610071578063a9059cbb14610550578063b4b5ea571461057c578063dd62ed3e146105a2578063fa8d1820146105d0576101b9565b80639fef32cc146104ff578063a457c2d714610507578063a824876814610533576101b9565b806370a08231116100d357806370a0823114610479578063782d6fe11461049f57806395d89b41146104cb5780639dc29fac146104d3576101b9565b80635c19a95c1461041057806366a5236c146104365780636fcfff4514610453576101b9565b806323b872dd11610166578063313ce56711610140578063313ce56714610374578063395093511461039257806340c10f19146103be578063587cde1e146103ea576101b9565b806323b872dd1461032e5780632986c0e5146103645780632c678c641461036c576101b9565b80631068361f116101975780631068361f146102c057806318160ddd146102f057806319d40b081461030a576101b9565b806306fdde03146101be578063095ea7b31461023b5780630cdfebfa1461027b575b600080fd5b6101c66105f6565b6040805160208082528351818301528351919283929083019185019080838360005b838110156102005781810151838201526020016101e8565b50505050905090810190601f16801561022d5780820380516001836020036101000a031916815260200191505b509250505060405180910390f35b6102676004803603604081101561025157600080fd5b506001600160a01b03813516906020013561068c565b604080519115158252519081900360200190f35b6102a76004803603604081101561029157600080fd5b506001600160a01b0381351690602001356106a3565b6040805192835260208301919091528051918290030190f35b6102ee600480360360408110156102d657600080fd5b506001600160a01b03813581169160200135166106c7565b005b6102f8610910565b60408051918252519081900360200190f35b610312610916565b604080516001600160a01b039092168252519081900360200190f35b6102676004803603606081101561034457600080fd5b506001600160a01b03813581169160208101359091169060400135610925565b6102f8610a52565b610267610ac8565b61037c610ad8565b6040805160ff9092168252519081900360200190f35b610267600480360360408110156103a857600080fd5b506001600160a01b038135169060200135610afc565b6102ee600480360360408110156103d457600080fd5b506001600160a01b038135169060200135610b37565b6103126004803603602081101561040057600080fd5b50356001600160a01b0316610b94565b6102ee6004803603602081101561042657600080fd5b50356001600160a01b0316610baf565b6102f86004803603602081101561044c57600080fd5b5035610bbc565b6102f86004803603602081101561046957600080fd5b50356001600160a01b0316610be7565b6102f86004803603602081101561048f57600080fd5b50356001600160a01b0316610bf9565b6102f8600480360360408110156104b557600080fd5b506001600160a01b038135169060200135610c14565b6101c6610dd6565b6102ee600480360360408110156104e957600080fd5b506001600160a01b038135169060200135610e37565b610312610fa2565b6102676004803603604081101561051d57600080fd5b506001600160a01b038135169060200135610fb1565b6102f86004803603602081101561054957600080fd5b5035611000565b6102676004803603604081101561056657600080fd5b506001600160a01b038135169060200135611025565b6102f86004803603602081101561059257600080fd5b50356001600160a01b0316611148565b6102f8600480360360408110156105b857600080fd5b506001600160a01b038135811691602001351661119f565b6102f8600480360360208110156105e657600080fd5b50356001600160a01b03166111ca565b60038054604080516020601f60026000196101006001881615020190951694909404938401819004810282018101909252828152606093909290918301828280156106825780601f1061065757610100808354040283529160200191610682565b820191906000526020600020905b81548152906001019060200180831161066557829003601f168201915b5050505050905090565b60006106993384846111dd565b5060015b92915050565b60076020908152600092835260408084209091529082529020805460019091015482565b6006546001600160a01b03163314610716576040805162461bcd60e51b815260206004820152600d60248201526c13db9b1e48185c1c1c9bdd9959609a1b604482015290519081900360640190fd5b600654600160a01b900460ff1615610775576040805162461bcd60e51b815260206004820152600860248201527f4d69677261746564000000000000000000000000000000000000000000000000604482015290519081900360640190fd5b600680547fffffffffffffffffffffff00ffffffffffffffffffffffffffffffffffffffff16600160a01b17908190556001600160a01b0383811691161415610805576040805162461bcd60e51b815260206004820152601060248201527f496e76616c696420617267756d656e7400000000000000000000000000000000604482015290519081900360640190fd5b6001600160a01b038216610860576040805162461bcd60e51b815260206004820152601260248201527f5a65726f206164647265737320666f756e640000000000000000000000000000604482015290519081900360640190fd5b6006805473ffffffffffffffffffffffffffffffffffffffff19166001600160a01b038481169190911790915581166108e0576040805162461bcd60e51b815260206004820152601260248201527f5a65726f206164647265737320666f756e640000000000000000000000000000604482015290519081900360640190fd5b6005805473ffffffffffffffffffffffffffffffffffffffff19166001600160a01b039290921691909117905550565b60025490565b6006546001600160a01b031681565b60008161093185610bf9565b101561096e5760405162461bcd60e51b8152600401808060200182810382526026815260200180611c366026913960400191505060405180910390fd5b61098961097a83611000565b610983866111ca565b906112c9565b6005546040805163313bc71360e21b81526001600160a01b0388811660048301529151919092169163c4ef1c4c916024808301926020929190829003018186803b1580156109d657600080fd5b505afa1580156109ea573d6000803e3d6000fd5b505050506040513d6020811015610a0057600080fd5b50511115610a3f5760405162461bcd60e51b8152600401808060200182810382526028815260200180611d146028913960400191505060405180910390fd5b610a4a84848461130b565b949350505050565b60055460408051632986c0e560e01b815290516000926001600160a01b031691632986c0e5916004808301926020929190829003018186803b158015610a9757600080fd5b505afa158015610aab573d6000803e3d6000fd5b505050506040513d6020811015610ac157600080fd5b5051905090565b600654600160a01b900460ff1681565b7f000000000000000000000000000000000000000000000000000000000000000090565b3360008181526001602090815260408083206001600160a01b03871684529091528120549091610699918590610b32908661136f565b6111dd565b6006546001600160a01b03163314610b86576040805162461bcd60e51b815260206004820152600d60248201526c13db9b1e48185c1c1c9bdd9959609a1b604482015290519081900360640190fd5b610b9082826113c9565b5050565b6009602052600090815260409020546001600160a01b031681565b610bb933826114b9565b50565b600061069d610bc9610a52565b610be1610bd4610ad8565b859060ff16600a0a611545565b9061159e565b60086020526000908152604090205481565b6001600160a01b031660009081526020819052604090205490565b6000438210610c545760405162461bcd60e51b8152600401808060200182810382526029815260200180611c5c6029913960400191505060405180910390fd5b6001600160a01b03831660009081526008602052604090205480610c7c57600091505061069d565b6001600160a01b0384166000908152600760209081526040808320600019850184529091529020548310610cdc576001600160a01b038416600090815260076020908152604080832060001990940183529290522060010154905061069d565b6001600160a01b0384166000908152600760209081526040808320838052909152902054831015610d1157600091505061069d565b600060001982015b81811115610da6576002828203048103610d31611bb4565b506001600160a01b03871660009081526007602090815260408083208484528252918290208251808401909352805480845260019091015491830191909152871415610d875760200151945061069d9350505050565b8051871115610d9857819350610d9f565b6001820392505b5050610d19565b506001600160a01b0385166000908152600760209081526040808320938352929052206001015491505092915050565b60048054604080516020601f60026000196101006001881615020190951694909404938401819004810282018101909252828152606093909290918301828280156106825780601f1061065757610100808354040283529160200191610682565b6006546001600160a01b03163314610e86576040805162461bcd60e51b815260206004820152600d60248201526c13db9b1e48185c1c1c9bdd9959609a1b604482015290519081900360640190fd5b80610e9083610bf9565b1015610ecd5760405162461bcd60e51b8152600401808060200182810382526022815260200180611bf26022913960400191505060405180910390fd5b610ee2610ed982611000565b610983846111ca565b6005546040805163313bc71360e21b81526001600160a01b0386811660048301529151919092169163c4ef1c4c916024808301926020929190829003018186803b158015610f2f57600080fd5b505afa158015610f43573d6000803e3d6000fd5b505050506040513d6020811015610f5957600080fd5b50511115610f985760405162461bcd60e51b8152600401808060200182810382526028815260200180611d146028913960400191505060405180910390fd5b610b9082826115e0565b6005546001600160a01b031681565b60006106993384610b3285604051806060016040528060258152602001611d60602591393360009081526001602090815260408083206001600160a01b038d16845290915290205491906116dc565b600061069d61100d610ad8565b60ff16600a0a610be161101e610a52565b8590611545565b60008161103133610bf9565b101561106e5760405162461bcd60e51b8152600401808060200182810382526026815260200180611c366026913960400191505060405180910390fd5b61108361107a83611000565b610983336111ca565b6005546040805163313bc71360e21b815233600482015290516001600160a01b039092169163c4ef1c4c91602480820192602092909190829003018186803b1580156110ce57600080fd5b505afa1580156110e2573d6000803e3d6000fd5b505050506040513d60208110156110f857600080fd5b505111156111375760405162461bcd60e51b8152600401808060200182810382526028815260200180611d146028913960400191505060405180910390fd5b6111418383611773565b9392505050565b6001600160a01b0381166000908152600860205260408120548061116d576000611141565b6001600160a01b0383166000908152600760209081526040808320600019850184529091529020600101549392505050565b6001600160a01b03918216600090815260016020908152604080832093909416825291909152205490565b600061069d6111d883610bf9565b611000565b6001600160a01b0383166112225760405162461bcd60e51b8152600401808060200182810382526024815260200180611d3c6024913960400191505060405180910390fd5b6001600160a01b0382166112675760405162461bcd60e51b8152600401808060200182810382526022815260200180611c146022913960400191505060405180910390fd5b6001600160a01b03808416600081815260016020908152604080832094871680845294825291829020859055815185815291517f8c5be1e5ebec7d5bd14f71427d1e84f3dd0314c0f7b2291e5b200ac8c7c3b9259281900390910190a3505050565b600061114183836040518060400160405280601e81526020017f536166654d6174683a207375627472616374696f6e206f766572666c6f7700008152506116dc565b600061131884848461177c565b6113658433610b3285604051806060016040528060288152602001611ca6602891396001600160a01b038a16600090815260016020908152604080832033845290915290205491906116dc565b5060019392505050565b600082820183811015611141576040805162461bcd60e51b815260206004820152601b60248201527f536166654d6174683a206164646974696f6e206f766572666c6f770000000000604482015290519081900360640190fd5b6001600160a01b038216611424576040805162461bcd60e51b815260206004820152601f60248201527f45524332303a206d696e7420746f20746865207a65726f206164647265737300604482015290519081900360640190fd5b611430600083836118d7565b60025461143d908261136f565b6002556001600160a01b038216600090815260208190526040902054611463908261136f565b6001600160a01b0383166000818152602081815260408083209490945583518581529351929391927fddf252ad1be2c89b69c2b068fc378daa952ba7f163c4a11628f55a4df523b3ef9281900390910190a35050565b6001600160a01b0380831660008181526009602081815260408084208054858452828620549490935287871673ffffffffffffffffffffffffffffffffffffffff198416811790915590519190951694919391928592917f3134e8a2e6d97e929a7e54011ea5485d7d196dd5f0ba4d4ef95803e8e3fc257f9190a461153f82848361190e565b50505050565b6000826115545750600061069d565b8282028284828161156157fe5b04146111415760405162461bcd60e51b8152600401808060200182810382526021815260200180611c856021913960400191505060405180910390fd5b600061114183836040518060400160405280601a81526020017f536166654d6174683a206469766973696f6e206279207a65726f000000000000815250611a3b565b6001600160a01b0382166116255760405162461bcd60e51b8152600401808060200182810382526021815260200180611cce6021913960400191505060405180910390fd5b611631826000836118d7565b61166e81604051806060016040528060228152602001611bf2602291396001600160a01b03851660009081526020819052604090205491906116dc565b6001600160a01b03831660009081526020819052604090205560025461169490826112c9565b6002556040805182815290516000916001600160a01b038516917fddf252ad1be2c89b69c2b068fc378daa952ba7f163c4a11628f55a4df523b3ef9181900360200190a35050565b6000818484111561176b5760405162461bcd60e51b81526004018080602001828103825283818151815260200191508051906020019080838360005b83811015611730578181015183820152602001611718565b50505050905090810190601f16801561175d5780820380516001836020036101000a031916815260200191505b509250505060405180910390fd5b505050900390565b60006106993384845b6001600160a01b0383166117c15760405162461bcd60e51b8152600401808060200182810382526025815260200180611cef6025913960400191505060405180910390fd5b6001600160a01b0382166118065760405162461bcd60e51b8152600401808060200182810382526023815260200180611bcf6023913960400191505060405180910390fd5b6118118383836118d7565b61184e81604051806060016040528060268152602001611c36602691396001600160a01b03861660009081526020819052604090205491906116dc565b6001600160a01b03808516600090815260208190526040808220939093559084168152205461187d908261136f565b6001600160a01b038084166000818152602081815260409182902094909455805185815290519193928716927fddf252ad1be2c89b69c2b068fc378daa952ba7f163c4a11628f55a4df523b3ef92918290030190a3505050565b6001600160a01b038084166000908152600960205260408082205485841683529120546119099291821691168361190e565b505050565b816001600160a01b0316836001600160a01b0316141580156119305750600081115b15611909576001600160a01b038316156119b6576001600160a01b038316600090815260086020526040812054908161196a576000611996565b6001600160a01b0385166000908152600760209081526040808320600019860184529091529020600101545b905060006119a482856112c9565b90506119b286848484611aaf565b5050505b6001600160a01b03821615611909576001600160a01b03821660009081526008602052604081205490816119eb576000611a17565b6001600160a01b0384166000908152600760209081526040808320600019860184529091529020600101545b90506000611a25828561136f565b9050611a3385848484611aaf565b505050505050565b60008183611a8a5760405162461bcd60e51b8152602060048201818152835160248401528351909283926044909101919085019080838360008315611730578181015183820152602001611718565b506000838581611a9657fe5b049050838581611aa257fe5b06818502018514610a4a57fe5b600083118015611ae557506001600160a01b03841660009081526007602090815260408083206000198701845290915290205443145b15611b1c576001600160a01b0384166000908152600760209081526040808320600019870184529091529020600101819055611b6b565b60408051808201825243815260208082018481526001600160a01b0388166000818152600784528581208982528452858120945185559151600194850155815260089091529190912090840190555b604080518381526020810183905281516001600160a01b038716927fdec2bacdd2f05b59de34da9b523dff8be42e5e38e818c82fdb0bae774387a724928290030190a250505050565b60405180604001604052806000815260200160008152509056fe45524332303a207472616e7366657220746f20746865207a65726f206164647265737345524332303a206275726e20616d6f756e7420657863656564732062616c616e636545524332303a20617070726f766520746f20746865207a65726f206164647265737345524332303a207472616e7366657220616d6f756e7420657863656564732062616c616e63654b41525348413a3a6765745072696f72566f7465733a206e6f74207965742064657465726d696e6564536166654d6174683a206d756c7469706c69636174696f6e206f766572666c6f7745524332303a207472616e7366657220616d6f756e74206578636565647320616c6c6f77616e636545524332303a206275726e2066726f6d20746865207a65726f206164647265737345524332303a207472616e736665722066726f6d20746865207a65726f20616464726573734b41525348413a20696e73756666696369656e742062616c616e63652064756520746f206465627445524332303a20617070726f76652066726f6d20746865207a65726f206164647265737345524332303a2064656372656173656420616c6c6f77616e63652062656c6f77207a65726fa164736f6c6343000705000a",
  "devdoc": {
    "kind": "dev",
    "methods": {
      "allowance(address,address)": {
        "details": "Returns the remaining number of tokens that `spender` will be allowed to spend on behalf of `owner` through {transferFrom}. This is zero by default. This value changes when {approve} or {transferFrom} are called."
      },
      "approve(address,uint256)": {
        "details": "Sets `amount` as the allowance of `spender` over the caller's tokens. Returns a boolean value indicating whether the operation succeeded. IMPORTANT: Beware that changing an allowance with this method brings the risk that someone may use both the old and the new allowance by unfortunate transaction ordering. One possible solution to mitigate this race condition is to first reduce the spender's allowance to 0 and set the desired value afterwards: https://github.com/ethereum/EIPs/issues/20#issuecomment-263524729 Emits an {Approval} event."
      },
      "balanceFrom(uint256)": {
        "params": {
          "_amount": "uint"
        },
        "returns": {
          "_0": "uint"
        }
      },
      "balanceOf(address)": {
        "details": "Returns the amount of tokens owned by `account`."
      },
      "balanceOfPANA(address)": {
        "params": {
          "_address": "address"
        },
        "returns": {
          "_0": "uint"
        }
      },
      "balanceTo(uint256)": {
        "params": {
          "_amount": "uint"
        },
        "returns": {
          "_0": "uint"
        }
      },
      "burn(address,uint256)": {
        "params": {
          "_amount": "uint",
          "_from": "address"
        }
      },
      "delegate(address)": {
        "params": {
          "delegatee": "The address to delegate votes to"
        }
      },
      "getCurrentVotes(address)": {
        "params": {
          "account": "The address to get votes balance"
        },
        "returns": {
          "_0": "The number of current votes for `account`"
        }
      },
      "getPriorVotes(address,uint256)": {
        "details": "Block number must be a finalized block or else this function will revert to prevent misinformation.",
        "params": {
          "account": "The address of the account to check",
          "blockNumber": "The block number to get the vote balance at"
        },
        "returns": {
          "_0": "The number of votes the account had as of the given block"
        }
      },
      "migrate(address,address)": {
        "params": {
          "_sPana": "address",
          "_staking": "address"
        }
      },
      "mint(address,uint256)": {
        "params": {
          "_amount": "uint",
          "_to": "address"
        }
      },
      "totalSupply()": {
        "details": "Returns the amount of tokens in existence."
      },
      "transfer(address,uint256)": {
        "params": {
          "_amount": "uint",
          "_to": "address"
        }
      },
      "transferFrom(address,address,uint256)": {
        "params": {
          "amount": "uint",
          "recipient": "address",
          "sender": "address"
        }
      }
    },
    "version": 1
  },
  "userdoc": {
    "kind": "user",
    "methods": {
      "balanceFrom(uint256)": {
        "notice": "converts KARSHA amount to PANA"
      },
      "balanceOfPANA(address)": {
        "notice": "converts KARSHA balance to PANA"
      },
      "balanceTo(uint256)": {
        "notice": "converts PANA amount to KARSHA"
      },
      "burn(address,uint256)": {
        "notice": "burn KARSHA"
      },
      "delegate(address)": {
        "notice": "Delegate votes from `msg.sender` to `delegatee`"
      },
      "getCurrentVotes(address)": {
        "notice": "Gets the current votes balance for `account`"
      },
      "getPriorVotes(address,uint256)": {
        "notice": "Determine the prior number of votes for an account as of a block number"
      },
      "index()": {
        "notice": "pull index from sPANA token"
      },
      "migrate(address,address)": {
        "notice": "transfer mint rights from migrator to stakingcan only be done once, at the time of contract migration"
      },
      "mint(address,uint256)": {
        "notice": "mint KARSHA"
      },
      "transfer(address,uint256)": {
        "notice": "transfer KARSHA"
      },
      "transferFrom(address,address,uint256)": {
        "notice": "transferFrom KARSHA"
      }
    },
    "version": 1
  },
  "storageLayout": {
    "storage": [
      {
        "astId": 9729,
        "contract": "contracts/tokens/regular/Karsha.sol:Karsha",
        "label": "_balances",
        "offset": 0,
        "slot": "0",
        "type": "t_mapping(t_address,t_uint256)"
      },
      {
        "astId": 9735,
        "contract": "contracts/tokens/regular/Karsha.sol:Karsha",
        "label": "_allowances",
        "offset": 0,
        "slot": "1",
        "type": "t_mapping(t_address,t_mapping(t_address,t_uint256))"
      },
      {
        "astId": 9737,
        "contract": "contracts/tokens/regular/Karsha.sol:Karsha",
        "label": "_totalSupply",
        "offset": 0,
        "slot": "2",
        "type": "t_uint256"
      },
      {
        "astId": 9739,
        "contract": "contracts/tokens/regular/Karsha.sol:Karsha",
        "label": "_name",
        "offset": 0,
        "slot": "3",
        "type": "t_string_storage"
      },
      {
        "astId": 9741,
        "contract": "contracts/tokens/regular/Karsha.sol:Karsha",
        "label": "_symbol",
        "offset": 0,
        "slot": "4",
        "type": "t_string_storage"
      },
      {
        "astId": 6015,
        "contract": "contracts/tokens/regular/Karsha.sol:Karsha",
        "label": "sPANA",
        "offset": 0,
        "slot": "5",
        "type": "t_contract(IsPana)2409"
      },
      {
        "astId": 6017,
        "contract": "contracts/tokens/regular/Karsha.sol:Karsha",
        "label": "approved",
        "offset": 0,
        "slot": "6",
        "type": "t_address"
      },
      {
        "astId": 6019,
        "contract": "contracts/tokens/regular/Karsha.sol:Karsha",
        "label": "migrated",
        "offset": 20,
        "slot": "6",
        "type": "t_bool"
      },
      {
        "astId": 6025,
        "contract": "contracts/tokens/regular/Karsha.sol:Karsha",
        "label": "checkpoints",
        "offset": 0,
        "slot": "7",
        "type": "t_mapping(t_address,t_mapping(t_uint256,t_struct(Checkpoint)6013_storage))"
      },
      {
        "astId": 6029,
        "contract": "contracts/tokens/regular/Karsha.sol:Karsha",
        "label": "numCheckpoints",
        "offset": 0,
        "slot": "8",
        "type": "t_mapping(t_address,t_uint256)"
      },
      {
        "astId": 6033,
        "contract": "contracts/tokens/regular/Karsha.sol:Karsha",
        "label": "delegates",
        "offset": 0,
        "slot": "9",
        "type": "t_mapping(t_address,t_address)"
      }
    ],
    "types": {
      "t_address": {
        "encoding": "inplace",
        "label": "address",
        "numberOfBytes": "20"
      },
      "t_bool": {
        "encoding": "inplace",
        "label": "bool",
        "numberOfBytes": "1"
      },
      "t_contract(IsPana)2409": {
        "encoding": "inplace",
        "label": "contract IsPana",
        "numberOfBytes": "20"
      },
      "t_mapping(t_address,t_address)": {
        "encoding": "mapping",
        "key": "t_address",
        "label": "mapping(address => address)",
        "numberOfBytes": "32",
        "value": "t_address"
      },
      "t_mapping(t_address,t_mapping(t_address,t_uint256))": {
        "encoding": "mapping",
        "key": "t_address",
        "label": "mapping(address => mapping(address => uint256))",
        "numberOfBytes": "32",
        "value": "t_mapping(t_address,t_uint256)"
      },
      "t_mapping(t_address,t_mapping(t_uint256,t_struct(Checkpoint)6013_storage))": {
        "encoding": "mapping",
        "key": "t_address",
        "label": "mapping(address => mapping(uint256 => struct Karsha.Checkpoint))",
        "numberOfBytes": "32",
        "value": "t_mapping(t_uint256,t_struct(Checkpoint)6013_storage)"
      },
      "t_mapping(t_address,t_uint256)": {
        "encoding": "mapping",
        "key": "t_address",
        "label": "mapping(address => uint256)",
        "numberOfBytes": "32",
        "value": "t_uint256"
      },
      "t_mapping(t_uint256,t_struct(Checkpoint)6013_storage)": {
        "encoding": "mapping",
        "key": "t_uint256",
        "label": "mapping(uint256 => struct Karsha.Checkpoint)",
        "numberOfBytes": "32",
        "value": "t_struct(Checkpoint)6013_storage"
      },
      "t_string_storage": {
        "encoding": "bytes",
        "label": "string",
        "numberOfBytes": "32"
      },
      "t_struct(Checkpoint)6013_storage": {
        "encoding": "inplace",
        "label": "struct Karsha.Checkpoint",
        "members": [
          {
            "astId": 6010,
            "contract": "contracts/tokens/regular/Karsha.sol:Karsha",
            "label": "fromBlock",
            "offset": 0,
            "slot": "0",
            "type": "t_uint256"
          },
          {
            "astId": 6012,
            "contract": "contracts/tokens/regular/Karsha.sol:Karsha",
            "label": "votes",
            "offset": 0,
            "slot": "1",
            "type": "t_uint256"
          }
        ],
        "numberOfBytes": "64"
      },
      "t_uint256": {
        "encoding": "inplace",
        "label": "uint256",
        "numberOfBytes": "32"
      }
    }
  }
}