{
  "address": "0xeaE2f43d3022473064083c8E2909d41a189A6Cdb",
  "abi": [
    {
      "inputs": [
        {
          "internalType": "address",
          "name": "_PANA",
          "type": "address"
        },
        {
          "internalType": "address",
          "name": "_pair",
          "type": "address"
        },
        {
          "internalType": "address",
          "name": "_router",
          "type": "address"
        },
        {
          "internalType": "address",
          "name": "_supplyControlCaller",
          "type": "address"
        },
        {
          "internalType": "address",
          "name": "_authority",
          "type": "address"
        }
      ],
      "stateMutability": "nonpayable",
      "type": "constructor"
    },
    {
      "anonymous": false,
      "inputs": [
        {
          "indexed": true,
          "internalType": "contract IPanaAuthority",
          "name": "authority",
          "type": "address"
        }
      ],
      "name": "AuthorityUpdated",
      "type": "event"
    },
    {
      "anonymous": false,
      "inputs": [
        {
          "indexed": false,
          "internalType": "uint256",
          "name": "totalSupply",
          "type": "uint256"
        },
        {
          "indexed": false,
          "internalType": "uint256",
          "name": "panaInPool",
          "type": "uint256"
        },
        {
          "indexed": false,
          "internalType": "uint256",
          "name": "slp",
          "type": "uint256"
        },
        {
          "indexed": false,
          "internalType": "uint256",
          "name": "panaResidue",
          "type": "uint256"
        },
        {
          "indexed": false,
          "internalType": "uint256",
          "name": "tokenResidue",
          "type": "uint256"
        }
      ],
      "name": "Burnt",
      "type": "event"
    },
    {
      "anonymous": false,
      "inputs": [
        {
          "indexed": false,
          "internalType": "uint256",
          "name": "totalSupply",
          "type": "uint256"
        },
        {
          "indexed": false,
          "internalType": "uint256",
          "name": "old_lossRatio",
          "type": "uint256"
        },
        {
          "indexed": false,
          "internalType": "uint256",
          "name": "old_cf",
          "type": "uint256"
        },
        {
          "indexed": false,
          "internalType": "uint256",
          "name": "old_cc",
          "type": "uint256"
        },
        {
          "indexed": false,
          "internalType": "uint256",
          "name": "old_mslp",
          "type": "uint256"
        },
        {
          "indexed": false,
          "internalType": "uint256",
          "name": "lossRatio",
          "type": "uint256"
        },
        {
          "indexed": false,
          "internalType": "uint256",
          "name": "cf",
          "type": "uint256"
        },
        {
          "indexed": false,
          "internalType": "uint256",
          "name": "cc",
          "type": "uint256"
        },
        {
          "indexed": false,
          "internalType": "uint256",
          "name": "mslp",
          "type": "uint256"
        }
      ],
      "name": "SetSupplyControlParams",
      "type": "event"
    },
    {
      "anonymous": false,
      "inputs": [
        {
          "indexed": false,
          "internalType": "uint256",
          "name": "totalSupply",
          "type": "uint256"
        },
        {
          "indexed": false,
          "internalType": "uint256",
          "name": "panaInPool",
          "type": "uint256"
        },
        {
          "indexed": false,
          "internalType": "uint256",
          "name": "slp",
          "type": "uint256"
        },
        {
          "indexed": false,
          "internalType": "uint256",
          "name": "panaSupplied",
          "type": "uint256"
        },
        {
          "indexed": false,
          "internalType": "uint256",
          "name": "panaResidue",
          "type": "uint256"
        },
        {
          "indexed": false,
          "internalType": "uint256",
          "name": "tokenResidue",
          "type": "uint256"
        }
      ],
      "name": "Supplied",
      "type": "event"
    },
    {
      "inputs": [
        {
          "internalType": "uint256",
          "name": "_pana",
          "type": "uint256"
        }
      ],
      "name": "add",
      "outputs": [],
      "stateMutability": "nonpayable",
      "type": "function"
    },
    {
      "inputs": [],
      "name": "authority",
      "outputs": [
        {
          "internalType": "contract IPanaAuthority",
          "name": "",
          "type": "address"
        }
      ],
      "stateMutability": "view",
      "type": "function"
    },
    {
      "inputs": [
        {
          "internalType": "uint256",
          "name": "_pana",
          "type": "uint256"
        },
        {
          "internalType": "uint256",
          "name": "_slp",
          "type": "uint256"
        }
      ],
      "name": "burn",
      "outputs": [],
      "stateMutability": "nonpayable",
      "type": "function"
    },
    {
      "inputs": [],
      "name": "cc",
      "outputs": [
        {
          "internalType": "uint256",
          "name": "",
          "type": "uint256"
        }
      ],
      "stateMutability": "view",
      "type": "function"
    },
    {
      "inputs": [],
      "name": "cf",
      "outputs": [
        {
          "internalType": "uint256",
          "name": "",
          "type": "uint256"
        }
      ],
      "stateMutability": "view",
      "type": "function"
    },
    {
      "inputs": [],
      "name": "cslp",
      "outputs": [
        {
          "internalType": "uint256",
          "name": "",
          "type": "uint256"
        }
      ],
      "stateMutability": "view",
      "type": "function"
    },
    {
      "inputs": [],
      "name": "disableSupplyControl",
      "outputs": [],
      "stateMutability": "nonpayable",
      "type": "function"
    },
    {
      "inputs": [],
      "name": "enableSupplyControl",
      "outputs": [],
      "stateMutability": "nonpayable",
      "type": "function"
    },
    {
      "inputs": [],
      "name": "getSupplyCeiling",
      "outputs": [
        {
          "internalType": "uint256",
          "name": "_panaSupplyCeiling",
          "type": "uint256"
        }
      ],
      "stateMutability": "view",
      "type": "function"
    },
    {
      "inputs": [],
      "name": "getSupplyControlAmount",
      "outputs": [
        {
          "internalType": "uint256",
          "name": "_pana",
          "type": "uint256"
        },
        {
          "internalType": "uint256",
          "name": "_slp",
          "type": "uint256"
        },
        {
          "internalType": "bool",
          "name": "_burn",
          "type": "bool"
        }
      ],
      "stateMutability": "view",
      "type": "function"
    },
    {
      "inputs": [],
      "name": "getSupplyFloor",
      "outputs": [
        {
          "internalType": "uint256",
          "name": "_panaSupplyFloor",
          "type": "uint256"
        }
      ],
      "stateMutability": "view",
      "type": "function"
    },
    {
      "inputs": [],
      "name": "getTargetSupply",
      "outputs": [
        {
          "internalType": "uint256",
          "name": "_targetPanaSupply",
          "type": "uint256"
        }
      ],
      "stateMutability": "view",
      "type": "function"
    },
    {
      "inputs": [],
      "name": "lastPanaInPool",
      "outputs": [
        {
          "internalType": "uint256",
          "name": "",
          "type": "uint256"
        }
      ],
      "stateMutability": "view",
      "type": "function"
    },
    {
      "inputs": [],
      "name": "lastTotalSupply",
      "outputs": [
        {
          "internalType": "uint256",
          "name": "",
          "type": "uint256"
        }
      ],
      "stateMutability": "view",
      "type": "function"
    },
    {
      "inputs": [],
      "name": "lossRatio",
      "outputs": [
        {
          "internalType": "uint256",
          "name": "",
          "type": "uint256"
        }
      ],
      "stateMutability": "view",
      "type": "function"
    },
    {
      "inputs": [],
      "name": "mslp",
      "outputs": [
        {
          "internalType": "uint256",
          "name": "",
          "type": "uint256"
        }
      ],
      "stateMutability": "view",
      "type": "function"
    },
    {
      "inputs": [],
      "name": "pair",
      "outputs": [
        {
          "internalType": "address",
          "name": "",
          "type": "address"
        }
      ],
      "stateMutability": "view",
      "type": "function"
    },
    {
      "inputs": [],
      "name": "paramsSet",
      "outputs": [
        {
          "internalType": "bool",
          "name": "",
          "type": "bool"
        }
      ],
      "stateMutability": "view",
      "type": "function"
    },
    {
      "inputs": [],
      "name": "router",
      "outputs": [
        {
          "internalType": "address",
          "name": "",
          "type": "address"
        }
      ],
      "stateMutability": "view",
      "type": "function"
    },
    {
      "inputs": [
        {
          "internalType": "contract IPanaAuthority",
          "name": "_newAuthority",
          "type": "address"
        }
      ],
      "name": "setAuthority",
      "outputs": [],
      "stateMutability": "nonpayable",
      "type": "function"
    },
    {
      "inputs": [
        {
          "internalType": "uint256",
          "name": "_lossRatio",
          "type": "uint256"
        },
        {
          "internalType": "uint256",
          "name": "_cf",
          "type": "uint256"
        },
        {
          "internalType": "uint256",
          "name": "_cc",
          "type": "uint256"
        },
        {
          "internalType": "uint256",
          "name": "_mslp",
          "type": "uint256"
        }
      ],
      "name": "setSupplyControlParams",
      "outputs": [],
      "stateMutability": "nonpayable",
      "type": "function"
    },
    {
      "inputs": [],
      "name": "supplyControlCaller",
      "outputs": [
        {
          "internalType": "address",
          "name": "",
          "type": "address"
        }
      ],
      "stateMutability": "view",
      "type": "function"
    },
    {
      "inputs": [],
      "name": "supplyControlEnabled",
      "outputs": [
        {
          "internalType": "bool",
          "name": "",
          "type": "bool"
        }
      ],
      "stateMutability": "view",
      "type": "function"
    }
  ],
  "transactionHash": "0x912f87753b8faf833dfcea27464157016fa5a8f0e7f5b5189c0dfa98eaa514e4",
  "args": [
    "0x1709AF1e73225E1a8BaC94D921d03449B9e331C6",
    "0x34E372dB783de192D78e99452ae0d94DFe8ab040",
    "0xb5a35165047fed7440D3a75909c0949bf1943696",
    "0xf7A4a8efC0153262bc449D021f268A63F4b49417",
    "0x17382e3636f8a5c590Ef07Ee6Ef82fc9Ea93e10F"
  ],
  "solcInputHash": "77dd4a31559746813e3615af0775ea75",
  "bytecode": "0x610100604052600c60c08190526b15539055551213d49256915160a21b60e090815262000030916000919062000411565b503480156200003e57600080fd5b50604051620029bb380380620029bb8339810160408190526200006191620004d4565b600180546001600160a01b0319166001600160a01b0383169081179091556040518291907f2f658b440c35314f52658ea8a740e05b284cdc84dc9ae01e891f21b8933e7cad90600090a2506001600160a01b038516620000fd5760405162461bcd60e51b81526020600482015260126024820152715a65726f20616464726573733a2050414e4160701b60448201526064015b60405180910390fd5b6001600160a01b0384166200014a5760405162461bcd60e51b81526020600482015260126024820152712d32b9379030b2323932b9b99d102820a4a960711b6044820152606401620000f4565b6001600160a01b038316620001a25760405162461bcd60e51b815260206004820152601460248201527f5a65726f20616464726573733a20524f555445520000000000000000000000006044820152606401620000f4565b6001600160a01b038216620001fa5760405162461bcd60e51b815260206004820152601460248201527f5a65726f20616464726573733a2043414c4c45520000000000000000000000006044820152606401620000f4565b6001600160a01b038116620002525760405162461bcd60e51b815260206004820152601760248201527f5a65726f20616464726573733a20415554484f524954590000000000000000006044820152606401620000f4565b846001600160a01b03166080816001600160a01b0316815250506080516001600160a01b0316846001600160a01b0316630dfe16816040518163ffffffff1660e01b8152600401602060405180830381865afa158015620002b7573d6000803e3d6000fd5b505050506040513d601f19601f82011682018060405250810190620002dd919062000544565b6001600160a01b0316146200035757836001600160a01b0316630dfe16816040518163ffffffff1660e01b8152600401602060405180830381865afa1580156200032b573d6000803e3d6000fd5b505050506040513d601f19601f8201168201806040525081019062000351919062000544565b620003bc565b836001600160a01b031663d21220a76040518163ffffffff1660e01b8152600401602060405180830381865afa15801562000396573d6000803e3d6000fd5b505050506040513d601f19601f82011682018060405250810190620003bc919062000544565b6001600160a01b0390811660a052600280549582166001600160a01b031996871617905560038054948216949095169390931790935560048054600161ff0160a01b0319169190921617905550620005a69050565b8280546200041f9062000569565b90600052602060002090601f0160209004810192826200044357600085556200048e565b82601f106200045e57805160ff19168380011785556200048e565b828001600101855582156200048e579182015b828111156200048e57825182559160200191906001019062000471565b506200049c929150620004a0565b5090565b5b808211156200049c5760008155600101620004a1565b80516001600160a01b0381168114620004cf57600080fd5b919050565b600080600080600060a08688031215620004ed57600080fd5b620004f886620004b7565b94506200050860208701620004b7565b93506200051860408701620004b7565b92506200052860608701620004b7565b91506200053860808701620004b7565b90509295509295909350565b6000602082840312156200055757600080fd5b6200056282620004b7565b9392505050565b600181811c908216806200057e57607f821691505b60208210811415620005a057634e487b7160e01b600052602260045260246000fd5b50919050565b60805160a05161235562000666600039600081816105500152818161062101528181610816015281816109c90152818161124601528181611320015281816113b30152611571015260008181610469015281816104fc01528181610767015281816107ee0152818161099501528181610a1301528181610c1501528181610ce40152818161121e0152818161140701528181611537015281816115bb0152818161188301528181611ae101528181611b9f0152611e0201526123556000f3fe608060405234801561001057600080fd5b506004361061018d5760003560e01c806391f07014116100e3578063b65080671161008c578063dea6aec711610066578063dea6aec7146102ed578063f16dde6c146102f5578063f887ea401461030857600080fd5b8063b6508067146102ac578063bf7e214f146102b5578063cd58b616146102c857600080fd5b8063a2cdd471116100bd578063a2cdd4711461027d578063a8aa1b3114610286578063b390c0ab1461029957600080fd5b806391f070141461025857806395bacb1a14610260578063a0d7db8e1461026957600080fd5b8063493074ba116101455780637304ca751161011f5780637304ca751461021857806376ad5a4d146102215780637a9e5e4b1461024557600080fd5b8063493074ba146101fe5780634e5c29251461020657806360535b431461020f57600080fd5b80631003e2d2116101765780631003e2d2146101d957806318836854146101ee5780631ba447fa146101f657600080fd5b806303d834b114610192578063097548e3146101c2575b600080fd5b6004546101a5906001600160a01b031681565b6040516001600160a01b0390911681526020015b60405180910390f35b6101cb60055481565b6040519081526020016101b9565b6101ec6101e7366004611ebe565b61031b565b005b6101ec610adc565b6101cb610c10565b6101cb610cdf565b6101cb60095481565b6101cb60065481565b6101cb60085481565b60045461023590600160a01b900460ff1681565b60405190151581526020016101b9565b6101ec610253366004611eef565b610d87565b6101ec610e95565b6101cb600b5481565b60045461023590600160a81b900460ff1681565b6101cb60075481565b6002546101a5906001600160a01b031681565b6101ec6102a7366004611f13565b61106a565b6101cb600a5481565b6001546101a5906001600160a01b031681565b6102d061167b565b6040805193845260208401929092521515908201526060016101b9565b6101cb61187e565b6101ec610303366004611f35565b611923565b6003546101a5906001600160a01b031681565b6004546001600160a01b03163314806103bb5750600160009054906101000a90046001600160a01b03166001600160a01b0316630505c8c96040518163ffffffff1660e01b8152600401602060405180830381865afa158015610382573d6000803e3d6000fd5b505050506040513d601f19601f820116820180604052508101906103a69190611f67565b6001600160a01b0316336001600160a01b0316145b6104405760405162461bcd60e51b8152602060048201526044602482018190527f434f4e54524f4c3a204f6e6c7920696e766f6b61626c6520627920706f6c6963908201527f79206f72206120636f6e747261637420617574686f72697a6564206173206361606482015263363632b960e11b608482015260a4015b60405180910390fd5b60035460405163095ea7b360e01b81526001600160a01b039182166004820152602481018390527f00000000000000000000000000000000000000000000000000000000000000009091169063095ea7b3906044016020604051808303816000875af11580156104b4573d6000803e3d6000fd5b505050506040513d601f19601f820116820180604052508101906104d89190611f84565b506040805160028082526060820183526000926020830190803683370190505090507f00000000000000000000000000000000000000000000000000000000000000008160008151811061052e5761052e611fbc565b60200260200101906001600160a01b031690816001600160a01b0316815250507f00000000000000000000000000000000000000000000000000000000000000008160018151811061058257610582611fbc565b6001600160a01b039283166020918202929092010152600354600091166338ed17396105af600286611fe8565b600085306000196040518663ffffffff1660e01b81526004016105d695949392919061200a565b6000604051808303816000875af11580156105f5573d6000803e3d6000fd5b505050506040513d6000823e601f3d908101601f1916820160405261061d919081019061207b565b90507f00000000000000000000000000000000000000000000000000000000000000006001600160a01b031663095ea7b3600360009054906101000a90046001600160a01b03168360018151811061067757610677611fbc565b60200260200101516040518363ffffffff1660e01b81526004016106b09291906001600160a01b03929092168252602082015260400190565b6020604051808303816000875af11580156106cf573d6000803e3d6000fd5b505050506040513d601f19601f820116820180604052508101906106f39190611f84565b5060008160018151811061070957610709611fbc565b6020026020010151905060008260008151811061072857610728611fbc565b60200260200101518561073b9190612139565b60035460405163095ea7b360e01b81526001600160a01b039182166004820152602481018390529192507f0000000000000000000000000000000000000000000000000000000000000000169063095ea7b3906044016020604051808303816000875af11580156107b0573d6000803e3d6000fd5b505050506040513d601f19601f820116820180604052508101906107d49190611f84565b5060035460405162e8e33760e81b81526001600160a01b037f0000000000000000000000000000000000000000000000000000000000000000811660048301527f000000000000000000000000000000000000000000000000000000000000000081166024830152604482018490526064820185905260006084830181905260a483018190523060c484015260001960e484015292839283929091169063e8e3370090610104016060604051808303816000875af115801561089a573d6000803e3d6000fd5b505050506040513d601f19601f820116820180604052508101906108be9190612150565b925092509250600083876000815181106108da576108da611fbc565b60200260200101516108ec919061217e565b905060006108fa8587612139565b905060006109088589612139565b9050610912611b9d565b60025460405163a9059cbb60e01b8152336004820152602481018690526001600160a01b039091169063a9059cbb906044016020604051808303816000875af1158015610963573d6000803e3d6000fd5b505050506040513d601f19601f820116820180604052508101906109879190611f84565b506109bc6001600160a01b037f0000000000000000000000000000000000000000000000000000000000000000163384611c2f565b6109f06001600160a01b037f0000000000000000000000000000000000000000000000000000000000000000163383611c2f565b7f3a31a3381a9917cf1d268782744eefbbc2d0467f1bd37ea377168f655a2242fd7f00000000000000000000000000000000000000000000000000000000000000006001600160a01b03166318160ddd6040518163ffffffff1660e01b8152600401602060405180830381865afa158015610a6f573d6000803e3d6000fd5b505050506040513d601f19601f82011682018060405250810190610a939190612196565b610a9b611d5f565b6040805192835260208301919091528101869052606081018590526080810184905260a0810183905260c00160405180910390a15050505050505050505050565b600160009054906101000a90046001600160a01b03166001600160a01b0316630c340a246040518163ffffffff1660e01b8152600401602060405180830381865afa158015610b2f573d6000803e3d6000fd5b505050506040513d601f19601f82011682018060405250810190610b539190611f67565b6001600160a01b0316336001600160a01b031614600090610b875760405162461bcd60e51b815260040161043791906121af565b50600454600160a01b900460ff161515600114610be65760405162461bcd60e51b815260206004820152601f60248201527f434f4e54524f4c3a204e6f20636f6e74726f6c20696e2070726f6772657373006044820152606401610437565b600480547fffffffffffffffffffff0000ffffffffffffffffffffffffffffffffffffffff169055565b6000807f00000000000000000000000000000000000000000000000000000000000000006001600160a01b03166318160ddd6040518163ffffffff1660e01b8152600401602060405180830381865afa158015610c71573d6000803e3d6000fd5b505050506040513d601f19601f82011682018060405250810190610c959190612196565b9050612710600a5482610ca89190612139565b600654600554610cb89190612139565b610cc29190612257565b610ccc9190611fe8565b600b54610cd9919061217e565b91505090565b6000807f00000000000000000000000000000000000000000000000000000000000000006001600160a01b03166318160ddd6040518163ffffffff1660e01b8152600401602060405180830381865afa158015610d40573d6000803e3d6000fd5b505050506040513d601f19601f82011682018060405250810190610d649190612196565b9050612710600a5482610d779190612139565b600754600554610cb8919061217e565b600160009054906101000a90046001600160a01b03166001600160a01b0316630c340a246040518163ffffffff1660e01b8152600401602060405180830381865afa158015610dda573d6000803e3d6000fd5b505050506040513d601f19601f82011682018060405250810190610dfe9190611f67565b6001600160a01b0316336001600160a01b031614600090610e325760405162461bcd60e51b815260040161043791906121af565b50600180547fffffffffffffffffffffffff0000000000000000000000000000000000000000166001600160a01b0383169081179091556040517f2f658b440c35314f52658ea8a740e05b284cdc84dc9ae01e891f21b8933e7cad90600090a250565b600160009054906101000a90046001600160a01b03166001600160a01b0316630c340a246040518163ffffffff1660e01b8152600401602060405180830381865afa158015610ee8573d6000803e3d6000fd5b505050506040513d601f19601f82011682018060405250810190610f0c9190611f67565b6001600160a01b0316336001600160a01b031614600090610f405760405162461bcd60e51b815260040161043791906121af565b50600454600160a01b900460ff1615610fa75760405162461bcd60e51b8152602060048201526024808201527f434f4e54524f4c3a20436f6e74726f6c20616c726561647920696e2070726f676044820152637265737360e01b6064820152608401610437565b600454600160a81b900460ff16151560011461103a5760405162461bcd60e51b815260206004820152604660248201527f434f4e54524f4c3a20436f6e74726f6c20706172616d6574657273206172652060448201527f6e6f74207365742c20706c656173652073657420636f6e74726f6c20706172616064820152656d657465727360d01b608482015260a401610437565b600480547fffffffffffffffffffffff00ffffffffffffffffffffffffffffffffffffffff16600160a01b179055565b6004546001600160a01b031633148061110a5750600160009054906101000a90046001600160a01b03166001600160a01b0316630505c8c96040518163ffffffff1660e01b8152600401602060405180830381865afa1580156110d1573d6000803e3d6000fd5b505050506040513d601f19601f820116820180604052508101906110f59190611f67565b6001600160a01b0316336001600160a01b0316145b61118a5760405162461bcd60e51b8152602060048201526044602482018190527f434f4e54524f4c3a204f6e6c7920696e766f6b61626c6520627920706f6c6963908201527f79206f72206120636f6e747261637420617574686f72697a6564206173206361606482015263363632b960e11b608482015260a401610437565b60025460035460405163095ea7b360e01b81526001600160a01b0391821660048201526024810184905291169063095ea7b3906044016020604051808303816000875af11580156111df573d6000803e3d6000fd5b505050506040513d601f19601f820116820180604052508101906112039190611f84565b50600354604051635d5155ef60e11b81526001600160a01b037f0000000000000000000000000000000000000000000000000000000000000000811660048301527f00000000000000000000000000000000000000000000000000000000000000008116602483015260448201849052600060648301819052608483018190523060a484015260001960c484015292839291169063baa2abde9060e40160408051808303816000875af11580156112be573d6000803e3d6000fd5b505050506040513d601f19601f820116820180604052508101906112e29190612276565b91509150826009546112f4919061217e565b60095560035460405163095ea7b360e01b81526001600160a01b039182166004820152602481018390527f00000000000000000000000000000000000000000000000000000000000000009091169063095ea7b3906044016020604051808303816000875af115801561136b573d6000803e3d6000fd5b505050506040513d601f19601f8201168201806040525081019061138f9190611f84565b506040805160028082526060820183526000926020830190803683370190505090507f0000000000000000000000000000000000000000000000000000000000000000816000815181106113e5576113e5611fbc565b60200260200101906001600160a01b031690816001600160a01b0316815250507f00000000000000000000000000000000000000000000000000000000000000008160018151811061143957611439611fbc565b6001600160a01b0392831660209182029290920101526003546040516338ed173960e01b815260009291909116906338ed1739906114859086908590879030906000199060040161200a565b6000604051808303816000875af11580156114a4573d6000803e3d6000fd5b505050506040513d6000823e601f3d908101601f191682016040526114cc919081019061207b565b90506114d6611b9d565b6000816001815181106114eb576114eb611fbc565b6020026020010151856114fe919061217e565b905060008260008151811061151557611515611fbc565b6020026020010151856115289190612139565b905061155e6001600160a01b037f0000000000000000000000000000000000000000000000000000000000000000163384611c2f565b8015611598576115986001600160a01b037f0000000000000000000000000000000000000000000000000000000000000000163383611c2f565b7f8043cdbc2a7b6ae637b2543b2d373345ca3aa41439886f0cdd7439d8b553c21a7f00000000000000000000000000000000000000000000000000000000000000006001600160a01b03166318160ddd6040518163ffffffff1660e01b8152600401602060405180830381865afa158015611617573d6000803e3d6000fd5b505050506040513d601f19601f8201168201806040525081019061163b9190612196565b611643611d5f565b6040805192835260208301919091528101899052606081018490526080810183905260a0015b60405180910390a15050505050505050565b6000806000600460159054906101000a900460ff16151560011515146117185760405162461bcd60e51b815260206004820152604660248201527f434f4e54524f4c3a20436f6e74726f6c20706172616d6574657273206172652060448201527f6e6f74207365742c20706c656173652073657420636f6e74726f6c20706172616064820152656d657465727360d01b608482015260a401610437565b50506004546000915081908190600160a01b900460ff16801561173e5750600854600954105b1561187957600061174d611d5f565b9050600061175961187e565b90506000611765610c10565b90506000611771610cdf565b90508184108061178057508084115b1561187457828411945084156118635761179a8385612139565b96506117a7846002612257565b600260009054906101000a90046001600160a01b03166001600160a01b03166318160ddd6040518163ffffffff1660e01b8152600401602060405180830381865afa1580156117fa573d6000803e3d6000fd5b505050506040513d601f19601f8201168201806040525081019061181e9190612196565b6118289089612257565b6118329190611fe8565b955060085486600954611845919061217e565b111561185e5760095460085461185b9190612139565b95505b611874565b61186d8484612139565b9650600095505b505050505b909192565b6000807f00000000000000000000000000000000000000000000000000000000000000006001600160a01b03166318160ddd6040518163ffffffff1660e01b8152600401602060405180830381865afa1580156118df573d6000803e3d6000fd5b505050506040513d601f19601f820116820180604052508101906119039190612196565b9050612710600a54826119169190612139565b600554610cc29190612257565b600160009054906101000a90046001600160a01b03166001600160a01b0316630c340a246040518163ffffffff1660e01b8152600401602060405180830381865afa158015611976573d6000803e3d6000fd5b505050506040513d601f19601f8201168201806040525081019061199a9190611f67565b6001600160a01b0316336001600160a01b0316146000906119ce5760405162461bcd60e51b815260040161043791906121af565b50600454600090600160a81b900460ff166119ea5760006119ee565b6005545b600454909150600090600160a81b900460ff16611a0c576000611a10565b6006545b600454909150600090600160a81b900460ff16611a2e576000611a32565b6007545b600454909150600090600160a81b900460ff16611a50576000611a54565b6008545b600589905560068890556007879055600886905560006009559050611a77611b9d565b600480547fffffffffffffffffffff00ffffffffffffffffffffffffffffffffffffffffff16600160a81b178155604080516318160ddd60e01b815290517f43d4fd45fef3b2c0073036fc7a19b94b2e6d17ca22f418d1ca53f41851963ab2926001600160a01b037f000000000000000000000000000000000000000000000000000000000000000016926318160ddd92818301926020928290030181865afa158015611b28573d6000803e3d6000fd5b505050506040513d601f19601f82011682018060405250810190611b4c9190612196565b60055460065460075460085460408051958652602086018b90528501899052606085018890526080850187905260a085019390935260c084019190915260e083015261010082015261012001611669565b7f00000000000000000000000000000000000000000000000000000000000000006001600160a01b03166318160ddd6040518163ffffffff1660e01b8152600401602060405180830381865afa158015611bfb573d6000803e3d6000fd5b505050506040513d601f19601f82011682018060405250810190611c1f9190612196565b600a55611c2a611d5f565b600b55565b604080516001600160a01b038481166024830152604480830185905283518084039091018152606490920183526020820180517bffffffffffffffffffffffffffffffffffffffffffffffffffffffff1663a9059cbb60e01b1790529151600092839290871691611ca0919061229a565b6000604051808303816000865af19150503d8060008114611cdd576040519150601f19603f3d011682016040523d82523d6000602084013e611ce2565b606091505b5091509150818015611d0c575080511580611d0c575080806020019051810190611d0c9190611f84565b611d585760405162461bcd60e51b815260206004820152600f60248201527f5452414e534645525f4641494c454400000000000000000000000000000000006044820152606401610437565b5050505050565b6000806000600260009054906101000a90046001600160a01b03166001600160a01b0316630902f1ac6040518163ffffffff1660e01b8152600401606060405180830381865afa158015611db7573d6000803e3d6000fd5b505050506040513d601f19601f82011682018060405250810190611ddb91906122f8565b506dffffffffffffffffffffffffffff1691506dffffffffffffffffffffffffffff1691507f00000000000000000000000000000000000000000000000000000000000000006001600160a01b0316600260009054906101000a90046001600160a01b03166001600160a01b0316630dfe16816040518163ffffffff1660e01b8152600401602060405180830381865afa158015611e7d573d6000803e3d6000fd5b505050506040513d601f19601f82011682018060405250810190611ea19190611f67565b6001600160a01b031614611eb55780611eb7565b815b9250505090565b600060208284031215611ed057600080fd5b5035919050565b6001600160a01b0381168114611eec57600080fd5b50565b600060208284031215611f0157600080fd5b8135611f0c81611ed7565b9392505050565b60008060408385031215611f2657600080fd5b50508035926020909101359150565b60008060008060808587031215611f4b57600080fd5b5050823594602084013594506040840135936060013592509050565b600060208284031215611f7957600080fd5b8151611f0c81611ed7565b600060208284031215611f9657600080fd5b81518015158114611f0c57600080fd5b634e487b7160e01b600052604160045260246000fd5b634e487b7160e01b600052603260045260246000fd5b634e487b7160e01b600052601160045260246000fd5b60008261200557634e487b7160e01b600052601260045260246000fd5b500490565b600060a082018783526020878185015260a0604085015281875180845260c086019150828901935060005b8181101561205a5784516001600160a01b031683529383019391830191600101612035565b50506001600160a01b03969096166060850152505050608001529392505050565b6000602080838503121561208e57600080fd5b825167ffffffffffffffff808211156120a657600080fd5b818501915085601f8301126120ba57600080fd5b8151818111156120cc576120cc611fa6565b8060051b604051601f19603f830116810181811085821117156120f1576120f1611fa6565b60405291825284820192508381018501918883111561210f57600080fd5b938501935b8285101561212d57845184529385019392850192612114565b98975050505050505050565b60008282101561214b5761214b611fd2565b500390565b60008060006060848603121561216557600080fd5b8351925060208401519150604084015190509250925092565b6000821982111561219157612191611fd2565b500190565b6000602082840312156121a857600080fd5b5051919050565b600060208083526000845481600182811c9150808316806121d157607f831692505b8583108114156121ef57634e487b7160e01b85526022600452602485fd5b87860183815260200181801561220c576001811461221d57612248565b60ff19861682528782019650612248565b60008b81526020902060005b8681101561224257815484820152908501908901612229565b83019750505b50949998505050505050505050565b600081600019048311821515161561227157612271611fd2565b500290565b6000806040838503121561228957600080fd5b505080516020909101519092909150565b6000825160005b818110156122bb57602081860181015185830152016122a1565b818111156122ca576000828501525b509190910192915050565b80516dffffffffffffffffffffffffffff811681146122f357600080fd5b919050565b60008060006060848603121561230d57600080fd5b612316846122d5565b9250612324602085016122d5565b9150604084015163ffffffff8116811461233d57600080fd5b80915050925092509256fea164736f6c634300080a000a",
  "devdoc": {
    "kind": "dev",
    "methods": {
      "add(uint256)": {
        "params": {
          "_pana": "uint256 - amount of pana to add"
        }
      },
      "burn(uint256,uint256)": {
        "params": {
          "_pana": "uint256 - amount of pana to burn",
          "_slp": "uint256 - amount of slp to burn"
        }
      },
      "getSupplyControlAmount()": {
        "returns": {
          "_burn": "bool - boolean indicating burn/add",
          "_pana": "uint256 - returns amount of Pana to be added in case of add. 0 in case of burn.",
          "_slp": "uint256 - returns amount of SLPs to be burnt in case of burn. 0 in case of add."
        }
      }
    },
    "version": 1
  },
  "userdoc": {
    "kind": "user",
    "methods": {
      "add(uint256)": {
        "notice": "adds Pana to the pool"
      },
      "burn(uint256,uint256)": {
        "notice": "burns Pana from the pool using SLP"
      },
      "getSupplyControlAmount()": {
        "notice": "returns the amounts of tokens to be expended for supply control"
      }
    },
    "version": 1
  },
  "storageLayout": {
    "storage": [
      {
        "astId": 1879,
        "contract": "contracts/bond/StandardSupplyController.sol:PanaSupplyController",
        "label": "UNAUTHORIZED",
        "offset": 0,
        "slot": "0",
        "type": "t_string_storage"
      },
      {
        "astId": 1882,
        "contract": "contracts/bond/StandardSupplyController.sol:PanaSupplyController",
        "label": "authority",
        "offset": 0,
        "slot": "1",
        "type": "t_contract(IPanaAuthority)6018"
      },
      {
        "astId": 4476,
        "contract": "contracts/bond/StandardSupplyController.sol:PanaSupplyController",
        "label": "pair",
        "offset": 0,
        "slot": "2",
        "type": "t_address"
      },
      {
        "astId": 4478,
        "contract": "contracts/bond/StandardSupplyController.sol:PanaSupplyController",
        "label": "router",
        "offset": 0,
        "slot": "3",
        "type": "t_address"
      },
      {
        "astId": 4480,
        "contract": "contracts/bond/StandardSupplyController.sol:PanaSupplyController",
        "label": "supplyControlCaller",
        "offset": 0,
        "slot": "4",
        "type": "t_address"
      },
      {
        "astId": 4483,
        "contract": "contracts/bond/StandardSupplyController.sol:PanaSupplyController",
        "label": "supplyControlEnabled",
        "offset": 20,
        "slot": "4",
        "type": "t_bool"
      },
      {
        "astId": 4486,
        "contract": "contracts/bond/StandardSupplyController.sol:PanaSupplyController",
        "label": "paramsSet",
        "offset": 21,
        "slot": "4",
        "type": "t_bool"
      },
      {
        "astId": 4488,
        "contract": "contracts/bond/StandardSupplyController.sol:PanaSupplyController",
        "label": "lossRatio",
        "offset": 0,
        "slot": "5",
        "type": "t_uint256"
      },
      {
        "astId": 4490,
        "contract": "contracts/bond/StandardSupplyController.sol:PanaSupplyController",
        "label": "cf",
        "offset": 0,
        "slot": "6",
        "type": "t_uint256"
      },
      {
        "astId": 4492,
        "contract": "contracts/bond/StandardSupplyController.sol:PanaSupplyController",
        "label": "cc",
        "offset": 0,
        "slot": "7",
        "type": "t_uint256"
      },
      {
        "astId": 4494,
        "contract": "contracts/bond/StandardSupplyController.sol:PanaSupplyController",
        "label": "mslp",
        "offset": 0,
        "slot": "8",
        "type": "t_uint256"
      },
      {
        "astId": 4496,
        "contract": "contracts/bond/StandardSupplyController.sol:PanaSupplyController",
        "label": "cslp",
        "offset": 0,
        "slot": "9",
        "type": "t_uint256"
      },
      {
        "astId": 4498,
        "contract": "contracts/bond/StandardSupplyController.sol:PanaSupplyController",
        "label": "lastTotalSupply",
        "offset": 0,
        "slot": "10",
        "type": "t_uint256"
      },
      {
        "astId": 4500,
        "contract": "contracts/bond/StandardSupplyController.sol:PanaSupplyController",
        "label": "lastPanaInPool",
        "offset": 0,
        "slot": "11",
        "type": "t_uint256"
      }
    ],
    "types": {
      "t_address": {
        "encoding": "inplace",
        "label": "address",
        "numberOfBytes": "20"
      },
      "t_bool": {
        "encoding": "inplace",
        "label": "bool",
        "numberOfBytes": "1"
      },
      "t_contract(IPanaAuthority)6018": {
        "encoding": "inplace",
        "label": "contract IPanaAuthority",
        "numberOfBytes": "20"
      },
      "t_string_storage": {
        "encoding": "bytes",
        "label": "string",
        "numberOfBytes": "32"
      },
      "t_uint256": {
        "encoding": "inplace",
        "label": "uint256",
        "numberOfBytes": "32"
      }
    }
  }
}