{
  "address": "0x5b94B43cC687A9D53bA43Dd0440ABdd0d8778cbb",
  "abi": [
    {
      "inputs": [
        {
          "internalType": "address",
          "name": "_pana",
          "type": "address"
        },
        {
          "internalType": "uint256",
          "name": "_timelock",
          "type": "uint256"
        },
        {
          "internalType": "address",
          "name": "_authority",
          "type": "address"
        }
      ],
      "stateMutability": "nonpayable",
      "type": "constructor"
    },
    {
      "anonymous": false,
      "inputs": [
        {
          "indexed": true,
          "internalType": "contract IPanaAuthority",
          "name": "authority",
          "type": "address"
        }
      ],
      "name": "AuthorityUpdated",
      "type": "event"
    },
    {
      "anonymous": false,
      "inputs": [
        {
          "indexed": true,
          "internalType": "address",
          "name": "token",
          "type": "address"
        },
        {
          "indexed": false,
          "internalType": "uint256",
          "name": "amount",
          "type": "uint256"
        },
        {
          "indexed": false,
          "internalType": "uint256",
          "name": "payout",
          "type": "uint256"
        }
      ],
      "name": "Deposit",
      "type": "event"
    },
    {
      "anonymous": false,
      "inputs": [
        {
          "indexed": true,
          "internalType": "address",
          "name": "token",
          "type": "address"
        },
        {
          "indexed": false,
          "internalType": "uint256",
          "name": "amount",
          "type": "uint256"
        },
        {
          "indexed": false,
          "internalType": "uint256",
          "name": "send",
          "type": "uint256"
        }
      ],
      "name": "DepositForRedemption",
      "type": "event"
    },
    {
      "anonymous": false,
      "inputs": [
        {
          "indexed": true,
          "internalType": "address",
          "name": "token",
          "type": "address"
        },
        {
          "indexed": false,
          "internalType": "uint256",
          "name": "amount",
          "type": "uint256"
        }
      ],
      "name": "Managed",
      "type": "event"
    },
    {
      "anonymous": false,
      "inputs": [
        {
          "indexed": true,
          "internalType": "address",
          "name": "caller",
          "type": "address"
        },
        {
          "indexed": true,
          "internalType": "address",
          "name": "recipient",
          "type": "address"
        },
        {
          "indexed": false,
          "internalType": "uint256",
          "name": "amount",
          "type": "uint256"
        }
      ],
      "name": "Minted",
      "type": "event"
    },
    {
      "anonymous": false,
      "inputs": [
        {
          "indexed": false,
          "internalType": "uint256",
          "name": "amount",
          "type": "uint256"
        },
        {
          "indexed": false,
          "internalType": "address",
          "name": "treasury",
          "type": "address"
        }
      ],
      "name": "MintedForNFTTreasury",
      "type": "event"
    },
    {
      "anonymous": false,
      "inputs": [
        {
          "indexed": true,
          "internalType": "enum PanaTreasury.STATUS",
          "name": "status",
          "type": "uint8"
        },
        {
          "indexed": false,
          "internalType": "address",
          "name": "queued",
          "type": "address"
        }
      ],
      "name": "PermissionQueued",
      "type": "event"
    },
    {
      "anonymous": false,
      "inputs": [
        {
          "indexed": false,
          "internalType": "address",
          "name": "addr",
          "type": "address"
        },
        {
          "indexed": true,
          "internalType": "enum PanaTreasury.STATUS",
          "name": "status",
          "type": "uint8"
        },
        {
          "indexed": false,
          "internalType": "bool",
          "name": "result",
          "type": "bool"
        }
      ],
      "name": "Permissioned",
      "type": "event"
    },
    {
      "inputs": [],
      "name": "PANA",
      "outputs": [
        {
          "internalType": "contract IPana",
          "name": "",
          "type": "address"
        }
      ],
      "stateMutability": "view",
      "type": "function"
    },
    {
      "inputs": [],
      "name": "authority",
      "outputs": [
        {
          "internalType": "contract IPanaAuthority",
          "name": "",
          "type": "address"
        }
      ],
      "stateMutability": "view",
      "type": "function"
    },
    {
      "inputs": [],
      "name": "baseSupply",
      "outputs": [
        {
          "internalType": "uint256",
          "name": "",
          "type": "uint256"
        }
      ],
      "stateMutability": "view",
      "type": "function"
    },
    {
      "inputs": [],
      "name": "blocksNeededForQueue",
      "outputs": [
        {
          "internalType": "uint256",
          "name": "",
          "type": "uint256"
        }
      ],
      "stateMutability": "view",
      "type": "function"
    },
    {
      "inputs": [
        {
          "internalType": "uint256",
          "name": "_amount",
          "type": "uint256"
        },
        {
          "internalType": "address",
          "name": "_token",
          "type": "address"
        },
        {
          "internalType": "uint256",
          "name": "_payout",
          "type": "uint256"
        }
      ],
      "name": "deposit",
      "outputs": [
        {
          "internalType": "uint256",
          "name": "",
          "type": "uint256"
        }
      ],
      "stateMutability": "nonpayable",
      "type": "function"
    },
    {
      "inputs": [
        {
          "internalType": "uint256",
          "name": "_amount",
          "type": "uint256"
        },
        {
          "internalType": "address",
          "name": "_token",
          "type": "address"
        }
      ],
      "name": "depositForRedemption",
      "outputs": [
        {
          "internalType": "uint256",
          "name": "send_",
          "type": "uint256"
        }
      ],
      "stateMutability": "nonpayable",
      "type": "function"
    },
    {
      "inputs": [
        {
          "internalType": "enum PanaTreasury.STATUS",
          "name": "_status",
          "type": "uint8"
        },
        {
          "internalType": "address",
          "name": "_toDisable",
          "type": "address"
        }
      ],
      "name": "disable",
      "outputs": [],
      "stateMutability": "nonpayable",
      "type": "function"
    },
    {
      "inputs": [],
      "name": "disableTimelock",
      "outputs": [],
      "stateMutability": "nonpayable",
      "type": "function"
    },
    {
      "inputs": [
        {
          "internalType": "enum PanaTreasury.STATUS",
          "name": "_status",
          "type": "uint8"
        },
        {
          "internalType": "address",
          "name": "_address",
          "type": "address"
        },
        {
          "internalType": "address",
          "name": "_supplyController",
          "type": "address"
        }
      ],
      "name": "enable",
      "outputs": [],
      "stateMutability": "nonpayable",
      "type": "function"
    },
    {
      "inputs": [
        {
          "internalType": "uint256",
          "name": "_index",
          "type": "uint256"
        }
      ],
      "name": "execute",
      "outputs": [],
      "stateMutability": "nonpayable",
      "type": "function"
    },
    {
      "inputs": [
        {
          "internalType": "address",
          "name": "_address",
          "type": "address"
        },
        {
          "internalType": "enum PanaTreasury.STATUS",
          "name": "_status",
          "type": "uint8"
        }
      ],
      "name": "indexInRegistry",
      "outputs": [
        {
          "internalType": "bool",
          "name": "",
          "type": "bool"
        },
        {
          "internalType": "uint256",
          "name": "",
          "type": "uint256"
        }
      ],
      "stateMutability": "view",
      "type": "function"
    },
    {
      "inputs": [],
      "name": "initialize",
      "outputs": [],
      "stateMutability": "nonpayable",
      "type": "function"
    },
    {
      "inputs": [],
      "name": "initialized",
      "outputs": [
        {
          "internalType": "bool",
          "name": "",
          "type": "bool"
        }
      ],
      "stateMutability": "view",
      "type": "function"
    },
    {
      "inputs": [
        {
          "internalType": "address",
          "name": "_token",
          "type": "address"
        },
        {
          "internalType": "uint256",
          "name": "_amount",
          "type": "uint256"
        }
      ],
      "name": "manage",
      "outputs": [],
      "stateMutability": "nonpayable",
      "type": "function"
    },
    {
      "inputs": [
        {
          "internalType": "address",
          "name": "_recipient",
          "type": "address"
        },
        {
          "internalType": "uint256",
          "name": "_amount",
          "type": "uint256"
        }
      ],
      "name": "mint",
      "outputs": [],
      "stateMutability": "nonpayable",
      "type": "function"
    },
    {
      "inputs": [
        {
          "internalType": "uint256",
          "name": "_amount",
          "type": "uint256"
        }
      ],
      "name": "mintForNFTTreasury",
      "outputs": [],
      "stateMutability": "nonpayable",
      "type": "function"
    },
    {
      "inputs": [
        {
          "internalType": "uint256",
          "name": "_index",
          "type": "uint256"
        }
      ],
      "name": "nullify",
      "outputs": [],
      "stateMutability": "nonpayable",
      "type": "function"
    },
    {
      "inputs": [],
      "name": "onChainGovernanceTimelock",
      "outputs": [
        {
          "internalType": "uint256",
          "name": "",
          "type": "uint256"
        }
      ],
      "stateMutability": "view",
      "type": "function"
    },
    {
      "inputs": [
        {
          "internalType": "uint256",
          "name": "",
          "type": "uint256"
        }
      ],
      "name": "permissionQueue",
      "outputs": [
        {
          "internalType": "enum PanaTreasury.STATUS",
          "name": "managing",
          "type": "uint8"
        },
        {
          "internalType": "address",
          "name": "toPermit",
          "type": "address"
        },
        {
          "internalType": "address",
          "name": "supplyController",
          "type": "address"
        },
        {
          "internalType": "uint256",
          "name": "timelockEnd",
          "type": "uint256"
        },
        {
          "internalType": "bool",
          "name": "nullify",
          "type": "bool"
        },
        {
          "internalType": "bool",
          "name": "executed",
          "type": "bool"
        }
      ],
      "stateMutability": "view",
      "type": "function"
    },
    {
      "inputs": [
        {
          "internalType": "enum PanaTreasury.STATUS",
          "name": "",
          "type": "uint8"
        },
        {
          "internalType": "address",
          "name": "",
          "type": "address"
        }
      ],
      "name": "permissions",
      "outputs": [
        {
          "internalType": "bool",
          "name": "",
          "type": "bool"
        }
      ],
      "stateMutability": "view",
      "type": "function"
    },
    {
      "inputs": [
        {
          "internalType": "enum PanaTreasury.STATUS",
          "name": "_status",
          "type": "uint8"
        },
        {
          "internalType": "address",
          "name": "_address",
          "type": "address"
        },
        {
          "internalType": "address",
          "name": "_supplyController",
          "type": "address"
        }
      ],
      "name": "queueTimelock",
      "outputs": [],
      "stateMutability": "nonpayable",
      "type": "function"
    },
    {
      "inputs": [
        {
          "internalType": "enum PanaTreasury.STATUS",
          "name": "",
          "type": "uint8"
        },
        {
          "internalType": "uint256",
          "name": "",
          "type": "uint256"
        }
      ],
      "name": "registry",
      "outputs": [
        {
          "internalType": "address",
          "name": "",
          "type": "address"
        }
      ],
      "stateMutability": "view",
      "type": "function"
    },
    {
      "inputs": [],
      "name": "sPANA",
      "outputs": [
        {
          "internalType": "contract IsPana",
          "name": "",
          "type": "address"
        }
      ],
      "stateMutability": "view",
      "type": "function"
    },
    {
      "inputs": [
        {
          "internalType": "contract IPanaAuthority",
          "name": "_newAuthority",
          "type": "address"
        }
      ],
      "name": "setAuthority",
      "outputs": [],
      "stateMutability": "nonpayable",
      "type": "function"
    },
    {
      "inputs": [
        {
          "internalType": "address",
          "name": "",
          "type": "address"
        }
      ],
      "name": "supplyController",
      "outputs": [
        {
          "internalType": "address",
          "name": "",
          "type": "address"
        }
      ],
      "stateMutability": "view",
      "type": "function"
    },
    {
      "inputs": [],
      "name": "timelockEnabled",
      "outputs": [
        {
          "internalType": "bool",
          "name": "",
          "type": "bool"
        }
      ],
      "stateMutability": "view",
      "type": "function"
    },
    {
      "inputs": [
        {
          "internalType": "address",
          "name": "_token",
          "type": "address"
        },
        {
          "internalType": "uint256",
          "name": "_amount",
          "type": "uint256"
        }
      ],
      "name": "tokenValue",
      "outputs": [
        {
          "internalType": "uint256",
          "name": "value_",
          "type": "uint256"
        }
      ],
      "stateMutability": "view",
      "type": "function"
    }
  ],
  "transactionHash": "0xaed9cc263efe966ad294af2e1aa63670cb6624b1c43d0e7685ea2532146770ab",
  "args": [
    "0x053Bdec0bEC0b010C7dd37E82C2246d107d6B363",
    0,
    "0x7A6991050B9578C9aB8C74A0A519DD9efD36643f"
  ],
  "solcInputHash": "313d57b5e0e8cd73a1ed6762c053ae97",
  "bytecode": "0x610100604052600c60c08190526b15539055551213d49256915160a21b60e090815262000030916000919062000240565b506040805180820190915260168082527f54726561737572793a206e6f74206163636570746564000000000000000000006020909201918252620000779160099162000240565b506040805180820190915260168082527f54726561737572793a206e6f7420617070726f766564000000000000000000006020909201918252620000be91600a9162000240565b506040805180820190915260178082527f54726561737572793a20696e76616c696420746f6b656e00000000000000000060209092019182526200010591600b9162000240565b50604051806060016040528060268152602001620033bf6026913980516200013691600c9160209091019062000240565b503480156200014457600080fd5b50604051620033e5380380620033e5833981810160405260608110156200016a57600080fd5b5080516020820151604092830151600180546001600160a01b0319166001600160a01b038316908117909155935192939192909182917f2f658b440c35314f52658ea8a740e05b284cdc84dc9ae01e891f21b8933e7cad90600090a2506001600160a01b03831662000218576040805162461bcd60e51b81526020600482015260126024820152715a65726f20616464726573733a2050414e4160701b604482015290519081900360640190fd5b5060609190911b6001600160601b0319166080526007805461ffff1916905560a052620002ec565b828054600181600116156101000203166002900490600052602060002090601f016020900481019282620002785760008555620002c3565b82601f106200029357805160ff1916838001178555620002c3565b82800160010185558215620002c3579182015b82811115620002c3578251825591602001919060010190620002a6565b50620002d1929150620002d5565b5090565b5b80821115620002d15760008155600101620002d6565b60805160601c60a0516130706200034f60003980610904528061095c52806112cf528061217c525080610bae5280611000528061146252806116e8528061194a5280611d2a5280611de65280611fd352806120e052806125a652506130706000f3fe608060405234801561001057600080fd5b50600436106101b95760003560e01c806393988b53116100f9578063bcb8e70111610097578063d07f390f11610071578063d07f390f14610502578063e4e33ef81461050a578063f182178314610541578063fe0d94c11461056d576101b9565b8063bcb8e701146104a8578063bf7e214f146104d4578063ce2b7f0c146104dc576101b9565b8063b320f6a9116100d3578063b320f6a914610449578063b39df88e14610451578063bbb1111214610459578063bc157ac114610476576101b9565b806393988b53146103d15780639fef32cc1461041b578063a44b828714610423576101b9565b806352991831116101665780637a9e5e4b116101405780637a9e5e4b146103815780637d921af0146103a75780638129fc1c146103af578063860f5048146103b7576101b9565b8063529918311461031157806371a45c951461034057806377e93ca81461035d576101b9565b8063330dd34511610197578063330dd3451461023f57806340c10f191461026e578063503edcf01461029a576101b9565b80630b0eee30146101be578063158ef93e146101ec5780631d6d5f0514610208575b600080fd5b6101ea600480360360408110156101d457600080fd5b506001600160a01b03813516906020013561058a565b005b6101f4610793565b604080519115158252519081900360200190f35b6101ea6004803603606081101561021e57600080fd5b5060ff813516906001600160a01b03602082013581169160400135166107a1565b6101f46004803603604081101561025557600080fd5b50803560ff1690602001356001600160a01b0316610af3565b6101ea6004803603604081101561028457600080fd5b506001600160a01b038135169060200135610b13565b6102b7600480360360208110156102b057600080fd5b5035610c7f565b604051808760098111156102c757fe5b8152602001866001600160a01b03168152602001856001600160a01b0316815260200184815260200183151581526020018215158152602001965050505050505060405180910390f35b6101ea6004803603604081101561032757600080fd5b50803560ff1690602001356001600160a01b0316610cd6565b6101ea6004803603602081101561035657600080fd5b5035610ede565b610365610ffe565b604080516001600160a01b039092168252519081900360200190f35b6101ea6004803603602081101561039757600080fd5b50356001600160a01b0316611022565b6101ea611158565b6101ea6112fb565b6103bf61145e565b60408051918252519081900360200190f35b610400600480360360408110156103e757600080fd5b5080356001600160a01b0316906020013560ff166114ea565b60408051921515835260208301919091528051918290030190f35b6103656115d2565b6103656004803603604081101561043957600080fd5b5060ff81351690602001356115e1565b6101f4611619565b6103bf611622565b6101ea6004803603602081101561046f57600080fd5b5035611628565b6103bf6004803603606081101561048c57600080fd5b508035906001600160a01b036020820135169060400135611784565b6103bf600480360360408110156104be57600080fd5b50803590602001356001600160a01b0316611e8a565b610365612150565b610365600480360360208110156104f257600080fd5b50356001600160a01b031661215f565b6103bf61217a565b6101ea6004803603606081101561052057600080fd5b5060ff813516906001600160a01b036020820135811691604001351661219e565b6103bf6004803603604081101561055757600080fd5b506001600160a01b03813516906020013561246d565b6101ea6004803603602081101561058357600080fd5b5035612641565b6001600160a01b03821660009081527f1a1e6821cde7d0159c0d293177871e09677b4e42307c7db3ba94f8648a5a050f602052604090205460ff16156106a2573360009081527f04cde762ef08b6b6c5ded8e8c4c0b3f4e5c9ad7342c88fcc93681b4588b73f056020526040902054600a9060ff1661069c5760405162461bcd60e51b815260206004820190815282546002600019610100600184161502019091160460248301819052909182916044909101908490801561068d5780601f106106625761010080835404028352916020019161068d565b820191906000526020600020905b81548152906001019060200180831161067057829003601f168201915b50509250505060405180910390fd5b5061073c565b3360009081527f91da3fd0782e51c6b3986e9e672fd566868e71f3dbc2d6c2cd6fbb3e361af2a76020526040902054600a9060ff1661073a5760405162461bcd60e51b815260206004820190815282546002600019610100600184161502019091160460248301819052909182916044909101908490801561068d5780601f106106625761010080835404028352916020019161068d565b505b6107506001600160a01b0383163383612b52565b6040805182815290516001600160a01b038416917fb4460e34f1e91c4fa28eb7fac4cbd88cf530ef54a67e1978cd5edd9f77033ead919081900360200190a25050565b600754610100900460ff1681565b600160009054906101000a90046001600160a01b03166001600160a01b0316630c340a246040518163ffffffff1660e01b815260040160206040518083038186803b1580156107ef57600080fd5b505afa158015610803573d6000803e3d6000fd5b505050506040513d602081101561081957600080fd5b50516000906001600160a01b0316331461088c5760405162461bcd60e51b815260206004820190815282546002600019610100600184161502019091160460248301819052909182916044909101908490801561068d5780601f106106625761010080835404028352916020019161068d565b506001600160a01b0382166108a057600080fd5b60075460ff1615156001146108fc576040805162461bcd60e51b815260206004820181905260248201527f54696d656c6f636b2069732064697361626c65642c2075736520656e61626c65604482015290519081900360640190fd5b6000610928437f0000000000000000000000000000000000000000000000000000000000000000612cd1565b9050600284600981111561093857fe5b148061094f5750600584600981111561094d57fe5b145b1561098c576109896109827f00000000000000000000000000000000000000000000000000000000000000006002612d34565b4390612cd1565b90505b60066040518060c001604052808660098111156109a557fe5b81526001600160a01b0380871660208084019190915290861660408301526060820185905260006080830181905260a090920182905283546001818101865594835291208251600490920201805492939092839160ff1990911690836009811115610a0c57fe5b0217905550602082015181547fffffffffffffffffffffff0000000000000000000000000000000000000000ff166101006001600160a01b03928316810291909117835560408401516001840180546001600160a01b03191691909316179091556060830151600283015560808301516003909201805460a09094015160ff199094169215159290921761ff00191692151502919091179055836009811115610ab157fe5b604080516001600160a01b038616815290517fc822ff41836a6dc998393c71843db8adcbbf01721f41b32389f6838ecb1ea9c89181900360200190a250505050565b600460209081526000928352604080842090915290825290205460ff1681565b3360009081527fc59312466997bb42aaaf719ece141047820e6b34531e1670dc1852a453648f0f6020526040902054600a9060ff16610bab5760405162461bcd60e51b815260206004820190815282546002600019610100600184161502019091160460248301819052909182916044909101908490801561068d5780601f106106625761010080835404028352916020019161068d565b507f00000000000000000000000000000000000000000000000000000000000000006001600160a01b03166340c10f1983836040518363ffffffff1660e01b815260040180836001600160a01b0316815260200182815260200192505050600060405180830381600087803b158015610c2357600080fd5b505af1158015610c37573d6000803e3d6000fd5b50506040805184815290516001600160a01b03861693503392507f9d228d69b5fdb8d273a2336f8fb8612d039631024ea9bf09c424a9503aa078f09181900360200190a35050565b60068181548110610c8f57600080fd5b6000918252602090912060049091020180546001820154600283015460039093015460ff80841695506001600160a01b036101009485900481169593169382821692041686565b600160009054906101000a90046001600160a01b03166001600160a01b0316630c340a246040518163ffffffff1660e01b815260040160206040518083038186803b158015610d2457600080fd5b505afa158015610d38573d6000803e3d6000fd5b505050506040513d6020811015610d4e57600080fd5b50516001600160a01b0316331480610de75750600160009054906101000a90046001600160a01b03166001600160a01b031663452a93206040518163ffffffff1660e01b815260040160206040518083038186803b158015610daf57600080fd5b505afa158015610dc3573d6000803e3d6000fd5b505050506040513d6020811015610dd957600080fd5b50516001600160a01b031633145b610e38576040805162461bcd60e51b815260206004820152601960248201527f4f6e6c7920676f7665726e6f72206f7220677561726469616e00000000000000604482015290519081900360640190fd5b600060046000846009811115610e4a57fe5b6009811115610e5557fe5b8152602080820192909252604090810160009081206001600160a01b03861682529092529020805460ff1916911515919091179055816009811115610e9657fe5b604080516001600160a01b03841681526000602082015281517f7531a7aefe3985500c4dec2dcb6049a708f14c6a8a9022b435b8841bdb8e1713929181900390910190a25050565b600160009054906101000a90046001600160a01b03166001600160a01b0316630c340a246040518163ffffffff1660e01b815260040160206040518083038186803b158015610f2c57600080fd5b505afa158015610f40573d6000803e3d6000fd5b505050506040513d6020811015610f5657600080fd5b50516000906001600160a01b03163314610fc95760405162461bcd60e51b815260206004820190815282546002600019610100600184161502019091160460248301819052909182916044909101908490801561068d5780601f106106625761010080835404028352916020019161068d565b50600160068281548110610fd957fe5b60009182526020909120600490910201600301805460ff191691151591909117905550565b7f000000000000000000000000000000000000000000000000000000000000000081565b600160009054906101000a90046001600160a01b03166001600160a01b0316630c340a246040518163ffffffff1660e01b815260040160206040518083038186803b15801561107057600080fd5b505afa158015611084573d6000803e3d6000fd5b505050506040513d602081101561109a57600080fd5b50516000906001600160a01b0316331461110d5760405162461bcd60e51b815260206004820190815282546002600019610100600184161502019091160460248301819052909182916044909101908490801561068d5780601f106106625761010080835404028352916020019161068d565b50600180546001600160a01b0319166001600160a01b0383169081179091556040517f2f658b440c35314f52658ea8a740e05b284cdc84dc9ae01e891f21b8933e7cad90600090a250565b600160009054906101000a90046001600160a01b03166001600160a01b0316630c340a246040518163ffffffff1660e01b815260040160206040518083038186803b1580156111a657600080fd5b505afa1580156111ba573d6000803e3d6000fd5b505050506040513d60208110156111d057600080fd5b50516000906001600160a01b031633146112435760405162461bcd60e51b815260206004820190815282546002600019610100600184161502019091160460248301819052909182916044909101908490801561068d5780601f106106625761010080835404028352916020019161068d565b5060075460ff1615156001146112a0576040805162461bcd60e51b815260206004820152601960248201527f74696d656c6f636b20616c72656164792064697361626c656400000000000000604482015290519081900360640190fd5b600854158015906112b357504360085411155b156112c7576007805460ff191690556112f9565b6112f56109827f00000000000000000000000000000000000000000000000000000000000000006007612d34565b6008555b565b600160009054906101000a90046001600160a01b03166001600160a01b0316630c340a246040518163ffffffff1660e01b815260040160206040518083038186803b15801561134957600080fd5b505afa15801561135d573d6000803e3d6000fd5b505050506040513d602081101561137357600080fd5b50516000906001600160a01b031633146113e65760405162461bcd60e51b815260206004820190815282546002600019610100600184161502019091160460248301819052909182916044909101908490801561068d5780601f106106625761010080835404028352916020019161068d565b50600754610100900460ff1615611444576040805162461bcd60e51b815260206004820152601360248201527f416c726561647920696e697469616c697a656400000000000000000000000000604482015290519081900360640190fd5b6007805461ff001960ff1990911660011716610100179055565b60007f00000000000000000000000000000000000000000000000000000000000000006001600160a01b03166318160ddd6040518163ffffffff1660e01b815260040160206040518083038186803b1580156114b957600080fd5b505afa1580156114cd573d6000803e3d6000fd5b505050506040513d60208110156114e357600080fd5b5051905090565b6000806060600360008560098111156114ff57fe5b600981111561150a57fe5b815260200190815260200160002080548060200260200160405190810160405280929190818152602001828054801561156c57602002820191906000526020600020905b81546001600160a01b0316815260019091019060200180831161154e575b5050505050905060005b81518110156115c15781818151811061158b57fe5b60200260200101516001600160a01b0316866001600160a01b031614156115b9576001935091506115cb9050565b600101611576565b5060008092509250505b9250929050565b6002546001600160a01b031681565b600360205281600052604060002081815481106115fd57600080fd5b6000918252602090912001546001600160a01b03169150829050565b60075460ff1681565b60085481565b3360009081527f4ad5a04d53b5856f318545bb721f67d3f6d0a5a999f25eec7e20eaeb4c47b9336020526040902054600a9060ff166116c05760405162461bcd60e51b815260206004820190815282546002600019610100600184161502019091160460248301819052909182916044909101908490801561068d5780601f106106625761010080835404028352916020019161068d565b50604080516340c10f1960e01b81523360048201526024810183905290516001600160a01b037f000000000000000000000000000000000000000000000000000000000000000016916340c10f1991604480830192600092919082900301818387803b15801561172f57600080fd5b505af1158015611743573d6000803e3d6000fd5b50506040805184815233602082015281517f090407aa1149a57c208d834ce95f1e5f0dbc47bac5b4858b4a2e5306c650db969450908190039091019150a150565b6001600160a01b03821660009081527fabd6e7cb50984ff9c2f3e18a2660c3353dadf4e3291deeb275dae2cd1e44fe05602052604081205460ff16156118625760046000805b60098111156117d557fe5b815260208082019290925260409081016000908120338252909252902054600a9060ff1661185c5760405162461bcd60e51b815260206004820190815282546002600019610100600184161502019091160460248301819052909182916044909101908490801561068d5780601f106106625761010080835404028352916020019161068d565b5061190e565b6001600160a01b03831660009081527f1a1e6821cde7d0159c0d293177871e09677b4e42307c7db3ba94f8648a5a050f602052604090205460ff16156118ad576004600060036117ca565b60405162461bcd60e51b8152602060048201908152600b80546002600019610100600184161502019091160460248401819052909282916044909101908490801561068d5780601f106106625761010080835404028352916020019161068d565b6119236001600160a01b038416333087612d8d565b604080516340c10f1960e01b81523360048201526024810184905290516001600160a01b037f000000000000000000000000000000000000000000000000000000000000000016916340c10f1991604480830192600092919082900301818387803b15801561199157600080fd5b505af11580156119a5573d6000803e3d6000fd5b5050604080518781526020810186905281516001600160a01b03881694507f90890809c654f11d6e72a28fa60149770a0d11ec6c92319d6ceb2bb0a4ea1a1593509081900390910190a26001600160a01b03831660009081527f1a1e6821cde7d0159c0d293177871e09677b4e42307c7db3ba94f8648a5a050f602052604090205460ff168015611a4f57506001600160a01b038381166000908152600560205260409020541615155b8015611ad457506001600160a01b038084166000908152600560209081526040918290205482516376ad5a4d60e01b815292519316926376ad5a4d926004808201939291829003018186803b158015611aa757600080fd5b505afa158015611abb573d6000803e3d6000fd5b505050506040513d6020811015611ad157600080fd5b50515b8015611b5957506001600160a01b0380841660009081526005602090815260409182902054825163506bedc760e11b8152925193169263a0d7db8e926004808201939291829003018186803b158015611b2c57600080fd5b505afa158015611b40573d6000803e3d6000fd5b505050506040513d6020811015611b5657600080fd5b50515b15611e83576001600160a01b038084166000908152600560205260408082205481516366ac5b0b60e11b81529151929384938493929091169163cd58b616916004808301926060929190829003018186803b158015611bb757600080fd5b505afa158015611bcb573d6000803e3d6000fd5b505050506040513d6060811015611be157600080fd5b508051602082015160409092015190945090925090508215611e7f57808015611c82575081866001600160a01b03166370a08231306040518263ffffffff1660e01b815260040180826001600160a01b0316815260200191505060206040518083038186803b158015611c5357600080fd5b505afa158015611c67573d6000803e3d6000fd5b505050506040513d6020811015611c7d57600080fd5b505110155b15611d27576001600160a01b03808716600081815260056020526040902054611cac921684612b52565b6001600160a01b0380871660009081526005602052604080822054815163b390c0ab60e01b81526004810188905260248101879052915193169263b390c0ab9260448084019391929182900301818387803b158015611d0a57600080fd5b505af1158015611d1e573d6000803e3d6000fd5b50505050611e7f565b827f00000000000000000000000000000000000000000000000000000000000000006001600160a01b03166370a08231306040518263ffffffff1660e01b815260040180826001600160a01b0316815260200191505060206040518083038186803b158015611d9557600080fd5b505afa158015611da9573d6000803e3d6000fd5b505050506040513d6020811015611dbf57600080fd5b505110611e7f576001600160a01b03808716600090815260056020526040902054611e0f917f00000000000000000000000000000000000000000000000000000000000000008116911685612b52565b6001600160a01b03808716600090815260056020526040808220548151630801f16960e11b8152600481018890529151931692631003e2d29260248084019391929182900301818387803b158015611e6657600080fd5b505af1158015611e7a573d6000803e3d6000fd5b505050505b5050505b5092915050565b6001600160a01b03811660009081527fabd6e7cb50984ff9c2f3e18a2660c3353dadf4e3291deeb275dae2cd1e44fe05602052604081205460099060ff16611f2b5760405162461bcd60e51b815260206004820190815282546002600019610100600184161502019091160460248301819052909182916044909101908490801561068d5780601f106106625761010080835404028352916020019161068d565b503360009081527f2645749a946633740611cfc8178319f0958659d6922e4bf7e3a08b44789f53a46020526040902054600a9060ff16611fc45760405162461bcd60e51b815260206004820190815282546002600019610100600184161502019091160460248301819052909182916044909101908490801561068d5780601f106106625761010080835404028352916020019161068d565b50611fcf828461246d565b90507f00000000000000000000000000000000000000000000000000000000000000006001600160a01b03166370a08231306040518263ffffffff1660e01b815260040180826001600160a01b0316815260200191505060206040518083038186803b15801561203e57600080fd5b505afa158015612052573d6000803e3d6000fd5b505050506040513d602081101561206857600080fd5b50518111156120be576040805162461bcd60e51b815260206004820152601860248201527f4e6f7420656e6f7567682050414e412072657365727665730000000000000000604482015290519081900360640190fd5b6120d36001600160a01b038316333086612d8d565b6121076001600160a01b037f0000000000000000000000000000000000000000000000000000000000000000163383612b52565b604080518481526020810183905281516001600160a01b038516927f4a4b015d5d009102c176c319f709dd2078a8f42103ac46297c4ded381b1d9db9928290030190a292915050565b6001546001600160a01b031681565b6005602052600090815260409020546001600160a01b031681565b7f000000000000000000000000000000000000000000000000000000000000000081565b600160009054906101000a90046001600160a01b03166001600160a01b0316630c340a246040518163ffffffff1660e01b815260040160206040518083038186803b1580156121ec57600080fd5b505afa158015612200573d6000803e3d6000fd5b505050506040513d602081101561221657600080fd5b50516000906001600160a01b031633146122895760405162461bcd60e51b815260206004820190815282546002600019610100600184161502019091160460248301819052909182916044909101908490801561068d5780601f106106625761010080835404028352916020019161068d565b5060075460ff16156122e2576040805162461bcd60e51b815260206004820152601160248201527f55736520717565756554696d656c6f636b000000000000000000000000000000604482015290519081900360640190fd5b60078360098111156122f057fe5b141561231657600280546001600160a01b0319166001600160a01b038416179055612418565b60016004600085600981111561232857fe5b600981111561233357fe5b8152602080820192909252604090810160009081206001600160a01b03871682529092529020805460ff1916911515919091179055600483600981111561237657fe5b14156123ab576001600160a01b03828116600090815260056020526040902080546001600160a01b0319169183169190911790555b60006123b783856114ea565b5090508061241657600360008560098111156123cf57fe5b60098111156123da57fe5b8152602080820192909252604001600090812080546001810182559082529190200180546001600160a01b0319166001600160a01b0385161790555b505b82600981111561242457fe5b604080516001600160a01b03851681526001602082015281517f7531a7aefe3985500c4dec2dcb6049a708f14c6a8a9022b435b8841bdb8e1713929181900390910190a2505050565b6001600160a01b03821660009081527fabd6e7cb50984ff9c2f3e18a2660c3353dadf4e3291deeb275dae2cd1e44fe056020526040812054600c9060ff1661250e5760405162461bcd60e51b815260206004820190815282546002600019610100600184161502019091160460248301819052909182916044909101908490801561068d5780601f106106625761010080835404028352916020019161068d565b5061263a836001600160a01b031663313ce5676040518163ffffffff1660e01b815260040160206040518083038186803b15801561254b57600080fd5b505afa15801561255f573d6000803e3d6000fd5b505050506040513d602081101561257557600080fd5b50516040805163313ce56760e01b8152905160ff909216600a0a9161263491633b9aca009183916001600160a01b037f0000000000000000000000000000000000000000000000000000000000000000169163313ce56791600480820192602092909190829003018186803b1580156125ed57600080fd5b505afa158015612601573d6000803e3d6000fd5b505050506040513d602081101561261757600080fd5b505160ff16600a0a61262e8864174876e800612d34565b90612d34565b90612f15565b9392505050565b60075460ff16151560011461269d576040805162461bcd60e51b815260206004820181905260248201527f54696d656c6f636b2069732064697361626c65642c2075736520656e61626c65604482015290519081900360640190fd5b6126a561300b565b600682815481106126b257fe5b600091825260209091206040805160c081019091526004909202018054829060ff1660098111156126df57fe5b60098111156126ea57fe5b815281546001600160a01b03610100918290048116602084015260018401541660408301526002830154606083015260039092015460ff80821615156080808501919091529390910416151560a09091015281015190915015612794576040805162461bcd60e51b815260206004820152601960248201527f416374696f6e20686173206265656e206e756c6c696669656400000000000000604482015290519081900360640190fd5b8060a00151156127eb576040805162461bcd60e51b815260206004820181905260248201527f416374696f6e2068617320616c7265616479206265656e206578656375746564604482015290519081900360640190fd5b8060600151431015612844576040805162461bcd60e51b815260206004820152601560248201527f54696d656c6f636b206e6f7420636f6d706c6574650000000000000000000000604482015290519081900360640190fd5b60078151600981111561285357fe5b1415612882576020810151600280546001600160a01b0319166001600160a01b03909216919091179055612aba565b6001600460008360000151600981111561289857fe5b60098111156128a357fe5b815260208082019290925260409081016000908120858401516001600160a01b031682529092529020805460ff19169115159190911790556004815160098111156128ea57fe5b141561292b576040818101516020808401516001600160a01b039081166000908152600590925292902080546001600160a01b031916929091169190911790555b600061293f826020015183600001516114ea565b50905080612ab857600360008360000151600981111561295b57fe5b600981111561296657fe5b81526020808201929092526040016000908120848301518154600181018355918352929091200180546001600160a01b0319166001600160a01b039092169190911790556004825160098111156129b957fe5b1415612a33576000806129d1846020015160016114ea565b915091508115612a2c57600160005260036020527fa15bc60c955c405d20d9149c709e2460f1c2d9a497496a7f46004d1772c3054c805482908110612a1257fe5b600091825260209091200180546001600160a01b03191690555b5050612ab8565b600182516009811115612a4257fe5b1415612ab857600080612a5a846020015160046114ea565b915091508115612ab557600460005260036020527f83ec6a1f0257b830b5e016457c9cf1435391bf56cc98f369a58a54fe93772465805482908110612a9b57fe5b600091825260209091200180546001600160a01b03191690555b50505b505b600160068381548110612ac957fe5b6000918252602090912060036004909202010180549115156101000261ff001990921691909117905580516009811115612aff57fe5b7f7531a7aefe3985500c4dec2dcb6049a708f14c6a8a9022b435b8841bdb8e17138260200151600160405180836001600160a01b0316815260200182151581526020019250505060405180910390a25050565b604080516001600160a01b038481166024830152604480830185905283518084039091018152606490920183526020820180517bffffffffffffffffffffffffffffffffffffffffffffffffffffffff1663a9059cbb60e01b178152925182516000946060949389169392918291908083835b60208310612be45780518252601f199092019160209182019101612bc5565b6001836020036101000a0380198251168184511680821785525050505050509050019150506000604051808303816000865af19150503d8060008114612c46576040519150601f19603f3d011682016040523d82523d6000602084013e612c4b565b606091505b5091509150818015612c79575080511580612c795750808060200190516020811015612c7657600080fd5b50515b612cca576040805162461bcd60e51b815260206004820152600f60248201527f5452414e534645525f4641494c45440000000000000000000000000000000000604482015290519081900360640190fd5b5050505050565b600082820183811015612d2b576040805162461bcd60e51b815260206004820152601b60248201527f536166654d6174683a206164646974696f6e206f766572666c6f770000000000604482015290519081900360640190fd5b90505b92915050565b600082612d4357506000612d2e565b82820282848281612d5057fe5b0414612d2b5760405162461bcd60e51b81526004018080602001828103825260218152602001806130436021913960400191505060405180910390fd5b604080516001600160a01b0385811660248301528481166044830152606480830185905283518084039091018152608490920183526020820180517bffffffffffffffffffffffffffffffffffffffffffffffffffffffff166323b872dd60e01b17815292518251600094606094938a169392918291908083835b60208310612e275780518252601f199092019160209182019101612e08565b6001836020036101000a0380198251168184511680821785525050505050509050019150506000604051808303816000865af19150503d8060008114612e89576040519150601f19603f3d011682016040523d82523d6000602084013e612e8e565b606091505b5091509150818015612ebc575080511580612ebc5750808060200190516020811015612eb957600080fd5b50515b612f0d576040805162461bcd60e51b815260206004820152601460248201527f5452414e534645525f46524f4d5f4641494c4544000000000000000000000000604482015290519081900360640190fd5b505050505050565b600061263a83836040518060400160405280601a81526020017f536166654d6174683a206469766973696f6e206279207a65726f00000000000081525060008183612fde5760405162461bcd60e51b81526004018080602001828103825283818151815260200191508051906020019080838360005b83811015612fa3578181015183820152602001612f8b565b50505050905090810190601f168015612fd05780820380516001836020036101000a031916815260200191505b509250505060405180910390fd5b506000838581612fea57fe5b049050838581612ff657fe5b0681850201851461300357fe5b949350505050565b6040805160c08101909152806000815260006020820181905260408201819052606082018190526080820181905260a0909101529056fe536166654d6174683a206d756c7469706c69636174696f6e206f766572666c6f77a164736f6c6343000705000a54726561737572793a206173736574206973206e6f742061207265736572766520746f6b656e",
  "devdoc": {
    "kind": "dev",
    "methods": {
      "baseSupply()": {
        "details": "use this any time you need to query supply",
        "returns": {
          "_0": "uint256"
        }
      },
      "deposit(uint256,address,uint256)": {
        "params": {
          "_amount": "uint256",
          "_payout": "uint256",
          "_token": "address"
        },
        "returns": {
          "_0": "send_ uint256"
        }
      },
      "depositForRedemption(uint256,address)": {
        "params": {
          "_amount": "uint256",
          "_token": "address"
        },
        "returns": {
          "send_": "uint256"
        }
      },
      "disable(uint8,address)": {
        "params": {
          "_status": "STATUS",
          "_toDisable": "address"
        }
      },
      "enable(uint8,address,address)": {
        "params": {
          "_address": "address",
          "_status": "STATUS",
          "_supplyController": "address"
        }
      },
      "execute(uint256)": {
        "params": {
          "_index": "uint256"
        }
      },
      "indexInRegistry(address,uint8)": {
        "returns": {
          "_0": "(bool, uint256)"
        }
      },
      "manage(address,uint256)": {
        "params": {
          "_amount": "uint256",
          "_token": "address"
        }
      },
      "mint(address,uint256)": {
        "params": {
          "_amount": "uint256",
          "_recipient": "address"
        }
      },
      "mintForNFTTreasury(uint256)": {
        "params": {
          "_amount": "uint256 amount of Pana to mint"
        }
      },
      "nullify(uint256)": {
        "params": {
          "_index": "uint256"
        }
      },
      "queueTimelock(uint8,address,address)": {
        "params": {
          "_address": "address",
          "_status": "STATUS",
          "_supplyController": "address"
        }
      },
      "tokenValue(address,uint256)": {
        "params": {
          "_amount": "uint256",
          "_token": "address"
        },
        "returns": {
          "value_": "uint256"
        }
      }
    },
    "version": 1
  },
  "userdoc": {
    "kind": "user",
    "methods": {
      "baseSupply()": {
        "notice": "returns supply metric"
      },
      "deposit(uint256,address,uint256)": {
        "notice": "allow approved address to deposit an asset for PANA"
      },
      "depositForRedemption(uint256,address)": {
        "notice": "allow approved address to deposit reserve token for available PANA. No new PANA is minted."
      },
      "disable(uint8,address)": {
        "notice": "disable permission from address"
      },
      "disableTimelock()": {
        "notice": "disables timelocked functions"
      },
      "enable(uint8,address,address)": {
        "notice": "enable permission from queue"
      },
      "execute(uint256)": {
        "notice": "enable queued permission"
      },
      "indexInRegistry(address,uint8)": {
        "notice": "check if registry contains address"
      },
      "initialize()": {
        "notice": "enables timelocks after initilization"
      },
      "manage(address,uint256)": {
        "notice": "allow approved address to withdraw assets"
      },
      "mint(address,uint256)": {
        "notice": "mint new PANA"
      },
      "mintForNFTTreasury(uint256)": {
        "notice": "allow approved Assurance/Parametrics Insurance NFT Treasury to mint Pana from Master Treasury."
      },
      "nullify(uint256)": {
        "notice": "cancel timelocked action"
      },
      "queueTimelock(uint8,address,address)": {
        "notice": "queue address to receive permission"
      },
      "tokenValue(address,uint256)": {
        "notice": "returns PANA valuation of asset as 1:100 The protocol has no intrinsic valuation for external tokens This function values any given asset at 100 PANA Only to be used for valuation of RESERVE TOKENS Not to be used to valuate LP tokens"
      }
    },
    "version": 1
  },
  "storageLayout": {
    "storage": [
      {
        "astId": 314,
        "contract": "contracts/treasury/Treasury.sol:PanaTreasury",
        "label": "UNAUTHORIZED",
        "offset": 0,
        "slot": "0",
        "type": "t_string_storage"
      },
      {
        "astId": 316,
        "contract": "contracts/treasury/Treasury.sol:PanaTreasury",
        "label": "authority",
        "offset": 0,
        "slot": "1",
        "type": "t_contract(IPanaAuthority)2684"
      },
      {
        "astId": 8773,
        "contract": "contracts/treasury/Treasury.sol:PanaTreasury",
        "label": "sPANA",
        "offset": 0,
        "slot": "2",
        "type": "t_contract(IsPana)3147"
      },
      {
        "astId": 8778,
        "contract": "contracts/treasury/Treasury.sol:PanaTreasury",
        "label": "registry",
        "offset": 0,
        "slot": "3",
        "type": "t_mapping(t_enum(STATUS)8756,t_array(t_address)dyn_storage)"
      },
      {
        "astId": 8784,
        "contract": "contracts/treasury/Treasury.sol:PanaTreasury",
        "label": "permissions",
        "offset": 0,
        "slot": "4",
        "type": "t_mapping(t_enum(STATUS)8756,t_mapping(t_address,t_bool))"
      },
      {
        "astId": 8788,
        "contract": "contracts/treasury/Treasury.sol:PanaTreasury",
        "label": "supplyController",
        "offset": 0,
        "slot": "5",
        "type": "t_mapping(t_address,t_address)"
      },
      {
        "astId": 8791,
        "contract": "contracts/treasury/Treasury.sol:PanaTreasury",
        "label": "permissionQueue",
        "offset": 0,
        "slot": "6",
        "type": "t_array(t_struct(Queue)8769_storage)dyn_storage"
      },
      {
        "astId": 8795,
        "contract": "contracts/treasury/Treasury.sol:PanaTreasury",
        "label": "timelockEnabled",
        "offset": 0,
        "slot": "7",
        "type": "t_bool"
      },
      {
        "astId": 8797,
        "contract": "contracts/treasury/Treasury.sol:PanaTreasury",
        "label": "initialized",
        "offset": 1,
        "slot": "7",
        "type": "t_bool"
      },
      {
        "astId": 8799,
        "contract": "contracts/treasury/Treasury.sol:PanaTreasury",
        "label": "onChainGovernanceTimelock",
        "offset": 0,
        "slot": "8",
        "type": "t_uint256"
      },
      {
        "astId": 8802,
        "contract": "contracts/treasury/Treasury.sol:PanaTreasury",
        "label": "notAccepted",
        "offset": 0,
        "slot": "9",
        "type": "t_string_storage"
      },
      {
        "astId": 8805,
        "contract": "contracts/treasury/Treasury.sol:PanaTreasury",
        "label": "notApproved",
        "offset": 0,
        "slot": "10",
        "type": "t_string_storage"
      },
      {
        "astId": 8808,
        "contract": "contracts/treasury/Treasury.sol:PanaTreasury",
        "label": "invalidToken",
        "offset": 0,
        "slot": "11",
        "type": "t_string_storage"
      },
      {
        "astId": 8811,
        "contract": "contracts/treasury/Treasury.sol:PanaTreasury",
        "label": "noValuation",
        "offset": 0,
        "slot": "12",
        "type": "t_string_storage"
      }
    ],
    "types": {
      "t_address": {
        "encoding": "inplace",
        "label": "address",
        "numberOfBytes": "20"
      },
      "t_array(t_address)dyn_storage": {
        "base": "t_address",
        "encoding": "dynamic_array",
        "label": "address[]",
        "numberOfBytes": "32"
      },
      "t_array(t_struct(Queue)8769_storage)dyn_storage": {
        "base": "t_struct(Queue)8769_storage",
        "encoding": "dynamic_array",
        "label": "struct PanaTreasury.Queue[]",
        "numberOfBytes": "32"
      },
      "t_bool": {
        "encoding": "inplace",
        "label": "bool",
        "numberOfBytes": "1"
      },
      "t_contract(IPanaAuthority)2684": {
        "encoding": "inplace",
        "label": "contract IPanaAuthority",
        "numberOfBytes": "20"
      },
      "t_contract(IsPana)3147": {
        "encoding": "inplace",
        "label": "contract IsPana",
        "numberOfBytes": "20"
      },
      "t_enum(STATUS)8756": {
        "encoding": "inplace",
        "label": "enum PanaTreasury.STATUS",
        "numberOfBytes": "1"
      },
      "t_mapping(t_address,t_address)": {
        "encoding": "mapping",
        "key": "t_address",
        "label": "mapping(address => address)",
        "numberOfBytes": "32",
        "value": "t_address"
      },
      "t_mapping(t_address,t_bool)": {
        "encoding": "mapping",
        "key": "t_address",
        "label": "mapping(address => bool)",
        "numberOfBytes": "32",
        "value": "t_bool"
      },
      "t_mapping(t_enum(STATUS)8756,t_array(t_address)dyn_storage)": {
        "encoding": "mapping",
        "key": "t_enum(STATUS)8756",
        "label": "mapping(enum PanaTreasury.STATUS => address[])",
        "numberOfBytes": "32",
        "value": "t_array(t_address)dyn_storage"
      },
      "t_mapping(t_enum(STATUS)8756,t_mapping(t_address,t_bool))": {
        "encoding": "mapping",
        "key": "t_enum(STATUS)8756",
        "label": "mapping(enum PanaTreasury.STATUS => mapping(address => bool))",
        "numberOfBytes": "32",
        "value": "t_mapping(t_address,t_bool)"
      },
      "t_string_storage": {
        "encoding": "bytes",
        "label": "string",
        "numberOfBytes": "32"
      },
      "t_struct(Queue)8769_storage": {
        "encoding": "inplace",
        "label": "struct PanaTreasury.Queue",
        "members": [
          {
            "astId": 8758,
            "contract": "contracts/treasury/Treasury.sol:PanaTreasury",
            "label": "managing",
            "offset": 0,
            "slot": "0",
            "type": "t_enum(STATUS)8756"
          },
          {
            "astId": 8760,
            "contract": "contracts/treasury/Treasury.sol:PanaTreasury",
            "label": "toPermit",
            "offset": 1,
            "slot": "0",
            "type": "t_address"
          },
          {
            "astId": 8762,
            "contract": "contracts/treasury/Treasury.sol:PanaTreasury",
            "label": "supplyController",
            "offset": 0,
            "slot": "1",
            "type": "t_address"
          },
          {
            "astId": 8764,
            "contract": "contracts/treasury/Treasury.sol:PanaTreasury",
            "label": "timelockEnd",
            "offset": 0,
            "slot": "2",
            "type": "t_uint256"
          },
          {
            "astId": 8766,
            "contract": "contracts/treasury/Treasury.sol:PanaTreasury",
            "label": "nullify",
            "offset": 0,
            "slot": "3",
            "type": "t_bool"
          },
          {
            "astId": 8768,
            "contract": "contracts/treasury/Treasury.sol:PanaTreasury",
            "label": "executed",
            "offset": 1,
            "slot": "3",
            "type": "t_bool"
          }
        ],
        "numberOfBytes": "128"
      },
      "t_uint256": {
        "encoding": "inplace",
        "label": "uint256",
        "numberOfBytes": "32"
      }
    }
  }
}