{
  "address": "0x3D0DA0e2c27FE2A14D2bEEA7165F183EBc0ca64A",
  "abi": [
    {
      "inputs": [
        {
          "internalType": "address",
          "name": "_pana",
          "type": "address"
        },
        {
          "internalType": "address",
          "name": "_sPana",
          "type": "address"
        },
        {
          "internalType": "address",
          "name": "_karsha",
          "type": "address"
        },
        {
          "internalType": "address",
          "name": "_authority",
          "type": "address"
        }
      ],
      "stateMutability": "nonpayable",
      "type": "constructor"
    },
    {
      "anonymous": false,
      "inputs": [
        {
          "indexed": true,
          "internalType": "contract IPanaAuthority",
          "name": "authority",
          "type": "address"
        }
      ],
      "name": "AuthorityUpdated",
      "type": "event"
    },
    {
      "anonymous": false,
      "inputs": [
        {
          "indexed": false,
          "internalType": "address",
          "name": "distributor",
          "type": "address"
        }
      ],
      "name": "DistributorSet",
      "type": "event"
    },
    {
      "anonymous": false,
      "inputs": [
        {
          "indexed": false,
          "internalType": "uint256",
          "name": "warmup",
          "type": "uint256"
        }
      ],
      "name": "WarmupSet",
      "type": "event"
    },
    {
      "inputs": [],
      "name": "KARSHA",
      "outputs": [
        {
          "internalType": "contract IKarsha",
          "name": "",
          "type": "address"
        }
      ],
      "stateMutability": "view",
      "type": "function"
    },
    {
      "inputs": [],
      "name": "PANA",
      "outputs": [
        {
          "internalType": "contract IERC20",
          "name": "",
          "type": "address"
        }
      ],
      "stateMutability": "view",
      "type": "function"
    },
    {
      "inputs": [
        {
          "internalType": "bool",
          "name": "allow",
          "type": "bool"
        }
      ],
      "name": "allowExternalStaking",
      "outputs": [],
      "stateMutability": "nonpayable",
      "type": "function"
    },
    {
      "inputs": [],
      "name": "authority",
      "outputs": [
        {
          "internalType": "contract IPanaAuthority",
          "name": "",
          "type": "address"
        }
      ],
      "stateMutability": "view",
      "type": "function"
    },
    {
      "inputs": [],
      "name": "bondDepositor",
      "outputs": [
        {
          "internalType": "address",
          "name": "",
          "type": "address"
        }
      ],
      "stateMutability": "view",
      "type": "function"
    },
    {
      "inputs": [],
      "name": "distributor",
      "outputs": [
        {
          "internalType": "contract IDistributor",
          "name": "",
          "type": "address"
        }
      ],
      "stateMutability": "view",
      "type": "function"
    },
    {
      "inputs": [],
      "name": "epoch",
      "outputs": [
        {
          "internalType": "uint256",
          "name": "length",
          "type": "uint256"
        },
        {
          "internalType": "uint256",
          "name": "number",
          "type": "uint256"
        },
        {
          "internalType": "uint256",
          "name": "end",
          "type": "uint256"
        },
        {
          "internalType": "uint256",
          "name": "distribute",
          "type": "uint256"
        }
      ],
      "stateMutability": "view",
      "type": "function"
    },
    {
      "inputs": [],
      "name": "index",
      "outputs": [
        {
          "internalType": "uint256",
          "name": "",
          "type": "uint256"
        }
      ],
      "stateMutability": "view",
      "type": "function"
    },
    {
      "inputs": [],
      "name": "rebase",
      "outputs": [
        {
          "internalType": "uint256",
          "name": "",
          "type": "uint256"
        }
      ],
      "stateMutability": "nonpayable",
      "type": "function"
    },
    {
      "inputs": [],
      "name": "sPANA",
      "outputs": [
        {
          "internalType": "contract IsPana",
          "name": "",
          "type": "address"
        }
      ],
      "stateMutability": "view",
      "type": "function"
    },
    {
      "inputs": [],
      "name": "secondsToNextEpoch",
      "outputs": [
        {
          "internalType": "uint256",
          "name": "",
          "type": "uint256"
        }
      ],
      "stateMutability": "view",
      "type": "function"
    },
    {
      "inputs": [
        {
          "internalType": "contract IPanaAuthority",
          "name": "_newAuthority",
          "type": "address"
        }
      ],
      "name": "setAuthority",
      "outputs": [],
      "stateMutability": "nonpayable",
      "type": "function"
    },
    {
      "inputs": [
        {
          "internalType": "address",
          "name": "_bondDepositor",
          "type": "address"
        }
      ],
      "name": "setBondDepositor",
      "outputs": [],
      "stateMutability": "nonpayable",
      "type": "function"
    },
    {
      "inputs": [
        {
          "internalType": "address",
          "name": "_distributor",
          "type": "address"
        }
      ],
      "name": "setDistributor",
      "outputs": [],
      "stateMutability": "nonpayable",
      "type": "function"
    },
    {
      "inputs": [
        {
          "internalType": "uint256",
          "name": "_epochLength",
          "type": "uint256"
        },
        {
          "internalType": "uint256",
          "name": "_firstEpochNumber",
          "type": "uint256"
        },
        {
          "internalType": "uint256",
          "name": "_firstEpochTime",
          "type": "uint256"
        }
      ],
      "name": "setFirstEpoch",
      "outputs": [],
      "stateMutability": "nonpayable",
      "type": "function"
    },
    {
      "inputs": [
        {
          "internalType": "address",
          "name": "_to",
          "type": "address"
        },
        {
          "internalType": "uint256",
          "name": "_amount",
          "type": "uint256"
        }
      ],
      "name": "stake",
      "outputs": [
        {
          "internalType": "uint256",
          "name": "",
          "type": "uint256"
        }
      ],
      "stateMutability": "nonpayable",
      "type": "function"
    },
    {
      "inputs": [
        {
          "internalType": "address",
          "name": "_to",
          "type": "address"
        },
        {
          "internalType": "uint256",
          "name": "_amount",
          "type": "uint256"
        },
        {
          "internalType": "bool",
          "name": "_trigger",
          "type": "bool"
        }
      ],
      "name": "unstake",
      "outputs": [
        {
          "internalType": "uint256",
          "name": "amount_",
          "type": "uint256"
        }
      ],
      "stateMutability": "nonpayable",
      "type": "function"
    }
  ],
  "transactionHash": "0x9a3459aa08620bd0f3af49d90b46381a986f04a05d3fcb28ca7bffb2a9b31b23",
  "args": [
    "0x1709AF1e73225E1a8BaC94D921d03449B9e331C6",
    "0xe75c7C6C1491B91887FB4b72C4F42b0cD6B6eeBC",
    "0x44333156C47ac50631236B02c97751583a334f41",
    "0x17382e3636f8a5c590Ef07Ee6Ef82fc9Ea93e10F"
  ],
  "solcInputHash": "e0cf5b0272a43d8bcfbeb7c6531464a4",
  "bytecode": "0x610120604052600c60e08190526b15539055551213d49256915160a21b61010090815262000031916000919062000218565b503480156200003f57600080fd5b5060405162001a9938038062001a99833981810160405260808110156200006557600080fd5b5080516020820151604080840151606090940151600180546001600160a01b0319166001600160a01b038316908117909155915193949293909182917f2f658b440c35314f52658ea8a740e05b284cdc84dc9ae01e891f21b8933e7cad90600090a2506001600160a01b03841662000119576040805162461bcd60e51b81526020600482015260126024820152715a65726f20616464726573733a2050414e4160701b604482015290519081900360640190fd5b6001600160601b0319606085901b166080526001600160a01b03831662000187576040805162461bcd60e51b815260206004820152601360248201527f5a65726f20616464726573733a207350414e4100000000000000000000000000604482015290519081900360640190fd5b6001600160601b0319606084901b1660a0526001600160a01b038216620001f5576040805162461bcd60e51b815260206004820152601460248201527f5a65726f20616464726573733a204b4152534841000000000000000000000000604482015290519081900360640190fd5b5060601b6001600160601b03191660c05250506006805460ff19169055620002c4565b828054600181600116156101000203166002900490600052602060002090601f0160209004810192826200025057600085556200029b565b82601f106200026b57805160ff19168380011785556200029b565b828001600101855582156200029b579182015b828111156200029b5782518255916020019190600101906200027e565b50620002a9929150620002ad565b5090565b5b80821115620002a95760008155600101620002ae565b60805160601c60a05160601c60c05160601c611763620003366000398061047a52806104df528061071652806114a152806114d152806115df52508061068c5280610b975280610da6528061101b525080610577528061065952806108995280610c425280610f6452506117636000f3fe608060405234801561001057600080fd5b506004361061011b5760003560e01c8063900cf0cf116100b2578063aef08f5c11610081578063bf7e214f11610066578063bf7e214f146102c8578063bfe10928146102d0578063c71cdd53146102d85761011b565b8063aef08f5c1461029a578063af14052c146102c05761011b565b8063900cf0cf146102305780639483c1d71461025e5780639fef32cc14610266578063adc9772e1461026e5761011b565b806375619ab5116100ee57806375619ab5146101b357806377e93ca8146101d95780637a9e5e4b146101e15780638d453dec146102075761011b565b80631304cada1461012057806321d0af34146101415780632986c0e514610187578063401e52b91461018f575b600080fd5b61013f6004803603602081101561013657600080fd5b503515156102e0565b005b6101756004803603606081101561015757600080fd5b506001600160a01b038135169060208101359060400135151561043f565b60408051918252519081900360200190f35b610175610688565b610197610714565b604080516001600160a01b039092168252519081900360200190f35b61013f600480360360208110156101c957600080fd5b50356001600160a01b0316610738565b610197610897565b61013f600480360360208110156101f757600080fd5b50356001600160a01b03166108bb565b61013f6004803603606081101561021d57600080fd5b50803590602081013590604001356109fe565b610238610b71565b604080519485526020850193909352838301919091526060830152519081900360800190f35b610175610b80565b610197610b95565b6101756004803603604081101561028457600080fd5b506001600160a01b038135169060200135610bb9565b61013f600480360360208110156102b057600080fd5b50356001600160a01b0316610c7b565b610175610d96565b6101976110c8565b6101976110d7565b6101976110eb565b600160009054906101000a90046001600160a01b03166001600160a01b0316630c340a246040518163ffffffff1660e01b815260040160206040518083038186803b15801561032e57600080fd5b505afa158015610342573d6000803e3d6000fd5b505050506040513d602081101561035857600080fd5b50516000906001600160a01b031633146104055760405162461bcd60e51b81526020600482019081528254600260001961010060018416150201909116046024830181905290918291604490910190849080156103f65780601f106103cb576101008083540402835291602001916103f6565b820191906000526020600020905b8154815290600101906020018083116103d957829003601f168201915b50509250505060405180910390fd5b5060068054911515600160a81b027fffffffffffffffffffff00ffffffffffffffffffffffffffffffffffffffffff909216919091179055565b816000821561045357610450610d96565b90505b60408051632770a7eb60e21b81523360048201526024810186905290516001600160a01b037f00000000000000000000000000000000000000000000000000000000000000001691639dc29fac91604480830192600092919082900301818387803b1580156104c157600080fd5b505af11580156104d5573d6000803e3d6000fd5b50505050610573817f00000000000000000000000000000000000000000000000000000000000000006001600160a01b031663a8248768856040518263ffffffff1660e01b81526004018082815260200191505060206040518083038186803b15801561054157600080fd5b505afa158015610555573d6000803e3d6000fd5b505050506040513d602081101561056b57600080fd5b5051906110fa565b91507f00000000000000000000000000000000000000000000000000000000000000006001600160a01b03166370a08231306040518263ffffffff1660e01b815260040180826001600160a01b0316815260200191505060206040518083038186803b1580156105e257600080fd5b505afa1580156105f6573d6000803e3d6000fd5b505050506040513d602081101561060c57600080fd5b505182111561064c5760405162461bcd60e51b815260040180806020018281038252602581526020018061170c6025913960400191505060405180910390fd5b6106806001600160a01b037f0000000000000000000000000000000000000000000000000000000000000000168684611154565b509392505050565b60007f00000000000000000000000000000000000000000000000000000000000000006001600160a01b0316632986c0e56040518163ffffffff1660e01b815260040160206040518083038186803b1580156106e357600080fd5b505afa1580156106f7573d6000803e3d6000fd5b505050506040513d602081101561070d57600080fd5b5051905090565b7f000000000000000000000000000000000000000000000000000000000000000081565b600160009054906101000a90046001600160a01b03166001600160a01b0316630c340a246040518163ffffffff1660e01b815260040160206040518083038186803b15801561078657600080fd5b505afa15801561079a573d6000803e3d6000fd5b505050506040513d60208110156107b057600080fd5b50516000906001600160a01b031633146108235760405162461bcd60e51b81526020600482019081528254600260001961010060018416150201909116046024830181905290918291604490910190849080156103f65780601f106103cb576101008083540402835291602001916103f6565b50600680546001600160a01b03831661010081027fffffffffffffffffffffff0000000000000000000000000000000000000000ff9092169190911790915560408051918252517f86719c518c7d99ac94b3d405d462ea876ba5cd0a978461dc9a7c9862a94858869181900360200190a150565b7f000000000000000000000000000000000000000000000000000000000000000081565b600160009054906101000a90046001600160a01b03166001600160a01b0316630c340a246040518163ffffffff1660e01b815260040160206040518083038186803b15801561090957600080fd5b505afa15801561091d573d6000803e3d6000fd5b505050506040513d602081101561093357600080fd5b50516000906001600160a01b031633146109a65760405162461bcd60e51b81526020600482019081528254600260001961010060018416150201909116046024830181905290918291604490910190849080156103f65780601f106103cb576101008083540402835291602001916103f6565b506001805473ffffffffffffffffffffffffffffffffffffffff19166001600160a01b0383169081179091556040517f2f658b440c35314f52658ea8a740e05b284cdc84dc9ae01e891f21b8933e7cad90600090a250565b600160009054906101000a90046001600160a01b03166001600160a01b0316630c340a246040518163ffffffff1660e01b815260040160206040518083038186803b158015610a4c57600080fd5b505afa158015610a60573d6000803e3d6000fd5b505050506040513d6020811015610a7657600080fd5b50516000906001600160a01b03163314610ae95760405162461bcd60e51b81526020600482019081528254600260001961010060018416150201909116046024830181905290918291604490910190849080156103f65780601f106103cb576101008083540402835291602001916103f6565b5060065460ff1615610b2c5760405162461bcd60e51b81526004018080602001828103825260268152602001806117316026913960400191505060405180910390fd5b6040805160808101825284815260208101849052908101829052600060609091018190526002939093556003919091556004556005556006805460ff19166001179055565b60025460035460045460055484565b600454600090610b9090426112d3565b905090565b7f000000000000000000000000000000000000000000000000000000000000000081565b600654600090600160a81b900460ff16610c2c576007546001600160a01b03163314610c2c576040805162461bcd60e51b815260206004820152601f60248201527f45787465726e616c205374616b696e67206973206e6f7420616c6c6f77656400604482015290519081900360640190fd5b610c34610d96565b50610c6a6001600160a01b037f000000000000000000000000000000000000000000000000000000000000000016333085611315565b610c74838361149d565b9392505050565b600160009054906101000a90046001600160a01b03166001600160a01b0316630c340a246040518163ffffffff1660e01b815260040160206040518083038186803b158015610cc957600080fd5b505afa158015610cdd573d6000803e3d6000fd5b505050506040513d6020811015610cf357600080fd5b50516000906001600160a01b03163314610d665760405162461bcd60e51b81526020600482019081528254600260001961010060018416150201909116046024830181905290918291604490910190849080156103f65780601f106103cb576101008083540402835291602001916103f6565b506007805473ffffffffffffffffffffffffffffffffffffffff19166001600160a01b0392909216919091179055565b60008042600280015411610b90577f00000000000000000000000000000000000000000000000000000000000000006001600160a01b031663058ecdb46002600301546002600101546040518363ffffffff1660e01b81526004018083815260200182815260200192505050602060405180830381600087803b158015610e1c57600080fd5b505af1158015610e30573d6000803e3d6000fd5b505050506040513d6020811015610e4657600080fd5b5050600254600454610e57916110fa565b60045560038054600101905560065461010090046001600160a01b031615610f6057600660019054906101000a90046001600160a01b03166001600160a01b031663e4fc6b6d6040518163ffffffff1660e01b8152600401600060405180830381600087803b158015610ec957600080fd5b505af1158015610edd573d6000803e3d6000fd5b50505050600660019054906101000a90046001600160a01b03166001600160a01b031663e7187e8a6040518163ffffffff1660e01b8152600401602060405180830381600087803b158015610f3157600080fd5b505af1158015610f45573d6000803e3d6000fd5b505050506040513d6020811015610f5b57600080fd5b505190505b60007f00000000000000000000000000000000000000000000000000000000000000006001600160a01b03166370a08231306040518263ffffffff1660e01b815260040180826001600160a01b0316815260200191505060206040518083038186803b158015610fcf57600080fd5b505afa158015610fe3573d6000803e3d6000fd5b505050506040513d6020811015610ff957600080fd5b505160408051639358928b60e01b815290519192506000916001600160a01b037f00000000000000000000000000000000000000000000000000000000000000001691639358928b916004808301926020929190829003018186803b15801561106157600080fd5b505afa158015611075573d6000803e3d6000fd5b505050506040513d602081101561108b57600080fd5b5051905061109981846110fa565b82116110a95760006005556110c1565b6110bd836110b784846112d3565b906112d3565b6005555b5050905090565b6001546001600160a01b031681565b60065461010090046001600160a01b031681565b6007546001600160a01b031681565b600082820183811015610c74576040805162461bcd60e51b815260206004820152601b60248201527f536166654d6174683a206164646974696f6e206f766572666c6f770000000000604482015290519081900360640190fd5b604080516001600160a01b038481166024830152604480830185905283518084039091018152606490920183526020820180517bffffffffffffffffffffffffffffffffffffffffffffffffffffffff1663a9059cbb60e01b178152925182516000946060949389169392918291908083835b602083106111e65780518252601f1990920191602091820191016111c7565b6001836020036101000a0380198251168184511680821785525050505050509050019150506000604051808303816000865af19150503d8060008114611248576040519150601f19603f3d011682016040523d82523d6000602084013e61124d565b606091505b509150915081801561127b57508051158061127b575080806020019051602081101561127857600080fd5b50515b6112cc576040805162461bcd60e51b815260206004820152600f60248201527f5452414e534645525f4641494c45440000000000000000000000000000000000604482015290519081900360640190fd5b5050505050565b6000610c7483836040518060400160405280601e81526020017f536166654d6174683a207375627472616374696f6e206f766572666c6f770000815250611674565b604080516001600160a01b0385811660248301528481166044830152606480830185905283518084039091018152608490920183526020820180517bffffffffffffffffffffffffffffffffffffffffffffffffffffffff166323b872dd60e01b17815292518251600094606094938a169392918291908083835b602083106113af5780518252601f199092019160209182019101611390565b6001836020036101000a0380198251168184511680821785525050505050509050019150506000604051808303816000865af19150503d8060008114611411576040519150601f19603f3d011682016040523d82523d6000602084013e611416565b606091505b5091509150818015611444575080511580611444575080806020019051602081101561144157600080fd5b50515b611495576040805162461bcd60e51b815260206004820152601460248201527f5452414e534645525f46524f4d5f4641494c4544000000000000000000000000604482015290519081900360640190fd5b505050505050565b60007f00000000000000000000000000000000000000000000000000000000000000006001600160a01b03166340c10f19847f00000000000000000000000000000000000000000000000000000000000000006001600160a01b03166366a5236c866040518263ffffffff1660e01b81526004018082815260200191505060206040518083038186803b15801561153357600080fd5b505afa158015611547573d6000803e3d6000fd5b505050506040513d602081101561155d57600080fd5b5051604080517fffffffff0000000000000000000000000000000000000000000000000000000060e086901b1681526001600160a01b039093166004840152602483019190915251604480830192600092919082900301818387803b1580156115c557600080fd5b505af11580156115d9573d6000803e3d6000fd5b505050507f00000000000000000000000000000000000000000000000000000000000000006001600160a01b03166366a5236c836040518263ffffffff1660e01b81526004018082815260200191505060206040518083038186803b15801561164157600080fd5b505afa158015611655573d6000803e3d6000fd5b505050506040513d602081101561166b57600080fd5b50519392505050565b600081848411156117035760405162461bcd60e51b81526004018080602001828103825283818151815260200191508051906020019080838360005b838110156116c85781810151838201526020016116b0565b50505050905090810190601f1680156116f55780820380516001836020036101000a031916815260200191505b509250505060405180910390fd5b50505090039056fe496e73756666696369656e742050616e612062616c616e636520696e20636f6e747261637443616e6e6f7420496e697469616c697a652065706f6368206d756c7469706c652074696d6573a164736f6c6343000705000a",
  "devdoc": {
    "kind": "dev",
    "methods": {
      "index()": {
        "returns": {
          "_0": "uint"
        }
      },
      "rebase()": {
        "returns": {
          "_0": "uint256"
        }
      },
      "setDistributor(address)": {
        "params": {
          "_distributor": "address"
        }
      },
      "setFirstEpoch(uint256,uint256,uint256)": {
        "params": {
          "_epochLength": "uint",
          "_firstEpochNumber": "uint",
          "_firstEpochTime": "uint"
        }
      },
      "stake(address,uint256)": {
        "params": {
          "_amount": "uint",
          "_to": "address"
        },
        "returns": {
          "_0": "uint"
        }
      },
      "unstake(address,uint256,bool)": {
        "params": {
          "_amount": "uint",
          "_to": "address",
          "_trigger": "bool"
        },
        "returns": {
          "amount_": "uint"
        }
      }
    },
    "version": 1
  },
  "userdoc": {
    "kind": "user",
    "methods": {
      "index()": {
        "notice": "returns the sPana index, which tracks rebase growth"
      },
      "rebase()": {
        "notice": "trigger rebase if epoch over"
      },
      "secondsToNextEpoch()": {
        "notice": "seconds until the next epoch begins"
      },
      "setDistributor(address)": {
        "notice": "sets the contract address for LP staking"
      },
      "setFirstEpoch(uint256,uint256,uint256)": {
        "notice": "initialize first rebase parameters"
      },
      "stake(address,uint256)": {
        "notice": "stake Pana"
      },
      "unstake(address,uint256,bool)": {
        "notice": "redeem Pana/sPana for Karsha/Pana"
      }
    },
    "version": 1
  },
  "storageLayout": {
    "storage": [
      {
        "astId": 314,
        "contract": "contracts/staking/Staking.sol:PanaStaking",
        "label": "UNAUTHORIZED",
        "offset": 0,
        "slot": "0",
        "type": "t_string_storage"
      },
      {
        "astId": 316,
        "contract": "contracts/staking/Staking.sol:PanaStaking",
        "label": "authority",
        "offset": 0,
        "slot": "1",
        "type": "t_contract(IPanaAuthority)1953"
      },
      {
        "astId": 4939,
        "contract": "contracts/staking/Staking.sol:PanaStaking",
        "label": "epoch",
        "offset": 0,
        "slot": "2",
        "type": "t_struct(Epoch)4931_storage"
      },
      {
        "astId": 4941,
        "contract": "contracts/staking/Staking.sol:PanaStaking",
        "label": "firstEpochSet",
        "offset": 0,
        "slot": "6",
        "type": "t_bool"
      },
      {
        "astId": 4943,
        "contract": "contracts/staking/Staking.sol:PanaStaking",
        "label": "distributor",
        "offset": 1,
        "slot": "6",
        "type": "t_contract(IDistributor)1640"
      },
      {
        "astId": 4945,
        "contract": "contracts/staking/Staking.sol:PanaStaking",
        "label": "_allowedExternalStaking",
        "offset": 21,
        "slot": "6",
        "type": "t_bool"
      },
      {
        "astId": 4947,
        "contract": "contracts/staking/Staking.sol:PanaStaking",
        "label": "bondDepositor",
        "offset": 0,
        "slot": "7",
        "type": "t_address"
      }
    ],
    "types": {
      "t_address": {
        "encoding": "inplace",
        "label": "address",
        "numberOfBytes": "20"
      },
      "t_bool": {
        "encoding": "inplace",
        "label": "bool",
        "numberOfBytes": "1"
      },
      "t_contract(IDistributor)1640": {
        "encoding": "inplace",
        "label": "contract IDistributor",
        "numberOfBytes": "20"
      },
      "t_contract(IPanaAuthority)1953": {
        "encoding": "inplace",
        "label": "contract IPanaAuthority",
        "numberOfBytes": "20"
      },
      "t_string_storage": {
        "encoding": "bytes",
        "label": "string",
        "numberOfBytes": "32"
      },
      "t_struct(Epoch)4931_storage": {
        "encoding": "inplace",
        "label": "struct PanaStaking.Epoch",
        "members": [
          {
            "astId": 4924,
            "contract": "contracts/staking/Staking.sol:PanaStaking",
            "label": "length",
            "offset": 0,
            "slot": "0",
            "type": "t_uint256"
          },
          {
            "astId": 4926,
            "contract": "contracts/staking/Staking.sol:PanaStaking",
            "label": "number",
            "offset": 0,
            "slot": "1",
            "type": "t_uint256"
          },
          {
            "astId": 4928,
            "contract": "contracts/staking/Staking.sol:PanaStaking",
            "label": "end",
            "offset": 0,
            "slot": "2",
            "type": "t_uint256"
          },
          {
            "astId": 4930,
            "contract": "contracts/staking/Staking.sol:PanaStaking",
            "label": "distribute",
            "offset": 0,
            "slot": "3",
            "type": "t_uint256"
          }
        ],
        "numberOfBytes": "128"
      },
      "t_uint256": {
        "encoding": "inplace",
        "label": "uint256",
        "numberOfBytes": "32"
      }
    }
  }
}