{
  "address": "0x8EE19fE0Da2c29bf864049b09997019781ab4Fe2",
  "abi": [
    {
      "inputs": [
        {
          "internalType": "address",
          "name": "_PANA",
          "type": "address"
        }
      ],
      "stateMutability": "nonpayable",
      "type": "constructor"
    },
    {
      "inputs": [
        {
          "internalType": "address",
          "name": "_pair",
          "type": "address"
        }
      ],
      "name": "getKValue",
      "outputs": [
        {
          "internalType": "uint256",
          "name": "k_",
          "type": "uint256"
        }
      ],
      "stateMutability": "view",
      "type": "function"
    },
    {
      "inputs": [
        {
          "internalType": "address",
          "name": "_pair",
          "type": "address"
        },
        {
          "internalType": "uint256",
          "name": "_baseValue",
          "type": "uint256"
        }
      ],
      "name": "getTotalValue",
      "outputs": [
        {
          "internalType": "uint256",
          "name": "_value",
          "type": "uint256"
        }
      ],
      "stateMutability": "view",
      "type": "function"
    },
    {
      "inputs": [
        {
          "internalType": "address",
          "name": "_pair",
          "type": "address"
        },
        {
          "internalType": "uint256",
          "name": "amount_",
          "type": "uint256"
        },
        {
          "internalType": "uint256",
          "name": "_baseValue",
          "type": "uint256"
        }
      ],
      "name": "valuation",
      "outputs": [
        {
          "internalType": "uint256",
          "name": "_value",
          "type": "uint256"
        }
      ],
      "stateMutability": "view",
      "type": "function"
    }
  ],
  "transactionHash": "0xc837e1bf0d33bc6a257715e61473a22385fe16f0f8ebda0c5051b20691303a6c",
  "args": [
    "0x1709AF1e73225E1a8BaC94D921d03449B9e331C6"
  ],
  "solcInputHash": "e0cf5b0272a43d8bcfbeb7c6531464a4",
  "bytecode": "0x60a060405234801561001057600080fd5b50604051610c4c380380610c4c8339818101604052602081101561003357600080fd5b50516001600160a01b038116610085576040805162461bcd60e51b81526020600482015260126024820152715a65726f20616464726573733a2050414e4160701b604482015290519081900360640190fd5b606081901b6001600160601b0319166080526001600160a01b0316610b9a6100b260003950610b9a6000f3fe608060405234801561001057600080fd5b50600436106100415760003560e01c8063490084ef146100465780636b3e22fc1461007e578063bd689a45146100aa575b600080fd5b61006c6004803603602081101561005c57600080fd5b50356001600160a01b03166100dc565b60408051918252519081900360200190f35b61006c6004803603604081101561009457600080fd5b506001600160a01b038135169060200135610176565b61006c600480360360608110156100c057600080fd5b506001600160a01b0381351690602081013590604001356101ad565b6000806000836001600160a01b0316630902f1ac6040518163ffffffff1660e01b815260040160606040518083038186803b15801561011a57600080fd5b505afa15801561012e573d6000803e3d6000fd5b505050506040513d606081101561014457600080fd5b5080516020909101516dffffffffffffffffffffffffffff918216935016905061016e8282610586565b949350505050565b60006101a660026101956101a18561019b633b9aca006101958a6100dc565b90610586565b906105e8565b61062a565b9392505050565b6000806101ba8584610176565b90506000856001600160a01b03166318160ddd6040518163ffffffff1660e01b815260040160206040518083038186803b1580156101f757600080fd5b505afa15801561020b573d6000803e3d6000fd5b505050506040513d602081101561022157600080fd5b5051905060006102318387610586565b90506000600a90506000886001600160a01b0316630dfe16816040518163ffffffff1660e01b815260040160206040518083038186803b15801561027457600080fd5b505afa158015610288573d6000803e3d6000fd5b505050506040513d602081101561029e57600080fd5b50516040805163313ce56760e01b815290516001600160a01b039092169163313ce56791600480820192602092909190829003018186803b1580156102e257600080fd5b505afa1580156102f6573d6000803e3d6000fd5b505050506040513d602081101561030c57600080fd5b50516040805163d21220a760e01b8152905160ff90921692506000916001600160a01b038c169163d21220a7916004808301926020929190829003018186803b15801561035857600080fd5b505afa15801561036c573d6000803e3d6000fd5b505050506040513d602081101561038257600080fd5b50516040805163313ce56760e01b815290516001600160a01b039092169163313ce56791600480820192602092909190829003018186803b1580156103c657600080fd5b505afa1580156103da573d6000803e3d6000fd5b505050506040513d60208110156103f057600080fd5b50516040805163313ce56760e01b8152905160ff90921692506000916001600160a01b038d169163313ce567916004808301926020929190829003018186803b15801561043c57600080fd5b505afa158015610450573d6000803e3d6000fd5b505050506040513d602081101561046657600080fd5b505160ff16905060006104798484610695565b905060006104888260026105e8565b90506000848611156104a55761049e86866106ef565b90506104b2565b6104af85876106ef565b90505b8382146104c8576104c5818386036106ef565b90505b6104e2633b9aca0061019b8e6101958c600a87900a610586565b97506002830615610550576509184e72a0008810156105235761051c69021e19e0c9bab240000061019b8a68ab6d6b197541ae759f610586565b975061054b565b610548633b9aca0061019b68ab6d6b197541ae759f6101958c6509184e72a0006105e8565b97505b61055e565b61055b88600a6105e8565b97505b50505050505061057a816101956105758587610731565b6108b3565b98975050505050505050565b600082610595575060006105e2565b828202828482816105a257fe5b04146105df5760405162461bcd60e51b8152600401808060200182810382526021815260200180610b6d6021913960400191505060405180910390fd5b90505b92915050565b60006101a683836040518060400160405280601a81526020017f536166654d6174683a206469766973696f6e206279207a65726f0000000000008152506108d3565b60006003821115610686575080600061064e6106478360026105e8565b6001610695565b90505b818110156106805780915061067961067261066c85846105e8565b83610695565b60026105e8565b9050610651565b50610690565b8115610690575060015b919050565b6000828201838110156105df576040805162461bcd60e51b815260206004820152601b60248201527f536166654d6174683a206164646974696f6e206f766572666c6f770000000000604482015290519081900360640190fd5b60006101a683836040518060400160405280601e81526020017f536166654d6174683a207375627472616374696f6e206f766572666c6f770000815250610984565b610739610b34565b600082116107785760405162461bcd60e51b8152600401808060200182810382526026815260200180610b476026913960400191505060405180910390fd5b8261079257506040805160208101909152600081526105e2565b71ffffffffffffffffffffffffffffffffffff831161083957600082607085901b816107ba57fe5b0490506001600160e01b03811115610819576040805162461bcd60e51b815260206004820152601e60248201527f4669786564506f696e743a3a6672616374696f6e3a206f766572666c6f770000604482015290519081900360640190fd5b6040518060200160405280826001600160e01b03168152509150506105e2565b6000610855846e010000000000000000000000000000856109de565b90506001600160e01b03811115610819576040805162461bcd60e51b815260206004820152601e60248201527f4669786564506f696e743a3a6672616374696f6e3a206f766572666c6f770000604482015290519081900360640190fd5b516e0100000000000000000000000000006001600160e01b039091160490565b6000818361095f5760405162461bcd60e51b81526004018080602001828103825283818151815260200191508051906020019080838360005b8381101561092457818101518382015260200161090c565b50505050905090810190601f1680156109515780820380516001836020036101000a031916815260200191505b509250505060405180910390fd5b50600083858161096b57fe5b04905083858161097757fe5b0681850201851461016e57fe5b600081848411156109d65760405162461bcd60e51b815260206004820181815283516024840152835190928392604490910191908501908083836000831561092457818101518382015260200161090c565b505050900390565b60008060006109ed8686610a97565b91509150600084806109fb57fe5b868809905082811115610a0f576001820391505b918290039181610a2d57848381610a2257fe5b0493505050506101a6565b848210610a81576040805162461bcd60e51b815260206004820152601a60248201527f46756c6c4d6174683a2046554c4c4449565f4f564552464c4f57000000000000604482015290519081900360640190fd5b610a8c838387610ac4565b979650505050505050565b6000808060001984860990508385029250828103915082811015610abc576001820391505b509250929050565b60008181038216808381610ad457fe5b049250808581610ae057fe5b049450808160000381610aef57fe5b60028581038087028203028087028203028087028203028087028203028087028203028087028203029586029003909402930460010193909302939093010292915050565b6040805160208101909152600081529056fe4669786564506f696e743a3a6672616374696f6e3a206469766973696f6e206279207a65726f536166654d6174683a206d756c7469706c69636174696f6e206f766572666c6f77a164736f6c6343000705000a",
  "devdoc": {
    "kind": "dev",
    "methods": {},
    "version": 1
  },
  "userdoc": {
    "kind": "user",
    "methods": {},
    "version": 1
  },
  "storageLayout": {
    "storage": [],
    "types": null
  }
}