{
  "address": "0xf25ec7EE8553512586f7E8051046CF84aD61B97d",
  "abi": [
    {
      "inputs": [],
      "stateMutability": "nonpayable",
      "type": "constructor"
    },
    {
      "anonymous": false,
      "inputs": [
        {
          "indexed": true,
          "internalType": "address",
          "name": "owner",
          "type": "address"
        },
        {
          "indexed": true,
          "internalType": "address",
          "name": "spender",
          "type": "address"
        },
        {
          "indexed": false,
          "internalType": "uint256",
          "name": "value",
          "type": "uint256"
        }
      ],
      "name": "Approval",
      "type": "event"
    },
    {
      "anonymous": false,
      "inputs": [
        {
          "indexed": true,
          "internalType": "address",
          "name": "previousOwner",
          "type": "address"
        },
        {
          "indexed": true,
          "internalType": "address",
          "name": "newOwner",
          "type": "address"
        }
      ],
      "name": "OwnershipTransferred",
      "type": "event"
    },
    {
      "anonymous": false,
      "inputs": [
        {
          "indexed": true,
          "internalType": "address",
          "name": "from",
          "type": "address"
        },
        {
          "indexed": true,
          "internalType": "address",
          "name": "to",
          "type": "address"
        },
        {
          "indexed": false,
          "internalType": "uint256",
          "name": "value",
          "type": "uint256"
        }
      ],
      "name": "Transfer",
      "type": "event"
    },
    {
      "inputs": [
        {
          "internalType": "address",
          "name": "approvedSeller_",
          "type": "address"
        }
      ],
      "name": "addApprovedSeller",
      "outputs": [
        {
          "internalType": "bool",
          "name": "",
          "type": "bool"
        }
      ],
      "stateMutability": "nonpayable",
      "type": "function"
    },
    {
      "inputs": [
        {
          "internalType": "address[]",
          "name": "approvedSellers_",
          "type": "address[]"
        }
      ],
      "name": "addApprovedSellers",
      "outputs": [
        {
          "internalType": "bool",
          "name": "",
          "type": "bool"
        }
      ],
      "stateMutability": "nonpayable",
      "type": "function"
    },
    {
      "inputs": [],
      "name": "allowOpenTrading",
      "outputs": [
        {
          "internalType": "bool",
          "name": "",
          "type": "bool"
        }
      ],
      "stateMutability": "nonpayable",
      "type": "function"
    },
    {
      "inputs": [
        {
          "internalType": "address",
          "name": "owner",
          "type": "address"
        },
        {
          "internalType": "address",
          "name": "spender",
          "type": "address"
        }
      ],
      "name": "allowance",
      "outputs": [
        {
          "internalType": "uint256",
          "name": "",
          "type": "uint256"
        }
      ],
      "stateMutability": "view",
      "type": "function"
    },
    {
      "inputs": [
        {
          "internalType": "address",
          "name": "spender",
          "type": "address"
        },
        {
          "internalType": "uint256",
          "name": "amount",
          "type": "uint256"
        }
      ],
      "name": "approve",
      "outputs": [
        {
          "internalType": "bool",
          "name": "",
          "type": "bool"
        }
      ],
      "stateMutability": "nonpayable",
      "type": "function"
    },
    {
      "inputs": [
        {
          "internalType": "address",
          "name": "account",
          "type": "address"
        }
      ],
      "name": "balanceOf",
      "outputs": [
        {
          "internalType": "uint256",
          "name": "",
          "type": "uint256"
        }
      ],
      "stateMutability": "view",
      "type": "function"
    },
    {
      "inputs": [
        {
          "internalType": "uint256",
          "name": "amount",
          "type": "uint256"
        }
      ],
      "name": "burn",
      "outputs": [],
      "stateMutability": "nonpayable",
      "type": "function"
    },
    {
      "inputs": [
        {
          "internalType": "address",
          "name": "account",
          "type": "address"
        },
        {
          "internalType": "uint256",
          "name": "amount",
          "type": "uint256"
        }
      ],
      "name": "burnFrom",
      "outputs": [],
      "stateMutability": "nonpayable",
      "type": "function"
    },
    {
      "inputs": [],
      "name": "decimals",
      "outputs": [
        {
          "internalType": "uint8",
          "name": "",
          "type": "uint8"
        }
      ],
      "stateMutability": "view",
      "type": "function"
    },
    {
      "inputs": [
        {
          "internalType": "address",
          "name": "spender",
          "type": "address"
        },
        {
          "internalType": "uint256",
          "name": "subtractedValue",
          "type": "uint256"
        }
      ],
      "name": "decreaseAllowance",
      "outputs": [
        {
          "internalType": "bool",
          "name": "",
          "type": "bool"
        }
      ],
      "stateMutability": "nonpayable",
      "type": "function"
    },
    {
      "inputs": [
        {
          "internalType": "address",
          "name": "spender",
          "type": "address"
        },
        {
          "internalType": "uint256",
          "name": "addedValue",
          "type": "uint256"
        }
      ],
      "name": "increaseAllowance",
      "outputs": [
        {
          "internalType": "bool",
          "name": "",
          "type": "bool"
        }
      ],
      "stateMutability": "nonpayable",
      "type": "function"
    },
    {
      "inputs": [
        {
          "internalType": "address",
          "name": "_Panaadmin",
          "type": "address"
        }
      ],
      "name": "initialize",
      "outputs": [],
      "stateMutability": "nonpayable",
      "type": "function"
    },
    {
      "inputs": [
        {
          "internalType": "address",
          "name": "",
          "type": "address"
        }
      ],
      "name": "isApprovedSeller",
      "outputs": [
        {
          "internalType": "bool",
          "name": "",
          "type": "bool"
        }
      ],
      "stateMutability": "view",
      "type": "function"
    },
    {
      "inputs": [],
      "name": "name",
      "outputs": [
        {
          "internalType": "string",
          "name": "",
          "type": "string"
        }
      ],
      "stateMutability": "view",
      "type": "function"
    },
    {
      "inputs": [],
      "name": "owner",
      "outputs": [
        {
          "internalType": "address",
          "name": "",
          "type": "address"
        }
      ],
      "stateMutability": "view",
      "type": "function"
    },
    {
      "inputs": [
        {
          "internalType": "address",
          "name": "disapprovedSeller_",
          "type": "address"
        }
      ],
      "name": "removeApprovedSeller",
      "outputs": [
        {
          "internalType": "bool",
          "name": "",
          "type": "bool"
        }
      ],
      "stateMutability": "nonpayable",
      "type": "function"
    },
    {
      "inputs": [
        {
          "internalType": "address[]",
          "name": "disapprovedSellers_",
          "type": "address[]"
        }
      ],
      "name": "removeApprovedSellers",
      "outputs": [
        {
          "internalType": "bool",
          "name": "",
          "type": "bool"
        }
      ],
      "stateMutability": "nonpayable",
      "type": "function"
    },
    {
      "inputs": [],
      "name": "renounceOwnership",
      "outputs": [],
      "stateMutability": "nonpayable",
      "type": "function"
    },
    {
      "inputs": [],
      "name": "requireSellerApproval",
      "outputs": [
        {
          "internalType": "bool",
          "name": "",
          "type": "bool"
        }
      ],
      "stateMutability": "view",
      "type": "function"
    },
    {
      "inputs": [],
      "name": "symbol",
      "outputs": [
        {
          "internalType": "string",
          "name": "",
          "type": "string"
        }
      ],
      "stateMutability": "view",
      "type": "function"
    },
    {
      "inputs": [],
      "name": "totalSupply",
      "outputs": [
        {
          "internalType": "uint256",
          "name": "",
          "type": "uint256"
        }
      ],
      "stateMutability": "view",
      "type": "function"
    },
    {
      "inputs": [
        {
          "internalType": "address",
          "name": "recipient",
          "type": "address"
        },
        {
          "internalType": "uint256",
          "name": "amount",
          "type": "uint256"
        }
      ],
      "name": "transfer",
      "outputs": [
        {
          "internalType": "bool",
          "name": "",
          "type": "bool"
        }
      ],
      "stateMutability": "nonpayable",
      "type": "function"
    },
    {
      "inputs": [
        {
          "internalType": "address",
          "name": "sender",
          "type": "address"
        },
        {
          "internalType": "address",
          "name": "recipient",
          "type": "address"
        },
        {
          "internalType": "uint256",
          "name": "amount",
          "type": "uint256"
        }
      ],
      "name": "transferFrom",
      "outputs": [
        {
          "internalType": "bool",
          "name": "",
          "type": "bool"
        }
      ],
      "stateMutability": "nonpayable",
      "type": "function"
    },
    {
      "inputs": [
        {
          "internalType": "address",
          "name": "newOwner",
          "type": "address"
        }
      ],
      "name": "transferOwnership",
      "outputs": [],
      "stateMutability": "nonpayable",
      "type": "function"
    }
  ],
  "transactionHash": "0x0101071f0708f6b86faa2d56daccc1f1e21577b65810c160adc9d0446da1ace9",
  "args": [],
  "solcInputHash": "77dd4a31559746813e3615af0775ea75",
  "bytecode": "0x60806040523480156200001157600080fd5b50600054610100900460ff166200002f5760005460ff161562000039565b62000039620000de565b620000a15760405162461bcd60e51b815260206004820152602e60248201527f496e697469616c697a61626c653a20636f6e747261637420697320616c72656160448201526d191e481a5b9a5d1a585b1a5e995960921b606482015260840160405180910390fd5b600054610100900460ff16158015620000c4576000805461ffff19166101011790555b8015620000d7576000805461ff00191690555b5062000102565b6000620000f630620000fc60201b62000d191760201c565b15905090565b3b151590565b6119ad80620001126000396000f3fe608060405234801561001057600080fd5b50600436106101985760003560e01c806379cc6790116100e3578063a9059cbb1161008c578063dd62ed3e11610066578063dd62ed3e14610356578063ea46d1961461038f578063f2fde38b1461039757600080fd5b8063a9059cbb14610323578063b93ea6a114610336578063c4d66de81461034357600080fd5b80639a9429b6116100bd5780639a9429b6146102ea578063a2efb975146102fd578063a457c2d71461031057600080fd5b806379cc6790146102b45780638da5cb5b146102c757806395d89b41146102e257600080fd5b8063313ce567116101455780635b0ed0ef1161011f5780635b0ed0ef1461027057806370a0823114610283578063715018a6146102ac57600080fd5b8063313ce56714610239578063395093511461024857806342966c681461025b57600080fd5b80630c4b56bf116101765780630c4b56bf146101f157806318160ddd1461021457806323b872dd1461022657600080fd5b806306fdde031461019d5780630775b33d146101bb578063095ea7b3146101de575b600080fd5b6101a56103aa565b6040516101b2919061173a565b60405180910390f35b6101ce6101c93660046117a6565b61043c565b60405190151581526020016101b2565b6101ce6101ec3660046117c8565b6104e6565b6101ce6101ff3660046117a6565b60ca6020526000908152604090205460ff1681565b6035545b6040519081526020016101b2565b6101ce6102343660046117f2565b6104fc565b604051601281526020016101b2565b6101ce6102563660046117c8565b6105bb565b61026e61026936600461182e565b6105f7565b005b6101ce61027e366004611847565b610604565b6102186102913660046117a6565b6001600160a01b031660009081526033602052604090205490565b61026e6106d6565b61026e6102c23660046117c8565b61073c565b6065546040516001600160a01b0390911681526020016101b2565b6101a56107c2565b6101ce6102f8366004611847565b6107d1565b6101ce61030b3660046117a6565b610896565b6101ce61031e3660046117c8565b61091b565b6101ce6103313660046117c8565b6109c2565b60c9546101ce9060ff1681565b61026e6103513660046117a6565b6109cf565b6102186103643660046118bc565b6001600160a01b03918216600090815260346020908152604080832093909416825291909152205490565b6101ce610bcd565b61026e6103a53660046117a6565b610c3a565b6060603680546103b9906118ef565b80601f01602080910402602001604051908101604052809291908181526020018280546103e5906118ef565b80156104325780601f1061040757610100808354040283529160200191610432565b820191906000526020600020905b81548152906001019060200180831161041557829003601f168201915b5050505050905090565b6065546000906001600160a01b0316331461049e5760405162461bcd60e51b815260206004820181905260248201527f4f776e61626c653a2063616c6c6572206973206e6f7420746865206f776e657260448201526064015b60405180910390fd5b6104c3826001600160a01b0316600090815260ca60205260409020805460ff19169055565b506001600160a01b038116600090815260ca602052604090205460ff165b919050565b60006104f3338484610d1f565b50600192915050565b6000610509848484610e43565b6001600160a01b0384166000908152603460209081526040808320338452909152902054828110156105a35760405162461bcd60e51b815260206004820152602860248201527f45524332303a207472616e7366657220616d6f756e742065786365656473206160448201527f6c6c6f77616e63650000000000000000000000000000000000000000000000006064820152608401610495565b6105b08533858403610d1f565b506001949350505050565b3360008181526034602090815260408083206001600160a01b038716845290915281205490916104f39185906105f2908690611940565b610d1f565b610601338261104c565b50565b6065546000906001600160a01b031633146106615760405162461bcd60e51b815260206004820181905260248201527f4f776e61626c653a2063616c6c6572206973206e6f7420746865206f776e65726044820152606401610495565b60005b808311156106cc576106ba84848381811061068157610681611958565b905060200201602081019061069691906117a6565b6001600160a01b0316600090815260ca60205260409020805460ff19166001179055565b806106c48161196e565b915050610664565b5060019392505050565b6065546001600160a01b031633146107305760405162461bcd60e51b815260206004820181905260248201527f4f776e61626c653a2063616c6c6572206973206e6f7420746865206f776e65726044820152606401610495565b61073a60006111a6565b565b60006107488333610364565b9050818110156107a65760405162461bcd60e51b8152602060048201526024808201527f45524332303a206275726e20616d6f756e74206578636565647320616c6c6f77604482015263616e636560e01b6064820152608401610495565b6107b38333848403610d1f565b6107bd838361104c565b505050565b6060603780546103b9906118ef565b6065546000906001600160a01b0316331461082e5760405162461bcd60e51b815260206004820181905260248201527f4f776e61626c653a2063616c6c6572206973206e6f7420746865206f776e65726044820152606401610495565b60005b808311156106cc5761088484848381811061084e5761084e611958565b905060200201602081019061086391906117a6565b6001600160a01b0316600090815260ca60205260409020805460ff19169055565b8061088e8161196e565b915050610831565b6065546000906001600160a01b031633146108f35760405162461bcd60e51b815260206004820181905260248201527f4f776e61626c653a2063616c6c6572206973206e6f7420746865206f776e65726044820152606401610495565b6104c3826001600160a01b0316600090815260ca60205260409020805460ff19166001179055565b3360009081526034602090815260408083206001600160a01b0386168452909152812054828110156109b55760405162461bcd60e51b815260206004820152602560248201527f45524332303a2064656372656173656420616c6c6f77616e63652062656c6f7760448201527f207a65726f0000000000000000000000000000000000000000000000000000006064820152608401610495565b6106cc3385858403610d1f565b60006104f3338484610e43565b600054610100900460ff166109ea5760005460ff16156109ee565b303b155b610a605760405162461bcd60e51b815260206004820152602e60248201527f496e697469616c697a61626c653a20636f6e747261637420697320616c72656160448201527f647920696e697469616c697a65640000000000000000000000000000000000006064820152608401610495565b600054610100900460ff16158015610a82576000805461ffff19166101011790555b60c9805460ff19166001179055610ab7306001600160a01b0316600090815260ca60205260409020805460ff19166001179055565b610adf826001600160a01b0316600090815260ca60205260409020805460ff19166001179055565b6000805260ca6020527f992e0e3e7050db88ec37ec33505f46a9813ea5551fe17ef58dc201344bcbaf93805460ff19166001179055610b886040518060400160405280600581526020017f7050616e610000000000000000000000000000000000000000000000000000008152506040518060400160405280600581526020017f7050414e41000000000000000000000000000000000000000000000000000000815250611210565b610b9061128d565b610b98611308565b610bae826b033b2e3c9fd0803ce8000000611383565b610bb782610c3a565b8015610bc9576000805461ff00191690555b5050565b6065546000906001600160a01b03163314610c2a5760405162461bcd60e51b815260206004820181905260248201527f4f776e61626c653a2063616c6c6572206973206e6f7420746865206f776e65726044820152606401610495565b5060c9805460ff19169055600090565b6065546001600160a01b03163314610c945760405162461bcd60e51b815260206004820181905260248201527f4f776e61626c653a2063616c6c6572206973206e6f7420746865206f776e65726044820152606401610495565b6001600160a01b038116610d105760405162461bcd60e51b815260206004820152602660248201527f4f776e61626c653a206e6577206f776e657220697320746865207a65726f206160448201527f64647265737300000000000000000000000000000000000000000000000000006064820152608401610495565b610601816111a6565b3b151590565b6001600160a01b038316610d815760405162461bcd60e51b8152602060048201526024808201527f45524332303a20617070726f76652066726f6d20746865207a65726f206164646044820152637265737360e01b6064820152608401610495565b6001600160a01b038216610de25760405162461bcd60e51b815260206004820152602260248201527f45524332303a20617070726f766520746f20746865207a65726f206164647265604482015261737360f01b6064820152608401610495565b6001600160a01b0383811660008181526034602090815260408083209487168084529482529182902085905590518481527f8c5be1e5ebec7d5bd14f71427d1e84f3dd0314c0f7b2291e5b200ac8c7c3b925910160405180910390a3505050565b6001600160a01b038316610ebf5760405162461bcd60e51b815260206004820152602560248201527f45524332303a207472616e736665722066726f6d20746865207a65726f20616460448201527f64726573730000000000000000000000000000000000000000000000000000006064820152608401610495565b6001600160a01b038216610f215760405162461bcd60e51b815260206004820152602360248201527f45524332303a207472616e7366657220746f20746865207a65726f206164647260448201526265737360e81b6064820152608401610495565b610f2c83838361146e565b6001600160a01b03831660009081526033602052604090205481811015610fbb5760405162461bcd60e51b815260206004820152602660248201527f45524332303a207472616e7366657220616d6f756e742065786365656473206260448201527f616c616e636500000000000000000000000000000000000000000000000000006064820152608401610495565b6001600160a01b03808516600090815260336020526040808220858503905591851681529081208054849290610ff2908490611940565b92505081905550826001600160a01b0316846001600160a01b03167fddf252ad1be2c89b69c2b068fc378daa952ba7f163c4a11628f55a4df523b3ef8460405161103e91815260200190565b60405180910390a350505050565b6001600160a01b0382166110ac5760405162461bcd60e51b815260206004820152602160248201527f45524332303a206275726e2066726f6d20746865207a65726f206164647265736044820152607360f81b6064820152608401610495565b6110b88260008361146e565b6001600160a01b0382166000908152603360205260409020548181101561112c5760405162461bcd60e51b815260206004820152602260248201527f45524332303a206275726e20616d6f756e7420657863656564732062616c616e604482015261636560f01b6064820152608401610495565b6001600160a01b038316600090815260336020526040812083830390556035805484929061115b908490611989565b90915550506040518281526000906001600160a01b038516907fddf252ad1be2c89b69c2b068fc378daa952ba7f163c4a11628f55a4df523b3ef9060200160405180910390a3505050565b606580546001600160a01b038381167fffffffffffffffffffffffff0000000000000000000000000000000000000000831681179093556040519116919082907f8be0079c531659141344cd1fd0a4f28419497f9722a3daafe3b4186f6b6457e090600090a35050565b600054610100900460ff1661127b5760405162461bcd60e51b815260206004820152602b60248201527f496e697469616c697a61626c653a20636f6e7472616374206973206e6f74206960448201526a6e697469616c697a696e6760a81b6064820152608401610495565b611283611530565b610bc9828261159b565b600054610100900460ff166112f85760405162461bcd60e51b815260206004820152602b60248201527f496e697469616c697a61626c653a20636f6e7472616374206973206e6f74206960448201526a6e697469616c697a696e6760a81b6064820152608401610495565b611300611530565b61073a611530565b600054610100900460ff166113735760405162461bcd60e51b815260206004820152602b60248201527f496e697469616c697a61626c653a20636f6e7472616374206973206e6f74206960448201526a6e697469616c697a696e6760a81b6064820152608401610495565b61137b611530565b61073a61162d565b6001600160a01b0382166113d95760405162461bcd60e51b815260206004820152601f60248201527f45524332303a206d696e7420746f20746865207a65726f2061646472657373006044820152606401610495565b6113e56000838361146e565b80603560008282546113f79190611940565b90915550506001600160a01b03821660009081526033602052604081208054839290611424908490611940565b90915550506040518181526001600160a01b038316906000907fddf252ad1be2c89b69c2b068fc378daa952ba7f163c4a11628f55a4df523b3ef9060200160405180910390a35050565b6001600160a01b03821660009081526033602052604081205411806114b057506001600160a01b038316600090815260ca602052604090205460ff1615156001145b806114be575060c95460ff16155b6107bd5760405162461bcd60e51b815260206004820152602760248201527f4163636f756e74206e6f7420617070726f76656420746f207472616e7366657260448201527f207050414e412e000000000000000000000000000000000000000000000000006064820152608401610495565b600054610100900460ff1661073a5760405162461bcd60e51b815260206004820152602b60248201527f496e697469616c697a61626c653a20636f6e7472616374206973206e6f74206960448201526a6e697469616c697a696e6760a81b6064820152608401610495565b600054610100900460ff166116065760405162461bcd60e51b815260206004820152602b60248201527f496e697469616c697a61626c653a20636f6e7472616374206973206e6f74206960448201526a6e697469616c697a696e6760a81b6064820152608401610495565b81516116199060369060208501906116a1565b5080516107bd9060379060208401906116a1565b600054610100900460ff166116985760405162461bcd60e51b815260206004820152602b60248201527f496e697469616c697a61626c653a20636f6e7472616374206973206e6f74206960448201526a6e697469616c697a696e6760a81b6064820152608401610495565b61073a336111a6565b8280546116ad906118ef565b90600052602060002090601f0160209004810192826116cf5760008555611715565b82601f106116e857805160ff1916838001178555611715565b82800160010185558215611715579182015b828111156117155782518255916020019190600101906116fa565b50611721929150611725565b5090565b5b808211156117215760008155600101611726565b600060208083528351808285015260005b818110156117675785810183015185820160400152820161174b565b81811115611779576000604083870101525b50601f01601f1916929092016040019392505050565b80356001600160a01b03811681146104e157600080fd5b6000602082840312156117b857600080fd5b6117c18261178f565b9392505050565b600080604083850312156117db57600080fd5b6117e48361178f565b946020939093013593505050565b60008060006060848603121561180757600080fd5b6118108461178f565b925061181e6020850161178f565b9150604084013590509250925092565b60006020828403121561184057600080fd5b5035919050565b6000806020838503121561185a57600080fd5b823567ffffffffffffffff8082111561187257600080fd5b818501915085601f83011261188657600080fd5b81358181111561189557600080fd5b8660208260051b85010111156118aa57600080fd5b60209290920196919550909350505050565b600080604083850312156118cf57600080fd5b6118d88361178f565b91506118e66020840161178f565b90509250929050565b600181811c9082168061190357607f821691505b6020821081141561192457634e487b7160e01b600052602260045260246000fd5b50919050565b634e487b7160e01b600052601160045260246000fd5b600082198211156119535761195361192a565b500190565b634e487b7160e01b600052603260045260246000fd5b60006000198214156119825761198261192a565b5060010190565b60008282101561199b5761199b61192a565b50039056fea164736f6c634300080a000a",
  "devdoc": {
    "kind": "dev",
    "methods": {
      "allowance(address,address)": {
        "details": "See {IERC20-allowance}."
      },
      "approve(address,uint256)": {
        "details": "See {IERC20-approve}. Requirements: - `spender` cannot be the zero address."
      },
      "balanceOf(address)": {
        "details": "See {IERC20-balanceOf}."
      },
      "burn(uint256)": {
        "details": "Destroys `amount` tokens from the caller. See {ERC20-_burn}."
      },
      "burnFrom(address,uint256)": {
        "details": "Destroys `amount` tokens from `account`, deducting from the caller's allowance. See {ERC20-_burn} and {ERC20-allowance}. Requirements: - the caller must have allowance for ``accounts``'s tokens of at least `amount`."
      },
      "constructor": {
        "custom:oz-upgrades-unsafe-allow": "constructor"
      },
      "decimals()": {
        "details": "Returns the number of decimals used to get its user representation. For example, if `decimals` equals `2`, a balance of `505` tokens should be displayed to a user as `5.05` (`505 / 10 ** 2`). Tokens usually opt for a value of 18, imitating the relationship between Ether and Wei. This is the value {ERC20} uses, unless this function is overridden; NOTE: This information is only used for _display_ purposes: it in no way affects any of the arithmetic of the contract, including {IERC20-balanceOf} and {IERC20-transfer}."
      },
      "decreaseAllowance(address,uint256)": {
        "details": "Atomically decreases the allowance granted to `spender` by the caller. This is an alternative to {approve} that can be used as a mitigation for problems described in {IERC20-approve}. Emits an {Approval} event indicating the updated allowance. Requirements: - `spender` cannot be the zero address. - `spender` must have allowance for the caller of at least `subtractedValue`."
      },
      "increaseAllowance(address,uint256)": {
        "details": "Atomically increases the allowance granted to `spender` by the caller. This is an alternative to {approve} that can be used as a mitigation for problems described in {IERC20-approve}. Emits an {Approval} event indicating the updated allowance. Requirements: - `spender` cannot be the zero address."
      },
      "name()": {
        "details": "Returns the name of the token."
      },
      "owner()": {
        "details": "Returns the address of the current owner."
      },
      "renounceOwnership()": {
        "details": "Leaves the contract without owner. It will not be possible to call `onlyOwner` functions anymore. Can only be called by the current owner. NOTE: Renouncing ownership will leave the contract without an owner, thereby removing any functionality that is only available to the owner."
      },
      "symbol()": {
        "details": "Returns the symbol of the token, usually a shorter version of the name."
      },
      "totalSupply()": {
        "details": "See {IERC20-totalSupply}."
      },
      "transfer(address,uint256)": {
        "details": "See {IERC20-transfer}. Requirements: - `recipient` cannot be the zero address. - the caller must have a balance of at least `amount`."
      },
      "transferFrom(address,address,uint256)": {
        "details": "See {IERC20-transferFrom}. Emits an {Approval} event indicating the updated allowance. This is not required by the EIP. See the note at the beginning of {ERC20}. Requirements: - `sender` and `recipient` cannot be the zero address. - `sender` must have a balance of at least `amount`. - the caller must have allowance for ``sender``'s tokens of at least `amount`."
      },
      "transferOwnership(address)": {
        "details": "Transfers ownership of the contract to a new account (`newOwner`). Can only be called by the current owner."
      }
    },
    "version": 1
  },
  "userdoc": {
    "kind": "user",
    "methods": {},
    "version": 1
  },
  "storageLayout": {
    "storage": [
      {
        "astId": 132,
        "contract": "contracts/tokens/upgradeable/PPanaUpgradeableERC20.sol:PPanaUpgradeableERC20",
        "label": "_initialized",
        "offset": 0,
        "slot": "0",
        "type": "t_bool"
      },
      {
        "astId": 135,
        "contract": "contracts/tokens/upgradeable/PPanaUpgradeableERC20.sol:PPanaUpgradeableERC20",
        "label": "_initializing",
        "offset": 1,
        "slot": "0",
        "type": "t_bool"
      },
      {
        "astId": 1250,
        "contract": "contracts/tokens/upgradeable/PPanaUpgradeableERC20.sol:PPanaUpgradeableERC20",
        "label": "__gap",
        "offset": 0,
        "slot": "1",
        "type": "t_array(t_uint256)50_storage"
      },
      {
        "astId": 218,
        "contract": "contracts/tokens/upgradeable/PPanaUpgradeableERC20.sol:PPanaUpgradeableERC20",
        "label": "_balances",
        "offset": 0,
        "slot": "51",
        "type": "t_mapping(t_address,t_uint256)"
      },
      {
        "astId": 224,
        "contract": "contracts/tokens/upgradeable/PPanaUpgradeableERC20.sol:PPanaUpgradeableERC20",
        "label": "_allowances",
        "offset": 0,
        "slot": "52",
        "type": "t_mapping(t_address,t_mapping(t_address,t_uint256))"
      },
      {
        "astId": 226,
        "contract": "contracts/tokens/upgradeable/PPanaUpgradeableERC20.sol:PPanaUpgradeableERC20",
        "label": "_totalSupply",
        "offset": 0,
        "slot": "53",
        "type": "t_uint256"
      },
      {
        "astId": 228,
        "contract": "contracts/tokens/upgradeable/PPanaUpgradeableERC20.sol:PPanaUpgradeableERC20",
        "label": "_name",
        "offset": 0,
        "slot": "54",
        "type": "t_string_storage"
      },
      {
        "astId": 230,
        "contract": "contracts/tokens/upgradeable/PPanaUpgradeableERC20.sol:PPanaUpgradeableERC20",
        "label": "_symbol",
        "offset": 0,
        "slot": "55",
        "type": "t_string_storage"
      },
      {
        "astId": 771,
        "contract": "contracts/tokens/upgradeable/PPanaUpgradeableERC20.sol:PPanaUpgradeableERC20",
        "label": "__gap",
        "offset": 0,
        "slot": "56",
        "type": "t_array(t_uint256)45_storage"
      },
      {
        "astId": 10,
        "contract": "contracts/tokens/upgradeable/PPanaUpgradeableERC20.sol:PPanaUpgradeableERC20",
        "label": "_owner",
        "offset": 0,
        "slot": "101",
        "type": "t_address"
      },
      {
        "astId": 124,
        "contract": "contracts/tokens/upgradeable/PPanaUpgradeableERC20.sol:PPanaUpgradeableERC20",
        "label": "__gap",
        "offset": 0,
        "slot": "102",
        "type": "t_array(t_uint256)49_storage"
      },
      {
        "astId": 936,
        "contract": "contracts/tokens/upgradeable/PPanaUpgradeableERC20.sol:PPanaUpgradeableERC20",
        "label": "__gap",
        "offset": 0,
        "slot": "151",
        "type": "t_array(t_uint256)50_storage"
      },
      {
        "astId": 7839,
        "contract": "contracts/tokens/upgradeable/PPanaUpgradeableERC20.sol:PPanaUpgradeableERC20",
        "label": "requireSellerApproval",
        "offset": 0,
        "slot": "201",
        "type": "t_bool"
      },
      {
        "astId": 7843,
        "contract": "contracts/tokens/upgradeable/PPanaUpgradeableERC20.sol:PPanaUpgradeableERC20",
        "label": "isApprovedSeller",
        "offset": 0,
        "slot": "202",
        "type": "t_mapping(t_address,t_bool)"
      }
    ],
    "types": {
      "t_address": {
        "encoding": "inplace",
        "label": "address",
        "numberOfBytes": "20"
      },
      "t_array(t_uint256)45_storage": {
        "base": "t_uint256",
        "encoding": "inplace",
        "label": "uint256[45]",
        "numberOfBytes": "1440"
      },
      "t_array(t_uint256)49_storage": {
        "base": "t_uint256",
        "encoding": "inplace",
        "label": "uint256[49]",
        "numberOfBytes": "1568"
      },
      "t_array(t_uint256)50_storage": {
        "base": "t_uint256",
        "encoding": "inplace",
        "label": "uint256[50]",
        "numberOfBytes": "1600"
      },
      "t_bool": {
        "encoding": "inplace",
        "label": "bool",
        "numberOfBytes": "1"
      },
      "t_mapping(t_address,t_bool)": {
        "encoding": "mapping",
        "key": "t_address",
        "label": "mapping(address => bool)",
        "numberOfBytes": "32",
        "value": "t_bool"
      },
      "t_mapping(t_address,t_mapping(t_address,t_uint256))": {
        "encoding": "mapping",
        "key": "t_address",
        "label": "mapping(address => mapping(address => uint256))",
        "numberOfBytes": "32",
        "value": "t_mapping(t_address,t_uint256)"
      },
      "t_mapping(t_address,t_uint256)": {
        "encoding": "mapping",
        "key": "t_address",
        "label": "mapping(address => uint256)",
        "numberOfBytes": "32",
        "value": "t_uint256"
      },
      "t_string_storage": {
        "encoding": "bytes",
        "label": "string",
        "numberOfBytes": "32"
      },
      "t_uint256": {
        "encoding": "inplace",
        "label": "uint256",
        "numberOfBytes": "32"
      }
    }
  }
}