{
  "address": "0x97CE968fA4d04a850744F6B18A82BcE9DBE9Ad28",
  "abi": [
    {
      "inputs": [
        {
          "internalType": "int256",
          "name": "_kp",
          "type": "int256"
        },
        {
          "internalType": "address",
          "name": "_PANA",
          "type": "address"
        },
        {
          "internalType": "address",
          "name": "_pair",
          "type": "address"
        },
        {
          "internalType": "address",
          "name": "_router",
          "type": "address"
        },
        {
          "internalType": "address",
          "name": "_supplyControlCaller",
          "type": "address"
        },
        {
          "internalType": "address",
          "name": "_authority",
          "type": "address"
        }
      ],
      "stateMutability": "nonpayable",
      "type": "constructor"
    },
    {
      "anonymous": false,
      "inputs": [
        {
          "indexed": true,
          "internalType": "contract IPanaAuthority",
          "name": "authority",
          "type": "address"
        }
      ],
      "name": "AuthorityUpdated",
      "type": "event"
    },
    {
      "anonymous": false,
      "inputs": [
        {
          "indexed": false,
          "internalType": "uint256",
          "name": "totalSupply",
          "type": "uint256"
        },
        {
          "indexed": false,
          "internalType": "uint256",
          "name": "panaInPool",
          "type": "uint256"
        },
        {
          "indexed": false,
          "internalType": "uint256",
          "name": "slp",
          "type": "uint256"
        },
        {
          "indexed": false,
          "internalType": "uint256",
          "name": "panaResidue",
          "type": "uint256"
        },
        {
          "indexed": false,
          "internalType": "uint256",
          "name": "tokenResidue",
          "type": "uint256"
        }
      ],
      "name": "Burnt",
      "type": "event"
    },
    {
      "anonymous": false,
      "inputs": [
        {
          "indexed": false,
          "internalType": "int256",
          "name": "kp",
          "type": "int256"
        },
        {
          "indexed": false,
          "internalType": "int256",
          "name": "oldKp",
          "type": "int256"
        }
      ],
      "name": "PCoefficientSet",
      "type": "event"
    },
    {
      "anonymous": false,
      "inputs": [
        {
          "indexed": false,
          "internalType": "uint256",
          "name": "totalSupply",
          "type": "uint256"
        },
        {
          "indexed": false,
          "internalType": "uint256",
          "name": "panaInPool",
          "type": "uint256"
        },
        {
          "indexed": false,
          "internalType": "uint256",
          "name": "slp",
          "type": "uint256"
        },
        {
          "indexed": false,
          "internalType": "uint256",
          "name": "panaSupplied",
          "type": "uint256"
        },
        {
          "indexed": false,
          "internalType": "uint256",
          "name": "panaResidue",
          "type": "uint256"
        },
        {
          "indexed": false,
          "internalType": "uint256",
          "name": "tokenResidue",
          "type": "uint256"
        }
      ],
      "name": "Supplied",
      "type": "event"
    },
    {
      "anonymous": false,
      "inputs": [
        {
          "indexed": false,
          "internalType": "uint256",
          "name": "lossRatio",
          "type": "uint256"
        },
        {
          "indexed": false,
          "internalType": "uint256",
          "name": "cf",
          "type": "uint256"
        },
        {
          "indexed": false,
          "internalType": "uint256",
          "name": "cc",
          "type": "uint256"
        },
        {
          "indexed": false,
          "internalType": "uint256",
          "name": "samplingTime",
          "type": "uint256"
        },
        {
          "indexed": false,
          "internalType": "uint256",
          "name": "oldLossRatio",
          "type": "uint256"
        },
        {
          "indexed": false,
          "internalType": "uint256",
          "name": "oldCf",
          "type": "uint256"
        },
        {
          "indexed": false,
          "internalType": "uint256",
          "name": "oldCc",
          "type": "uint256"
        },
        {
          "indexed": false,
          "internalType": "uint256",
          "name": "oldSamplingTime",
          "type": "uint256"
        }
      ],
      "name": "SupplyControlParamsSet",
      "type": "event"
    },
    {
      "inputs": [
        {
          "internalType": "uint256",
          "name": "_pana",
          "type": "uint256"
        }
      ],
      "name": "add",
      "outputs": [],
      "stateMutability": "nonpayable",
      "type": "function"
    },
    {
      "inputs": [],
      "name": "authority",
      "outputs": [
        {
          "internalType": "contract IPanaAuthority",
          "name": "",
          "type": "address"
        }
      ],
      "stateMutability": "view",
      "type": "function"
    },
    {
      "inputs": [
        {
          "internalType": "uint256",
          "name": "_slp",
          "type": "uint256"
        }
      ],
      "name": "burn",
      "outputs": [],
      "stateMutability": "nonpayable",
      "type": "function"
    },
    {
      "inputs": [],
      "name": "cc",
      "outputs": [
        {
          "internalType": "uint256",
          "name": "",
          "type": "uint256"
        }
      ],
      "stateMutability": "view",
      "type": "function"
    },
    {
      "inputs": [],
      "name": "cf",
      "outputs": [
        {
          "internalType": "uint256",
          "name": "",
          "type": "uint256"
        }
      ],
      "stateMutability": "view",
      "type": "function"
    },
    {
      "inputs": [],
      "name": "compute",
      "outputs": [
        {
          "internalType": "uint256",
          "name": "_pana",
          "type": "uint256"
        },
        {
          "internalType": "uint256",
          "name": "_slp",
          "type": "uint256"
        },
        {
          "internalType": "bool",
          "name": "_burn",
          "type": "bool"
        }
      ],
      "stateMutability": "view",
      "type": "function"
    },
    {
      "inputs": [],
      "name": "disableSupplyControl",
      "outputs": [],
      "stateMutability": "nonpayable",
      "type": "function"
    },
    {
      "inputs": [],
      "name": "enableSupplyControl",
      "outputs": [],
      "stateMutability": "nonpayable",
      "type": "function"
    },
    {
      "inputs": [],
      "name": "kp",
      "outputs": [
        {
          "internalType": "int256",
          "name": "",
          "type": "int256"
        }
      ],
      "stateMutability": "view",
      "type": "function"
    },
    {
      "inputs": [],
      "name": "lossRatio",
      "outputs": [
        {
          "internalType": "uint256",
          "name": "",
          "type": "uint256"
        }
      ],
      "stateMutability": "view",
      "type": "function"
    },
    {
      "inputs": [],
      "name": "pair",
      "outputs": [
        {
          "internalType": "address",
          "name": "",
          "type": "address"
        }
      ],
      "stateMutability": "view",
      "type": "function"
    },
    {
      "inputs": [],
      "name": "paramsSet",
      "outputs": [
        {
          "internalType": "bool",
          "name": "",
          "type": "bool"
        }
      ],
      "stateMutability": "view",
      "type": "function"
    },
    {
      "inputs": [],
      "name": "prev_timestamp",
      "outputs": [
        {
          "internalType": "uint256",
          "name": "",
          "type": "uint256"
        }
      ],
      "stateMutability": "view",
      "type": "function"
    },
    {
      "inputs": [],
      "name": "router",
      "outputs": [
        {
          "internalType": "address",
          "name": "",
          "type": "address"
        }
      ],
      "stateMutability": "view",
      "type": "function"
    },
    {
      "inputs": [],
      "name": "samplingTime",
      "outputs": [
        {
          "internalType": "uint256",
          "name": "",
          "type": "uint256"
        }
      ],
      "stateMutability": "view",
      "type": "function"
    },
    {
      "inputs": [
        {
          "internalType": "contract IPanaAuthority",
          "name": "_newAuthority",
          "type": "address"
        }
      ],
      "name": "setAuthority",
      "outputs": [],
      "stateMutability": "nonpayable",
      "type": "function"
    },
    {
      "inputs": [
        {
          "internalType": "int256",
          "name": "_kp",
          "type": "int256"
        }
      ],
      "name": "setPCoefficient",
      "outputs": [],
      "stateMutability": "nonpayable",
      "type": "function"
    },
    {
      "inputs": [
        {
          "internalType": "uint256",
          "name": "_lossRatio",
          "type": "uint256"
        },
        {
          "internalType": "uint256",
          "name": "_cf",
          "type": "uint256"
        },
        {
          "internalType": "uint256",
          "name": "_cc",
          "type": "uint256"
        },
        {
          "internalType": "uint256",
          "name": "_samplingTime",
          "type": "uint256"
        }
      ],
      "name": "setSupplyControlParams",
      "outputs": [],
      "stateMutability": "nonpayable",
      "type": "function"
    },
    {
      "inputs": [],
      "name": "supplyControlCaller",
      "outputs": [
        {
          "internalType": "address",
          "name": "",
          "type": "address"
        }
      ],
      "stateMutability": "view",
      "type": "function"
    },
    {
      "inputs": [],
      "name": "supplyControlEnabled",
      "outputs": [
        {
          "internalType": "bool",
          "name": "",
          "type": "bool"
        }
      ],
      "stateMutability": "view",
      "type": "function"
    }
  ],
  "transactionHash": "0x56456d1711067ec85f4581a2e793f065864c7c12c061fff2a1e7d0c18b798db9",
  "args": [
    "10000",
    "0x28a4d7A1da539cAAb96b615cd454e2B446B16F1c",
    "0x466614D6B4249A24Be3E0B4d176Ee4BC6F795411",
    "0xe82c4d8b993d613a28600b953e91a3a93ae69fd6",
    "0x3B15aBa72Fb187a9a33530E37f14852Ac6067d52",
    "0x74Db8CBCCaF7aef5F5FAf8B753e994563AB5Edb3"
  ],
  "solcInputHash": "8933ba23f05c035e19843d62d978c47e",
  "bytecode": "0x610100604052600c60c08190526b15539055551213d49256915160a21b60e090815262000030916000919062000425565b503480156200003e57600080fd5b506040516200293f3803806200293f8339810160408190526200006191620004e8565b600180546001600160a01b0319166001600160a01b0383169081179091556040518691869186918691869182917f2f658b440c35314f52658ea8a740e05b284cdc84dc9ae01e891f21b8933e7cad90600090a2506001600160a01b038516620001065760405162461bcd60e51b81526020600482015260126024820152715a65726f20616464726573733a2050414e4160701b60448201526064015b60405180910390fd5b6001600160a01b038416620001535760405162461bcd60e51b81526020600482015260126024820152712d32b9379030b2323932b9b99d102820a4a960711b6044820152606401620000fd565b6001600160a01b038316620001ab5760405162461bcd60e51b815260206004820152601460248201527f5a65726f20616464726573733a20524f555445520000000000000000000000006044820152606401620000fd565b6001600160a01b038216620002035760405162461bcd60e51b815260206004820152601460248201527f5a65726f20616464726573733a2043414c4c45520000000000000000000000006044820152606401620000fd565b6001600160a01b0381166200025b5760405162461bcd60e51b815260206004820152601760248201527f5a65726f20616464726573733a20415554484f524954590000000000000000006044820152606401620000fd565b846001600160a01b03166080816001600160a01b0316815250506080516001600160a01b0316846001600160a01b0316630dfe16816040518163ffffffff1660e01b8152600401602060405180830381865afa158015620002c0573d6000803e3d6000fd5b505050506040513d601f19601f82011682018060405250810190620002e6919062000560565b6001600160a01b0316146200036057836001600160a01b0316630dfe16816040518163ffffffff1660e01b8152600401602060405180830381865afa15801562000334573d6000803e3d6000fd5b505050506040513d601f19601f820116820180604052508101906200035a919062000560565b620003c5565b836001600160a01b031663d21220a76040518163ffffffff1660e01b8152600401602060405180830381865afa1580156200039f573d6000803e3d6000fd5b505050506040513d601f19601f82011682018060405250810190620003c5919062000560565b6001600160a01b0390811660a052600280549582166001600160a01b031996871617905560038054948216949095169390931790935560048054600161ff0160a01b03191691909216179055505050600a9490945550620005c292505050565b828054620004339062000585565b90600052602060002090601f016020900481019282620004575760008555620004a2565b82601f106200047257805160ff1916838001178555620004a2565b82800160010185558215620004a2579182015b82811115620004a257825182559160200191906001019062000485565b50620004b0929150620004b4565b5090565b5b80821115620004b05760008155600101620004b5565b80516001600160a01b0381168114620004e357600080fd5b919050565b60008060008060008060c087890312156200050257600080fd5b865195506200051460208801620004cb565b94506200052460408801620004cb565b93506200053460608801620004cb565b92506200054460808801620004cb565b91506200055460a08801620004cb565b90509295509295509295565b6000602082840312156200057357600080fd5b6200057e82620004cb565b9392505050565b600181811c908216806200059a57607f821691505b60208210811415620005bc57634e487b7160e01b600052602260045260246000fd5b50919050565b60805160a0516122d96200066660003960008181610525015281816105f6015281816107eb01528181610995015281816111cf0152818161129a0152818161132b01526114e101526000818161043e015281816104d10152818161073c015281816107c301528181610961015281816109df01528181610c96015281816111a70152818161137f015281816114a70152818161152b0152611c5f01526122d96000f3fe608060405234801561001057600080fd5b506004361061016c5760003560e01c806376ad5a4d116100cd578063a2cdd47111610081578063bf7e214f11610066578063bf7e214f146102b3578063f16dde6c146102c6578063f887ea40146102d957600080fd5b8063a2cdd47114610297578063a8aa1b31146102a057600080fd5b806391f07014116100b257806391f07014146102725780639384ea421461027a578063a0d7db8e1461028357600080fd5b806376ad5a4d1461023b5780637a9e5e4b1461025f57600080fd5b80631c455fa81161012457806342966c681161010957806342966c681461021657806360535b431461022957806364a70e161461023257600080fd5b80631c455fa8146101fa578063214cc7d91461020357600080fd5b80631003e2d2116101555780631003e2d2146101b857806318836854146101cd5780631a43c338146101d557600080fd5b806303d834b114610171578063097548e3146101a1575b600080fd5b600454610184906001600160a01b031681565b6040516001600160a01b0390911681526020015b60405180910390f35b6101aa60055481565b604051908152602001610198565b6101cb6101c6366004611d4b565b6102ec565b005b6101cb610aa8565b6101dd610bdc565b604080519384526020840192909252151590820152606001610198565b6101aa60095481565b6101cb610211366004611d4b565b610e86565b6101cb610224366004611d4b565b610fef565b6101aa60065481565b6101aa600a5481565b60045461024f90600160a01b900460ff1681565b6040519015158152602001610198565b6101cb61026d366004611d7c565b6115e9565b6101cb6116f7565b6101aa60085481565b60045461024f90600160a81b900460ff1681565b6101aa60075481565b600254610184906001600160a01b031681565b600154610184906001600160a01b031681565b6101cb6102d4366004611da0565b6118a7565b600354610184906001600160a01b031681565b6004546001600160a01b031633148061038c5750600160009054906101000a90046001600160a01b03166001600160a01b0316630505c8c96040518163ffffffff1660e01b8152600401602060405180830381865afa158015610353573d6000803e3d6000fd5b505050506040513d601f19601f820116820180604052508101906103779190611dd2565b6001600160a01b0316336001600160a01b0316145b6104115760405162461bcd60e51b8152602060048201526044602482018190527f434f4e54524f4c3a204f6e6c7920696e766f6b61626c6520627920706f6c6963908201527f79206f72206120636f6e747261637420617574686f72697a6564206173206361606482015263363632b960e11b608482015260a4015b60405180910390fd5b4260095560035460405163095ea7b360e01b81526001600160a01b039182166004820152602481018390527f00000000000000000000000000000000000000000000000000000000000000009091169063095ea7b3906044016020604051808303816000875af1158015610489573d6000803e3d6000fd5b505050506040513d601f19601f820116820180604052508101906104ad9190611def565b506040805160028082526060820183526000926020830190803683370190505090507f00000000000000000000000000000000000000000000000000000000000000008160008151811061050357610503611e27565b60200260200101906001600160a01b031690816001600160a01b0316815250507f00000000000000000000000000000000000000000000000000000000000000008160018151811061055757610557611e27565b6001600160a01b039283166020918202929092010152600354600091166338ed1739610584600286611e69565b600085306000196040518663ffffffff1660e01b81526004016105ab959493929190611e7d565b6000604051808303816000875af11580156105ca573d6000803e3d6000fd5b505050506040513d6000823e601f3d908101601f191682016040526105f29190810190611eee565b90507f00000000000000000000000000000000000000000000000000000000000000006001600160a01b031663095ea7b3600360009054906101000a90046001600160a01b03168360018151811061064c5761064c611e27565b60200260200101516040518363ffffffff1660e01b81526004016106859291906001600160a01b03929092168252602082015260400190565b6020604051808303816000875af11580156106a4573d6000803e3d6000fd5b505050506040513d601f19601f820116820180604052508101906106c89190611def565b506000816001815181106106de576106de611e27565b602002602001015190506000826000815181106106fd576106fd611e27565b6020026020010151856107109190611fac565b60035460405163095ea7b360e01b81526001600160a01b039182166004820152602481018390529192507f0000000000000000000000000000000000000000000000000000000000000000169063095ea7b3906044016020604051808303816000875af1158015610785573d6000803e3d6000fd5b505050506040513d601f19601f820116820180604052508101906107a99190611def565b5060035460405162e8e33760e81b81526001600160a01b037f0000000000000000000000000000000000000000000000000000000000000000811660048301527f000000000000000000000000000000000000000000000000000000000000000081166024830152604482018490526064820185905260006084830181905260a483018190523060c484015260001960e484015292839283929091169063e8e3370090610104016060604051808303816000875af115801561086f573d6000803e3d6000fd5b505050506040513d601f19601f820116820180604052508101906108939190611fc3565b925092509250600083876000815181106108af576108af611e27565b60200260200101516108c19190611ff1565b905060006108cf8587611fac565b905060006108dd8589611fac565b60025460405163a9059cbb60e01b8152336004820152602481018790529192506001600160a01b03169063a9059cbb906044016020604051808303816000875af115801561092f573d6000803e3d6000fd5b505050506040513d601f19601f820116820180604052508101906109539190611def565b506109886001600160a01b037f0000000000000000000000000000000000000000000000000000000000000000163384611a8c565b6109bc6001600160a01b037f0000000000000000000000000000000000000000000000000000000000000000163383611a8c565b7f3a31a3381a9917cf1d268782744eefbbc2d0467f1bd37ea377168f655a2242fd7f00000000000000000000000000000000000000000000000000000000000000006001600160a01b03166318160ddd6040518163ffffffff1660e01b8152600401602060405180830381865afa158015610a3b573d6000803e3d6000fd5b505050506040513d601f19601f82011682018060405250810190610a5f9190612009565b610a67611bbc565b6040805192835260208301919091528101869052606081018590526080810184905260a0810183905260c00160405180910390a15050505050505050505050565b600160009054906101000a90046001600160a01b03166001600160a01b0316630c340a246040518163ffffffff1660e01b8152600401602060405180830381865afa158015610afb573d6000803e3d6000fd5b505050506040513d601f19601f82011682018060405250810190610b1f9190611dd2565b6001600160a01b0316336001600160a01b031614600090610b535760405162461bcd60e51b81526004016104089190612022565b50600454600160a01b900460ff161515600114610bb25760405162461bcd60e51b815260206004820152601f60248201527f434f4e54524f4c3a204e6f20636f6e74726f6c20696e2070726f6772657373006044820152606401610408565b600480547fffffffffffffffffffff0000ffffffffffffffffffffffffffffffffffffffff169055565b6000806000600460159054906101000a900460ff1615156001151514610c545760405162461bcd60e51b815260206004820152602760248201527f434f4e54524f4c3a20436f6e74726f6c20706172616d657465727320617265206044820152661b9bdd081cd95d60ca1b6064820152608401610408565b50506004546000915081908190600160a01b900460ff1615610e8157600060095442610c809190611fac565b9050600854811015610c925750909192565b60007f00000000000000000000000000000000000000000000000000000000000000006001600160a01b03166318160ddd6040518163ffffffff1660e01b8152600401602060405180830381865afa158015610cf2573d6000803e3d6000fd5b505050506040513d601f19601f82011682018060405250810190610d169190612009565b90506000610d22611bbc565b9050600061271083600554610d3791906120ca565b610d419190611e69565b9050600061271084600654600554610d599190611fac565b610d6391906120ca565b610d6d9190611e69565b9050600061271085600754600554610d859190611ff1565b610d8f91906120ca565b610d999190611e69565b905081841080610da857508084115b15610e7a576000610dba848689611d1b565b90506000811297508715610e7057610dd1816120e9565b9950610dde8560026120ca565b600260009054906101000a90046001600160a01b03166001600160a01b03166318160ddd6040518163ffffffff1660e01b8152600401602060405180830381865afa158015610e31573d6000803e3d6000fd5b505050506040513d601f19601f82011682018060405250810190610e559190612009565b610e5f908c6120ca565b610e699190611e69565b9850610e78565b809950600098505b505b5050505050505b909192565b600160009054906101000a90046001600160a01b03166001600160a01b0316630505c8c96040518163ffffffff1660e01b8152600401602060405180830381865afa158015610ed9573d6000803e3d6000fd5b505050506040513d601f19601f82011682018060405250810190610efd9190611dd2565b6001600160a01b0316336001600160a01b031614600090610f315760405162461bcd60e51b81526004016104089190612022565b50612710811315610faa5760405162461bcd60e51b815260206004820152602e60248201527f50726f706f7274696f6e616c20636f656666696369656e742063616e6e6f742060448201527f6265206d6f7265207468616e20310000000000000000000000000000000000006064820152608401610408565b600a80549082905560408051838152602081018390527f0310be784aa343c94614142f6a9649e9826549a58f3ea77d5c88dfa115d65852910160405180910390a15050565b6004546001600160a01b031633148061108f5750600160009054906101000a90046001600160a01b03166001600160a01b0316630505c8c96040518163ffffffff1660e01b8152600401602060405180830381865afa158015611056573d6000803e3d6000fd5b505050506040513d601f19601f8201168201806040525081019061107a9190611dd2565b6001600160a01b0316336001600160a01b0316145b61110f5760405162461bcd60e51b8152602060048201526044602482018190527f434f4e54524f4c3a204f6e6c7920696e766f6b61626c6520627920706f6c6963908201527f79206f72206120636f6e747261637420617574686f72697a6564206173206361606482015263363632b960e11b608482015260a401610408565b4260095560025460035460405163095ea7b360e01b81526001600160a01b0391821660048201526024810184905291169063095ea7b3906044016020604051808303816000875af1158015611168573d6000803e3d6000fd5b505050506040513d601f19601f8201168201806040525081019061118c9190611def565b50600354604051635d5155ef60e11b81526001600160a01b037f0000000000000000000000000000000000000000000000000000000000000000811660048301527f00000000000000000000000000000000000000000000000000000000000000008116602483015260448201849052600060648301819052608483018190523060a484015260001960c484015292839291169063baa2abde9060e40160408051808303816000875af1158015611247573d6000803e3d6000fd5b505050506040513d601f19601f8201168201806040525081019061126b9190612106565b60035460405163095ea7b360e01b81526001600160a01b039182166004820152602481018390529294509092507f0000000000000000000000000000000000000000000000000000000000000000169063095ea7b3906044016020604051808303816000875af11580156112e3573d6000803e3d6000fd5b505050506040513d601f19601f820116820180604052508101906113079190611def565b506040805160028082526060820183526000926020830190803683370190505090507f00000000000000000000000000000000000000000000000000000000000000008160008151811061135d5761135d611e27565b60200260200101906001600160a01b031690816001600160a01b0316815250507f0000000000000000000000000000000000000000000000000000000000000000816001815181106113b1576113b1611e27565b6001600160a01b0392831660209182029290920101526003546040516338ed173960e01b815260009291909116906338ed1739906113fd90869085908790309060001990600401611e7d565b6000604051808303816000875af115801561141c573d6000803e3d6000fd5b505050506040513d6000823e601f3d908101601f191682016040526114449190810190611eee565b905060008160018151811061145b5761145b611e27565b60200260200101518561146e9190611ff1565b905060008260008151811061148557611485611e27565b6020026020010151856114989190611fac565b90506114ce6001600160a01b037f0000000000000000000000000000000000000000000000000000000000000000163384611a8c565b8015611508576115086001600160a01b037f0000000000000000000000000000000000000000000000000000000000000000163383611a8c565b7f8043cdbc2a7b6ae637b2543b2d373345ca3aa41439886f0cdd7439d8b553c21a7f00000000000000000000000000000000000000000000000000000000000000006001600160a01b03166318160ddd6040518163ffffffff1660e01b8152600401602060405180830381865afa158015611587573d6000803e3d6000fd5b505050506040513d601f19601f820116820180604052508101906115ab9190612009565b6115b3611bbc565b6040805192835260208301919091528101899052606081018490526080810183905260a00160405180910390a150505050505050565b600160009054906101000a90046001600160a01b03166001600160a01b0316630c340a246040518163ffffffff1660e01b8152600401602060405180830381865afa15801561163c573d6000803e3d6000fd5b505050506040513d601f19601f820116820180604052508101906116609190611dd2565b6001600160a01b0316336001600160a01b0316146000906116945760405162461bcd60e51b81526004016104089190612022565b50600180547fffffffffffffffffffffffff0000000000000000000000000000000000000000166001600160a01b0383169081179091556040517f2f658b440c35314f52658ea8a740e05b284cdc84dc9ae01e891f21b8933e7cad90600090a250565b600160009054906101000a90046001600160a01b03166001600160a01b0316630c340a246040518163ffffffff1660e01b8152600401602060405180830381865afa15801561174a573d6000803e3d6000fd5b505050506040513d601f19601f8201168201806040525081019061176e9190611dd2565b6001600160a01b0316336001600160a01b0316146000906117a25760405162461bcd60e51b81526004016104089190612022565b50600454600160a01b900460ff16156118095760405162461bcd60e51b8152602060048201526024808201527f434f4e54524f4c3a20436f6e74726f6c20616c726561647920696e2070726f676044820152637265737360e01b6064820152608401610408565b600454600160a81b900460ff1615156001146118775760405162461bcd60e51b815260206004820152602760248201527f434f4e54524f4c3a20436f6e74726f6c20706172616d657465727320617265206044820152661b9bdd081cd95d60ca1b6064820152608401610408565b600480547fffffffffffffffffffffff00ffffffffffffffffffffffffffffffffffffffff16600160a01b179055565b600160009054906101000a90046001600160a01b03166001600160a01b0316630c340a246040518163ffffffff1660e01b8152600401602060405180830381865afa1580156118fa573d6000803e3d6000fd5b505050506040513d601f19601f8201168201806040525081019061191e9190611dd2565b6001600160a01b0316336001600160a01b0316146000906119525760405162461bcd60e51b81526004016104089190612022565b50600454600090600160a81b900460ff1661196e576000611972565b6005545b600454909150600090600160a81b900460ff16611990576000611994565b6006545b600454909150600090600160a81b900460ff166119b25760006119b6565b6007545b600454909150600090600160a81b900460ff166119d45760006119d8565b6008545b6005899055600688905560078790556008869055600480547fffffffffffffffffffff00ffffffffffffffffffffffffffffffffffffffffff16600160a81b179055604080518a8152602081018a9052908101889052606081018790526080810186905260a0810185905260c0810184905260e081018290529091507f2d27f139d65340fea0b0f790689e0285d80f699335b26576aafe5eb8b00bb1af906101000160405180910390a15050505050505050565b604080516001600160a01b038481166024830152604480830185905283518084039091018152606490920183526020820180517bffffffffffffffffffffffffffffffffffffffffffffffffffffffff1663a9059cbb60e01b1790529151600092839290871691611afd919061212a565b6000604051808303816000865af19150503d8060008114611b3a576040519150601f19603f3d011682016040523d82523d6000602084013e611b3f565b606091505b5091509150818015611b69575080511580611b69575080806020019051810190611b699190611def565b611bb55760405162461bcd60e51b815260206004820152600f60248201527f5452414e534645525f4641494c454400000000000000000000000000000000006044820152606401610408565b5050505050565b6000806000600260009054906101000a90046001600160a01b03166001600160a01b0316630902f1ac6040518163ffffffff1660e01b8152600401606060405180830381865afa158015611c14573d6000803e3d6000fd5b505050506040513d601f19601f82011682018060405250810190611c389190612188565b506dffffffffffffffffffffffffffff1691506dffffffffffffffffffffffffffff1691507f00000000000000000000000000000000000000000000000000000000000000006001600160a01b0316600260009054906101000a90046001600160a01b03166001600160a01b0316630dfe16816040518163ffffffff1660e01b8152600401602060405180830381865afa158015611cda573d6000803e3d6000fd5b505050506040513d601f19601f82011682018060405250810190611cfe9190611dd2565b6001600160a01b031614611d125780611d14565b815b9250505090565b6000612710600a548486611d2f91906121d8565b611d399190612217565b611d43919061229e565b949350505050565b600060208284031215611d5d57600080fd5b5035919050565b6001600160a01b0381168114611d7957600080fd5b50565b600060208284031215611d8e57600080fd5b8135611d9981611d64565b9392505050565b60008060008060808587031215611db657600080fd5b5050823594602084013594506040840135936060013592509050565b600060208284031215611de457600080fd5b8151611d9981611d64565b600060208284031215611e0157600080fd5b81518015158114611d9957600080fd5b634e487b7160e01b600052604160045260246000fd5b634e487b7160e01b600052603260045260246000fd5b634e487b7160e01b600052601260045260246000fd5b634e487b7160e01b600052601160045260246000fd5b600082611e7857611e78611e3d565b500490565b600060a082018783526020878185015260a0604085015281875180845260c086019150828901935060005b81811015611ecd5784516001600160a01b031683529383019391830191600101611ea8565b50506001600160a01b03969096166060850152505050608001529392505050565b60006020808385031215611f0157600080fd5b825167ffffffffffffffff80821115611f1957600080fd5b818501915085601f830112611f2d57600080fd5b815181811115611f3f57611f3f611e11565b8060051b604051601f19603f83011681018181108582111715611f6457611f64611e11565b604052918252848201925083810185019188831115611f8257600080fd5b938501935b82851015611fa057845184529385019392850192611f87565b98975050505050505050565b600082821015611fbe57611fbe611e53565b500390565b600080600060608486031215611fd857600080fd5b8351925060208401519150604084015190509250925092565b6000821982111561200457612004611e53565b500190565b60006020828403121561201b57600080fd5b5051919050565b600060208083526000845481600182811c91508083168061204457607f831692505b85831081141561206257634e487b7160e01b85526022600452602485fd5b87860183815260200181801561207f5760018114612090576120bb565b60ff198616825287820196506120bb565b60008b81526020902060005b868110156120b55781548482015290850190890161209c565b83019750505b50949998505050505050505050565b60008160001904831182151516156120e4576120e4611e53565b500290565b6000600160ff1b8214156120ff576120ff611e53565b5060000390565b6000806040838503121561211957600080fd5b505080516020909101519092909150565b6000825160005b8181101561214b5760208186018101518583015201612131565b8181111561215a576000828501525b509190910192915050565b80516dffffffffffffffffffffffffffff8116811461218357600080fd5b919050565b60008060006060848603121561219d57600080fd5b6121a684612165565b92506121b460208501612165565b9150604084015163ffffffff811681146121cd57600080fd5b809150509250925092565b60008083128015600160ff1b8501841216156121f6576121f6611e53565b836001600160ff1b0301831381161561221157612211611e53565b50500390565b60006001600160ff1b0360008413600084138583048511828216161561223f5761223f611e53565b600160ff1b600087128281168783058912161561225e5761225e611e53565b6000871292508782058712848416161561227a5761227a611e53565b8785058712818416161561229057612290611e53565b505050929093029392505050565b6000826122ad576122ad611e3d565b600160ff1b8214600019841416156122c7576122c7611e53565b50059056fea164736f6c634300080a000a",
  "devdoc": {
    "kind": "dev",
    "methods": {
      "add(uint256)": {
        "params": {
          "_pana": "uint256 - amount of pana to add"
        }
      },
      "burn(uint256)": {
        "params": {
          "_slp": "uint256 - amount of slp to burn"
        }
      }
    },
    "version": 1
  },
  "userdoc": {
    "kind": "user",
    "methods": {
      "add(uint256)": {
        "notice": "adds Pana to the pool"
      },
      "burn(uint256)": {
        "notice": "burns Pana from the pool using SLP"
      }
    },
    "version": 1
  },
  "storageLayout": {
    "storage": [
      {
        "astId": 315,
        "contract": "contracts/treasury/ProportionalSupplyController.sol:ProportionalSupplyController",
        "label": "UNAUTHORIZED",
        "offset": 0,
        "slot": "0",
        "type": "t_string_storage"
      },
      {
        "astId": 318,
        "contract": "contracts/treasury/ProportionalSupplyController.sol:ProportionalSupplyController",
        "label": "authority",
        "offset": 0,
        "slot": "1",
        "type": "t_contract(IPanaAuthority)4118"
      },
      {
        "astId": 7025,
        "contract": "contracts/treasury/ProportionalSupplyController.sol:ProportionalSupplyController",
        "label": "pair",
        "offset": 0,
        "slot": "2",
        "type": "t_address"
      },
      {
        "astId": 7027,
        "contract": "contracts/treasury/ProportionalSupplyController.sol:ProportionalSupplyController",
        "label": "router",
        "offset": 0,
        "slot": "3",
        "type": "t_address"
      },
      {
        "astId": 7029,
        "contract": "contracts/treasury/ProportionalSupplyController.sol:ProportionalSupplyController",
        "label": "supplyControlCaller",
        "offset": 0,
        "slot": "4",
        "type": "t_address"
      },
      {
        "astId": 7032,
        "contract": "contracts/treasury/ProportionalSupplyController.sol:ProportionalSupplyController",
        "label": "supplyControlEnabled",
        "offset": 20,
        "slot": "4",
        "type": "t_bool"
      },
      {
        "astId": 7035,
        "contract": "contracts/treasury/ProportionalSupplyController.sol:ProportionalSupplyController",
        "label": "paramsSet",
        "offset": 21,
        "slot": "4",
        "type": "t_bool"
      },
      {
        "astId": 7037,
        "contract": "contracts/treasury/ProportionalSupplyController.sol:ProportionalSupplyController",
        "label": "lossRatio",
        "offset": 0,
        "slot": "5",
        "type": "t_uint256"
      },
      {
        "astId": 7039,
        "contract": "contracts/treasury/ProportionalSupplyController.sol:ProportionalSupplyController",
        "label": "cf",
        "offset": 0,
        "slot": "6",
        "type": "t_uint256"
      },
      {
        "astId": 7041,
        "contract": "contracts/treasury/ProportionalSupplyController.sol:ProportionalSupplyController",
        "label": "cc",
        "offset": 0,
        "slot": "7",
        "type": "t_uint256"
      },
      {
        "astId": 7043,
        "contract": "contracts/treasury/ProportionalSupplyController.sol:ProportionalSupplyController",
        "label": "samplingTime",
        "offset": 0,
        "slot": "8",
        "type": "t_uint256"
      },
      {
        "astId": 7045,
        "contract": "contracts/treasury/ProportionalSupplyController.sol:ProportionalSupplyController",
        "label": "prev_timestamp",
        "offset": 0,
        "slot": "9",
        "type": "t_uint256"
      },
      {
        "astId": 7877,
        "contract": "contracts/treasury/ProportionalSupplyController.sol:ProportionalSupplyController",
        "label": "kp",
        "offset": 0,
        "slot": "10",
        "type": "t_int256"
      }
    ],
    "types": {
      "t_address": {
        "encoding": "inplace",
        "label": "address",
        "numberOfBytes": "20"
      },
      "t_bool": {
        "encoding": "inplace",
        "label": "bool",
        "numberOfBytes": "1"
      },
      "t_contract(IPanaAuthority)4118": {
        "encoding": "inplace",
        "label": "contract IPanaAuthority",
        "numberOfBytes": "20"
      },
      "t_int256": {
        "encoding": "inplace",
        "label": "int256",
        "numberOfBytes": "32"
      },
      "t_string_storage": {
        "encoding": "bytes",
        "label": "string",
        "numberOfBytes": "32"
      },
      "t_uint256": {
        "encoding": "inplace",
        "label": "uint256",
        "numberOfBytes": "32"
      }
    }
  }
}