{
  "address": "0x65d1f0e00Cd031432852eFCCa1ee07ad710ebCEb",
  "abi": [
    {
      "inputs": [
        {
          "internalType": "address",
          "name": "factory_",
          "type": "address"
        }
      ],
      "stateMutability": "nonpayable",
      "type": "constructor"
    },
    {
      "anonymous": false,
      "inputs": [
        {
          "indexed": true,
          "internalType": "address",
          "name": "pair",
          "type": "address"
        },
        {
          "indexed": false,
          "internalType": "uint256",
          "name": "price0Cumulative",
          "type": "uint256"
        },
        {
          "indexed": false,
          "internalType": "uint256",
          "name": "price1Cumulative",
          "type": "uint256"
        },
        {
          "indexed": false,
          "internalType": "uint32",
          "name": "blockTimestamp",
          "type": "uint32"
        },
        {
          "indexed": false,
          "internalType": "bool",
          "name": "lastIsA",
          "type": "bool"
        }
      ],
      "name": "PriceUpdate",
      "type": "event"
    },
    {
      "inputs": [],
      "name": "MIN_T",
      "outputs": [
        {
          "internalType": "uint32",
          "name": "",
          "type": "uint32"
        }
      ],
      "stateMutability": "view",
      "type": "function"
    },
    {
      "inputs": [
        {
          "internalType": "address",
          "name": "tokenIn",
          "type": "address"
        },
        {
          "internalType": "uint256",
          "name": "amountIn",
          "type": "uint256"
        },
        {
          "internalType": "address",
          "name": "tokenOut",
          "type": "address"
        }
      ],
      "name": "consult",
      "outputs": [
        {
          "internalType": "uint256",
          "name": "amountOut",
          "type": "uint256"
        }
      ],
      "stateMutability": "nonpayable",
      "type": "function"
    },
    {
      "inputs": [
        {
          "internalType": "address",
          "name": "tokenIn",
          "type": "address"
        },
        {
          "internalType": "uint256",
          "name": "amountIn",
          "type": "uint256"
        },
        {
          "internalType": "address",
          "name": "tokenOut",
          "type": "address"
        }
      ],
      "name": "consultReadonly",
      "outputs": [
        {
          "internalType": "uint256",
          "name": "amountOut",
          "type": "uint256"
        }
      ],
      "stateMutability": "view",
      "type": "function"
    },
    {
      "inputs": [],
      "name": "factory",
      "outputs": [
        {
          "internalType": "address",
          "name": "",
          "type": "address"
        }
      ],
      "stateMutability": "view",
      "type": "function"
    },
    {
      "inputs": [],
      "name": "getBlockTimestamp",
      "outputs": [
        {
          "internalType": "uint32",
          "name": "",
          "type": "uint32"
        }
      ],
      "stateMutability": "view",
      "type": "function"
    },
    {
      "inputs": [
        {
          "internalType": "address",
          "name": "uniswapV2Pair",
          "type": "address"
        }
      ],
      "name": "getLastResult",
      "outputs": [
        {
          "internalType": "uint224",
          "name": "price0",
          "type": "uint224"
        },
        {
          "internalType": "uint224",
          "name": "price1",
          "type": "uint224"
        },
        {
          "internalType": "uint32",
          "name": "T",
          "type": "uint32"
        },
        {
          "internalType": "uint32",
          "name": "lastUpdated",
          "type": "uint32"
        }
      ],
      "stateMutability": "view",
      "type": "function"
    },
    {
      "inputs": [
        {
          "internalType": "address",
          "name": "",
          "type": "address"
        }
      ],
      "name": "getPair",
      "outputs": [
        {
          "internalType": "uint256",
          "name": "price0CumulativeA",
          "type": "uint256"
        },
        {
          "internalType": "uint256",
          "name": "price0CumulativeB",
          "type": "uint256"
        },
        {
          "internalType": "uint256",
          "name": "price1CumulativeA",
          "type": "uint256"
        },
        {
          "internalType": "uint256",
          "name": "price1CumulativeB",
          "type": "uint256"
        },
        {
          "internalType": "uint32",
          "name": "updateA",
          "type": "uint32"
        },
        {
          "internalType": "uint32",
          "name": "updateB",
          "type": "uint32"
        },
        {
          "internalType": "bool",
          "name": "lastIsA",
          "type": "bool"
        },
        {
          "internalType": "bool",
          "name": "initialized",
          "type": "bool"
        }
      ],
      "stateMutability": "view",
      "type": "function"
    },
    {
      "inputs": [
        {
          "internalType": "address",
          "name": "uniswapV2Pair",
          "type": "address"
        }
      ],
      "name": "getResult",
      "outputs": [
        {
          "internalType": "uint224",
          "name": "price0",
          "type": "uint224"
        },
        {
          "internalType": "uint224",
          "name": "price1",
          "type": "uint224"
        },
        {
          "internalType": "uint32",
          "name": "T",
          "type": "uint32"
        },
        {
          "internalType": "uint32",
          "name": "lastUpdated",
          "type": "uint32"
        }
      ],
      "stateMutability": "nonpayable",
      "type": "function"
    },
    {
      "inputs": [
        {
          "internalType": "address",
          "name": "uniswapV2Pair",
          "type": "address"
        }
      ],
      "name": "initialize",
      "outputs": [],
      "stateMutability": "nonpayable",
      "type": "function"
    }
  ],
  "transactionHash": "0xa164ddade70185d6b6f89d552a428d2132156bf81535b0e2428227fa5c3cfefb",
  "args": [
    "0x681c3836a5589b933062ACA4fd846c1287a2865F"
  ],
  "solcInputHash": "313d57b5e0e8cd73a1ed6762c053ae97",
  "bytecode": "0x60a060405234801561001057600080fd5b5060405161107d38038061107d8339818101604052602081101561003357600080fd5b5051606081901b6001600160601b0319166080526001600160a01b031661100c610071600039806108535280610907528061093d525061100c6000f3fe608060405234801561001057600080fd5b50600436106100a35760003560e01c80638c86f1e411610076578063c45a01551161005b578063c45a01551461023c578063c4d66de814610260578063f51b553114610288576100a3565b80638c86f1e4146101be5780639c5d6cb714610206576100a3565b80630546aa16146100a85780631a788a0214610106578063446a37e014610177578063796b89b91461019d575b600080fd5b6100ce600480360360208110156100be57600080fd5b50356001600160a01b0316610290565b604080516001600160e01b03958616815293909416602084015263ffffffff9182168385015216606082015290519081900360800190f35b61012c6004803603602081101561011c57600080fd5b50356001600160a01b031661048d565b60408051988952602089019790975287870195909552606087019390935263ffffffff91821660808701521660a0850152151560c0840152151560e083015251908190036101000190f35b6100ce6004803603602081101561018d57600080fd5b50356001600160a01b03166104e5565b6101a5610841565b6040805163ffffffff9092168252519081900360200190f35b6101f4600480360360608110156101d457600080fd5b506001600160a01b0381358116916020810135916040909101351661084b565b60408051918252519081900360200190f35b6101f46004803603606081101561021c57600080fd5b506001600160a01b038135811691602081013591604090910135166108ff565b61024461093b565b604080516001600160a01b039092168252519081900360200190f35b6102866004803603602081101561027657600080fd5b50356001600160a01b031661095f565b005b6101a5610aac565b60008060008061029e610f50565b506001600160a01b03851660009081526020818152604091829020825161010081018452815481526001820154928101929092526002810154928201929092526003820154606082015260049091015463ffffffff808216608084015264010000000082041660a083015260ff600160401b82048116151560c0840152600160481b90910416151560e0820181905261037e576040805162461bcd60e51b815260206004820152601e60248201527f556e69737761704f7261636c653a204e4f545f494e495449414c495a45440000604482015290519081900360640190fd5b60008061038a88610ab2565b9150915060008360c001516103a35783608001516103a9565b8360a001515b945084905060008460c001516103c05784516103c6565b84602001515b905060008560c001516103dd5785604001516103e3565b85606001515b9050826103ee610841565b03975061070863ffffffff8916101561044e576040805162461bcd60e51b815260206004820152601860248201527f556e69737761704f7261636c653a204e4f545f52454144590000000000000000604482015290519081900360640190fd5b6104688863ffffffff168387038161046257fe5b04610c7e565b995061047e8863ffffffff168286038161046257fe5b98505050505050509193509193565b600060208190529081526040902080546001820154600283015460038401546004909401549293919290919063ffffffff8082169164010000000081049091169060ff600160401b8204811691600160481b90041688565b6000806000806104f3610f50565b506001600160a01b03851660009081526020818152604091829020825161010081018452815481526001820154928101929092526002810154928201929092526003820154606082015260049091015463ffffffff808216608084015264010000000082041660a083015260ff600160401b82048116151560c0840152600160481b90910416151560e082018190526105d3576040805162461bcd60e51b815260206004820152601e60248201527f556e69737761704f7261636c653a204e4f545f494e495449414c495a45440000604482015290519081900360640190fd5b6001600160a01b0386166000908152602081905260408120906105f4610841565b905060008360c0015161060b578360a00151610611565b83608001515b905060008061061f8b610ab2565b909250905060008061070885870363ffffffff1610610752578760c0015161064b57876020015161064e565b87515b91508760c00151610663578760600151610669565b87604001515b90508598508760c00151156106ad57600187018490556003870183905560048701805467ffffffff00000000191664010000000063ffffffff8916021790556106cf565b8387556002870183905560048701805463ffffffff191663ffffffff88161790555b60c0880151600488018054600160401b921592830268ff000000000000000019909116179055604080518681526020810186905263ffffffff8916818301526060810192909252516001600160a01b038f16917f4a727197e1be19fcc99fc7d30009e749dded6a466eb512d9312a1125c5f2eb6b919081900360800190a26107a4565b8760c0015161076557876080015161076b565b8760a001515b98508894508760c00151610780578751610786565b87602001515b91508760c0015161079b5787604001516107a1565b87606001515b90505b848603995061070863ffffffff8b161015610806576040805162461bcd60e51b815260206004820152601860248201527f556e69737761704f7261636c653a204e4f545f52454144590000000000000000604482015290519081900360640190fd5b61081a8a63ffffffff168386038161046257fe5b9b506108308a63ffffffff168285038161046257fe5b9a5050505050505050509193509193565b63ffffffff421690565b6000806108797f00000000000000000000000000000000000000000000000000000000000000008685610ce0565b9050600080610887836104e5565b50509150915060006108998887610d87565b509050826001600160a01b0380831690881614156108b45750815b60408051602081019091526001600160e01b03821681526108de906108d9908a610e65565b610ef9565b71ffffffffffffffffffffffffffffffffffff169998505050505050505050565b60008061092d7f00000000000000000000000000000000000000000000000000000000000000008685610ce0565b905060008061088783610290565b7f000000000000000000000000000000000000000000000000000000000000000081565b6001600160a01b03811660009081526020819052604090206004810154600160481b900460ff16156109c25760405162461bcd60e51b8152600401808060200182810382526022815260200180610fb96022913960400191505060405180910390fd5b6000806109ce84610ab2565b9150915060006109dc610841565b83855560018086018590556002860184905560038601849055600486018054600160481b600160401b63ffffffff1990921663ffffffff861690811767ffffffff00000000191664010000000082021768ff000000000000000019169290921769ff000000000000000000191617909155604080518781526020810187905280820192909252606082019290925290519192506001600160a01b038716917f4a727197e1be19fcc99fc7d30009e749dded6a466eb512d9312a1125c5f2eb6b916080908290030190a25050505050565b61070881565b600080826001600160a01b0316635909c0d56040518163ffffffff1660e01b815260040160206040518083038186803b158015610aee57600080fd5b505afa158015610b02573d6000803e3d6000fd5b505050506040513d6020811015610b1857600080fd5b505160408051635a3d549360e01b815290519193506001600160a01b03851691635a3d549391600480820192602092909190829003018186803b158015610b5e57600080fd5b505afa158015610b72573d6000803e3d6000fd5b505050506040513d6020811015610b8857600080fd5b505160408051630240bc6b60e21b81529051919250600091829182916001600160a01b03881691630902f1ac916004808301926060929190829003018186803b158015610bd457600080fd5b505afa158015610be8573d6000803e3d6000fd5b505050506040513d6060811015610bfe57600080fd5b50805160208201516040909201519094509092509050600081610c1f610841565b0390508063ffffffff16610c4585610c3686610f00565b6001600160e01b031690610f24565b6001600160e01b031602860195508063ffffffff16610c6784610c3687610f00565b6001600160e01b0316028501945050505050915091565b60006001600160e01b03821115610cdc576040805162461bcd60e51b815260206004820152601f60248201527f556e69737761704f7261636c653a2055494e543232345f4f564552464c4f5700604482015290519081900360640190fd5b5090565b6000806000610cef8585610d87565b91509150856001600160a01b031663e6a4390583836040518363ffffffff1660e01b815260040180836001600160a01b03168152602001826001600160a01b031681526020019250505060206040518083038186803b158015610d5157600080fd5b505afa158015610d65573d6000803e3d6000fd5b505050506040513d6020811015610d7b57600080fd5b50519695505050505050565b600080826001600160a01b0316846001600160a01b03161415610ddb5760405162461bcd60e51b8152600401808060200182810382526025815260200180610fdb6025913960400191505060405180910390fd5b826001600160a01b0316846001600160a01b031610610dfb578284610dfe565b83835b90925090506001600160a01b038216610e5e576040805162461bcd60e51b815260206004820152601e60248201527f556e697377617056324c6962726172793a205a45524f5f414444524553530000604482015290519081900360640190fd5b9250929050565b610e6d610fa5565b6000821580610e9357505082516001600160e01b031682810290838281610e9057fe5b04145b610ee4576040805162461bcd60e51b815260206004820152601960248201527f4669786564506f696e743a3a6d756c3a206f766572666c6f7700000000000000604482015290519081900360640190fd5b60408051602081019091529081529392505050565b5160701c90565b6dffffffffffffffffffffffffffff166e0100000000000000000000000000000290565b60006dffffffffffffffffffffffffffff82166001600160e01b03841681610f4857fe5b049392505050565b60405180610100016040528060008152602001600081526020016000815260200160008152602001600063ffffffff168152602001600063ffffffff1681526020016000151581526020016000151581525090565b604051806020016040528060008152509056fe556e69737761704f7261636c653a20414c52454144595f494e495449414c495a4544556e697377617056324c6962726172793a204944454e544943414c5f414444524553534553a164736f6c6343000705000a",
  "devdoc": {
    "kind": "dev",
    "methods": {},
    "version": 1
  },
  "userdoc": {
    "kind": "user",
    "methods": {},
    "version": 1
  },
  "storageLayout": {
    "storage": [
      {
        "astId": 442,
        "contract": "contracts/bond/SimpleUniswapOracle.sol:SimpleUniswapOracle",
        "label": "getPair",
        "offset": 0,
        "slot": "0",
        "type": "t_mapping(t_address,t_struct(Pair)436_storage)"
      }
    ],
    "types": {
      "t_address": {
        "encoding": "inplace",
        "label": "address",
        "numberOfBytes": "20"
      },
      "t_bool": {
        "encoding": "inplace",
        "label": "bool",
        "numberOfBytes": "1"
      },
      "t_mapping(t_address,t_struct(Pair)436_storage)": {
        "encoding": "mapping",
        "key": "t_address",
        "label": "mapping(address => struct SimpleUniswapOracle.Pair)",
        "numberOfBytes": "32",
        "value": "t_struct(Pair)436_storage"
      },
      "t_struct(Pair)436_storage": {
        "encoding": "inplace",
        "label": "struct SimpleUniswapOracle.Pair",
        "members": [
          {
            "astId": 421,
            "contract": "contracts/bond/SimpleUniswapOracle.sol:SimpleUniswapOracle",
            "label": "price0CumulativeA",
            "offset": 0,
            "slot": "0",
            "type": "t_uint256"
          },
          {
            "astId": 423,
            "contract": "contracts/bond/SimpleUniswapOracle.sol:SimpleUniswapOracle",
            "label": "price0CumulativeB",
            "offset": 0,
            "slot": "1",
            "type": "t_uint256"
          },
          {
            "astId": 425,
            "contract": "contracts/bond/SimpleUniswapOracle.sol:SimpleUniswapOracle",
            "label": "price1CumulativeA",
            "offset": 0,
            "slot": "2",
            "type": "t_uint256"
          },
          {
            "astId": 427,
            "contract": "contracts/bond/SimpleUniswapOracle.sol:SimpleUniswapOracle",
            "label": "price1CumulativeB",
            "offset": 0,
            "slot": "3",
            "type": "t_uint256"
          },
          {
            "astId": 429,
            "contract": "contracts/bond/SimpleUniswapOracle.sol:SimpleUniswapOracle",
            "label": "updateA",
            "offset": 0,
            "slot": "4",
            "type": "t_uint32"
          },
          {
            "astId": 431,
            "contract": "contracts/bond/SimpleUniswapOracle.sol:SimpleUniswapOracle",
            "label": "updateB",
            "offset": 4,
            "slot": "4",
            "type": "t_uint32"
          },
          {
            "astId": 433,
            "contract": "contracts/bond/SimpleUniswapOracle.sol:SimpleUniswapOracle",
            "label": "lastIsA",
            "offset": 8,
            "slot": "4",
            "type": "t_bool"
          },
          {
            "astId": 435,
            "contract": "contracts/bond/SimpleUniswapOracle.sol:SimpleUniswapOracle",
            "label": "initialized",
            "offset": 9,
            "slot": "4",
            "type": "t_bool"
          }
        ],
        "numberOfBytes": "160"
      },
      "t_uint256": {
        "encoding": "inplace",
        "label": "uint256",
        "numberOfBytes": "32"
      },
      "t_uint32": {
        "encoding": "inplace",
        "label": "uint32",
        "numberOfBytes": "4"
      }
    }
  }
}