{
  "address": "0x16d90a71520554781CDD1C220b9F11adCB88F010",
  "abi": [
    {
      "inputs": [
        {
          "internalType": "address",
          "name": "_authority",
          "type": "address"
        }
      ],
      "stateMutability": "nonpayable",
      "type": "constructor"
    },
    {
      "anonymous": false,
      "inputs": [
        {
          "indexed": true,
          "internalType": "address",
          "name": "owner",
          "type": "address"
        },
        {
          "indexed": true,
          "internalType": "address",
          "name": "spender",
          "type": "address"
        },
        {
          "indexed": false,
          "internalType": "uint256",
          "name": "value",
          "type": "uint256"
        }
      ],
      "name": "Approval",
      "type": "event"
    },
    {
      "anonymous": false,
      "inputs": [
        {
          "indexed": true,
          "internalType": "contract IPanaAuthority",
          "name": "authority",
          "type": "address"
        }
      ],
      "name": "AuthorityUpdated",
      "type": "event"
    },
    {
      "anonymous": false,
      "inputs": [
        {
          "indexed": true,
          "internalType": "uint256",
          "name": "epoch",
          "type": "uint256"
        },
        {
          "indexed": false,
          "internalType": "uint256",
          "name": "rebase",
          "type": "uint256"
        },
        {
          "indexed": false,
          "internalType": "uint256",
          "name": "index",
          "type": "uint256"
        }
      ],
      "name": "LogRebase",
      "type": "event"
    },
    {
      "anonymous": false,
      "inputs": [
        {
          "indexed": false,
          "internalType": "address",
          "name": "stakingContract",
          "type": "address"
        }
      ],
      "name": "LogStakingContractUpdated",
      "type": "event"
    },
    {
      "anonymous": false,
      "inputs": [
        {
          "indexed": true,
          "internalType": "uint256",
          "name": "epoch",
          "type": "uint256"
        },
        {
          "indexed": false,
          "internalType": "uint256",
          "name": "totalSupply",
          "type": "uint256"
        }
      ],
      "name": "LogSupply",
      "type": "event"
    },
    {
      "anonymous": false,
      "inputs": [
        {
          "indexed": false,
          "internalType": "bool",
          "name": "disableTransfer",
          "type": "bool"
        }
      ],
      "name": "ToggleTransfer",
      "type": "event"
    },
    {
      "anonymous": false,
      "inputs": [
        {
          "indexed": true,
          "internalType": "address",
          "name": "from",
          "type": "address"
        },
        {
          "indexed": true,
          "internalType": "address",
          "name": "to",
          "type": "address"
        },
        {
          "indexed": false,
          "internalType": "uint256",
          "name": "value",
          "type": "uint256"
        }
      ],
      "name": "Transfer",
      "type": "event"
    },
    {
      "inputs": [],
      "name": "DOMAIN_SEPARATOR",
      "outputs": [
        {
          "internalType": "bytes32",
          "name": "",
          "type": "bytes32"
        }
      ],
      "stateMutability": "view",
      "type": "function"
    },
    {
      "inputs": [],
      "name": "KARSHA",
      "outputs": [
        {
          "internalType": "contract IKarsha",
          "name": "",
          "type": "address"
        }
      ],
      "stateMutability": "view",
      "type": "function"
    },
    {
      "inputs": [
        {
          "internalType": "address",
          "name": "owner_",
          "type": "address"
        },
        {
          "internalType": "address",
          "name": "spender",
          "type": "address"
        }
      ],
      "name": "allowance",
      "outputs": [
        {
          "internalType": "uint256",
          "name": "",
          "type": "uint256"
        }
      ],
      "stateMutability": "view",
      "type": "function"
    },
    {
      "inputs": [
        {
          "internalType": "address",
          "name": "spender",
          "type": "address"
        },
        {
          "internalType": "uint256",
          "name": "value",
          "type": "uint256"
        }
      ],
      "name": "approve",
      "outputs": [
        {
          "internalType": "bool",
          "name": "",
          "type": "bool"
        }
      ],
      "stateMutability": "nonpayable",
      "type": "function"
    },
    {
      "inputs": [],
      "name": "authority",
      "outputs": [
        {
          "internalType": "contract IPanaAuthority",
          "name": "",
          "type": "address"
        }
      ],
      "stateMutability": "view",
      "type": "function"
    },
    {
      "inputs": [
        {
          "internalType": "uint256",
          "name": "gons",
          "type": "uint256"
        }
      ],
      "name": "balanceForGons",
      "outputs": [
        {
          "internalType": "uint256",
          "name": "",
          "type": "uint256"
        }
      ],
      "stateMutability": "view",
      "type": "function"
    },
    {
      "inputs": [
        {
          "internalType": "address",
          "name": "who",
          "type": "address"
        }
      ],
      "name": "balanceOf",
      "outputs": [
        {
          "internalType": "uint256",
          "name": "",
          "type": "uint256"
        }
      ],
      "stateMutability": "view",
      "type": "function"
    },
    {
      "inputs": [],
      "name": "circulatingSupply",
      "outputs": [
        {
          "internalType": "uint256",
          "name": "",
          "type": "uint256"
        }
      ],
      "stateMutability": "view",
      "type": "function"
    },
    {
      "inputs": [],
      "name": "decimals",
      "outputs": [
        {
          "internalType": "uint8",
          "name": "",
          "type": "uint8"
        }
      ],
      "stateMutability": "view",
      "type": "function"
    },
    {
      "inputs": [
        {
          "internalType": "address",
          "name": "spender",
          "type": "address"
        },
        {
          "internalType": "uint256",
          "name": "subtractedValue",
          "type": "uint256"
        }
      ],
      "name": "decreaseAllowance",
      "outputs": [
        {
          "internalType": "bool",
          "name": "",
          "type": "bool"
        }
      ],
      "stateMutability": "nonpayable",
      "type": "function"
    },
    {
      "inputs": [
        {
          "internalType": "uint256",
          "name": "amount",
          "type": "uint256"
        }
      ],
      "name": "fromKARSHA",
      "outputs": [
        {
          "internalType": "uint256",
          "name": "",
          "type": "uint256"
        }
      ],
      "stateMutability": "view",
      "type": "function"
    },
    {
      "inputs": [
        {
          "internalType": "uint256",
          "name": "amount",
          "type": "uint256"
        }
      ],
      "name": "gonsForBalance",
      "outputs": [
        {
          "internalType": "uint256",
          "name": "",
          "type": "uint256"
        }
      ],
      "stateMutability": "view",
      "type": "function"
    },
    {
      "inputs": [
        {
          "internalType": "address",
          "name": "spender",
          "type": "address"
        },
        {
          "internalType": "uint256",
          "name": "addedValue",
          "type": "uint256"
        }
      ],
      "name": "increaseAllowance",
      "outputs": [
        {
          "internalType": "bool",
          "name": "",
          "type": "bool"
        }
      ],
      "stateMutability": "nonpayable",
      "type": "function"
    },
    {
      "inputs": [],
      "name": "index",
      "outputs": [
        {
          "internalType": "uint256",
          "name": "",
          "type": "uint256"
        }
      ],
      "stateMutability": "view",
      "type": "function"
    },
    {
      "inputs": [
        {
          "internalType": "address",
          "name": "_stakingContract",
          "type": "address"
        }
      ],
      "name": "initialize",
      "outputs": [],
      "stateMutability": "nonpayable",
      "type": "function"
    },
    {
      "inputs": [],
      "name": "name",
      "outputs": [
        {
          "internalType": "string",
          "name": "",
          "type": "string"
        }
      ],
      "stateMutability": "view",
      "type": "function"
    },
    {
      "inputs": [
        {
          "internalType": "address",
          "name": "owner",
          "type": "address"
        }
      ],
      "name": "nonces",
      "outputs": [
        {
          "internalType": "uint256",
          "name": "",
          "type": "uint256"
        }
      ],
      "stateMutability": "view",
      "type": "function"
    },
    {
      "inputs": [
        {
          "internalType": "address",
          "name": "owner",
          "type": "address"
        },
        {
          "internalType": "address",
          "name": "spender",
          "type": "address"
        },
        {
          "internalType": "uint256",
          "name": "value",
          "type": "uint256"
        },
        {
          "internalType": "uint256",
          "name": "deadline",
          "type": "uint256"
        },
        {
          "internalType": "uint8",
          "name": "v",
          "type": "uint8"
        },
        {
          "internalType": "bytes32",
          "name": "r",
          "type": "bytes32"
        },
        {
          "internalType": "bytes32",
          "name": "s",
          "type": "bytes32"
        }
      ],
      "name": "permit",
      "outputs": [],
      "stateMutability": "nonpayable",
      "type": "function"
    },
    {
      "inputs": [
        {
          "internalType": "uint256",
          "name": "profit_",
          "type": "uint256"
        },
        {
          "internalType": "uint256",
          "name": "epoch_",
          "type": "uint256"
        }
      ],
      "name": "rebase",
      "outputs": [
        {
          "internalType": "uint256",
          "name": "",
          "type": "uint256"
        }
      ],
      "stateMutability": "nonpayable",
      "type": "function"
    },
    {
      "inputs": [
        {
          "internalType": "uint256",
          "name": "",
          "type": "uint256"
        }
      ],
      "name": "rebases",
      "outputs": [
        {
          "internalType": "uint256",
          "name": "epoch",
          "type": "uint256"
        },
        {
          "internalType": "uint256",
          "name": "rebase",
          "type": "uint256"
        },
        {
          "internalType": "uint256",
          "name": "totalStakedBefore",
          "type": "uint256"
        },
        {
          "internalType": "uint256",
          "name": "totalStakedAfter",
          "type": "uint256"
        },
        {
          "internalType": "uint256",
          "name": "amountRebased",
          "type": "uint256"
        },
        {
          "internalType": "uint256",
          "name": "index",
          "type": "uint256"
        },
        {
          "internalType": "uint256",
          "name": "blockNumberOccured",
          "type": "uint256"
        }
      ],
      "stateMutability": "view",
      "type": "function"
    },
    {
      "inputs": [
        {
          "internalType": "contract IPanaAuthority",
          "name": "_newAuthority",
          "type": "address"
        }
      ],
      "name": "setAuthority",
      "outputs": [],
      "stateMutability": "nonpayable",
      "type": "function"
    },
    {
      "inputs": [
        {
          "internalType": "uint256",
          "name": "_index",
          "type": "uint256"
        }
      ],
      "name": "setIndex",
      "outputs": [],
      "stateMutability": "nonpayable",
      "type": "function"
    },
    {
      "inputs": [
        {
          "internalType": "address",
          "name": "_karsha",
          "type": "address"
        }
      ],
      "name": "setKarsha",
      "outputs": [],
      "stateMutability": "nonpayable",
      "type": "function"
    },
    {
      "inputs": [
        {
          "internalType": "address",
          "name": "_stakingContract",
          "type": "address"
        }
      ],
      "name": "setStakingContract",
      "outputs": [],
      "stateMutability": "nonpayable",
      "type": "function"
    },
    {
      "inputs": [],
      "name": "stakingContract",
      "outputs": [
        {
          "internalType": "address",
          "name": "",
          "type": "address"
        }
      ],
      "stateMutability": "view",
      "type": "function"
    },
    {
      "inputs": [],
      "name": "symbol",
      "outputs": [
        {
          "internalType": "string",
          "name": "",
          "type": "string"
        }
      ],
      "stateMutability": "view",
      "type": "function"
    },
    {
      "inputs": [
        {
          "internalType": "uint256",
          "name": "amount",
          "type": "uint256"
        }
      ],
      "name": "toKARSHA",
      "outputs": [
        {
          "internalType": "uint256",
          "name": "",
          "type": "uint256"
        }
      ],
      "stateMutability": "view",
      "type": "function"
    },
    {
      "inputs": [],
      "name": "toggleTransfer",
      "outputs": [
        {
          "internalType": "bool",
          "name": "",
          "type": "bool"
        }
      ],
      "stateMutability": "nonpayable",
      "type": "function"
    },
    {
      "inputs": [],
      "name": "totalSupply",
      "outputs": [
        {
          "internalType": "uint256",
          "name": "",
          "type": "uint256"
        }
      ],
      "stateMutability": "view",
      "type": "function"
    },
    {
      "inputs": [
        {
          "internalType": "address",
          "name": "to",
          "type": "address"
        },
        {
          "internalType": "uint256",
          "name": "value",
          "type": "uint256"
        }
      ],
      "name": "transfer",
      "outputs": [
        {
          "internalType": "bool",
          "name": "",
          "type": "bool"
        }
      ],
      "stateMutability": "nonpayable",
      "type": "function"
    },
    {
      "inputs": [
        {
          "internalType": "address",
          "name": "from",
          "type": "address"
        },
        {
          "internalType": "address",
          "name": "to",
          "type": "address"
        },
        {
          "internalType": "uint256",
          "name": "value",
          "type": "uint256"
        }
      ],
      "name": "transferFrom",
      "outputs": [
        {
          "internalType": "bool",
          "name": "",
          "type": "bool"
        }
      ],
      "stateMutability": "nonpayable",
      "type": "function"
    }
  ],
  "transactionHash": "0x97f4a5544454dbf09f8de30bb2439cb2221becf6a47d96c4b3a8353e96f2b3c8",
  "args": [
    "0x7A6991050B9578C9aB8C74A0A519DD9efD36643f"
  ],
  "solcInputHash": "313d57b5e0e8cd73a1ed6762c053ae97",
  "bytecode": "0x7f6e71edae12b1b97f4d1f60370fef10105fa2faae0126114a169c64845d6126c9610140526101a0604052600c6101608190526b15539055551213d49256915160a21b610180908152620000579160069190620003b4565b503480156200006557600080fd5b506040516200268938038062002689833981810160405260208110156200008b57600080fd5b5051604080518082018252600b8082526a5374616b65642050414e4160a81b60208381018290528451808601865260018152603160f81b8183015285518087018752938452838201928352855180870190965260058652647350414e4160d81b91860191909152825186958594929390916012916200010e9160039190620003b4565b50815162000124906004906020850190620003b4565b5060f81b7fff00000000000000000000000000000000000000000000000000000000000000166080525050815160208084019190912082519183019190912060e08290526101008190524660c081905291907f8b73c3c69bb8fe3d512ecc4cf759cc79239f7b179b0ffacaa9a75d522b39400f620001a48184846200025e565b60a052610120525050600780546001600160a01b0319166001600160a01b0387169081179091556040519094507f2f658b440c35314f52658ea8a740e05b284cdc84dc9ae01e891f21b8933e7cad9350600092509050a250600880546001600160a01b031916331790556a0422ca8b0a00a42500000060028190556200024190806000190660001903620002a360201b620018c91790919060201c565b600d5550600a805460ff60a01b1916600160a01b17905562000460565b604080516020808201959095528082019390935260608301919091524660808301523060a0808401919091528151808403909101815260c09092019052805191012090565b6000620002ed83836040518060400160405280601a81526020017f536166654d6174683a206469766973696f6e206279207a65726f000000000000815250620002f460201b60201c565b9392505050565b60008183620003845760405162461bcd60e51b81526004018080602001828103825283818151815260200191508051906020019080838360005b83811015620003485781810151838201526020016200032e565b50505050905090810190601f168015620003765780820380516001836020036101000a031916815260200191505b509250505060405180910390fd5b5060008385816200039157fe5b0490508385816200039e57fe5b06818502018514620003ac57fe5b949350505050565b828054600181600116156101000203166002900490600052602060002090601f016020900481019282620003ec576000855562000437565b82601f106200040757805160ff191683800117855562000437565b8280016001018555821562000437579182015b82811115620004375782518255916020019190600101906200041a565b506200044592915062000449565b5090565b5b808211156200044557600081556001016200044a565b60805160f81c60a05160c05160e0516101005161012051610140516121d2620004b76000398061176c525080611c00525080611c42525080611c21525080611bac525080611bd4525080610a8352506121d26000f3fe608060405234801561001057600080fd5b50600436106101e55760003560e01c80637819bf5f1161010f578063a9059cbb116100a2578063c4d66de811610071578063c4d66de8146105b6578063d505accf146105dc578063dd62ed3e1461062d578063ee99205c1461065b576101e5565b8063a9059cbb14610548578063bd30a0d714610574578063bf1ad70f14610591578063bf7e214f146105ae576101e5565b80639358928b116100de5780639358928b146104e657806395d89b41146104ee5780639dd373b9146104f6578063a457c2d71461051c576101e5565b80637819bf5f146104575780637965d56d1461047d5780637a9e5e4b1461049a5780637ecebe00146104c0576101e5565b8063313ce5671161018757806340a5737f1161015657806340a5737f146103b55780634ab798f1146103d457806370a08231146103dc57806373c69eb714610402576101e5565b8063313ce5671461033f5780633644e5151461035d5780633950935114610365578063401e52b914610391576101e5565b806318160ddd116101c357806318160ddd146102dc5780631bd39674146102e457806323b872dd146103015780632986c0e514610337576101e5565b8063058ecdb4146101ea57806306fdde031461021f578063095ea7b31461029c575b600080fd5b61020d6004803603604081101561020057600080fd5b5080359060200135610663565b60408051918252519081900360200190f35b6102276107f7565b6040805160208082528351818301528351919283929083019185019080838360005b83811015610261578181015183820152602001610249565b50505050905090810190601f16801561028e5780820380516001836020036101000a031916815260200191505b509250505060405180910390f35b6102c8600480360360408110156102b257600080fd5b506001600160a01b03813516906020013561088e565b604080519115158252519081900360200190f35b61020d6108a4565b61020d600480360360208110156102fa57600080fd5b50356108aa565b6102c86004803603606081101561031757600080fd5b506001600160a01b038135811691602081013590911690604001356108c1565b61020d610a6f565b610347610a81565b6040805160ff9092168252519081900360200190f35b61020d610aa5565b6102c86004803603604081101561037b57600080fd5b506001600160a01b038135169060200135610aaf565b610399610aea565b604080516001600160a01b039092168252519081900360200190f35b6103d2600480360360208110156103cb57600080fd5b5035610af9565b005b6102c8610ba6565b61020d600480360360208110156103f257600080fd5b50356001600160a01b0316610d4c565b61041f6004803603602081101561041857600080fd5b5035610d74565b604080519788526020880196909652868601949094526060860192909252608085015260a084015260c0830152519081900360e00190f35b6103d26004803603602081101561046d57600080fd5b50356001600160a01b0316610dc6565b61020d6004803603602081101561049357600080fd5b5035610ed4565b6103d2600480360360208110156104b057600080fd5b50356001600160a01b0316610eeb565b61020d600480360360208110156104d657600080fd5b50356001600160a01b0316611021565b61020d611042565b61022761116b565b6103d26004803603602081101561050c57600080fd5b50356001600160a01b03166111cc565b6102c86004803603604081101561053257600080fd5b506001600160a01b03813516906020013561135d565b6102c86004803603604081101561055e57600080fd5b506001600160a01b0381351690602001356113b2565b61020d6004803603602081101561058a57600080fd5b50356114c7565b61020d600480360360208110156105a757600080fd5b5035611545565b610399611591565b6103d2600480360360208110156105cc57600080fd5b50356001600160a01b03166115a0565b6103d2600480360360e08110156105f257600080fd5b506001600160a01b03813581169160208101359091169060408101359060608101359060ff6080820135169060a08101359060c00135611713565b61020d6004803603604081101561064357600080fd5b506001600160a01b038135811691602001351661188f565b6103996118ba565b600a546000906001600160a01b031633146106af5760405162461bcd60e51b815260040180806020018281038252602e815260200180612198602e913960400191505060405180910390fd5b6000806106ba611042565b90508461074957600254604080519182525185917f0417b340e646d4be71f9b2da63b5c3c69bc9cfa069f0e0db4756271886130bf4919081900360200190a2837f6012dbce857565c4a40974aa5de8373a761fc429077ef0c8c8611d1e20d63fb26000610725610a6f565b6040805192835260208301919091528051918290030190a2600254925050506107f1565b80156107755761076e816107686002548861191290919063ffffffff16565b906118c9565b9150610779565b8491505b600254610786908361196b565b60028190556fffffffffffffffffffffffffffffffff10156107b7576fffffffffffffffffffffffffffffffff6002555b6107db6002546a0422ca8b0a00a425000000600019816107d357fe5b0619906118c9565b600d556107e98186866119c5565b600254925050505b92915050565b60038054604080516020601f60026000196101006001881615020190951694909404938401819004810282018101909252828152606093909290918301828280156108835780601f1061085857610100808354040283529160200191610883565b820191906000526020600020905b81548152906001019060200180831161086657829003601f168201915b505050505090505b90565b600061089b338484611b03565b50600192915050565b60025490565b60006107f1600d548361191290919063ffffffff16565b600a54600090600160a01b900460ff1615610923576040805162461bcd60e51b815260206004820152601d60248201527f5472616e736665722066756e6374696f6e2069732064697361626c6564000000604482015290519081900360640190fd5b6001600160a01b0384166000908152600f602090815260408083203384529091529020546109519083611b65565b6001600160a01b0385166000818152600f60209081526040808320338085529083529281902085905580519485525191937f8c5be1e5ebec7d5bd14f71427d1e84f3dd0314c0f7b2291e5b200ac8c7c3b925929081900390910190a360006109b8836108aa565b6001600160a01b0386166000908152600e60205260409020549091506109de9082611b65565b6001600160a01b038087166000908152600e60205260408082209390935590861681522054610a0d908261196b565b6001600160a01b038086166000818152600e602090815260409182902094909455805187815290519193928916927fddf252ad1be2c89b69c2b068fc378daa952ba7f163c4a11628f55a4df523b3ef92918290030190a3506001949350505050565b6000610a7c600954610ed4565b905090565b7f000000000000000000000000000000000000000000000000000000000000000090565b6000610a7c611ba7565b336000818152600f602090815260408083206001600160a01b0387168452909152812054909161089b918590610ae5908661196b565b611b03565b600b546001600160a01b031681565b6008546001600160a01b03163314610b425760405162461bcd60e51b81526004018080602001828103825260278152602001806121716027913960400191505060405180910390fd5b60095415610b97576040805162461bcd60e51b815260206004820152601660248201527f43616e6e6f742073657420494e44455820616761696e00000000000000000000604482015290519081900360640190fd5b610ba0816108aa565b60095550565b6007546040805163030d028960e21b815290516000926001600160a01b031691630c340a24916004808301926020929190829003018186803b158015610beb57600080fd5b505afa158015610bff573d6000803e3d6000fd5b505050506040513d6020811015610c1557600080fd5b50516006906001600160a01b03163314610cc25760405162461bcd60e51b8152602060048201908152825460026000196101006001841615020190911604602483018190529091829160449091019084908015610cb35780601f10610c8857610100808354040283529160200191610cb3565b820191906000526020600020905b815481529060010190602001808311610c9657829003601f168201915b50509250505060405180910390fd5b50600a805460ff600160a01b80830482161581027fffffffffffffffffffffff00ffffffffffffffffffffffffffffffffffffffff90931692909217928390556040805192909304161515815290517fdb85b9df909f2165a01443fed6e9a64af2c398fb1e4444b60d6d597873be98059181900360200190a150600a54600160a01b900460ff1690565b600d546001600160a01b0382166000908152600e602052604081205490916107f191906118c9565b600c8181548110610d8457600080fd5b90600052602060002090600702016000915090508060000154908060010154908060020154908060030154908060040154908060050154908060060154905087565b6008546001600160a01b03163314610e0f5760405162461bcd60e51b81526004018080602001828103825260278152602001806121716027913960400191505060405180910390fd5b600b546001600160a01b031615610e6d576040805162461bcd60e51b815260206004820152601b60248201527f4b41525348413a20204b415253484120616c7265616479207365740000000000604482015290519081900360640190fd5b6001600160a01b038116610eb25760405162461bcd60e51b81526004018080602001828103825260278152602001806121076027913960400191505060405180910390fd5b600b80546001600160a01b0319166001600160a01b0392909216919091179055565b60006107f1600d54836118c990919063ffffffff16565b600760009054906101000a90046001600160a01b03166001600160a01b0316630c340a246040518163ffffffff1660e01b815260040160206040518083038186803b158015610f3957600080fd5b505afa158015610f4d573d6000803e3d6000fd5b505050506040513d6020811015610f6357600080fd5b50516006906001600160a01b03163314610fd65760405162461bcd60e51b8152602060048201908152825460026000196101006001841615020190911604602483018190529091829160449091019084908015610cb35780601f10610c8857610100808354040283529160200191610cb3565b50600780546001600160a01b0319166001600160a01b0383169081179091556040517f2f658b440c35314f52658ea8a740e05b284cdc84dc9ae01e891f21b8933e7cad90600090a250565b6001600160a01b03811660009081526005602052604081206107f190611c6e565b600b54604080516318160ddd60e01b81529051600092610a7c926001600160a01b039091169163a82487689183916318160ddd91600480820192602092909190829003018186803b15801561109657600080fd5b505afa1580156110aa573d6000803e3d6000fd5b505050506040513d60208110156110c057600080fd5b5051604080517fffffffff0000000000000000000000000000000000000000000000000000000060e085901b1681526004810192909252516024808301926020929190829003018186803b15801561111757600080fd5b505afa15801561112b573d6000803e3d6000fd5b505050506040513d602081101561114157600080fd5b5051600a546111659061115c906001600160a01b0316610d4c565b60025490611b65565b9061196b565b60048054604080516020601f60026000196101006001881615020190951694909404938401819004810282018101909252828152606093909290918301828280156108835780601f1061085857610100808354040283529160200191610883565b600760009054906101000a90046001600160a01b03166001600160a01b0316630c340a246040518163ffffffff1660e01b815260040160206040518083038186803b15801561121a57600080fd5b505afa15801561122e573d6000803e3d6000fd5b505050506040513d602081101561124457600080fd5b50516006906001600160a01b031633146112b75760405162461bcd60e51b8152602060048201908152825460026000196101006001841615020190911604602483018190529091829160449091019084908015610cb35780601f10610c8857610100808354040283529160200191610cb3565b506001600160a01b038116611313576040805162461bcd60e51b815260206004820152601d60248201527f5a65726f20616464726573733a205374616b696e67436f6e7472616374000000604482015290519081900360640190fd5b600a80546001600160a01b039081166000908152600e60205260408082205494831680835281832095909555835490921681529081205580546001600160a01b0319169091179055565b336000908152600f602090815260408083206001600160a01b03861684529091528120548083106113995761139433856000611b03565b6113a8565b6113a83385610ae58487611b65565b5060019392505050565b600a54600090600160a01b900460ff1615611414576040805162461bcd60e51b815260206004820152601d60248201527f5472616e736665722066756e6374696f6e2069732064697361626c6564000000604482015290519081900360640190fd5b600061141f836108aa565b336000908152600e602052604090205490915061143c9082611b65565b336000908152600e6020526040808220929092556001600160a01b03861681522054611468908261196b565b6001600160a01b0385166000818152600e60209081526040918290209390935580518681529051919233927fddf252ad1be2c89b69c2b068fc378daa952ba7f163c4a11628f55a4df523b3ef9281900390910190a35060019392505050565b600b54604080516319a948db60e21b81526004810184905290516000926001600160a01b0316916366a5236c916024808301926020929190829003018186803b15801561151357600080fd5b505afa158015611527573d6000803e3d6000fd5b505050506040513d602081101561153d57600080fd5b505192915050565b600b546040805163150490ed60e31b81526004810184905290516000926001600160a01b03169163a8248768916024808301926020929190829003018186803b15801561151357600080fd5b6007546001600160a01b031681565b6008546001600160a01b031633146115e95760405162461bcd60e51b81526004018080602001828103825260278152602001806121716027913960400191505060405180910390fd5b6001600160a01b038116611644576040805162461bcd60e51b815260206004820152600760248201527f5374616b696e6700000000000000000000000000000000000000000000000000604482015290519081900360640190fd5b600a80546001600160a01b0319166001600160a01b038381169190911780835581166000908152600e602090815260408083206a0357636f35a3ab8fffffff19905593546002548551908152945193169391927fddf252ad1be2c89b69c2b068fc378daa952ba7f163c4a11628f55a4df523b3ef9281900390910190a3600a54604080516001600160a01b039092168252517f817c653428858ed536dc085c5d8273734c517b55de44b55f5c5877a75e3373a19181900360200190a150600880546001600160a01b0319169055565b83421115611768576040805162461bcd60e51b815260206004820152601d60248201527f45524332305065726d69743a206578706972656420646561646c696e65000000604482015290519081900360640190fd5b60007f00000000000000000000000000000000000000000000000000000000000000008888886117978c611c72565b8960405160200180878152602001866001600160a01b03168152602001856001600160a01b031681526020018481526020018381526020018281526020019650505050505050604051602081830303815290604052805190602001209050600061180082611ca4565b9050600061181082878787611cb7565b9050896001600160a01b0316816001600160a01b031614611878576040805162461bcd60e51b815260206004820152601e60248201527f45524332305065726d69743a20696e76616c6964207369676e61747572650000604482015290519081900360640190fd5b6118838a8a8a611b03565b50505050505050505050565b6001600160a01b039182166000908152600f6020908152604080832093909416825291909152205490565b600a546001600160a01b031681565b600061190b83836040518060400160405280601a81526020017f536166654d6174683a206469766973696f6e206279207a65726f000000000000815250611cdf565b9392505050565b600082611921575060006107f1565b8282028284828161192e57fe5b041461190b5760405162461bcd60e51b81526004018080602001828103825260218152602001806121506021913960400191505060405180910390fd5b60008282018381101561190b576040805162461bcd60e51b815260206004820152601b60248201527f536166654d6174683a206164646974696f6e206f766572666c6f770000000000604482015290519081900360640190fd5b60006119dd8461076885670de0b6b3a7640000611912565b9050600c6040518060e00160405280848152602001838152602001868152602001611a06611042565b8152602001858152602001611a19610a6f565b81524360209182015282546001818101855560009485529382902083516007909202019081558282015193810193909355604080830151600280860191909155606084015160038601556080840151600486015560a0840151600586015560c09093015160069094019390935590548251908152915184927f0417b340e646d4be71f9b2da63b5c3c69bc9cfa069f0e0db4756271886130bf492908290030190a2817f6012dbce857565c4a40974aa5de8373a761fc429077ef0c8c8611d1e20d63fb282611ae5610a6f565b6040805192835260208301919091528051918290030190a250505050565b6001600160a01b038084166000818152600f6020908152604080832094871680845294825291829020859055815185815291517f8c5be1e5ebec7d5bd14f71427d1e84f3dd0314c0f7b2291e5b200ac8c7c3b9259281900390910190a3505050565b600061190b83836040518060400160405280601e81526020017f536166654d6174683a207375627472616374696f6e206f766572666c6f770000815250611d98565b6000467f0000000000000000000000000000000000000000000000000000000000000000811415611bfb577f000000000000000000000000000000000000000000000000000000000000000091505061088b565b611c667f00000000000000000000000000000000000000000000000000000000000000007f00000000000000000000000000000000000000000000000000000000000000007f0000000000000000000000000000000000000000000000000000000000000000611df2565b91505061088b565b5490565b6001600160a01b0381166000908152600560205260408120611c9381611c6e565b9150611c9e81611e37565b50919050565b60006107f1611cb1611ba7565b83611e40565b6000806000611cc887878787611e7b565b91509150611cd581611f70565b5095945050505050565b60008183611d6b5760405162461bcd60e51b81526004018080602001828103825283818151815260200191508051906020019080838360005b83811015611d30578181015183820152602001611d18565b50505050905090810190601f168015611d5d5780820380516001836020036101000a031916815260200191505b509250505060405180910390fd5b506000838581611d7757fe5b049050838581611d8357fe5b06818502018514611d9057fe5b949350505050565b60008184841115611dea5760405162461bcd60e51b8152602060048201818152835160248401528351909283926044909101919085019080838360008315611d30578181015183820152602001611d18565b505050900390565b604080516020808201959095528082019390935260608301919091524660808301523060a0808401919091528151808403909101815260c09092019052805191012090565b80546001019055565b6040805161190160f01b6020808301919091526022820194909452604280820193909352815180820390930183526062019052805191012090565b6000807f7fffffffffffffffffffffffffffffff5d576e7357a4501ddfe92f46681b20a0831115611eb25750600090506003611f67565b8460ff16601b14158015611eca57508460ff16601c14155b15611edb5750600090506004611f67565b600060018787878760405160008152602001604052604051808581526020018460ff1681526020018381526020018281526020019450505050506020604051602081039080840390855afa158015611f37573d6000803e3d6000fd5b5050604051601f1901519150506001600160a01b038116611f6057600060019250925050611f67565b9150600090505b94509492505050565b6000816004811115611f7e57fe5b1415611f89576120e1565b6001816004811115611f9757fe5b1415611fea576040805162461bcd60e51b815260206004820152601860248201527f45434453413a20696e76616c6964207369676e61747572650000000000000000604482015290519081900360640190fd5b6002816004811115611ff857fe5b141561204b576040805162461bcd60e51b815260206004820152601f60248201527f45434453413a20696e76616c6964207369676e6174757265206c656e67746800604482015290519081900360640190fd5b600381600481111561205957fe5b14156120965760405162461bcd60e51b81526004018080602001828103825260228152602001806120e56022913960400191505060405180910390fd5b60048160048111156120a457fe5b14156120e15760405162461bcd60e51b815260040180806020018281038252602281526020018061212e6022913960400191505060405180910390fd5b5056fe45434453413a20696e76616c6964207369676e6174757265202773272076616c75654b41525348413a20204b4152534841206973206e6f7420612076616c696420636f6e747261637445434453413a20696e76616c6964207369676e6174757265202776272076616c7565536166654d6174683a206d756c7469706c69636174696f6e206f766572666c6f77496e697469616c697a65723a202063616c6c6572206973206e6f7420696e697469616c697a65725374616b696e67436f6e74726163743a202063616c6c206973206e6f74207374616b696e6720636f6e7472616374a164736f6c6343000705000a",
  "devdoc": {
    "kind": "dev",
    "methods": {
      "DOMAIN_SEPARATOR()": {
        "details": "See {IERC20Permit-DOMAIN_SEPARATOR}."
      },
      "nonces(address)": {
        "details": "See {IERC20Permit-nonces}."
      },
      "permit(address,address,uint256,uint256,uint8,bytes32,bytes32)": {
        "details": "See {IERC20Permit-permit}."
      },
      "rebase(uint256,uint256)": {
        "params": {
          "profit_": "uint256"
        },
        "returns": {
          "_0": "uint256"
        }
      },
      "totalSupply()": {
        "details": "Returns the amount of tokens in existence."
      }
    },
    "version": 1
  },
  "userdoc": {
    "kind": "user",
    "methods": {
      "rebase(uint256,uint256)": {
        "notice": "increases rPANA supply to increase staking balances relative to profit_"
      }
    },
    "version": 1
  },
  "storageLayout": {
    "storage": [
      {
        "astId": 9849,
        "contract": "contracts/tokens/regular/sPanaERC20.sol:sPana",
        "label": "_balances",
        "offset": 0,
        "slot": "0",
        "type": "t_mapping(t_address,t_uint256)"
      },
      {
        "astId": 9855,
        "contract": "contracts/tokens/regular/sPanaERC20.sol:sPana",
        "label": "_allowances",
        "offset": 0,
        "slot": "1",
        "type": "t_mapping(t_address,t_mapping(t_address,t_uint256))"
      },
      {
        "astId": 9857,
        "contract": "contracts/tokens/regular/sPanaERC20.sol:sPana",
        "label": "_totalSupply",
        "offset": 0,
        "slot": "2",
        "type": "t_uint256"
      },
      {
        "astId": 9859,
        "contract": "contracts/tokens/regular/sPanaERC20.sol:sPana",
        "label": "_name",
        "offset": 0,
        "slot": "3",
        "type": "t_string_storage"
      },
      {
        "astId": 9861,
        "contract": "contracts/tokens/regular/sPanaERC20.sol:sPana",
        "label": "_symbol",
        "offset": 0,
        "slot": "4",
        "type": "t_string_storage"
      },
      {
        "astId": 10330,
        "contract": "contracts/tokens/regular/sPanaERC20.sol:sPana",
        "label": "_nonces",
        "offset": 0,
        "slot": "5",
        "type": "t_mapping(t_address,t_struct(Counter)3601_storage)"
      },
      {
        "astId": 314,
        "contract": "contracts/tokens/regular/sPanaERC20.sol:sPana",
        "label": "UNAUTHORIZED",
        "offset": 0,
        "slot": "6",
        "type": "t_string_storage"
      },
      {
        "astId": 316,
        "contract": "contracts/tokens/regular/sPanaERC20.sol:sPana",
        "label": "authority",
        "offset": 0,
        "slot": "7",
        "type": "t_contract(IPanaAuthority)2684"
      },
      {
        "astId": 7863,
        "contract": "contracts/tokens/regular/sPanaERC20.sol:sPana",
        "label": "initializer",
        "offset": 0,
        "slot": "8",
        "type": "t_address"
      },
      {
        "astId": 7865,
        "contract": "contracts/tokens/regular/sPanaERC20.sol:sPana",
        "label": "INDEX",
        "offset": 0,
        "slot": "9",
        "type": "t_uint256"
      },
      {
        "astId": 7867,
        "contract": "contracts/tokens/regular/sPanaERC20.sol:sPana",
        "label": "stakingContract",
        "offset": 0,
        "slot": "10",
        "type": "t_address"
      },
      {
        "astId": 7869,
        "contract": "contracts/tokens/regular/sPanaERC20.sol:sPana",
        "label": "disableTransfer",
        "offset": 20,
        "slot": "10",
        "type": "t_bool"
      },
      {
        "astId": 7871,
        "contract": "contracts/tokens/regular/sPanaERC20.sol:sPana",
        "label": "KARSHA",
        "offset": 0,
        "slot": "11",
        "type": "t_contract(IKarsha)2557"
      },
      {
        "astId": 7874,
        "contract": "contracts/tokens/regular/sPanaERC20.sol:sPana",
        "label": "rebases",
        "offset": 0,
        "slot": "12",
        "type": "t_array(t_struct(Rebase)7861_storage)dyn_storage"
      },
      {
        "astId": 7905,
        "contract": "contracts/tokens/regular/sPanaERC20.sol:sPana",
        "label": "_gonsPerFragment",
        "offset": 0,
        "slot": "13",
        "type": "t_uint256"
      },
      {
        "astId": 7909,
        "contract": "contracts/tokens/regular/sPanaERC20.sol:sPana",
        "label": "_gonBalances",
        "offset": 0,
        "slot": "14",
        "type": "t_mapping(t_address,t_uint256)"
      },
      {
        "astId": 7915,
        "contract": "contracts/tokens/regular/sPanaERC20.sol:sPana",
        "label": "_allowedValue",
        "offset": 0,
        "slot": "15",
        "type": "t_mapping(t_address,t_mapping(t_address,t_uint256))"
      }
    ],
    "types": {
      "t_address": {
        "encoding": "inplace",
        "label": "address",
        "numberOfBytes": "20"
      },
      "t_array(t_struct(Rebase)7861_storage)dyn_storage": {
        "base": "t_struct(Rebase)7861_storage",
        "encoding": "dynamic_array",
        "label": "struct sPana.Rebase[]",
        "numberOfBytes": "32"
      },
      "t_bool": {
        "encoding": "inplace",
        "label": "bool",
        "numberOfBytes": "1"
      },
      "t_contract(IKarsha)2557": {
        "encoding": "inplace",
        "label": "contract IKarsha",
        "numberOfBytes": "20"
      },
      "t_contract(IPanaAuthority)2684": {
        "encoding": "inplace",
        "label": "contract IPanaAuthority",
        "numberOfBytes": "20"
      },
      "t_mapping(t_address,t_mapping(t_address,t_uint256))": {
        "encoding": "mapping",
        "key": "t_address",
        "label": "mapping(address => mapping(address => uint256))",
        "numberOfBytes": "32",
        "value": "t_mapping(t_address,t_uint256)"
      },
      "t_mapping(t_address,t_struct(Counter)3601_storage)": {
        "encoding": "mapping",
        "key": "t_address",
        "label": "mapping(address => struct Counters.Counter)",
        "numberOfBytes": "32",
        "value": "t_struct(Counter)3601_storage"
      },
      "t_mapping(t_address,t_uint256)": {
        "encoding": "mapping",
        "key": "t_address",
        "label": "mapping(address => uint256)",
        "numberOfBytes": "32",
        "value": "t_uint256"
      },
      "t_string_storage": {
        "encoding": "bytes",
        "label": "string",
        "numberOfBytes": "32"
      },
      "t_struct(Counter)3601_storage": {
        "encoding": "inplace",
        "label": "struct Counters.Counter",
        "members": [
          {
            "astId": 3600,
            "contract": "contracts/tokens/regular/sPanaERC20.sol:sPana",
            "label": "_value",
            "offset": 0,
            "slot": "0",
            "type": "t_uint256"
          }
        ],
        "numberOfBytes": "32"
      },
      "t_struct(Rebase)7861_storage": {
        "encoding": "inplace",
        "label": "struct sPana.Rebase",
        "members": [
          {
            "astId": 7848,
            "contract": "contracts/tokens/regular/sPanaERC20.sol:sPana",
            "label": "epoch",
            "offset": 0,
            "slot": "0",
            "type": "t_uint256"
          },
          {
            "astId": 7850,
            "contract": "contracts/tokens/regular/sPanaERC20.sol:sPana",
            "label": "rebase",
            "offset": 0,
            "slot": "1",
            "type": "t_uint256"
          },
          {
            "astId": 7852,
            "contract": "contracts/tokens/regular/sPanaERC20.sol:sPana",
            "label": "totalStakedBefore",
            "offset": 0,
            "slot": "2",
            "type": "t_uint256"
          },
          {
            "astId": 7854,
            "contract": "contracts/tokens/regular/sPanaERC20.sol:sPana",
            "label": "totalStakedAfter",
            "offset": 0,
            "slot": "3",
            "type": "t_uint256"
          },
          {
            "astId": 7856,
            "contract": "contracts/tokens/regular/sPanaERC20.sol:sPana",
            "label": "amountRebased",
            "offset": 0,
            "slot": "4",
            "type": "t_uint256"
          },
          {
            "astId": 7858,
            "contract": "contracts/tokens/regular/sPanaERC20.sol:sPana",
            "label": "index",
            "offset": 0,
            "slot": "5",
            "type": "t_uint256"
          },
          {
            "astId": 7860,
            "contract": "contracts/tokens/regular/sPanaERC20.sol:sPana",
            "label": "blockNumberOccured",
            "offset": 0,
            "slot": "6",
            "type": "t_uint256"
          }
        ],
        "numberOfBytes": "224"
      },
      "t_uint256": {
        "encoding": "inplace",
        "label": "uint256",
        "numberOfBytes": "32"
      }
    }
  }
}