{
  "address": "0xe75c7C6C1491B91887FB4b72C4F42b0cD6B6eeBC",
  "abi": [
    {
      "inputs": [],
      "stateMutability": "nonpayable",
      "type": "constructor"
    },
    {
      "anonymous": false,
      "inputs": [
        {
          "indexed": true,
          "internalType": "address",
          "name": "owner",
          "type": "address"
        },
        {
          "indexed": true,
          "internalType": "address",
          "name": "spender",
          "type": "address"
        },
        {
          "indexed": false,
          "internalType": "uint256",
          "name": "value",
          "type": "uint256"
        }
      ],
      "name": "Approval",
      "type": "event"
    },
    {
      "anonymous": false,
      "inputs": [
        {
          "indexed": true,
          "internalType": "uint256",
          "name": "epoch",
          "type": "uint256"
        },
        {
          "indexed": false,
          "internalType": "uint256",
          "name": "rebase",
          "type": "uint256"
        },
        {
          "indexed": false,
          "internalType": "uint256",
          "name": "index",
          "type": "uint256"
        }
      ],
      "name": "LogRebase",
      "type": "event"
    },
    {
      "anonymous": false,
      "inputs": [
        {
          "indexed": false,
          "internalType": "address",
          "name": "stakingContract",
          "type": "address"
        }
      ],
      "name": "LogStakingContractUpdated",
      "type": "event"
    },
    {
      "anonymous": false,
      "inputs": [
        {
          "indexed": true,
          "internalType": "uint256",
          "name": "epoch",
          "type": "uint256"
        },
        {
          "indexed": false,
          "internalType": "uint256",
          "name": "totalSupply",
          "type": "uint256"
        }
      ],
      "name": "LogSupply",
      "type": "event"
    },
    {
      "anonymous": false,
      "inputs": [
        {
          "indexed": false,
          "internalType": "bool",
          "name": "disableTransfer",
          "type": "bool"
        }
      ],
      "name": "ToggleTransfer",
      "type": "event"
    },
    {
      "anonymous": false,
      "inputs": [
        {
          "indexed": true,
          "internalType": "address",
          "name": "from",
          "type": "address"
        },
        {
          "indexed": true,
          "internalType": "address",
          "name": "to",
          "type": "address"
        },
        {
          "indexed": false,
          "internalType": "uint256",
          "name": "value",
          "type": "uint256"
        }
      ],
      "name": "Transfer",
      "type": "event"
    },
    {
      "inputs": [],
      "name": "DOMAIN_SEPARATOR",
      "outputs": [
        {
          "internalType": "bytes32",
          "name": "",
          "type": "bytes32"
        }
      ],
      "stateMutability": "view",
      "type": "function"
    },
    {
      "inputs": [],
      "name": "KARSHA",
      "outputs": [
        {
          "internalType": "contract IKarsha",
          "name": "",
          "type": "address"
        }
      ],
      "stateMutability": "view",
      "type": "function"
    },
    {
      "inputs": [
        {
          "internalType": "address",
          "name": "owner_",
          "type": "address"
        },
        {
          "internalType": "address",
          "name": "spender",
          "type": "address"
        }
      ],
      "name": "allowance",
      "outputs": [
        {
          "internalType": "uint256",
          "name": "",
          "type": "uint256"
        }
      ],
      "stateMutability": "view",
      "type": "function"
    },
    {
      "inputs": [
        {
          "internalType": "address",
          "name": "spender",
          "type": "address"
        },
        {
          "internalType": "uint256",
          "name": "value",
          "type": "uint256"
        }
      ],
      "name": "approve",
      "outputs": [
        {
          "internalType": "bool",
          "name": "",
          "type": "bool"
        }
      ],
      "stateMutability": "nonpayable",
      "type": "function"
    },
    {
      "inputs": [
        {
          "internalType": "uint256",
          "name": "gons",
          "type": "uint256"
        }
      ],
      "name": "balanceForGons",
      "outputs": [
        {
          "internalType": "uint256",
          "name": "",
          "type": "uint256"
        }
      ],
      "stateMutability": "view",
      "type": "function"
    },
    {
      "inputs": [
        {
          "internalType": "address",
          "name": "who",
          "type": "address"
        }
      ],
      "name": "balanceOf",
      "outputs": [
        {
          "internalType": "uint256",
          "name": "",
          "type": "uint256"
        }
      ],
      "stateMutability": "view",
      "type": "function"
    },
    {
      "inputs": [
        {
          "internalType": "uint256",
          "name": "amount",
          "type": "uint256"
        },
        {
          "internalType": "address",
          "name": "debtor",
          "type": "address"
        },
        {
          "internalType": "bool",
          "name": "add",
          "type": "bool"
        }
      ],
      "name": "changeDebt",
      "outputs": [],
      "stateMutability": "nonpayable",
      "type": "function"
    },
    {
      "inputs": [],
      "name": "circulatingSupply",
      "outputs": [
        {
          "internalType": "uint256",
          "name": "",
          "type": "uint256"
        }
      ],
      "stateMutability": "view",
      "type": "function"
    },
    {
      "inputs": [
        {
          "internalType": "address",
          "name": "",
          "type": "address"
        }
      ],
      "name": "debtBalances",
      "outputs": [
        {
          "internalType": "uint256",
          "name": "",
          "type": "uint256"
        }
      ],
      "stateMutability": "view",
      "type": "function"
    },
    {
      "inputs": [],
      "name": "decimals",
      "outputs": [
        {
          "internalType": "uint8",
          "name": "",
          "type": "uint8"
        }
      ],
      "stateMutability": "view",
      "type": "function"
    },
    {
      "inputs": [
        {
          "internalType": "address",
          "name": "spender",
          "type": "address"
        },
        {
          "internalType": "uint256",
          "name": "subtractedValue",
          "type": "uint256"
        }
      ],
      "name": "decreaseAllowance",
      "outputs": [
        {
          "internalType": "bool",
          "name": "",
          "type": "bool"
        }
      ],
      "stateMutability": "nonpayable",
      "type": "function"
    },
    {
      "inputs": [
        {
          "internalType": "uint256",
          "name": "amount",
          "type": "uint256"
        }
      ],
      "name": "fromKARSHA",
      "outputs": [
        {
          "internalType": "uint256",
          "name": "",
          "type": "uint256"
        }
      ],
      "stateMutability": "view",
      "type": "function"
    },
    {
      "inputs": [
        {
          "internalType": "uint256",
          "name": "amount",
          "type": "uint256"
        }
      ],
      "name": "gonsForBalance",
      "outputs": [
        {
          "internalType": "uint256",
          "name": "",
          "type": "uint256"
        }
      ],
      "stateMutability": "view",
      "type": "function"
    },
    {
      "inputs": [
        {
          "internalType": "address",
          "name": "spender",
          "type": "address"
        },
        {
          "internalType": "uint256",
          "name": "addedValue",
          "type": "uint256"
        }
      ],
      "name": "increaseAllowance",
      "outputs": [
        {
          "internalType": "bool",
          "name": "",
          "type": "bool"
        }
      ],
      "stateMutability": "nonpayable",
      "type": "function"
    },
    {
      "inputs": [],
      "name": "index",
      "outputs": [
        {
          "internalType": "uint256",
          "name": "",
          "type": "uint256"
        }
      ],
      "stateMutability": "view",
      "type": "function"
    },
    {
      "inputs": [
        {
          "internalType": "address",
          "name": "_stakingContract",
          "type": "address"
        },
        {
          "internalType": "address",
          "name": "_treasury",
          "type": "address"
        },
        {
          "internalType": "address",
          "name": "_governor",
          "type": "address"
        }
      ],
      "name": "initialize",
      "outputs": [],
      "stateMutability": "nonpayable",
      "type": "function"
    },
    {
      "inputs": [],
      "name": "name",
      "outputs": [
        {
          "internalType": "string",
          "name": "",
          "type": "string"
        }
      ],
      "stateMutability": "view",
      "type": "function"
    },
    {
      "inputs": [
        {
          "internalType": "address",
          "name": "owner",
          "type": "address"
        }
      ],
      "name": "nonces",
      "outputs": [
        {
          "internalType": "uint256",
          "name": "",
          "type": "uint256"
        }
      ],
      "stateMutability": "view",
      "type": "function"
    },
    {
      "inputs": [
        {
          "internalType": "address",
          "name": "owner",
          "type": "address"
        },
        {
          "internalType": "address",
          "name": "spender",
          "type": "address"
        },
        {
          "internalType": "uint256",
          "name": "value",
          "type": "uint256"
        },
        {
          "internalType": "uint256",
          "name": "deadline",
          "type": "uint256"
        },
        {
          "internalType": "uint8",
          "name": "v",
          "type": "uint8"
        },
        {
          "internalType": "bytes32",
          "name": "r",
          "type": "bytes32"
        },
        {
          "internalType": "bytes32",
          "name": "s",
          "type": "bytes32"
        }
      ],
      "name": "permit",
      "outputs": [],
      "stateMutability": "nonpayable",
      "type": "function"
    },
    {
      "inputs": [
        {
          "internalType": "uint256",
          "name": "profit_",
          "type": "uint256"
        },
        {
          "internalType": "uint256",
          "name": "epoch_",
          "type": "uint256"
        }
      ],
      "name": "rebase",
      "outputs": [
        {
          "internalType": "uint256",
          "name": "",
          "type": "uint256"
        }
      ],
      "stateMutability": "nonpayable",
      "type": "function"
    },
    {
      "inputs": [
        {
          "internalType": "uint256",
          "name": "",
          "type": "uint256"
        }
      ],
      "name": "rebases",
      "outputs": [
        {
          "internalType": "uint256",
          "name": "epoch",
          "type": "uint256"
        },
        {
          "internalType": "uint256",
          "name": "rebase",
          "type": "uint256"
        },
        {
          "internalType": "uint256",
          "name": "totalStakedBefore",
          "type": "uint256"
        },
        {
          "internalType": "uint256",
          "name": "totalStakedAfter",
          "type": "uint256"
        },
        {
          "internalType": "uint256",
          "name": "amountRebased",
          "type": "uint256"
        },
        {
          "internalType": "uint256",
          "name": "index",
          "type": "uint256"
        },
        {
          "internalType": "uint256",
          "name": "blockNumberOccured",
          "type": "uint256"
        }
      ],
      "stateMutability": "view",
      "type": "function"
    },
    {
      "inputs": [
        {
          "internalType": "uint256",
          "name": "_index",
          "type": "uint256"
        }
      ],
      "name": "setIndex",
      "outputs": [],
      "stateMutability": "nonpayable",
      "type": "function"
    },
    {
      "inputs": [
        {
          "internalType": "address",
          "name": "_karsha",
          "type": "address"
        }
      ],
      "name": "setKarsha",
      "outputs": [],
      "stateMutability": "nonpayable",
      "type": "function"
    },
    {
      "inputs": [],
      "name": "stakingContract",
      "outputs": [
        {
          "internalType": "address",
          "name": "",
          "type": "address"
        }
      ],
      "stateMutability": "view",
      "type": "function"
    },
    {
      "inputs": [],
      "name": "symbol",
      "outputs": [
        {
          "internalType": "string",
          "name": "",
          "type": "string"
        }
      ],
      "stateMutability": "view",
      "type": "function"
    },
    {
      "inputs": [
        {
          "internalType": "uint256",
          "name": "amount",
          "type": "uint256"
        }
      ],
      "name": "toKARSHA",
      "outputs": [
        {
          "internalType": "uint256",
          "name": "",
          "type": "uint256"
        }
      ],
      "stateMutability": "view",
      "type": "function"
    },
    {
      "inputs": [],
      "name": "toggleTransfer",
      "outputs": [
        {
          "internalType": "bool",
          "name": "",
          "type": "bool"
        }
      ],
      "stateMutability": "nonpayable",
      "type": "function"
    },
    {
      "inputs": [],
      "name": "totalSupply",
      "outputs": [
        {
          "internalType": "uint256",
          "name": "",
          "type": "uint256"
        }
      ],
      "stateMutability": "view",
      "type": "function"
    },
    {
      "inputs": [
        {
          "internalType": "address",
          "name": "to",
          "type": "address"
        },
        {
          "internalType": "uint256",
          "name": "value",
          "type": "uint256"
        }
      ],
      "name": "transfer",
      "outputs": [
        {
          "internalType": "bool",
          "name": "",
          "type": "bool"
        }
      ],
      "stateMutability": "nonpayable",
      "type": "function"
    },
    {
      "inputs": [
        {
          "internalType": "address",
          "name": "from",
          "type": "address"
        },
        {
          "internalType": "address",
          "name": "to",
          "type": "address"
        },
        {
          "internalType": "uint256",
          "name": "value",
          "type": "uint256"
        }
      ],
      "name": "transferFrom",
      "outputs": [
        {
          "internalType": "bool",
          "name": "",
          "type": "bool"
        }
      ],
      "stateMutability": "nonpayable",
      "type": "function"
    },
    {
      "inputs": [],
      "name": "treasury",
      "outputs": [
        {
          "internalType": "address",
          "name": "",
          "type": "address"
        }
      ],
      "stateMutability": "view",
      "type": "function"
    }
  ],
  "transactionHash": "0xa7752fb8efa7729ea4df7f91a128efa850984e14cad480e53641af33b036e3af",
  "args": [],
  "solcInputHash": "e0cf5b0272a43d8bcfbeb7c6531464a4",
  "bytecode": "0x6101606040527f6e71edae12b1b97f4d1f60370fef10105fa2faae0126114a169c64845d6126c9610140523480156200003757600080fd5b506040518060400160405280600b81526020016a5374616b65642050414e4160a81b81525080604051806040016040528060018152602001603160f81b8152506040518060400160405280600b81526020016a5374616b65642050414e4160a81b815250604051806040016040528060058152602001647350414e4160d81b81525060128260039080519060200190620000d39291906200032e565b508151620000e99060049060208501906200032e565b5060f81b7fff00000000000000000000000000000000000000000000000000000000000000166080525050815160208084019190912082519183019190912060e08290526101008190524660c081905291907f8b73c3c69bb8fe3d512ecc4cf759cc79239f7b179b0ffacaa9a75d522b39400f62000169818484620001d8565b60a052610120525050600680546001600160a01b0319163317905550506a0422ca8b0a00a4250000006002819055620001bc925090508060001906600019036200021d60201b620019231790919060201c565b600c556009805460ff60a01b1916600160a01b179055620003da565b604080516020808201959095528082019390935260608301919091524660808301523060a0808401919091528151808403909101815260c09092019052805191012090565b60006200026783836040518060400160405280601a81526020017f536166654d6174683a206469766973696f6e206279207a65726f0000000000008152506200026e60201b60201c565b9392505050565b60008183620002fe5760405162461bcd60e51b81526004018080602001828103825283818151815260200191508051906020019080838360005b83811015620002c2578181015183820152602001620002a8565b50505050905090810190601f168015620002f05780820380516001836020036101000a031916815260200191505b509250505060405180910390fd5b5060008385816200030b57fe5b0490508385816200031857fe5b068185020185146200032657fe5b949350505050565b828054600181600116156101000203166002900490600052602060002090601f016020900481019282620003665760008555620003b1565b82601f106200038157805160ff1916838001178555620003b1565b82800160010185558215620003b1579182015b82811115620003b157825182559160200191906001019062000394565b50620003bf929150620003c3565b5090565b5b80821115620003bf5760008155600101620003c4565b60805160f81c60a05160c05160e05161010051610120516101405161222c62000431600039806117c6525080611c5a525080611c9c525080611c7b525080611c06525080611c2e525080610b1f525061222c6000f3fe608060405234801561001057600080fd5b50600436106101e55760003560e01c806373c69eb71161010f578063ae5c6cd3116100a2578063c4ef1c4c11610071578063c4ef1c4c146105d6578063d505accf146105fc578063dd62ed3e1461064d578063ee99205c1461067b576101e5565b8063ae5c6cd314610530578063bd30a0d714610564578063bf1ad70f14610581578063c0c53b8b1461059e576101e5565b80639358928b116100de5780639358928b146104c857806395d89b41146104d0578063a457c2d7146104d8578063a9059cbb14610504576101e5565b806373c69eb71461040a5780637819bf5f1461045f5780637965d56d146104855780637ecebe00146104a2576101e5565b8063313ce5671161018757806340a5737f1161015657806340a5737f146103b55780634ab798f1146103d457806361d027b3146103dc57806370a08231146103e4576101e5565b8063313ce5671461033f5780633644e5151461035d5780633950935114610365578063401e52b914610391576101e5565b806318160ddd116101c357806318160ddd146102dc5780631bd39674146102e457806323b872dd146103015780632986c0e514610337576101e5565b8063058ecdb4146101ea57806306fdde031461021f578063095ea7b31461029c575b600080fd5b61020d6004803603604081101561020057600080fd5b5080359060200135610683565b60408051918252519081900360200190f35b610227610817565b6040805160208082528351818301528351919283929083019185019080838360005b83811015610261578181015183820152602001610249565b50505050905090810190601f16801561028e5780820380516001836020036101000a031916815260200191505b509250505060405180910390f35b6102c8600480360360408110156102b257600080fd5b506001600160a01b0381351690602001356108ae565b604080519115158252519081900360200190f35b61020d6108c4565b61020d600480360360208110156102fa57600080fd5b50356108ca565b6102c86004803603606081101561031757600080fd5b506001600160a01b038135811691602081013590911690604001356108e1565b61020d610b0b565b610347610b1d565b6040805160ff9092168252519081900360200190f35b61020d610b41565b6102c86004803603604081101561037b57600080fd5b506001600160a01b038135169060200135610b4b565b610399610b86565b604080516001600160a01b039092168252519081900360200190f35b6103d2600480360360208110156103cb57600080fd5b5035610b95565b005b6102c8610c42565b610399610d2d565b61020d600480360360208110156103fa57600080fd5b50356001600160a01b0316610d3c565b6104276004803603602081101561042057600080fd5b5035610d64565b604080519788526020880196909652868601949094526060860192909252608085015260a084015260c0830152519081900360e00190f35b6103d26004803603602081101561047557600080fd5b50356001600160a01b0316610db6565b61020d6004803603602081101561049b57600080fd5b5035610ec4565b61020d600480360360208110156104b857600080fd5b50356001600160a01b0316610edb565b61020d610efc565b610227611025565b6102c8600480360360408110156104ee57600080fd5b506001600160a01b038135169060200135611086565b6102c86004803603604081101561051a57600080fd5b506001600160a01b0381351690602001356110db565b6103d26004803603606081101561054657600080fd5b508035906001600160a01b0360208201351690604001351515611264565b61020d6004803603602081101561057a57600080fd5b5035611431565b61020d6004803603602081101561059757600080fd5b50356114af565b6103d2600480360360608110156105b457600080fd5b506001600160a01b0381358116916020810135821691604090910135166114fb565b61020d600480360360208110156105ec57600080fd5b50356001600160a01b031661175b565b6103d2600480360360e081101561061257600080fd5b506001600160a01b03813581169160208101359091169060408101359060608101359060ff6080820135169060a08101359060c0013561176d565b61020d6004803603604081101561066357600080fd5b506001600160a01b03813581169160200135166118e9565b610399611914565b6008546000906001600160a01b031633146106cf5760405162461bcd60e51b815260040180806020018281038252602e8152602001806121f2602e913960400191505060405180910390fd5b6000806106da610efc565b90508461076957600254604080519182525185917f0417b340e646d4be71f9b2da63b5c3c69bc9cfa069f0e0db4756271886130bf4919081900360200190a2837f6012dbce857565c4a40974aa5de8373a761fc429077ef0c8c8611d1e20d63fb26000610745610b0b565b6040805192835260208301919091528051918290030190a260025492505050610811565b80156107955761078e816107886002548861196c90919063ffffffff16565b90611923565b9150610799565b8491505b6002546107a690836119c5565b60028190556fffffffffffffffffffffffffffffffff10156107d7576fffffffffffffffffffffffffffffffff6002555b6107fb6002546a0422ca8b0a00a425000000600019816107f357fe5b061990611923565b600c55610809818686611a1f565b600254925050505b92915050565b60038054604080516020601f60026000196101006001881615020190951694909404938401819004810282018101909252828152606093909290918301828280156108a35780601f10610878576101008083540402835291602001916108a3565b820191906000526020600020905b81548152906001019060200180831161088657829003601f168201915b505050505090505b90565b60006108bb338484611b5d565b50600192915050565b60025490565b6000610811600c548361196c90919063ffffffff16565b600954600090600160a01b900460ff1615610943576040805162461bcd60e51b815260206004820152601d60248201527f5472616e736665722066756e6374696f6e2069732064697361626c6564000000604482015290519081900360640190fd5b6001600160a01b0384166000908152600e602090815260408083203384529091529020546109719083611bbf565b6001600160a01b0385166000818152600e60209081526040808320338085529083529281902085905580519485525191937f8c5be1e5ebec7d5bd14f71427d1e84f3dd0314c0f7b2291e5b200ac8c7c3b925929081900390910190a360006109d8836108ca565b6001600160a01b0386166000908152600d60205260409020549091506109fe9082611bbf565b6001600160a01b038087166000908152600d60205260408082209390935590861681522054610a2d90826119c5565b6001600160a01b038086166000908152600d6020908152604080832094909455918816815260109091522054610a6286610d3c565b1015610ab5576040805162461bcd60e51b815260206004820152601c60248201527f446562743a2063616e6e6f74207472616e7366657220616d6f756e7400000000604482015290519081900360640190fd5b836001600160a01b0316856001600160a01b03167fddf252ad1be2c89b69c2b068fc378daa952ba7f163c4a11628f55a4df523b3ef856040518082815260200191505060405180910390a3506001949350505050565b6000610b18600754610ec4565b905090565b7f000000000000000000000000000000000000000000000000000000000000000090565b6000610b18611c01565b336000818152600e602090815260408083206001600160a01b038716845290915281205490916108bb918590610b8190866119c5565b611b5d565b600a546001600160a01b031681565b6006546001600160a01b03163314610bde5760405162461bcd60e51b81526004018080602001828103825260278152602001806121cb6027913960400191505060405180910390fd5b60075415610c33576040805162461bcd60e51b815260206004820152601660248201527f43616e6e6f742073657420494e44455820616761696e00000000000000000000604482015290519081900360640190fd5b610c3c816108ca565b60075550565b6009546000906001600160a01b03163314610ca4576040805162461bcd60e51b815260206004820152601160248201527f554e415554484f52495a45442055736572000000000000000000000000000000604482015290519081900360640190fd5b6009805460ff600160a01b80830482161581027fffffffffffffffffffffff00ffffffffffffffffffffffffffffffffffffffff90931692909217928390556040805192909304161515815290517fdb85b9df909f2165a01443fed6e9a64af2c398fb1e4444b60d6d597873be98059181900360200190a150600954600160a01b900460ff1690565b600f546001600160a01b031681565b600c546001600160a01b0382166000908152600d602052604081205490916108119190611923565b600b8181548110610d7457600080fd5b90600052602060002090600702016000915090508060000154908060010154908060020154908060030154908060040154908060050154908060060154905087565b6006546001600160a01b03163314610dff5760405162461bcd60e51b81526004018080602001828103825260278152602001806121cb6027913960400191505060405180910390fd5b600a546001600160a01b031615610e5d576040805162461bcd60e51b815260206004820152601b60248201527f4b41525348413a20204b415253484120616c7265616479207365740000000000604482015290519081900360640190fd5b6001600160a01b038116610ea25760405162461bcd60e51b81526004018080602001828103825260278152602001806121616027913960400191505060405180910390fd5b600a80546001600160a01b0319166001600160a01b0392909216919091179055565b6000610811600c548361192390919063ffffffff16565b6001600160a01b038116600090815260056020526040812061081190611cc8565b600a54604080516318160ddd60e01b81529051600092610b18926001600160a01b039091169163a82487689183916318160ddd91600480820192602092909190829003018186803b158015610f5057600080fd5b505afa158015610f64573d6000803e3d6000fd5b505050506040513d6020811015610f7a57600080fd5b5051604080517fffffffff0000000000000000000000000000000000000000000000000000000060e085901b1681526004810192909252516024808301926020929190829003018186803b158015610fd157600080fd5b505afa158015610fe5573d6000803e3d6000fd5b505050506040513d6020811015610ffb57600080fd5b505160085461101f90611016906001600160a01b0316610d3c565b60025490611bbf565b906119c5565b60048054604080516020601f60026000196101006001881615020190951694909404938401819004810282018101909252828152606093909290918301828280156108a35780601f10610878576101008083540402835291602001916108a3565b336000908152600e602090815260408083206001600160a01b03861684529091528120548083106110c2576110bd33856000611b5d565b6110d1565b6110d13385610b818487611bbf565b5060019392505050565b600954600090600160a01b900460ff161561113d576040805162461bcd60e51b815260206004820152601d60248201527f5472616e736665722066756e6374696f6e2069732064697361626c6564000000604482015290519081900360640190fd5b6000611148836108ca565b336000908152600d60205260409020549091506111659082611bbf565b336000908152600d6020526040808220929092556001600160a01b0386168152205461119190826119c5565b6001600160a01b0385166000908152600d602090815260408083209390935533808352601090915291902054906111c790610d3c565b101561121a576040805162461bcd60e51b815260206004820152601c60248201527f446562743a2063616e6e6f74207472616e7366657220616d6f756e7400000000604482015290519081900360640190fd5b6040805184815290516001600160a01b0386169133917fddf252ad1be2c89b69c2b068fc378daa952ba7f163c4a11628f55a4df523b3ef9181900360200190a35060019392505050565b600f546001600160a01b031633146112c3576040805162461bcd60e51b815260206004820152600d60248201527f4f6e6c7920747265617375727900000000000000000000000000000000000000604482015290519081900360640190fd5b801561130a576001600160a01b0382166000908152601060205260409020546112ec90846119c5565b6001600160a01b038316600090815260106020526040902055611347565b6001600160a01b03821660009081526010602052604090205461132d9084611bbf565b6001600160a01b0383166000908152601060205260409020555b600a54604080516307d468c160e51b81526001600160a01b0385811660048301529151919092169163fa8d1820916024808301926020929190829003018186803b15801561139457600080fd5b505afa1580156113a8573d6000803e3d6000fd5b505050506040513d60208110156113be57600080fd5b50516001600160a01b038316600090815260106020526040902054111561142c576040805162461bcd60e51b815260206004820152601c60248201527f4b41525348413a20696e73756666696369656e742062616c616e636500000000604482015290519081900360640190fd5b505050565b600a54604080516319a948db60e21b81526004810184905290516000926001600160a01b0316916366a5236c916024808301926020929190829003018186803b15801561147d57600080fd5b505afa158015611491573d6000803e3d6000fd5b505050506040513d60208110156114a757600080fd5b505192915050565b600a546040805163150490ed60e31b81526004810184905290516000926001600160a01b03169163a8248768916024808301926020929190829003018186803b15801561147d57600080fd5b6006546001600160a01b031633146115445760405162461bcd60e51b81526004018080602001828103825260278152602001806121cb6027913960400191505060405180910390fd5b6001600160a01b03831661159f576040805162461bcd60e51b815260206004820152600760248201527f5374616b696e6700000000000000000000000000000000000000000000000000604482015290519081900360640190fd5b600880546001600160a01b0319166001600160a01b0385811691909117918290559081166000908152600d602052604090206a0357636f35a3ab8fffffff1990558216611633576040805162461bcd60e51b815260206004820152601660248201527f5a65726f20616464726573733a20547265617375727900000000000000000000604482015290519081900360640190fd5b600f80546001600160a01b0319166001600160a01b038481169190911790915581166116a6576040805162461bcd60e51b815260206004820152601660248201527f5a65726f20616464726573733a20476f7665726e6f7200000000000000000000604482015290519081900360640190fd5b600980546001600160a01b0319166001600160a01b0383811691909117909155600854600254604080519182525191909216916000917fddf252ad1be2c89b69c2b068fc378daa952ba7f163c4a11628f55a4df523b3ef916020908290030190a3600854604080516001600160a01b039092168252517f817c653428858ed536dc085c5d8273734c517b55de44b55f5c5877a75e3373a19181900360200190a15050600680546001600160a01b031916905550565b60106020526000908152604090205481565b834211156117c2576040805162461bcd60e51b815260206004820152601d60248201527f45524332305065726d69743a206578706972656420646561646c696e65000000604482015290519081900360640190fd5b60007f00000000000000000000000000000000000000000000000000000000000000008888886117f18c611ccc565b8960405160200180878152602001866001600160a01b03168152602001856001600160a01b031681526020018481526020018381526020018281526020019650505050505050604051602081830303815290604052805190602001209050600061185a82611cfe565b9050600061186a82878787611d11565b9050896001600160a01b0316816001600160a01b0316146118d2576040805162461bcd60e51b815260206004820152601e60248201527f45524332305065726d69743a20696e76616c6964207369676e61747572650000604482015290519081900360640190fd5b6118dd8a8a8a611b5d565b50505050505050505050565b6001600160a01b039182166000908152600e6020908152604080832093909416825291909152205490565b6008546001600160a01b031681565b600061196583836040518060400160405280601a81526020017f536166654d6174683a206469766973696f6e206279207a65726f000000000000815250611d39565b9392505050565b60008261197b57506000610811565b8282028284828161198857fe5b04146119655760405162461bcd60e51b81526004018080602001828103825260218152602001806121aa6021913960400191505060405180910390fd5b600082820183811015611965576040805162461bcd60e51b815260206004820152601b60248201527f536166654d6174683a206164646974696f6e206f766572666c6f770000000000604482015290519081900360640190fd5b6000611a378461078885670de0b6b3a764000061196c565b9050600b6040518060e00160405280848152602001838152602001868152602001611a60610efc565b8152602001858152602001611a73610b0b565b81524360209182015282546001818101855560009485529382902083516007909202019081558282015193810193909355604080830151600280860191909155606084015160038601556080840151600486015560a0840151600586015560c09093015160069094019390935590548251908152915184927f0417b340e646d4be71f9b2da63b5c3c69bc9cfa069f0e0db4756271886130bf492908290030190a2817f6012dbce857565c4a40974aa5de8373a761fc429077ef0c8c8611d1e20d63fb282611b3f610b0b565b6040805192835260208301919091528051918290030190a250505050565b6001600160a01b038084166000818152600e6020908152604080832094871680845294825291829020859055815185815291517f8c5be1e5ebec7d5bd14f71427d1e84f3dd0314c0f7b2291e5b200ac8c7c3b9259281900390910190a3505050565b600061196583836040518060400160405280601e81526020017f536166654d6174683a207375627472616374696f6e206f766572666c6f770000815250611df2565b6000467f0000000000000000000000000000000000000000000000000000000000000000811415611c55577f00000000000000000000000000000000000000000000000000000000000000009150506108ab565b611cc07f00000000000000000000000000000000000000000000000000000000000000007f00000000000000000000000000000000000000000000000000000000000000007f0000000000000000000000000000000000000000000000000000000000000000611e4c565b9150506108ab565b5490565b6001600160a01b0381166000908152600560205260408120611ced81611cc8565b9150611cf881611e91565b50919050565b6000610811611d0b611c01565b83611e9a565b6000806000611d2287878787611ed5565b91509150611d2f81611fca565b5095945050505050565b60008183611dc55760405162461bcd60e51b81526004018080602001828103825283818151815260200191508051906020019080838360005b83811015611d8a578181015183820152602001611d72565b50505050905090810190601f168015611db75780820380516001836020036101000a031916815260200191505b509250505060405180910390fd5b506000838581611dd157fe5b049050838581611ddd57fe5b06818502018514611dea57fe5b949350505050565b60008184841115611e445760405162461bcd60e51b8152602060048201818152835160248401528351909283926044909101919085019080838360008315611d8a578181015183820152602001611d72565b505050900390565b604080516020808201959095528082019390935260608301919091524660808301523060a0808401919091528151808403909101815260c09092019052805191012090565b80546001019055565b6040805161190160f01b6020808301919091526022820194909452604280820193909352815180820390930183526062019052805191012090565b6000807f7fffffffffffffffffffffffffffffff5d576e7357a4501ddfe92f46681b20a0831115611f0c5750600090506003611fc1565b8460ff16601b14158015611f2457508460ff16601c14155b15611f355750600090506004611fc1565b600060018787878760405160008152602001604052604051808581526020018460ff1681526020018381526020018281526020019450505050506020604051602081039080840390855afa158015611f91573d6000803e3d6000fd5b5050604051601f1901519150506001600160a01b038116611fba57600060019250925050611fc1565b9150600090505b94509492505050565b6000816004811115611fd857fe5b1415611fe35761213b565b6001816004811115611ff157fe5b1415612044576040805162461bcd60e51b815260206004820152601860248201527f45434453413a20696e76616c6964207369676e61747572650000000000000000604482015290519081900360640190fd5b600281600481111561205257fe5b14156120a5576040805162461bcd60e51b815260206004820152601f60248201527f45434453413a20696e76616c6964207369676e6174757265206c656e67746800604482015290519081900360640190fd5b60038160048111156120b357fe5b14156120f05760405162461bcd60e51b815260040180806020018281038252602281526020018061213f6022913960400191505060405180910390fd5b60048160048111156120fe57fe5b141561213b5760405162461bcd60e51b81526004018080602001828103825260228152602001806121886022913960400191505060405180910390fd5b5056fe45434453413a20696e76616c6964207369676e6174757265202773272076616c75654b41525348413a20204b4152534841206973206e6f7420612076616c696420636f6e747261637445434453413a20696e76616c6964207369676e6174757265202776272076616c7565536166654d6174683a206d756c7469706c69636174696f6e206f766572666c6f77496e697469616c697a65723a202063616c6c6572206973206e6f7420696e697469616c697a65725374616b696e67436f6e74726163743a202063616c6c206973206e6f74207374616b696e6720636f6e7472616374a164736f6c6343000705000a",
  "devdoc": {
    "kind": "dev",
    "methods": {
      "DOMAIN_SEPARATOR()": {
        "details": "See {IERC20Permit-DOMAIN_SEPARATOR}."
      },
      "nonces(address)": {
        "details": "See {IERC20Permit-nonces}."
      },
      "permit(address,address,uint256,uint256,uint8,bytes32,bytes32)": {
        "details": "See {IERC20Permit-permit}."
      },
      "rebase(uint256,uint256)": {
        "params": {
          "profit_": "uint256"
        },
        "returns": {
          "_0": "uint256"
        }
      },
      "totalSupply()": {
        "details": "Returns the amount of tokens in existence."
      }
    },
    "version": 1
  },
  "userdoc": {
    "kind": "user",
    "methods": {
      "rebase(uint256,uint256)": {
        "notice": "increases rPANA supply to increase staking balances relative to profit_"
      }
    },
    "version": 1
  },
  "storageLayout": {
    "storage": [
      {
        "astId": 9729,
        "contract": "contracts/tokens/regular/sPanaERC20.sol:sPana",
        "label": "_balances",
        "offset": 0,
        "slot": "0",
        "type": "t_mapping(t_address,t_uint256)"
      },
      {
        "astId": 9735,
        "contract": "contracts/tokens/regular/sPanaERC20.sol:sPana",
        "label": "_allowances",
        "offset": 0,
        "slot": "1",
        "type": "t_mapping(t_address,t_mapping(t_address,t_uint256))"
      },
      {
        "astId": 9737,
        "contract": "contracts/tokens/regular/sPanaERC20.sol:sPana",
        "label": "_totalSupply",
        "offset": 0,
        "slot": "2",
        "type": "t_uint256"
      },
      {
        "astId": 9739,
        "contract": "contracts/tokens/regular/sPanaERC20.sol:sPana",
        "label": "_name",
        "offset": 0,
        "slot": "3",
        "type": "t_string_storage"
      },
      {
        "astId": 9741,
        "contract": "contracts/tokens/regular/sPanaERC20.sol:sPana",
        "label": "_symbol",
        "offset": 0,
        "slot": "4",
        "type": "t_string_storage"
      },
      {
        "astId": 10210,
        "contract": "contracts/tokens/regular/sPanaERC20.sol:sPana",
        "label": "_nonces",
        "offset": 0,
        "slot": "5",
        "type": "t_mapping(t_address,t_struct(Counter)2863_storage)"
      },
      {
        "astId": 6963,
        "contract": "contracts/tokens/regular/sPanaERC20.sol:sPana",
        "label": "initializer",
        "offset": 0,
        "slot": "6",
        "type": "t_address"
      },
      {
        "astId": 6965,
        "contract": "contracts/tokens/regular/sPanaERC20.sol:sPana",
        "label": "INDEX",
        "offset": 0,
        "slot": "7",
        "type": "t_uint256"
      },
      {
        "astId": 6967,
        "contract": "contracts/tokens/regular/sPanaERC20.sol:sPana",
        "label": "stakingContract",
        "offset": 0,
        "slot": "8",
        "type": "t_address"
      },
      {
        "astId": 6969,
        "contract": "contracts/tokens/regular/sPanaERC20.sol:sPana",
        "label": "governor",
        "offset": 0,
        "slot": "9",
        "type": "t_address"
      },
      {
        "astId": 6971,
        "contract": "contracts/tokens/regular/sPanaERC20.sol:sPana",
        "label": "disableTransfer",
        "offset": 20,
        "slot": "9",
        "type": "t_bool"
      },
      {
        "astId": 6973,
        "contract": "contracts/tokens/regular/sPanaERC20.sol:sPana",
        "label": "KARSHA",
        "offset": 0,
        "slot": "10",
        "type": "t_contract(IKarsha)1849"
      },
      {
        "astId": 6976,
        "contract": "contracts/tokens/regular/sPanaERC20.sol:sPana",
        "label": "rebases",
        "offset": 0,
        "slot": "11",
        "type": "t_array(t_struct(Rebase)6961_storage)dyn_storage"
      },
      {
        "astId": 7007,
        "contract": "contracts/tokens/regular/sPanaERC20.sol:sPana",
        "label": "_gonsPerFragment",
        "offset": 0,
        "slot": "12",
        "type": "t_uint256"
      },
      {
        "astId": 7011,
        "contract": "contracts/tokens/regular/sPanaERC20.sol:sPana",
        "label": "_gonBalances",
        "offset": 0,
        "slot": "13",
        "type": "t_mapping(t_address,t_uint256)"
      },
      {
        "astId": 7017,
        "contract": "contracts/tokens/regular/sPanaERC20.sol:sPana",
        "label": "_allowedValue",
        "offset": 0,
        "slot": "14",
        "type": "t_mapping(t_address,t_mapping(t_address,t_uint256))"
      },
      {
        "astId": 7019,
        "contract": "contracts/tokens/regular/sPanaERC20.sol:sPana",
        "label": "treasury",
        "offset": 0,
        "slot": "15",
        "type": "t_address"
      },
      {
        "astId": 7024,
        "contract": "contracts/tokens/regular/sPanaERC20.sol:sPana",
        "label": "debtBalances",
        "offset": 0,
        "slot": "16",
        "type": "t_mapping(t_address,t_uint256)"
      }
    ],
    "types": {
      "t_address": {
        "encoding": "inplace",
        "label": "address",
        "numberOfBytes": "20"
      },
      "t_array(t_struct(Rebase)6961_storage)dyn_storage": {
        "base": "t_struct(Rebase)6961_storage",
        "encoding": "dynamic_array",
        "label": "struct sPana.Rebase[]",
        "numberOfBytes": "32"
      },
      "t_bool": {
        "encoding": "inplace",
        "label": "bool",
        "numberOfBytes": "1"
      },
      "t_contract(IKarsha)1849": {
        "encoding": "inplace",
        "label": "contract IKarsha",
        "numberOfBytes": "20"
      },
      "t_mapping(t_address,t_mapping(t_address,t_uint256))": {
        "encoding": "mapping",
        "key": "t_address",
        "label": "mapping(address => mapping(address => uint256))",
        "numberOfBytes": "32",
        "value": "t_mapping(t_address,t_uint256)"
      },
      "t_mapping(t_address,t_struct(Counter)2863_storage)": {
        "encoding": "mapping",
        "key": "t_address",
        "label": "mapping(address => struct Counters.Counter)",
        "numberOfBytes": "32",
        "value": "t_struct(Counter)2863_storage"
      },
      "t_mapping(t_address,t_uint256)": {
        "encoding": "mapping",
        "key": "t_address",
        "label": "mapping(address => uint256)",
        "numberOfBytes": "32",
        "value": "t_uint256"
      },
      "t_string_storage": {
        "encoding": "bytes",
        "label": "string",
        "numberOfBytes": "32"
      },
      "t_struct(Counter)2863_storage": {
        "encoding": "inplace",
        "label": "struct Counters.Counter",
        "members": [
          {
            "astId": 2862,
            "contract": "contracts/tokens/regular/sPanaERC20.sol:sPana",
            "label": "_value",
            "offset": 0,
            "slot": "0",
            "type": "t_uint256"
          }
        ],
        "numberOfBytes": "32"
      },
      "t_struct(Rebase)6961_storage": {
        "encoding": "inplace",
        "label": "struct sPana.Rebase",
        "members": [
          {
            "astId": 6948,
            "contract": "contracts/tokens/regular/sPanaERC20.sol:sPana",
            "label": "epoch",
            "offset": 0,
            "slot": "0",
            "type": "t_uint256"
          },
          {
            "astId": 6950,
            "contract": "contracts/tokens/regular/sPanaERC20.sol:sPana",
            "label": "rebase",
            "offset": 0,
            "slot": "1",
            "type": "t_uint256"
          },
          {
            "astId": 6952,
            "contract": "contracts/tokens/regular/sPanaERC20.sol:sPana",
            "label": "totalStakedBefore",
            "offset": 0,
            "slot": "2",
            "type": "t_uint256"
          },
          {
            "astId": 6954,
            "contract": "contracts/tokens/regular/sPanaERC20.sol:sPana",
            "label": "totalStakedAfter",
            "offset": 0,
            "slot": "3",
            "type": "t_uint256"
          },
          {
            "astId": 6956,
            "contract": "contracts/tokens/regular/sPanaERC20.sol:sPana",
            "label": "amountRebased",
            "offset": 0,
            "slot": "4",
            "type": "t_uint256"
          },
          {
            "astId": 6958,
            "contract": "contracts/tokens/regular/sPanaERC20.sol:sPana",
            "label": "index",
            "offset": 0,
            "slot": "5",
            "type": "t_uint256"
          },
          {
            "astId": 6960,
            "contract": "contracts/tokens/regular/sPanaERC20.sol:sPana",
            "label": "blockNumberOccured",
            "offset": 0,
            "slot": "6",
            "type": "t_uint256"
          }
        ],
        "numberOfBytes": "224"
      },
      "t_uint256": {
        "encoding": "inplace",
        "label": "uint256",
        "numberOfBytes": "32"
      }
    }
  }
}