{
  "address": "0xcf03390e4291467fa53ed4f66E74D6517e47eB0a",
  "abi": [
    {
      "inputs": [
        {
          "internalType": "address",
          "name": "_migrator",
          "type": "address"
        },
        {
          "internalType": "address",
          "name": "_sPana",
          "type": "address"
        }
      ],
      "stateMutability": "nonpayable",
      "type": "constructor"
    },
    {
      "anonymous": false,
      "inputs": [
        {
          "indexed": true,
          "internalType": "address",
          "name": "owner",
          "type": "address"
        },
        {
          "indexed": true,
          "internalType": "address",
          "name": "spender",
          "type": "address"
        },
        {
          "indexed": false,
          "internalType": "uint256",
          "name": "value",
          "type": "uint256"
        }
      ],
      "name": "Approval",
      "type": "event"
    },
    {
      "anonymous": false,
      "inputs": [
        {
          "indexed": true,
          "internalType": "address",
          "name": "delegator",
          "type": "address"
        },
        {
          "indexed": true,
          "internalType": "address",
          "name": "fromDelegate",
          "type": "address"
        },
        {
          "indexed": true,
          "internalType": "address",
          "name": "toDelegate",
          "type": "address"
        }
      ],
      "name": "DelegateChanged",
      "type": "event"
    },
    {
      "anonymous": false,
      "inputs": [
        {
          "indexed": true,
          "internalType": "address",
          "name": "delegate",
          "type": "address"
        },
        {
          "indexed": false,
          "internalType": "uint256",
          "name": "previousBalance",
          "type": "uint256"
        },
        {
          "indexed": false,
          "internalType": "uint256",
          "name": "newBalance",
          "type": "uint256"
        }
      ],
      "name": "DelegateVotesChanged",
      "type": "event"
    },
    {
      "anonymous": false,
      "inputs": [
        {
          "indexed": true,
          "internalType": "address",
          "name": "from",
          "type": "address"
        },
        {
          "indexed": true,
          "internalType": "address",
          "name": "to",
          "type": "address"
        },
        {
          "indexed": false,
          "internalType": "uint256",
          "name": "value",
          "type": "uint256"
        }
      ],
      "name": "Transfer",
      "type": "event"
    },
    {
      "inputs": [
        {
          "internalType": "address",
          "name": "owner",
          "type": "address"
        },
        {
          "internalType": "address",
          "name": "spender",
          "type": "address"
        }
      ],
      "name": "allowance",
      "outputs": [
        {
          "internalType": "uint256",
          "name": "",
          "type": "uint256"
        }
      ],
      "stateMutability": "view",
      "type": "function"
    },
    {
      "inputs": [
        {
          "internalType": "address",
          "name": "spender",
          "type": "address"
        },
        {
          "internalType": "uint256",
          "name": "amount",
          "type": "uint256"
        }
      ],
      "name": "approve",
      "outputs": [
        {
          "internalType": "bool",
          "name": "",
          "type": "bool"
        }
      ],
      "stateMutability": "nonpayable",
      "type": "function"
    },
    {
      "inputs": [],
      "name": "approved",
      "outputs": [
        {
          "internalType": "address",
          "name": "",
          "type": "address"
        }
      ],
      "stateMutability": "view",
      "type": "function"
    },
    {
      "inputs": [
        {
          "internalType": "uint256",
          "name": "_amount",
          "type": "uint256"
        }
      ],
      "name": "balanceFrom",
      "outputs": [
        {
          "internalType": "uint256",
          "name": "",
          "type": "uint256"
        }
      ],
      "stateMutability": "view",
      "type": "function"
    },
    {
      "inputs": [
        {
          "internalType": "address",
          "name": "account",
          "type": "address"
        }
      ],
      "name": "balanceOf",
      "outputs": [
        {
          "internalType": "uint256",
          "name": "",
          "type": "uint256"
        }
      ],
      "stateMutability": "view",
      "type": "function"
    },
    {
      "inputs": [
        {
          "internalType": "address",
          "name": "_address",
          "type": "address"
        }
      ],
      "name": "balanceOfPANA",
      "outputs": [
        {
          "internalType": "uint256",
          "name": "",
          "type": "uint256"
        }
      ],
      "stateMutability": "view",
      "type": "function"
    },
    {
      "inputs": [
        {
          "internalType": "uint256",
          "name": "_amount",
          "type": "uint256"
        }
      ],
      "name": "balanceTo",
      "outputs": [
        {
          "internalType": "uint256",
          "name": "",
          "type": "uint256"
        }
      ],
      "stateMutability": "view",
      "type": "function"
    },
    {
      "inputs": [
        {
          "internalType": "address",
          "name": "_from",
          "type": "address"
        },
        {
          "internalType": "uint256",
          "name": "_amount",
          "type": "uint256"
        }
      ],
      "name": "burn",
      "outputs": [],
      "stateMutability": "nonpayable",
      "type": "function"
    },
    {
      "inputs": [
        {
          "internalType": "address",
          "name": "",
          "type": "address"
        },
        {
          "internalType": "uint256",
          "name": "",
          "type": "uint256"
        }
      ],
      "name": "checkpoints",
      "outputs": [
        {
          "internalType": "uint256",
          "name": "fromBlock",
          "type": "uint256"
        },
        {
          "internalType": "uint256",
          "name": "votes",
          "type": "uint256"
        }
      ],
      "stateMutability": "view",
      "type": "function"
    },
    {
      "inputs": [],
      "name": "decimals",
      "outputs": [
        {
          "internalType": "uint8",
          "name": "",
          "type": "uint8"
        }
      ],
      "stateMutability": "view",
      "type": "function"
    },
    {
      "inputs": [
        {
          "internalType": "address",
          "name": "spender",
          "type": "address"
        },
        {
          "internalType": "uint256",
          "name": "subtractedValue",
          "type": "uint256"
        }
      ],
      "name": "decreaseAllowance",
      "outputs": [
        {
          "internalType": "bool",
          "name": "",
          "type": "bool"
        }
      ],
      "stateMutability": "nonpayable",
      "type": "function"
    },
    {
      "inputs": [
        {
          "internalType": "address",
          "name": "delegatee",
          "type": "address"
        }
      ],
      "name": "delegate",
      "outputs": [],
      "stateMutability": "nonpayable",
      "type": "function"
    },
    {
      "inputs": [
        {
          "internalType": "address",
          "name": "",
          "type": "address"
        }
      ],
      "name": "delegates",
      "outputs": [
        {
          "internalType": "address",
          "name": "",
          "type": "address"
        }
      ],
      "stateMutability": "view",
      "type": "function"
    },
    {
      "inputs": [
        {
          "internalType": "address",
          "name": "account",
          "type": "address"
        }
      ],
      "name": "getCurrentVotes",
      "outputs": [
        {
          "internalType": "uint256",
          "name": "",
          "type": "uint256"
        }
      ],
      "stateMutability": "view",
      "type": "function"
    },
    {
      "inputs": [
        {
          "internalType": "address",
          "name": "account",
          "type": "address"
        },
        {
          "internalType": "uint256",
          "name": "blockNumber",
          "type": "uint256"
        }
      ],
      "name": "getPriorVotes",
      "outputs": [
        {
          "internalType": "uint256",
          "name": "",
          "type": "uint256"
        }
      ],
      "stateMutability": "view",
      "type": "function"
    },
    {
      "inputs": [
        {
          "internalType": "address",
          "name": "spender",
          "type": "address"
        },
        {
          "internalType": "uint256",
          "name": "addedValue",
          "type": "uint256"
        }
      ],
      "name": "increaseAllowance",
      "outputs": [
        {
          "internalType": "bool",
          "name": "",
          "type": "bool"
        }
      ],
      "stateMutability": "nonpayable",
      "type": "function"
    },
    {
      "inputs": [],
      "name": "index",
      "outputs": [
        {
          "internalType": "uint256",
          "name": "",
          "type": "uint256"
        }
      ],
      "stateMutability": "view",
      "type": "function"
    },
    {
      "inputs": [
        {
          "internalType": "address",
          "name": "_staking",
          "type": "address"
        },
        {
          "internalType": "address",
          "name": "_sPana",
          "type": "address"
        }
      ],
      "name": "migrate",
      "outputs": [],
      "stateMutability": "nonpayable",
      "type": "function"
    },
    {
      "inputs": [],
      "name": "migrated",
      "outputs": [
        {
          "internalType": "bool",
          "name": "",
          "type": "bool"
        }
      ],
      "stateMutability": "view",
      "type": "function"
    },
    {
      "inputs": [
        {
          "internalType": "address",
          "name": "_to",
          "type": "address"
        },
        {
          "internalType": "uint256",
          "name": "_amount",
          "type": "uint256"
        }
      ],
      "name": "mint",
      "outputs": [],
      "stateMutability": "nonpayable",
      "type": "function"
    },
    {
      "inputs": [],
      "name": "name",
      "outputs": [
        {
          "internalType": "string",
          "name": "",
          "type": "string"
        }
      ],
      "stateMutability": "view",
      "type": "function"
    },
    {
      "inputs": [
        {
          "internalType": "address",
          "name": "",
          "type": "address"
        }
      ],
      "name": "numCheckpoints",
      "outputs": [
        {
          "internalType": "uint256",
          "name": "",
          "type": "uint256"
        }
      ],
      "stateMutability": "view",
      "type": "function"
    },
    {
      "inputs": [],
      "name": "sPANA",
      "outputs": [
        {
          "internalType": "contract IsPana",
          "name": "",
          "type": "address"
        }
      ],
      "stateMutability": "view",
      "type": "function"
    },
    {
      "inputs": [],
      "name": "symbol",
      "outputs": [
        {
          "internalType": "string",
          "name": "",
          "type": "string"
        }
      ],
      "stateMutability": "view",
      "type": "function"
    },
    {
      "inputs": [],
      "name": "totalSupply",
      "outputs": [
        {
          "internalType": "uint256",
          "name": "",
          "type": "uint256"
        }
      ],
      "stateMutability": "view",
      "type": "function"
    },
    {
      "inputs": [
        {
          "internalType": "address",
          "name": "recipient",
          "type": "address"
        },
        {
          "internalType": "uint256",
          "name": "amount",
          "type": "uint256"
        }
      ],
      "name": "transfer",
      "outputs": [
        {
          "internalType": "bool",
          "name": "",
          "type": "bool"
        }
      ],
      "stateMutability": "nonpayable",
      "type": "function"
    },
    {
      "inputs": [
        {
          "internalType": "address",
          "name": "sender",
          "type": "address"
        },
        {
          "internalType": "address",
          "name": "recipient",
          "type": "address"
        },
        {
          "internalType": "uint256",
          "name": "amount",
          "type": "uint256"
        }
      ],
      "name": "transferFrom",
      "outputs": [
        {
          "internalType": "bool",
          "name": "",
          "type": "bool"
        }
      ],
      "stateMutability": "nonpayable",
      "type": "function"
    }
  ],
  "transactionHash": "0xd04447aa5a4201fb034688572096fdadce61095e90dbfb0d678adfc44f1426d2",
  "args": [
    "0x2d494Cb0a923009C471B9512571048560a44556A",
    "0xC1395F6534F0706970C800353C12D9848D72218b"
  ],
  "solcInputHash": "a5bd4cccb7f6499229770175b06b1c23",
  "bytecode": "0x60a06040523480156200001157600080fd5b5060405162001ca938038062001ca9833981810160405260408110156200003757600080fd5b5080516020918201516040805180820182526006808252654b617273686160d01b8287019081528351808501909452908352654b415253484160d01b9583019590955280519394929390926012916200009391600391620001cb565b508151620000a9906004906020850190620001cb565b5060f81b7fff000000000000000000000000000000000000000000000000000000000000001660805250506001600160a01b03821662000130576040805162461bcd60e51b815260206004820152601660248201527f5a65726f20616464726573733a204d69677261746f7200000000000000000000604482015290519081900360640190fd5b600680546001600160a01b0319166001600160a01b03848116919091179091558116620001a4576040805162461bcd60e51b815260206004820152601360248201527f5a65726f20616464726573733a207350414e4100000000000000000000000000604482015290519081900360640190fd5b600580546001600160a01b0319166001600160a01b03929092169190911790555062000277565b828054600181600116156101000203166002900490600052602060002090601f0160209004810192826200020357600085556200024e565b82601f106200021e57805160ff19168380011785556200024e565b828001600101855582156200024e579182015b828111156200024e57825182559160200191906001019062000231565b506200025c92915062000260565b5090565b5b808211156200025c576000815560010162000261565b60805160f81c611a146200029560003980610a165250611a146000f3fe608060405234801561001057600080fd5b50600436106101b95760003560e01c80635c19a95c116100f95780639fef32cc11610097578063a9059cbb11610071578063a9059cbb14610550578063b4b5ea571461057c578063dd62ed3e146105a2578063fa8d1820146105d0576101b9565b80639fef32cc146104ff578063a457c2d714610507578063a824876814610533576101b9565b806370a08231116100d357806370a0823114610479578063782d6fe11461049f57806395d89b41146104cb5780639dc29fac146104d3576101b9565b80635c19a95c1461041057806366a5236c146104365780636fcfff4514610453576101b9565b806323b872dd11610166578063313ce56711610140578063313ce56714610374578063395093511461039257806340c10f19146103be578063587cde1e146103ea576101b9565b806323b872dd1461032e5780632986c0e5146103645780632c678c641461036c576101b9565b80631068361f116101975780631068361f146102c057806318160ddd146102f057806319d40b081461030a576101b9565b806306fdde03146101be578063095ea7b31461023b5780630cdfebfa1461027b575b600080fd5b6101c66105f6565b6040805160208082528351818301528351919283929083019185019080838360005b838110156102005781810151838201526020016101e8565b50505050905090810190601f16801561022d5780820380516001836020036101000a031916815260200191505b509250505060405180910390f35b6102676004803603604081101561025157600080fd5b506001600160a01b03813516906020013561068c565b604080519115158252519081900360200190f35b6102a76004803603604081101561029157600080fd5b506001600160a01b0381351690602001356106a3565b6040805192835260208301919091528051918290030190f35b6102ee600480360360408110156102d657600080fd5b506001600160a01b03813581169160200135166106c7565b005b6102f8610910565b60408051918252519081900360200190f35b610312610916565b604080516001600160a01b039092168252519081900360200190f35b6102676004803603606081101561034457600080fd5b506001600160a01b03813581169160208101359091169060400135610925565b6102f861098e565b610267610a04565b61037c610a14565b6040805160ff9092168252519081900360200190f35b610267600480360360408110156103a857600080fd5b506001600160a01b038135169060200135610a38565b6102ee600480360360408110156103d457600080fd5b506001600160a01b038135169060200135610a6e565b6103126004803603602081101561040057600080fd5b50356001600160a01b0316610acb565b6102ee6004803603602081101561042657600080fd5b50356001600160a01b0316610ae6565b6102f86004803603602081101561044c57600080fd5b5035610af3565b6102f86004803603602081101561046957600080fd5b50356001600160a01b0316610b1e565b6102f86004803603602081101561048f57600080fd5b50356001600160a01b0316610b30565b6102f8600480360360408110156104b557600080fd5b506001600160a01b038135169060200135610b4b565b6101c6610d0d565b6102ee600480360360408110156104e957600080fd5b506001600160a01b038135169060200135610d6e565b610312610dc7565b6102676004803603604081101561051d57600080fd5b506001600160a01b038135169060200135610dd6565b6102f86004803603602081101561054957600080fd5b5035610e25565b6102676004803603604081101561056657600080fd5b506001600160a01b038135169060200135610e4a565b6102f86004803603602081101561059257600080fd5b50356001600160a01b0316610e57565b6102f8600480360360408110156105b857600080fd5b506001600160a01b0381358116916020013516610eaf565b6102f8600480360360208110156105e657600080fd5b50356001600160a01b0316610eda565b60038054604080516020601f60026000196101006001881615020190951694909404938401819004810282018101909252828152606093909290918301828280156106825780601f1061065757610100808354040283529160200191610682565b820191906000526020600020905b81548152906001019060200180831161066557829003601f168201915b5050505050905090565b6000610699338484610eed565b5060015b92915050565b60076020908152600092835260408084209091529082529020805460019091015482565b6006546001600160a01b03163314610716576040805162461bcd60e51b815260206004820152600d60248201526c13db9b1e48185c1c1c9bdd9959609a1b604482015290519081900360640190fd5b600654600160a01b900460ff1615610775576040805162461bcd60e51b815260206004820152600860248201527f4d69677261746564000000000000000000000000000000000000000000000000604482015290519081900360640190fd5b600680547fffffffffffffffffffffff00ffffffffffffffffffffffffffffffffffffffff16600160a01b17908190556001600160a01b0383811691161415610805576040805162461bcd60e51b815260206004820152601060248201527f496e76616c696420617267756d656e7400000000000000000000000000000000604482015290519081900360640190fd5b6001600160a01b038216610860576040805162461bcd60e51b815260206004820152601260248201527f5a65726f206164647265737320666f756e640000000000000000000000000000604482015290519081900360640190fd5b6006805473ffffffffffffffffffffffffffffffffffffffff19166001600160a01b038481169190911790915581166108e0576040805162461bcd60e51b815260206004820152601260248201527f5a65726f206164647265737320666f756e640000000000000000000000000000604482015290519081900360640190fd5b6005805473ffffffffffffffffffffffffffffffffffffffff19166001600160a01b039290921691909117905550565b60025490565b6006546001600160a01b031681565b6000610932848484610fd9565b610984843361097f85604051806060016040528060288152602001611951602891396001600160a01b038a1660009081526001602090815260408083203384529091529020549190611134565b610eed565b5060019392505050565b60055460408051632986c0e560e01b815290516000926001600160a01b031691632986c0e5916004808301926020929190829003018186803b1580156109d357600080fd5b505afa1580156109e7573d6000803e3d6000fd5b505050506040513d60208110156109fd57600080fd5b5051905090565b600654600160a01b900460ff1681565b7f000000000000000000000000000000000000000000000000000000000000000090565b3360008181526001602090815260408083206001600160a01b0387168452909152812054909161069991859061097f90866111cb565b6006546001600160a01b03163314610abd576040805162461bcd60e51b815260206004820152600d60248201526c13db9b1e48185c1c1c9bdd9959609a1b604482015290519081900360640190fd5b610ac78282611225565b5050565b6009602052600090815260409020546001600160a01b031681565b610af03382611315565b50565b600061069d610b0061098e565b610b18610b0b610a14565b859060ff16600a0a6113a1565b906113fa565b60086020526000908152604090205481565b6001600160a01b031660009081526020819052604090205490565b6000438210610b8b5760405162461bcd60e51b81526004018080602001828103825260298152602001806119076029913960400191505060405180910390fd5b6001600160a01b03831660009081526008602052604090205480610bb357600091505061069d565b6001600160a01b0384166000908152600760209081526040808320600019850184529091529020548310610c13576001600160a01b038416600090815260076020908152604080832060001990940183529290522060010154905061069d565b6001600160a01b0384166000908152600760209081526040808320838052909152902054831015610c4857600091505061069d565b600060001982015b81811115610cdd576002828203048103610c6861185f565b506001600160a01b03871660009081526007602090815260408083208484528252918290208251808401909352805480845260019091015491830191909152871415610cbe5760200151945061069d9350505050565b8051871115610ccf57819350610cd6565b6001820392505b5050610c50565b506001600160a01b0385166000908152600760209081526040808320938352929052206001015491505092915050565b60048054604080516020601f60026000196101006001881615020190951694909404938401819004810282018101909252828152606093909290918301828280156106825780601f1061065757610100808354040283529160200191610682565b6006546001600160a01b03163314610dbd576040805162461bcd60e51b815260206004820152600d60248201526c13db9b1e48185c1c1c9bdd9959609a1b604482015290519081900360640190fd5b610ac7828261143c565b6005546001600160a01b031681565b6000610699338461097f856040518060600160405280602581526020016119e3602591393360009081526001602090815260408083206001600160a01b038d1684529091529020549190611134565b600061069d610e32610a14565b60ff16600a0a610b18610e4361098e565b85906113a1565b6000610699338484610fd9565b6001600160a01b03811660009081526008602052604081205480610e7c576000610ea8565b6001600160a01b0383166000908152600760209081526040808320600019850184529091529020600101545b9392505050565b6001600160a01b03918216600090815260016020908152604080832093909416825291909152205490565b600061069d610ee883610b30565b610e25565b6001600160a01b038316610f325760405162461bcd60e51b81526004018080602001828103825260248152602001806119bf6024913960400191505060405180910390fd5b6001600160a01b038216610f775760405162461bcd60e51b81526004018080602001828103825260228152602001806118bf6022913960400191505060405180910390fd5b6001600160a01b03808416600081815260016020908152604080832094871680845294825291829020859055815185815291517f8c5be1e5ebec7d5bd14f71427d1e84f3dd0314c0f7b2291e5b200ac8c7c3b9259281900390910190a3505050565b6001600160a01b03831661101e5760405162461bcd60e51b815260040180806020018281038252602581526020018061199a6025913960400191505060405180910390fd5b6001600160a01b0382166110635760405162461bcd60e51b815260040180806020018281038252602381526020018061187a6023913960400191505060405180910390fd5b61106e838383611538565b6110ab816040518060600160405280602681526020016118e1602691396001600160a01b0386166000908152602081905260409020549190611134565b6001600160a01b0380851660009081526020819052604080822093909355908416815220546110da90826111cb565b6001600160a01b038084166000818152602081815260409182902094909455805185815290519193928716927fddf252ad1be2c89b69c2b068fc378daa952ba7f163c4a11628f55a4df523b3ef92918290030190a3505050565b600081848411156111c35760405162461bcd60e51b81526004018080602001828103825283818151815260200191508051906020019080838360005b83811015611188578181015183820152602001611170565b50505050905090810190601f1680156111b55780820380516001836020036101000a031916815260200191505b509250505060405180910390fd5b505050900390565b600082820183811015610ea8576040805162461bcd60e51b815260206004820152601b60248201527f536166654d6174683a206164646974696f6e206f766572666c6f770000000000604482015290519081900360640190fd5b6001600160a01b038216611280576040805162461bcd60e51b815260206004820152601f60248201527f45524332303a206d696e7420746f20746865207a65726f206164647265737300604482015290519081900360640190fd5b61128c60008383611538565b60025461129990826111cb565b6002556001600160a01b0382166000908152602081905260409020546112bf90826111cb565b6001600160a01b0383166000818152602081815260408083209490945583518581529351929391927fddf252ad1be2c89b69c2b068fc378daa952ba7f163c4a11628f55a4df523b3ef9281900390910190a35050565b6001600160a01b0380831660008181526009602081815260408084208054858452828620549490935287871673ffffffffffffffffffffffffffffffffffffffff198416811790915590519190951694919391928592917f3134e8a2e6d97e929a7e54011ea5485d7d196dd5f0ba4d4ef95803e8e3fc257f9190a461139b82848361156f565b50505050565b6000826113b05750600061069d565b828202828482816113bd57fe5b0414610ea85760405162461bcd60e51b81526004018080602001828103825260218152602001806119306021913960400191505060405180910390fd5b6000610ea883836040518060400160405280601a81526020017f536166654d6174683a206469766973696f6e206279207a65726f00000000000081525061169c565b6001600160a01b0382166114815760405162461bcd60e51b81526004018080602001828103825260218152602001806119796021913960400191505060405180910390fd5b61148d82600083611538565b6114ca8160405180606001604052806022815260200161189d602291396001600160a01b0385166000908152602081905260409020549190611134565b6001600160a01b0383166000908152602081905260409020556002546114f09082611718565b6002556040805182815290516000916001600160a01b038516917fddf252ad1be2c89b69c2b068fc378daa952ba7f163c4a11628f55a4df523b3ef9181900360200190a35050565b6001600160a01b0380841660009081526009602052604080822054858416835291205461156a9291821691168361156f565b505050565b816001600160a01b0316836001600160a01b0316141580156115915750600081115b1561156a576001600160a01b03831615611617576001600160a01b03831660009081526008602052604081205490816115cb5760006115f7565b6001600160a01b0385166000908152600760209081526040808320600019860184529091529020600101545b905060006116058285611718565b90506116138684848461175a565b5050505b6001600160a01b0382161561156a576001600160a01b038216600090815260086020526040812054908161164c576000611678565b6001600160a01b0384166000908152600760209081526040808320600019860184529091529020600101545b9050600061168682856111cb565b90506116948584848461175a565b505050505050565b600081836116eb5760405162461bcd60e51b8152602060048201818152835160248401528351909283926044909101919085019080838360008315611188578181015183820152602001611170565b5060008385816116f757fe5b04905083858161170357fe5b0681850201851461171057fe5b949350505050565b6000610ea883836040518060400160405280601e81526020017f536166654d6174683a207375627472616374696f6e206f766572666c6f770000815250611134565b60008311801561179057506001600160a01b03841660009081526007602090815260408083206000198701845290915290205443145b156117c7576001600160a01b0384166000908152600760209081526040808320600019870184529091529020600101819055611816565b60408051808201825243815260208082018481526001600160a01b0388166000818152600784528581208982528452858120945185559151600194850155815260089091529190912090840190555b604080518381526020810183905281516001600160a01b038716927fdec2bacdd2f05b59de34da9b523dff8be42e5e38e818c82fdb0bae774387a724928290030190a250505050565b60405180604001604052806000815260200160008152509056fe45524332303a207472616e7366657220746f20746865207a65726f206164647265737345524332303a206275726e20616d6f756e7420657863656564732062616c616e636545524332303a20617070726f766520746f20746865207a65726f206164647265737345524332303a207472616e7366657220616d6f756e7420657863656564732062616c616e63654b41525348413a3a6765745072696f72566f7465733a206e6f74207965742064657465726d696e6564536166654d6174683a206d756c7469706c69636174696f6e206f766572666c6f7745524332303a207472616e7366657220616d6f756e74206578636565647320616c6c6f77616e636545524332303a206275726e2066726f6d20746865207a65726f206164647265737345524332303a207472616e736665722066726f6d20746865207a65726f206164647265737345524332303a20617070726f76652066726f6d20746865207a65726f206164647265737345524332303a2064656372656173656420616c6c6f77616e63652062656c6f77207a65726fa164736f6c6343000705000a",
  "devdoc": {
    "kind": "dev",
    "methods": {
      "allowance(address,address)": {
        "details": "Returns the remaining number of tokens that `spender` will be allowed to spend on behalf of `owner` through {transferFrom}. This is zero by default. This value changes when {approve} or {transferFrom} are called."
      },
      "approve(address,uint256)": {
        "details": "Sets `amount` as the allowance of `spender` over the caller's tokens. Returns a boolean value indicating whether the operation succeeded. IMPORTANT: Beware that changing an allowance with this method brings the risk that someone may use both the old and the new allowance by unfortunate transaction ordering. One possible solution to mitigate this race condition is to first reduce the spender's allowance to 0 and set the desired value afterwards: https://github.com/ethereum/EIPs/issues/20#issuecomment-263524729 Emits an {Approval} event."
      },
      "balanceFrom(uint256)": {
        "params": {
          "_amount": "uint"
        },
        "returns": {
          "_0": "uint"
        }
      },
      "balanceOf(address)": {
        "details": "Returns the amount of tokens owned by `account`."
      },
      "balanceOfPANA(address)": {
        "params": {
          "_address": "address"
        },
        "returns": {
          "_0": "uint"
        }
      },
      "balanceTo(uint256)": {
        "params": {
          "_amount": "uint"
        },
        "returns": {
          "_0": "uint"
        }
      },
      "burn(address,uint256)": {
        "params": {
          "_amount": "uint",
          "_from": "address"
        }
      },
      "delegate(address)": {
        "params": {
          "delegatee": "The address to delegate votes to"
        }
      },
      "getCurrentVotes(address)": {
        "params": {
          "account": "The address to get votes balance"
        },
        "returns": {
          "_0": "The number of current votes for `account`"
        }
      },
      "getPriorVotes(address,uint256)": {
        "details": "Block number must be a finalized block or else this function will revert to prevent misinformation.",
        "params": {
          "account": "The address of the account to check",
          "blockNumber": "The block number to get the vote balance at"
        },
        "returns": {
          "_0": "The number of votes the account had as of the given block"
        }
      },
      "migrate(address,address)": {
        "params": {
          "_sPana": "address",
          "_staking": "address"
        }
      },
      "mint(address,uint256)": {
        "params": {
          "_amount": "uint",
          "_to": "address"
        }
      },
      "totalSupply()": {
        "details": "Returns the amount of tokens in existence."
      },
      "transfer(address,uint256)": {
        "details": "Moves `amount` tokens from the caller's account to `recipient`. Returns a boolean value indicating whether the operation succeeded. Emits a {Transfer} event."
      },
      "transferFrom(address,address,uint256)": {
        "details": "Moves `amount` tokens from `sender` to `recipient` using the allowance mechanism. `amount` is then deducted from the caller's allowance. Returns a boolean value indicating whether the operation succeeded. Emits a {Transfer} event."
      }
    },
    "version": 1
  },
  "userdoc": {
    "kind": "user",
    "methods": {
      "balanceFrom(uint256)": {
        "notice": "converts KARSHA amount to PANA"
      },
      "balanceOfPANA(address)": {
        "notice": "converts KARSHA balance to PANA"
      },
      "balanceTo(uint256)": {
        "notice": "converts PANA amount to KARSHA"
      },
      "burn(address,uint256)": {
        "notice": "burn KARSHA"
      },
      "delegate(address)": {
        "notice": "Delegate votes from `msg.sender` to `delegatee`"
      },
      "getCurrentVotes(address)": {
        "notice": "Gets the current votes balance for `account`"
      },
      "getPriorVotes(address,uint256)": {
        "notice": "Determine the prior number of votes for an account as of a block number"
      },
      "index()": {
        "notice": "pull index from sPANA token"
      },
      "migrate(address,address)": {
        "notice": "transfer mint rights from migrator to stakingcan only be done once, at the time of contract migration"
      },
      "mint(address,uint256)": {
        "notice": "mint KARSHA"
      }
    },
    "version": 1
  },
  "storageLayout": {
    "storage": [
      {
        "astId": 8310,
        "contract": "contracts/governance/Karsha.sol:Karsha",
        "label": "_balances",
        "offset": 0,
        "slot": "0",
        "type": "t_mapping(t_address,t_uint256)"
      },
      {
        "astId": 8316,
        "contract": "contracts/governance/Karsha.sol:Karsha",
        "label": "_allowances",
        "offset": 0,
        "slot": "1",
        "type": "t_mapping(t_address,t_mapping(t_address,t_uint256))"
      },
      {
        "astId": 8318,
        "contract": "contracts/governance/Karsha.sol:Karsha",
        "label": "_totalSupply",
        "offset": 0,
        "slot": "2",
        "type": "t_uint256"
      },
      {
        "astId": 8320,
        "contract": "contracts/governance/Karsha.sol:Karsha",
        "label": "_name",
        "offset": 0,
        "slot": "3",
        "type": "t_string_storage"
      },
      {
        "astId": 8322,
        "contract": "contracts/governance/Karsha.sol:Karsha",
        "label": "_symbol",
        "offset": 0,
        "slot": "4",
        "type": "t_string_storage"
      },
      {
        "astId": 3806,
        "contract": "contracts/governance/Karsha.sol:Karsha",
        "label": "sPANA",
        "offset": 0,
        "slot": "5",
        "type": "t_contract(IsPana)5424"
      },
      {
        "astId": 3808,
        "contract": "contracts/governance/Karsha.sol:Karsha",
        "label": "approved",
        "offset": 0,
        "slot": "6",
        "type": "t_address"
      },
      {
        "astId": 3810,
        "contract": "contracts/governance/Karsha.sol:Karsha",
        "label": "migrated",
        "offset": 20,
        "slot": "6",
        "type": "t_bool"
      },
      {
        "astId": 3816,
        "contract": "contracts/governance/Karsha.sol:Karsha",
        "label": "checkpoints",
        "offset": 0,
        "slot": "7",
        "type": "t_mapping(t_address,t_mapping(t_uint256,t_struct(Checkpoint)3804_storage))"
      },
      {
        "astId": 3820,
        "contract": "contracts/governance/Karsha.sol:Karsha",
        "label": "numCheckpoints",
        "offset": 0,
        "slot": "8",
        "type": "t_mapping(t_address,t_uint256)"
      },
      {
        "astId": 3824,
        "contract": "contracts/governance/Karsha.sol:Karsha",
        "label": "delegates",
        "offset": 0,
        "slot": "9",
        "type": "t_mapping(t_address,t_address)"
      }
    ],
    "types": {
      "t_address": {
        "encoding": "inplace",
        "label": "address",
        "numberOfBytes": "20"
      },
      "t_bool": {
        "encoding": "inplace",
        "label": "bool",
        "numberOfBytes": "1"
      },
      "t_contract(IsPana)5424": {
        "encoding": "inplace",
        "label": "contract IsPana",
        "numberOfBytes": "20"
      },
      "t_mapping(t_address,t_address)": {
        "encoding": "mapping",
        "key": "t_address",
        "label": "mapping(address => address)",
        "numberOfBytes": "32",
        "value": "t_address"
      },
      "t_mapping(t_address,t_mapping(t_address,t_uint256))": {
        "encoding": "mapping",
        "key": "t_address",
        "label": "mapping(address => mapping(address => uint256))",
        "numberOfBytes": "32",
        "value": "t_mapping(t_address,t_uint256)"
      },
      "t_mapping(t_address,t_mapping(t_uint256,t_struct(Checkpoint)3804_storage))": {
        "encoding": "mapping",
        "key": "t_address",
        "label": "mapping(address => mapping(uint256 => struct Karsha.Checkpoint))",
        "numberOfBytes": "32",
        "value": "t_mapping(t_uint256,t_struct(Checkpoint)3804_storage)"
      },
      "t_mapping(t_address,t_uint256)": {
        "encoding": "mapping",
        "key": "t_address",
        "label": "mapping(address => uint256)",
        "numberOfBytes": "32",
        "value": "t_uint256"
      },
      "t_mapping(t_uint256,t_struct(Checkpoint)3804_storage)": {
        "encoding": "mapping",
        "key": "t_uint256",
        "label": "mapping(uint256 => struct Karsha.Checkpoint)",
        "numberOfBytes": "32",
        "value": "t_struct(Checkpoint)3804_storage"
      },
      "t_string_storage": {
        "encoding": "bytes",
        "label": "string",
        "numberOfBytes": "32"
      },
      "t_struct(Checkpoint)3804_storage": {
        "encoding": "inplace",
        "label": "struct Karsha.Checkpoint",
        "members": [
          {
            "astId": 3801,
            "contract": "contracts/governance/Karsha.sol:Karsha",
            "label": "fromBlock",
            "offset": 0,
            "slot": "0",
            "type": "t_uint256"
          },
          {
            "astId": 3803,
            "contract": "contracts/governance/Karsha.sol:Karsha",
            "label": "votes",
            "offset": 0,
            "slot": "1",
            "type": "t_uint256"
          }
        ],
        "numberOfBytes": "64"
      },
      "t_uint256": {
        "encoding": "inplace",
        "label": "uint256",
        "numberOfBytes": "32"
      }
    }
  }
}