{
  "address": "0x008D2f11DC03F39A67eD149ee4558490D6595220",
  "abi": [
    {
      "inputs": [
        {
          "internalType": "address",
          "name": "_treasury",
          "type": "address"
        },
        {
          "internalType": "address",
          "name": "_pana",
          "type": "address"
        },
        {
          "internalType": "address",
          "name": "_staking",
          "type": "address"
        },
        {
          "internalType": "address",
          "name": "_authority",
          "type": "address"
        }
      ],
      "stateMutability": "nonpayable",
      "type": "constructor"
    },
    {
      "anonymous": false,
      "inputs": [
        {
          "indexed": true,
          "internalType": "contract IPanaAuthority",
          "name": "authority",
          "type": "address"
        }
      ],
      "name": "AuthorityUpdated",
      "type": "event"
    },
    {
      "inputs": [
        {
          "internalType": "address",
          "name": "_recipient",
          "type": "address"
        },
        {
          "internalType": "uint256",
          "name": "_rewardRate",
          "type": "uint256"
        },
        {
          "internalType": "bool",
          "name": "_fixedAPY",
          "type": "bool"
        }
      ],
      "name": "addRecipient",
      "outputs": [],
      "stateMutability": "nonpayable",
      "type": "function"
    },
    {
      "inputs": [
        {
          "internalType": "uint256",
          "name": "",
          "type": "uint256"
        }
      ],
      "name": "adjustments",
      "outputs": [
        {
          "internalType": "bool",
          "name": "add",
          "type": "bool"
        },
        {
          "internalType": "uint256",
          "name": "rate",
          "type": "uint256"
        },
        {
          "internalType": "uint256",
          "name": "target",
          "type": "uint256"
        }
      ],
      "stateMutability": "view",
      "type": "function"
    },
    {
      "inputs": [],
      "name": "authority",
      "outputs": [
        {
          "internalType": "contract IPanaAuthority",
          "name": "",
          "type": "address"
        }
      ],
      "stateMutability": "view",
      "type": "function"
    },
    {
      "inputs": [],
      "name": "bounty",
      "outputs": [
        {
          "internalType": "uint256",
          "name": "",
          "type": "uint256"
        }
      ],
      "stateMutability": "view",
      "type": "function"
    },
    {
      "inputs": [],
      "name": "distribute",
      "outputs": [],
      "stateMutability": "nonpayable",
      "type": "function"
    },
    {
      "inputs": [
        {
          "internalType": "uint256",
          "name": "",
          "type": "uint256"
        }
      ],
      "name": "info",
      "outputs": [
        {
          "internalType": "uint256",
          "name": "rate",
          "type": "uint256"
        },
        {
          "internalType": "address",
          "name": "recipient",
          "type": "address"
        },
        {
          "internalType": "bool",
          "name": "fixedAPY",
          "type": "bool"
        }
      ],
      "stateMutability": "view",
      "type": "function"
    },
    {
      "inputs": [
        {
          "internalType": "uint256",
          "name": "_rate",
          "type": "uint256"
        },
        {
          "internalType": "bool",
          "name": "_fixedAPY",
          "type": "bool"
        }
      ],
      "name": "nextRewardAt",
      "outputs": [
        {
          "internalType": "uint256",
          "name": "",
          "type": "uint256"
        }
      ],
      "stateMutability": "view",
      "type": "function"
    },
    {
      "inputs": [
        {
          "internalType": "address",
          "name": "_recipient",
          "type": "address"
        }
      ],
      "name": "nextRewardFor",
      "outputs": [
        {
          "internalType": "uint256",
          "name": "",
          "type": "uint256"
        }
      ],
      "stateMutability": "view",
      "type": "function"
    },
    {
      "inputs": [
        {
          "internalType": "uint256",
          "name": "_index",
          "type": "uint256"
        }
      ],
      "name": "removeRecipient",
      "outputs": [],
      "stateMutability": "nonpayable",
      "type": "function"
    },
    {
      "inputs": [],
      "name": "retrieveBounty",
      "outputs": [
        {
          "internalType": "uint256",
          "name": "",
          "type": "uint256"
        }
      ],
      "stateMutability": "nonpayable",
      "type": "function"
    },
    {
      "inputs": [
        {
          "internalType": "uint256",
          "name": "_index",
          "type": "uint256"
        },
        {
          "internalType": "bool",
          "name": "_add",
          "type": "bool"
        },
        {
          "internalType": "uint256",
          "name": "_rate",
          "type": "uint256"
        },
        {
          "internalType": "uint256",
          "name": "_target",
          "type": "uint256"
        }
      ],
      "name": "setAdjustment",
      "outputs": [],
      "stateMutability": "nonpayable",
      "type": "function"
    },
    {
      "inputs": [
        {
          "internalType": "contract IPanaAuthority",
          "name": "_newAuthority",
          "type": "address"
        }
      ],
      "name": "setAuthority",
      "outputs": [],
      "stateMutability": "nonpayable",
      "type": "function"
    },
    {
      "inputs": [
        {
          "internalType": "uint256",
          "name": "_bounty",
          "type": "uint256"
        }
      ],
      "name": "setBounty",
      "outputs": [],
      "stateMutability": "nonpayable",
      "type": "function"
    }
  ],
  "transactionHash": "0xa8d65f3e7b4433ff5945840187f19d85065b69c76b4e6a6c29cf20021f53fa6b",
  "args": [
    "0x1875794551585d349b916deA2F45e0c14cF4929d",
    "0x369eB8197062093a20402935D3a707b4aE414E9D",
    "0x6bAf949BE348F6DF135Df9DC15102971654749fe",
    "0xcc654fbB3C1B12Be82D36Bc9C7E1CE075A422F80"
  ],
  "solcInputHash": "dd129afb7ea71da05b99137f81b53eb5",
  "bytecode": "0x610140604052600c6101008190526b15539055551213d49256915160a21b61012090815262000032916000919062000218565b50633b9aca0060e0523480156200004857600080fd5b5060405162001b4338038062001b43833981810160405260808110156200006e57600080fd5b5080516020820151604080840151606090940151600180546001600160a01b0319166001600160a01b038316908117909155915193949293909182917f2f658b440c35314f52658ea8a740e05b284cdc84dc9ae01e891f21b8933e7cad90600090a2506001600160a01b0384166200012d576040805162461bcd60e51b815260206004820152601660248201527f5a65726f20616464726573733a20547265617375727900000000000000000000604482015290519081900360640190fd5b6001600160601b0319606085901b1660a0526001600160a01b03831662000190576040805162461bcd60e51b81526020600482015260126024820152715a65726f20616464726573733a2050414e4160701b604482015290519081900360640190fd5b6001600160601b0319606084901b166080526001600160a01b038216620001fe576040805162461bcd60e51b815260206004820152601560248201527f5a65726f20616464726573733a205374616b696e670000000000000000000000604482015290519081900360640190fd5b5060601b6001600160601b03191660c05250620002c49050565b828054600181600116156101000203166002900490600052602060002090601f0160209004810192826200025057600085556200029b565b82601f106200026b57805160ff19168380011785556200029b565b828001600101855582156200029b579182015b828111156200029b5782518255916020019190600101906200027e565b50620002a9929150620002ad565b5090565b5b80821115620002a95760008155600101620002ae565b60805160601c60a05160601c60c05160601c60e05161182262000321600039806102d3528061039352806106945250806102f8528061107e528061121252806112ac5250806103b85280611129528061127d5250506118226000f3fe608060405234801561001057600080fd5b50600436106100df5760003560e01c80637a9e5e4b1161008c578063bc3b2b1211610066578063bc3b2b1214610255578063bf7e214f14610292578063e4fc6b6d146102b6578063e7187e8a146102be576100df565b80637a9e5e4b1461020a5780638e69e25514610230578063943dfef11461024d576100df565b806351ce9543116100bd57806351ce9543146101865780635d87d363146101bc5780635db854b0146101d9576100df565b806302c15f43146100e45780632e3405991461011b57806336d33f4414610160575b600080fd5b610109600480360360408110156100fa57600080fd5b508035906020013515156102c6565b60408051918252519081900360200190f35b6101386004803603602081101561013157600080fd5b5035610415565b604080519384526001600160a01b039092166020840152151582820152519081900360600190f35b6101096004803603602081101561017657600080fd5b50356001600160a01b0316610458565b6101ba6004803603606081101561019c57600080fd5b506001600160a01b0381351690602081013590604001351515610511565b005b6101ba600480360360208110156101d257600080fd5b50356107e9565b6101ba600480360360808110156101ef57600080fd5b50803590602081013515159060408101359060600135610933565b6101ba6004803603602081101561022057600080fd5b50356001600160a01b0316610cba565b6101ba6004803603602081101561024657600080fd5b5035610dfd565b610109611038565b6102726004803603602081101561026b57600080fd5b503561103e565b604080519315158452602084019290925282820152519081900360600190f35b61029a611064565b604080516001600160a01b039092168252519081900360200190f35b6101ba611073565b610109611205565b6000811561038e576103877f0000000000000000000000000000000000000000000000000000000000000000610381857f00000000000000000000000000000000000000000000000000000000000000006001600160a01b031663f377e7cf6040518163ffffffff1660e01b815260040160206040518083038186803b15801561034f57600080fd5b505afa158015610363573d6000803e3d6000fd5b505050506040513d602081101561037957600080fd5b505190611334565b90611394565b905061040f565b6103877f0000000000000000000000000000000000000000000000000000000000000000610381857f00000000000000000000000000000000000000000000000000000000000000006001600160a01b031663860f50486040518163ffffffff1660e01b815260040160206040518083038186803b15801561034f57600080fd5b92915050565b6004818154811061042557600080fd5b6000918252602090912060029091020180546001909101549091506001600160a01b03811690600160a01b900460ff1683565b60008060005b60045481101561050a57836001600160a01b03166004828154811061047f57fe5b60009182526020909120600160029092020101546001600160a01b03161415610502576104ff6104f8600483815481106104b557fe5b906000526020600020906002020160000154600484815481106104d457fe5b906000526020600020906002020160010160149054906101000a900460ff166102c6565b83906113d6565b91505b60010161045e565b5092915050565b600160009054906101000a90046001600160a01b03166001600160a01b0316630c340a246040518163ffffffff1660e01b815260040160206040518083038186803b15801561055f57600080fd5b505afa158015610573573d6000803e3d6000fd5b505050506040513d602081101561058957600080fd5b50516000906001600160a01b031633146106365760405162461bcd60e51b81526020600482019081528254600260001961010060018416150201909116046024830181905290918291604490910190849080156106275780601f106105fc57610100808354040283529160200191610627565b820191906000526020600020905b81548152906001019060200180831161060a57829003601f168201915b50509250505060405180910390fd5b506001600160a01b038316610692576040805162461bcd60e51b815260206004820152601760248201527f5a65726f20616464726573733a20526563697069656e74000000000000000000604482015290519081900360640190fd5b7f0000000000000000000000000000000000000000000000000000000000000000821115610707576040805162461bcd60e51b815260206004820152601e60248201527f526174652063616e6e6f74206578636565642064656e6f6d696e61746f720000604482015290519081900360640190fd5b604080516060810182529283526001600160a01b03938416602084019081529115159083019081526004805460018101825560009190915292517f8a35acfbc15ff81a39ae7d344fd709f28e8600b4aa8c65c6b64bfe7fe36bd19b60029094029384015590517f8a35acfbc15ff81a39ae7d344fd709f28e8600b4aa8c65c6b64bfe7fe36bd19c9092018054915173ffffffffffffffffffffffffffffffffffffffff1990921692909316919091177fffffffffffffffffffffff00ffffffffffffffffffffffffffffffffffffffff16600160a01b91151591909102179055565b600160009054906101000a90046001600160a01b03166001600160a01b0316630c340a246040518163ffffffff1660e01b815260040160206040518083038186803b15801561083757600080fd5b505afa15801561084b573d6000803e3d6000fd5b505050506040513d602081101561086157600080fd5b50516000906001600160a01b031633146108d45760405162461bcd60e51b81526020600482019081528254600260001961010060018416150201909116046024830181905290918291604490910190849080156106275780601f106105fc57610100808354040283529160200191610627565b50637735940081111561092e576040805162461bcd60e51b815260206004820152600860248201527f546f6f206d756368000000000000000000000000000000000000000000000000604482015290519081900360640190fd5b600355565b600160009054906101000a90046001600160a01b03166001600160a01b0316630c340a246040518163ffffffff1660e01b815260040160206040518083038186803b15801561098157600080fd5b505afa158015610995573d6000803e3d6000fd5b505050506040513d60208110156109ab57600080fd5b50516001600160a01b0316331480610a445750600160009054906101000a90046001600160a01b03166001600160a01b031663452a93206040518163ffffffff1660e01b815260040160206040518083038186803b158015610a0c57600080fd5b505afa158015610a20573d6000803e3d6000fd5b505050506040513d6020811015610a3657600080fd5b50516001600160a01b031633145b610a7f5760405162461bcd60e51b81526004018080602001828103825260228152602001806117a46022913960400191505060405180910390fd5b60006001600160a01b031660048581548110610a9757fe5b60009182526020909120600160029092020101546001600160a01b03161415610b07576040805162461bcd60e51b815260206004820152601860248201527f526563697069656e7420646f6573206e6f742065786973740000000000000000604482015290519081900360640190fd5b600160009054906101000a90046001600160a01b03166001600160a01b0316630c340a246040518163ffffffff1660e01b815260040160206040518083038186803b158015610b5557600080fd5b505afa158015610b69573d6000803e3d6000fd5b505050506040513d6020811015610b7f57600080fd5b50516001600160a01b03163314610c1357610bbf6103e8610381601960048881548110610ba857fe5b600091825260209091206002909102015490611334565b821115610c13576040805162461bcd60e51b815260206004820152601f60248201527f4c696d697465723a2063616e6e6f742061646a757374206279203e322e352500604482015290519081900360640190fd5b82610c755760048481548110610c2557fe5b906000526020600020906002020160000154821115610c755760405162461bcd60e51b815260040180806020018281038252602f8152602001806117e7602f913960400191505060405180910390fd5b6040805160608101825293151584526020808501938452848201928352600095865260029081905294209251835460ff19169015151783559051600183015551910155565b600160009054906101000a90046001600160a01b03166001600160a01b0316630c340a246040518163ffffffff1660e01b815260040160206040518083038186803b158015610d0857600080fd5b505afa158015610d1c573d6000803e3d6000fd5b505050506040513d6020811015610d3257600080fd5b50516000906001600160a01b03163314610da55760405162461bcd60e51b81526020600482019081528254600260001961010060018416150201909116046024830181905290918291604490910190849080156106275780601f106105fc57610100808354040283529160200191610627565b506001805473ffffffffffffffffffffffffffffffffffffffff19166001600160a01b0383169081179091556040517f2f658b440c35314f52658ea8a740e05b284cdc84dc9ae01e891f21b8933e7cad90600090a250565b600160009054906101000a90046001600160a01b03166001600160a01b0316630c340a246040518163ffffffff1660e01b815260040160206040518083038186803b158015610e4b57600080fd5b505afa158015610e5f573d6000803e3d6000fd5b505050506040513d6020811015610e7557600080fd5b50516001600160a01b0316331480610f0e5750600160009054906101000a90046001600160a01b03166001600160a01b031663452a93206040518163ffffffff1660e01b815260040160206040518083038186803b158015610ed657600080fd5b505afa158015610eea573d6000803e3d6000fd5b505050506040513d6020811015610f0057600080fd5b50516001600160a01b031633145b610f495760405162461bcd60e51b81526004018080602001828103825260228152602001806117a46022913960400191505060405180910390fd5b60006001600160a01b031660048281548110610f6157fe5b60009182526020909120600160029092020101546001600160a01b03161415610fd1576040805162461bcd60e51b815260206004820152601860248201527f526563697069656e7420646f6573206e6f742065786973740000000000000000604482015290519081900360640190fd5b600060048281548110610fe057fe5b906000526020600020906002020160010160006101000a8154816001600160a01b0302191690836001600160a01b0316021790555060006004828154811061102457fe5b600091825260209091206002909102015550565b60035481565b600260208190526000918252604090912080546001820154919092015460ff9092169183565b6001546001600160a01b031681565b336001600160a01b037f000000000000000000000000000000000000000000000000000000000000000016146110df576040805162461bcd60e51b815260206004820152600c60248201526b4f6e6c79207374616b696e6760a01b604482015290519081900360640190fd5b60005b600454811015611202576000600482815481106110fb57fe5b90600052602060002090600202016000015411156111fa576000611125600483815481106104b557fe5b90507f00000000000000000000000000000000000000000000000000000000000000006001600160a01b03166340c10f196004848154811061116357fe5b60009182526020822060016002909202010154604080517fffffffff0000000000000000000000000000000000000000000000000000000060e086901b1681526001600160a01b03909216600483015260248201869052516044808301939282900301818387803b1580156111d757600080fd5b505af11580156111eb573d6000803e3d6000fd5b505050506111f882611430565b505b6001016110e2565b50565b6000336001600160a01b037f00000000000000000000000000000000000000000000000000000000000000001614611273576040805162461bcd60e51b815260206004820152600c60248201526b4f6e6c79207374616b696e6760a01b604482015290519081900360640190fd5b6003541561132d577f00000000000000000000000000000000000000000000000000000000000000006001600160a01b03166340c10f197f00000000000000000000000000000000000000000000000000000000000000006003546040518363ffffffff1660e01b815260040180836001600160a01b0316815260200182815260200192505050600060405180830381600087803b15801561131457600080fd5b505af1158015611328573d6000803e3d6000fd5b505050505b5060035490565b6000826113435750600061040f565b8282028284828161135057fe5b041461138d5760405162461bcd60e51b81526004018080602001828103825260218152602001806117c66021913960400191505060405180910390fd5b9392505050565b600061138d83836040518060400160405280601a81526020017f536166654d6174683a206469766973696f6e206279207a65726f000000000000815250611630565b60008282018381101561138d576040805162461bcd60e51b815260206004820152601b60248201527f536166654d6174683a206164646974696f6e206f766572666c6f770000000000604482015290519081900360640190fd5b611438611780565b506000818152600260208181526040928390208351606081018552815460ff1615158152600182015492810183905292015492820192909252901561162c57805115611530576114aa81602001516004848154811061149357fe5b6000918252602090912060029091020154906113d6565b600483815481106114b757fe5b6000918252602090912060029091020155604081015160048054849081106114db57fe5b9060005260206000209060020201600001541061152b5760008281526002602052604080822060010191909155810151600480548490811061151957fe5b60009182526020909120600290910201555b61162c565b80602001516004838154811061154257fe5b90600052602060002090600202016000015411156115a95761158681602001516004848154811061156f57fe5b6000918252602090912060029091020154906116e9565b6004838154811061159357fe5b60009182526020909120600290910201556115ca565b6000600483815481106115b857fe5b60009182526020909120600290910201555b8060400151600483815481106115dc57fe5b9060005260206000209060020201600001541161162c5760008281526002602052604080822060010191909155810151600480548490811061161a57fe5b60009182526020909120600290910201555b5050565b600081836116bc5760405162461bcd60e51b81526004018080602001828103825283818151815260200191508051906020019080838360005b83811015611681578181015183820152602001611669565b50505050905090810190601f1680156116ae5780820380516001836020036101000a031916815260200191505b509250505060405180910390fd5b5060008385816116c857fe5b0490508385816116d457fe5b068185020185146116e157fe5b949350505050565b600061138d83836040518060400160405280601e81526020017f536166654d6174683a207375627472616374696f6e206f766572666c6f770000815250600081848411156117785760405162461bcd60e51b8152602060048201818152835160248401528351909283926044909101919085019080838360008315611681578181015183820152602001611669565b505050900390565b60405180606001604052806000151581526020016000815260200160008152509056fe43616c6c6572206973206e6f7420676f7665726e6f72206f7220677561726469616e536166654d6174683a206d756c7469706c69636174696f6e206f766572666c6f7743616e6e6f742064656372656173652072617465206279206d6f7265207468616e20697420616c7265616479206973a164736f6c6343000705000a",
  "devdoc": {
    "kind": "dev",
    "methods": {
      "addRecipient(address,uint256,bool)": {
        "params": {
          "_recipient": "address",
          "_rewardRate": "uint"
        }
      },
      "nextRewardAt(uint256,bool)": {
        "params": {
          "_rate": "uint"
        },
        "returns": {
          "_0": "uint"
        }
      },
      "nextRewardFor(address)": {
        "params": {
          "_recipient": "address"
        },
        "returns": {
          "_0": "uint"
        }
      },
      "removeRecipient(uint256)": {
        "params": {
          "_index": "uint"
        }
      },
      "setAdjustment(uint256,bool,uint256,uint256)": {
        "params": {
          "_add": "bool",
          "_index": "uint",
          "_rate": "uint",
          "_target": "uint"
        }
      },
      "setBounty(uint256)": {
        "params": {
          "_bounty": "uint256"
        }
      }
    },
    "version": 1
  },
  "userdoc": {
    "kind": "user",
    "methods": {
      "addRecipient(address,uint256,bool)": {
        "notice": "adds recipient for distributions"
      },
      "distribute()": {
        "notice": "send epoch reward to staking contract"
      },
      "nextRewardAt(uint256,bool)": {
        "notice": "view function for next reward at given rate"
      },
      "nextRewardFor(address)": {
        "notice": "view function for next reward for specified address"
      },
      "removeRecipient(uint256)": {
        "notice": "removes recipient for distributions"
      },
      "setAdjustment(uint256,bool,uint256,uint256)": {
        "notice": "set adjustment info for a collector's reward rate"
      },
      "setBounty(uint256)": {
        "notice": "set bounty to incentivize keepers"
      }
    },
    "version": 1
  },
  "storageLayout": {
    "storage": [
      {
        "astId": 314,
        "contract": "contracts/staking/StakingDistributorV2.sol:DistributorV2",
        "label": "UNAUTHORIZED",
        "offset": 0,
        "slot": "0",
        "type": "t_string_storage"
      },
      {
        "astId": 316,
        "contract": "contracts/staking/StakingDistributorV2.sol:DistributorV2",
        "label": "authority",
        "offset": 0,
        "slot": "1",
        "type": "t_contract(IPanaAuthority)2684"
      },
      {
        "astId": 6930,
        "contract": "contracts/staking/StakingDistributorV2.sol:DistributorV2",
        "label": "adjustments",
        "offset": 0,
        "slot": "2",
        "type": "t_mapping(t_uint256,t_struct(Adjust)6953_storage)"
      },
      {
        "astId": 6933,
        "contract": "contracts/staking/StakingDistributorV2.sol:DistributorV2",
        "label": "bounty",
        "offset": 0,
        "slot": "3",
        "type": "t_uint256"
      },
      {
        "astId": 6946,
        "contract": "contracts/staking/StakingDistributorV2.sol:DistributorV2",
        "label": "info",
        "offset": 0,
        "slot": "4",
        "type": "t_array(t_struct(Info)6943_storage)dyn_storage"
      }
    ],
    "types": {
      "t_address": {
        "encoding": "inplace",
        "label": "address",
        "numberOfBytes": "20"
      },
      "t_array(t_struct(Info)6943_storage)dyn_storage": {
        "base": "t_struct(Info)6943_storage",
        "encoding": "dynamic_array",
        "label": "struct DistributorV2.Info[]",
        "numberOfBytes": "32"
      },
      "t_bool": {
        "encoding": "inplace",
        "label": "bool",
        "numberOfBytes": "1"
      },
      "t_contract(IPanaAuthority)2684": {
        "encoding": "inplace",
        "label": "contract IPanaAuthority",
        "numberOfBytes": "20"
      },
      "t_mapping(t_uint256,t_struct(Adjust)6953_storage)": {
        "encoding": "mapping",
        "key": "t_uint256",
        "label": "mapping(uint256 => struct DistributorV2.Adjust)",
        "numberOfBytes": "32",
        "value": "t_struct(Adjust)6953_storage"
      },
      "t_string_storage": {
        "encoding": "bytes",
        "label": "string",
        "numberOfBytes": "32"
      },
      "t_struct(Adjust)6953_storage": {
        "encoding": "inplace",
        "label": "struct DistributorV2.Adjust",
        "members": [
          {
            "astId": 6948,
            "contract": "contracts/staking/StakingDistributorV2.sol:DistributorV2",
            "label": "add",
            "offset": 0,
            "slot": "0",
            "type": "t_bool"
          },
          {
            "astId": 6950,
            "contract": "contracts/staking/StakingDistributorV2.sol:DistributorV2",
            "label": "rate",
            "offset": 0,
            "slot": "1",
            "type": "t_uint256"
          },
          {
            "astId": 6952,
            "contract": "contracts/staking/StakingDistributorV2.sol:DistributorV2",
            "label": "target",
            "offset": 0,
            "slot": "2",
            "type": "t_uint256"
          }
        ],
        "numberOfBytes": "96"
      },
      "t_struct(Info)6943_storage": {
        "encoding": "inplace",
        "label": "struct DistributorV2.Info",
        "members": [
          {
            "astId": 6938,
            "contract": "contracts/staking/StakingDistributorV2.sol:DistributorV2",
            "label": "rate",
            "offset": 0,
            "slot": "0",
            "type": "t_uint256"
          },
          {
            "astId": 6940,
            "contract": "contracts/staking/StakingDistributorV2.sol:DistributorV2",
            "label": "recipient",
            "offset": 0,
            "slot": "1",
            "type": "t_address"
          },
          {
            "astId": 6942,
            "contract": "contracts/staking/StakingDistributorV2.sol:DistributorV2",
            "label": "fixedAPY",
            "offset": 20,
            "slot": "1",
            "type": "t_bool"
          }
        ],
        "numberOfBytes": "64"
      },
      "t_uint256": {
        "encoding": "inplace",
        "label": "uint256",
        "numberOfBytes": "32"
      }
    }
  }
}