{
  "address": "0x543ff59E8BC8844DcB2FC5116D8FF972305aE0d4",
  "abi": [
    {
      "inputs": [
        {
          "internalType": "address",
          "name": "_staking",
          "type": "address"
        },
        {
          "internalType": "address",
          "name": "_sPana",
          "type": "address"
        },
        {
          "internalType": "address",
          "name": "_authority",
          "type": "address"
        }
      ],
      "stateMutability": "nonpayable",
      "type": "constructor"
    },
    {
      "anonymous": false,
      "inputs": [
        {
          "indexed": true,
          "internalType": "address",
          "name": "owner",
          "type": "address"
        },
        {
          "indexed": true,
          "internalType": "address",
          "name": "spender",
          "type": "address"
        },
        {
          "indexed": false,
          "internalType": "uint256",
          "name": "value",
          "type": "uint256"
        }
      ],
      "name": "Approval",
      "type": "event"
    },
    {
      "anonymous": false,
      "inputs": [
        {
          "indexed": true,
          "internalType": "contract IPanaAuthority",
          "name": "authority",
          "type": "address"
        }
      ],
      "name": "AuthorityUpdated",
      "type": "event"
    },
    {
      "anonymous": false,
      "inputs": [
        {
          "indexed": true,
          "internalType": "address",
          "name": "delegator",
          "type": "address"
        },
        {
          "indexed": true,
          "internalType": "address",
          "name": "fromDelegate",
          "type": "address"
        },
        {
          "indexed": true,
          "internalType": "address",
          "name": "toDelegate",
          "type": "address"
        }
      ],
      "name": "DelegateChanged",
      "type": "event"
    },
    {
      "anonymous": false,
      "inputs": [
        {
          "indexed": true,
          "internalType": "address",
          "name": "delegate",
          "type": "address"
        },
        {
          "indexed": false,
          "internalType": "uint256",
          "name": "previousBalance",
          "type": "uint256"
        },
        {
          "indexed": false,
          "internalType": "uint256",
          "name": "newBalance",
          "type": "uint256"
        }
      ],
      "name": "DelegateVotesChanged",
      "type": "event"
    },
    {
      "anonymous": false,
      "inputs": [
        {
          "indexed": true,
          "internalType": "address",
          "name": "from",
          "type": "address"
        },
        {
          "indexed": true,
          "internalType": "address",
          "name": "to",
          "type": "address"
        },
        {
          "indexed": false,
          "internalType": "uint256",
          "name": "value",
          "type": "uint256"
        }
      ],
      "name": "Transfer",
      "type": "event"
    },
    {
      "inputs": [
        {
          "internalType": "address",
          "name": "owner",
          "type": "address"
        },
        {
          "internalType": "address",
          "name": "spender",
          "type": "address"
        }
      ],
      "name": "allowance",
      "outputs": [
        {
          "internalType": "uint256",
          "name": "",
          "type": "uint256"
        }
      ],
      "stateMutability": "view",
      "type": "function"
    },
    {
      "inputs": [
        {
          "internalType": "address",
          "name": "spender",
          "type": "address"
        },
        {
          "internalType": "uint256",
          "name": "amount",
          "type": "uint256"
        }
      ],
      "name": "approve",
      "outputs": [
        {
          "internalType": "bool",
          "name": "",
          "type": "bool"
        }
      ],
      "stateMutability": "nonpayable",
      "type": "function"
    },
    {
      "inputs": [],
      "name": "authority",
      "outputs": [
        {
          "internalType": "contract IPanaAuthority",
          "name": "",
          "type": "address"
        }
      ],
      "stateMutability": "view",
      "type": "function"
    },
    {
      "inputs": [
        {
          "internalType": "uint256",
          "name": "_amount",
          "type": "uint256"
        }
      ],
      "name": "balanceFrom",
      "outputs": [
        {
          "internalType": "uint256",
          "name": "",
          "type": "uint256"
        }
      ],
      "stateMutability": "view",
      "type": "function"
    },
    {
      "inputs": [
        {
          "internalType": "address",
          "name": "account",
          "type": "address"
        }
      ],
      "name": "balanceOf",
      "outputs": [
        {
          "internalType": "uint256",
          "name": "",
          "type": "uint256"
        }
      ],
      "stateMutability": "view",
      "type": "function"
    },
    {
      "inputs": [
        {
          "internalType": "address",
          "name": "_address",
          "type": "address"
        }
      ],
      "name": "balanceOfPANA",
      "outputs": [
        {
          "internalType": "uint256",
          "name": "",
          "type": "uint256"
        }
      ],
      "stateMutability": "view",
      "type": "function"
    },
    {
      "inputs": [
        {
          "internalType": "uint256",
          "name": "_amount",
          "type": "uint256"
        }
      ],
      "name": "balanceTo",
      "outputs": [
        {
          "internalType": "uint256",
          "name": "",
          "type": "uint256"
        }
      ],
      "stateMutability": "view",
      "type": "function"
    },
    {
      "inputs": [
        {
          "internalType": "address",
          "name": "_from",
          "type": "address"
        },
        {
          "internalType": "uint256",
          "name": "_amount",
          "type": "uint256"
        }
      ],
      "name": "burn",
      "outputs": [],
      "stateMutability": "nonpayable",
      "type": "function"
    },
    {
      "inputs": [
        {
          "internalType": "address",
          "name": "",
          "type": "address"
        },
        {
          "internalType": "uint256",
          "name": "",
          "type": "uint256"
        }
      ],
      "name": "checkpoints",
      "outputs": [
        {
          "internalType": "uint256",
          "name": "fromBlock",
          "type": "uint256"
        },
        {
          "internalType": "uint256",
          "name": "votes",
          "type": "uint256"
        }
      ],
      "stateMutability": "view",
      "type": "function"
    },
    {
      "inputs": [],
      "name": "decimals",
      "outputs": [
        {
          "internalType": "uint8",
          "name": "",
          "type": "uint8"
        }
      ],
      "stateMutability": "view",
      "type": "function"
    },
    {
      "inputs": [
        {
          "internalType": "address",
          "name": "spender",
          "type": "address"
        },
        {
          "internalType": "uint256",
          "name": "subtractedValue",
          "type": "uint256"
        }
      ],
      "name": "decreaseAllowance",
      "outputs": [
        {
          "internalType": "bool",
          "name": "",
          "type": "bool"
        }
      ],
      "stateMutability": "nonpayable",
      "type": "function"
    },
    {
      "inputs": [
        {
          "internalType": "address",
          "name": "delegatee",
          "type": "address"
        }
      ],
      "name": "delegate",
      "outputs": [],
      "stateMutability": "nonpayable",
      "type": "function"
    },
    {
      "inputs": [
        {
          "internalType": "address",
          "name": "",
          "type": "address"
        }
      ],
      "name": "delegates",
      "outputs": [
        {
          "internalType": "address",
          "name": "",
          "type": "address"
        }
      ],
      "stateMutability": "view",
      "type": "function"
    },
    {
      "inputs": [
        {
          "internalType": "address",
          "name": "account",
          "type": "address"
        }
      ],
      "name": "getCurrentVotes",
      "outputs": [
        {
          "internalType": "uint256",
          "name": "",
          "type": "uint256"
        }
      ],
      "stateMutability": "view",
      "type": "function"
    },
    {
      "inputs": [
        {
          "internalType": "address",
          "name": "account",
          "type": "address"
        },
        {
          "internalType": "uint256",
          "name": "blockNumber",
          "type": "uint256"
        }
      ],
      "name": "getPriorVotes",
      "outputs": [
        {
          "internalType": "uint256",
          "name": "",
          "type": "uint256"
        }
      ],
      "stateMutability": "view",
      "type": "function"
    },
    {
      "inputs": [
        {
          "internalType": "address",
          "name": "spender",
          "type": "address"
        },
        {
          "internalType": "uint256",
          "name": "addedValue",
          "type": "uint256"
        }
      ],
      "name": "increaseAllowance",
      "outputs": [
        {
          "internalType": "bool",
          "name": "",
          "type": "bool"
        }
      ],
      "stateMutability": "nonpayable",
      "type": "function"
    },
    {
      "inputs": [],
      "name": "index",
      "outputs": [
        {
          "internalType": "uint256",
          "name": "",
          "type": "uint256"
        }
      ],
      "stateMutability": "view",
      "type": "function"
    },
    {
      "inputs": [
        {
          "internalType": "address",
          "name": "_to",
          "type": "address"
        },
        {
          "internalType": "uint256",
          "name": "_amount",
          "type": "uint256"
        }
      ],
      "name": "mint",
      "outputs": [],
      "stateMutability": "nonpayable",
      "type": "function"
    },
    {
      "inputs": [],
      "name": "name",
      "outputs": [
        {
          "internalType": "string",
          "name": "",
          "type": "string"
        }
      ],
      "stateMutability": "view",
      "type": "function"
    },
    {
      "inputs": [
        {
          "internalType": "address",
          "name": "",
          "type": "address"
        }
      ],
      "name": "numCheckpoints",
      "outputs": [
        {
          "internalType": "uint256",
          "name": "",
          "type": "uint256"
        }
      ],
      "stateMutability": "view",
      "type": "function"
    },
    {
      "inputs": [],
      "name": "sPANA",
      "outputs": [
        {
          "internalType": "contract IsPana",
          "name": "",
          "type": "address"
        }
      ],
      "stateMutability": "view",
      "type": "function"
    },
    {
      "inputs": [
        {
          "internalType": "contract IPanaAuthority",
          "name": "_newAuthority",
          "type": "address"
        }
      ],
      "name": "setAuthority",
      "outputs": [],
      "stateMutability": "nonpayable",
      "type": "function"
    },
    {
      "inputs": [
        {
          "internalType": "address",
          "name": "_newStaking",
          "type": "address"
        }
      ],
      "name": "setStaking",
      "outputs": [],
      "stateMutability": "nonpayable",
      "type": "function"
    },
    {
      "inputs": [],
      "name": "staking",
      "outputs": [
        {
          "internalType": "address",
          "name": "",
          "type": "address"
        }
      ],
      "stateMutability": "view",
      "type": "function"
    },
    {
      "inputs": [],
      "name": "symbol",
      "outputs": [
        {
          "internalType": "string",
          "name": "",
          "type": "string"
        }
      ],
      "stateMutability": "view",
      "type": "function"
    },
    {
      "inputs": [],
      "name": "totalSupply",
      "outputs": [
        {
          "internalType": "uint256",
          "name": "",
          "type": "uint256"
        }
      ],
      "stateMutability": "view",
      "type": "function"
    },
    {
      "inputs": [
        {
          "internalType": "address",
          "name": "_to",
          "type": "address"
        },
        {
          "internalType": "uint256",
          "name": "_amount",
          "type": "uint256"
        }
      ],
      "name": "transfer",
      "outputs": [
        {
          "internalType": "bool",
          "name": "",
          "type": "bool"
        }
      ],
      "stateMutability": "nonpayable",
      "type": "function"
    },
    {
      "inputs": [
        {
          "internalType": "address",
          "name": "sender",
          "type": "address"
        },
        {
          "internalType": "address",
          "name": "recipient",
          "type": "address"
        },
        {
          "internalType": "uint256",
          "name": "amount",
          "type": "uint256"
        }
      ],
      "name": "transferFrom",
      "outputs": [
        {
          "internalType": "bool",
          "name": "",
          "type": "bool"
        }
      ],
      "stateMutability": "nonpayable",
      "type": "function"
    }
  ],
  "transactionHash": "0x3d1866a31c0fffd0ec65b2aab9322f684526a65862e9a07c3e643984c7c0325e",
  "args": [
    "0x02A3babda298d348Dea69DA98B2F6a7F4Df31e42",
    "0xC2786A608B8bA6F9dF87D8e0b8777BF158b61093",
    "0xcc654fbB3C1B12Be82D36Bc9C7E1CE075A422F80"
  ],
  "solcInputHash": "f1c5ba0c2b23c01374f9df221a4721e8",
  "bytecode": "0x60e0604052600c60a08190526b15539055551213d49256915160a21b60c09081526200002f9160059190620001d5565b503480156200003d57600080fd5b5060405162001e7338038062001e73833981810160405260608110156200006357600080fd5b508051602080830151604093840151845180860186526006808252654b617273686160d01b8286019081528751808901909852908752654b415253484160d01b94870194909452805194959294919384939192601291620000c89160039190620001d5565b508151620000de906004906020850190620001d5565b5060f81b7fff00000000000000000000000000000000000000000000000000000000000000166080525050600680546001600160a01b0319166001600160a01b0383169081179091556040517f2f658b440c35314f52658ea8a740e05b284cdc84dc9ae01e891f21b8933e7cad90600090a2506001600160a01b038216620001ad576040805162461bcd60e51b815260206004820152601360248201527f5a65726f20616464726573733a207350414e4100000000000000000000000000604482015290519081900360640190fd5b50600780546001600160a01b0319166001600160a01b03929092169190911790555062000281565b828054600181600116156101000203166002900490600052602060002090601f0160209004810192826200020d576000855562000258565b82601f106200022857805160ff191683800117855562000258565b8280016001018555821562000258579182015b82811115620002585782518255916020019190600101906200023b565b50620002669291506200026a565b5090565b5b808211156200026657600081556001016200026b565b60805160f81c611bd46200029f600039806107ca5250611bd46000f3fe608060405234801561001057600080fd5b50600436106101c45760003560e01c806370a08231116100f9578063a457c2d711610097578063b4b5ea5711610071578063b4b5ea571461059d578063bf7e214f146105c3578063dd62ed3e146105cb578063fa8d1820146105f9576101c4565b8063a457c2d714610528578063a824876814610554578063a9059cbb14610571576101c4565b80638ff39099116100d35780638ff39099146104c657806395d89b41146104ec5780639dc29fac146104f45780639fef32cc14610520576101c4565b806370a082311461044e578063782d6fe1146104745780637a9e5e4b146104a0576101c4565b80633950935111610166578063587cde1e11610140578063587cde1e146103bf5780635c19a95c146103e557806366a5236c1461040b5780636fcfff4514610428576101c4565b8063395093511461034157806340c10f191461036d5780634cf088d91461039b576101c4565b806318160ddd116101a257806318160ddd146102cb57806323b872dd146102e55780632986c0e51461031b578063313ce56714610323576101c4565b806306fdde03146101c9578063095ea7b3146102465780630cdfebfa14610286575b600080fd5b6101d161061f565b6040805160208082528351818301528351919283929083019185019080838360005b8381101561020b5781810151838201526020016101f3565b50505050905090810190601f1680156102385780820380516001836020036101000a031916815260200191505b509250505060405180910390f35b6102726004803603604081101561025c57600080fd5b506001600160a01b0381351690602001356106b5565b604080519115158252519081900360200190f35b6102b26004803603604081101561029c57600080fd5b506001600160a01b0381351690602001356106cc565b6040805192835260208301919091528051918290030190f35b6102d36106f0565b60408051918252519081900360200190f35b610272600480360360608110156102fb57600080fd5b506001600160a01b038135811691602081013590911690604001356106f6565b6102d3610752565b61032b6107c8565b6040805160ff9092168252519081900360200190f35b6102726004803603604081101561035757600080fd5b506001600160a01b0381351690602001356107ec565b6103996004803603604081101561038357600080fd5b506001600160a01b038135169060200135610827565b005b6103a3610883565b604080516001600160a01b039092168252519081900360200190f35b6103a3600480360360208110156103d557600080fd5b50356001600160a01b0316610892565b610399600480360360208110156103fb57600080fd5b50356001600160a01b03166108ad565b6102d36004803603602081101561042157600080fd5b50356108ba565b6102d36004803603602081101561043e57600080fd5b50356001600160a01b03166108e5565b6102d36004803603602081101561046457600080fd5b50356001600160a01b03166108f7565b6102d36004803603604081101561048a57600080fd5b506001600160a01b038135169060200135610912565b610399600480360360208110156104b657600080fd5b50356001600160a01b0316610ad4565b610399600480360360208110156104dc57600080fd5b50356001600160a01b0316610c51565b6101d1610dc7565b6103996004803603604081101561050a57600080fd5b506001600160a01b038135169060200135610e28565b6103a3610ec7565b6102726004803603604081101561053e57600080fd5b506001600160a01b038135169060200135610ed6565b6102d36004803603602081101561056a57600080fd5b5035610f25565b6102726004803603604081101561058757600080fd5b506001600160a01b038135169060200135610f4a565b6102d3600480360360208110156105b357600080fd5b50356001600160a01b0316610fa4565b6103a3610ffb565b6102d3600480360360408110156105e157600080fd5b506001600160a01b038135811691602001351661100a565b6102d36004803603602081101561060f57600080fd5b50356001600160a01b0316611035565b60038054604080516020601f60026000196101006001881615020190951694909404938401819004810282018101909252828152606093909290918301828280156106ab5780601f10610680576101008083540402835291602001916106ab565b820191906000526020600020905b81548152906001019060200180831161068e57829003601f168201915b5050505050905090565b60006106c2338484611048565b5060015b92915050565b60096020908152600092835260408084209091529082529020805460019091015482565b60025490565b600081610702856108f7565b101561073f5760405162461bcd60e51b8152600401808060200182810382526026815260200180611aa16026913960400191505060405180910390fd5b61074a848484611134565b949350505050565b60075460408051632986c0e560e01b815290516000926001600160a01b031691632986c0e5916004808301926020929190829003018186803b15801561079757600080fd5b505afa1580156107ab573d6000803e3d6000fd5b505050506040513d60208110156107c157600080fd5b5051905090565b7f000000000000000000000000000000000000000000000000000000000000000090565b3360008181526001602090815260408083206001600160a01b038716845290915281205490916106c29185906108229086611198565b611048565b6008546001600160a01b03163314610875576040805162461bcd60e51b815260206004820152600c60248201526b4f6e6c79205374616b696e6760a01b604482015290519081900360640190fd5b61087f82826111f2565b5050565b6008546001600160a01b031681565b600b602052600090815260409020546001600160a01b031681565b6108b733826112e2565b50565b60006106c66108c7610752565b6108df6108d26107c8565b859060ff16600a0a61136e565b906113c7565b600a6020526000908152604090205481565b6001600160a01b031660009081526020819052604090205490565b60004382106109525760405162461bcd60e51b8152600401808060200182810382526029815260200180611ac76029913960400191505060405180910390fd5b6001600160a01b0383166000908152600a60205260409020548061097a5760009150506106c6565b6001600160a01b03841660009081526009602090815260408083206000198501845290915290205483106109da576001600160a01b03841660009081526009602090815260408083206000199094018352929052206001015490506106c6565b6001600160a01b0384166000908152600960209081526040808320838052909152902054831015610a0f5760009150506106c6565b600060001982015b81811115610aa4576002828203048103610a2f611a1f565b506001600160a01b03871660009081526009602090815260408083208484528252918290208251808401909352805480845260019091015491830191909152871415610a85576020015194506106c69350505050565b8051871115610a9657819350610a9d565b6001820392505b5050610a17565b506001600160a01b0385166000908152600960209081526040808320938352929052206001015491505092915050565b600660009054906101000a90046001600160a01b03166001600160a01b0316630c340a246040518163ffffffff1660e01b815260040160206040518083038186803b158015610b2257600080fd5b505afa158015610b36573d6000803e3d6000fd5b505050506040513d6020811015610b4c57600080fd5b50516005906001600160a01b03163314610bf95760405162461bcd60e51b8152602060048201908152825460026000196101006001841615020190911604602483018190529091829160449091019084908015610bea5780601f10610bbf57610100808354040283529160200191610bea565b820191906000526020600020905b815481529060010190602001808311610bcd57829003601f168201915b50509250505060405180910390fd5b506006805473ffffffffffffffffffffffffffffffffffffffff19166001600160a01b0383169081179091556040517f2f658b440c35314f52658ea8a740e05b284cdc84dc9ae01e891f21b8933e7cad90600090a250565b600660009054906101000a90046001600160a01b03166001600160a01b0316630c340a246040518163ffffffff1660e01b815260040160206040518083038186803b158015610c9f57600080fd5b505afa158015610cb3573d6000803e3d6000fd5b505050506040513d6020811015610cc957600080fd5b50516005906001600160a01b03163314610d3c5760405162461bcd60e51b8152602060048201908152825460026000196101006001841615020190911604602483018190529091829160449091019084908015610bea5780601f10610bbf57610100808354040283529160200191610bea565b506001600160a01b038116610d98576040805162461bcd60e51b815260206004820152601b60248201527f5a65726f206164647265737320666f756e643a205374616b696e670000000000604482015290519081900360640190fd5b6008805473ffffffffffffffffffffffffffffffffffffffff19166001600160a01b0392909216919091179055565b60048054604080516020601f60026000196101006001881615020190951694909404938401819004810282018101909252828152606093909290918301828280156106ab5780601f10610680576101008083540402835291602001916106ab565b6008546001600160a01b03163314610e76576040805162461bcd60e51b815260206004820152600c60248201526b4f6e6c79205374616b696e6760a01b604482015290519081900360640190fd5b80610e80836108f7565b1015610ebd5760405162461bcd60e51b8152600401808060200182810382526022815260200180611a5d6022913960400191505060405180910390fd5b61087f8282611409565b6007546001600160a01b031681565b60006106c2338461082285604051806060016040528060258152602001611ba3602591393360009081526001602090815260408083206001600160a01b038d1684529091529020549190611505565b60006106c6610f326107c8565b60ff16600a0a6108df610f43610752565b859061136e565b600081610f56336108f7565b1015610f935760405162461bcd60e51b8152600401808060200182810382526026815260200180611aa16026913960400191505060405180910390fd5b610f9d838361159c565b9392505050565b6001600160a01b0381166000908152600a602052604081205480610fc9576000610f9d565b6001600160a01b0383166000908152600960209081526040808320600019850184529091529020600101549392505050565b6006546001600160a01b031681565b6001600160a01b03918216600090815260016020908152604080832093909416825291909152205490565b60006106c6611043836108f7565b610f25565b6001600160a01b03831661108d5760405162461bcd60e51b8152600401808060200182810382526024815260200180611b7f6024913960400191505060405180910390fd5b6001600160a01b0382166110d25760405162461bcd60e51b8152600401808060200182810382526022815260200180611a7f6022913960400191505060405180910390fd5b6001600160a01b03808416600081815260016020908152604080832094871680845294825291829020859055815185815291517f8c5be1e5ebec7d5bd14f71427d1e84f3dd0314c0f7b2291e5b200ac8c7c3b9259281900390910190a3505050565b60006111418484846115a5565b61118e843361082285604051806060016040528060288152602001611b11602891396001600160a01b038a1660009081526001602090815260408083203384529091529020549190611505565b5060019392505050565b600082820183811015610f9d576040805162461bcd60e51b815260206004820152601b60248201527f536166654d6174683a206164646974696f6e206f766572666c6f770000000000604482015290519081900360640190fd5b6001600160a01b03821661124d576040805162461bcd60e51b815260206004820152601f60248201527f45524332303a206d696e7420746f20746865207a65726f206164647265737300604482015290519081900360640190fd5b61125960008383611700565b6002546112669082611198565b6002556001600160a01b03821660009081526020819052604090205461128c9082611198565b6001600160a01b0383166000818152602081815260408083209490945583518581529351929391927fddf252ad1be2c89b69c2b068fc378daa952ba7f163c4a11628f55a4df523b3ef9281900390910190a35050565b6001600160a01b038083166000818152600b602081815260408084208054858452828620549490935287871673ffffffffffffffffffffffffffffffffffffffff198416811790915590519190951694919391928592917f3134e8a2e6d97e929a7e54011ea5485d7d196dd5f0ba4d4ef95803e8e3fc257f9190a4611368828483611737565b50505050565b60008261137d575060006106c6565b8282028284828161138a57fe5b0414610f9d5760405162461bcd60e51b8152600401808060200182810382526021815260200180611af06021913960400191505060405180910390fd5b6000610f9d83836040518060400160405280601a81526020017f536166654d6174683a206469766973696f6e206279207a65726f000000000000815250611864565b6001600160a01b03821661144e5760405162461bcd60e51b8152600401808060200182810382526021815260200180611b396021913960400191505060405180910390fd5b61145a82600083611700565b61149781604051806060016040528060228152602001611a5d602291396001600160a01b0385166000908152602081905260409020549190611505565b6001600160a01b0383166000908152602081905260409020556002546114bd90826118d8565b6002556040805182815290516000916001600160a01b038516917fddf252ad1be2c89b69c2b068fc378daa952ba7f163c4a11628f55a4df523b3ef9181900360200190a35050565b600081848411156115945760405162461bcd60e51b81526004018080602001828103825283818151815260200191508051906020019080838360005b83811015611559578181015183820152602001611541565b50505050905090810190601f1680156115865780820380516001836020036101000a031916815260200191505b509250505060405180910390fd5b505050900390565b60006106c23384845b6001600160a01b0383166115ea5760405162461bcd60e51b8152600401808060200182810382526025815260200180611b5a6025913960400191505060405180910390fd5b6001600160a01b03821661162f5760405162461bcd60e51b8152600401808060200182810382526023815260200180611a3a6023913960400191505060405180910390fd5b61163a838383611700565b61167781604051806060016040528060268152602001611aa1602691396001600160a01b0386166000908152602081905260409020549190611505565b6001600160a01b0380851660009081526020819052604080822093909355908416815220546116a69082611198565b6001600160a01b038084166000818152602081815260409182902094909455805185815290519193928716927fddf252ad1be2c89b69c2b068fc378daa952ba7f163c4a11628f55a4df523b3ef92918290030190a3505050565b6001600160a01b038084166000908152600b602052604080822054858416835291205461173292918216911683611737565b505050565b816001600160a01b0316836001600160a01b0316141580156117595750600081115b15611732576001600160a01b038316156117df576001600160a01b0383166000908152600a602052604081205490816117935760006117bf565b6001600160a01b0385166000908152600960209081526040808320600019860184529091529020600101545b905060006117cd82856118d8565b90506117db8684848461191a565b5050505b6001600160a01b03821615611732576001600160a01b0382166000908152600a60205260408120549081611814576000611840565b6001600160a01b0384166000908152600960209081526040808320600019860184529091529020600101545b9050600061184e8285611198565b905061185c8584848461191a565b505050505050565b600081836118b35760405162461bcd60e51b8152602060048201818152835160248401528351909283926044909101919085019080838360008315611559578181015183820152602001611541565b5060008385816118bf57fe5b0490508385816118cb57fe5b0681850201851461074a57fe5b6000610f9d83836040518060400160405280601e81526020017f536166654d6174683a207375627472616374696f6e206f766572666c6f770000815250611505565b60008311801561195057506001600160a01b03841660009081526009602090815260408083206000198701845290915290205443145b15611987576001600160a01b03841660009081526009602090815260408083206000198701845290915290206001018190556119d6565b60408051808201825243815260208082018481526001600160a01b03881660008181526009845285812089825284528581209451855591516001948501558152600a9091529190912090840190555b604080518381526020810183905281516001600160a01b038716927fdec2bacdd2f05b59de34da9b523dff8be42e5e38e818c82fdb0bae774387a724928290030190a250505050565b60405180604001604052806000815260200160008152509056fe45524332303a207472616e7366657220746f20746865207a65726f206164647265737345524332303a206275726e20616d6f756e7420657863656564732062616c616e636545524332303a20617070726f766520746f20746865207a65726f206164647265737345524332303a207472616e7366657220616d6f756e7420657863656564732062616c616e63654b41525348413a3a6765745072696f72566f7465733a206e6f74207965742064657465726d696e6564536166654d6174683a206d756c7469706c69636174696f6e206f766572666c6f7745524332303a207472616e7366657220616d6f756e74206578636565647320616c6c6f77616e636545524332303a206275726e2066726f6d20746865207a65726f206164647265737345524332303a207472616e736665722066726f6d20746865207a65726f206164647265737345524332303a20617070726f76652066726f6d20746865207a65726f206164647265737345524332303a2064656372656173656420616c6c6f77616e63652062656c6f77207a65726fa164736f6c6343000705000a",
  "devdoc": {
    "kind": "dev",
    "methods": {
      "allowance(address,address)": {
        "details": "Returns the remaining number of tokens that `spender` will be allowed to spend on behalf of `owner` through {transferFrom}. This is zero by default. This value changes when {approve} or {transferFrom} are called."
      },
      "approve(address,uint256)": {
        "details": "Sets `amount` as the allowance of `spender` over the caller's tokens. Returns a boolean value indicating whether the operation succeeded. IMPORTANT: Beware that changing an allowance with this method brings the risk that someone may use both the old and the new allowance by unfortunate transaction ordering. One possible solution to mitigate this race condition is to first reduce the spender's allowance to 0 and set the desired value afterwards: https://github.com/ethereum/EIPs/issues/20#issuecomment-263524729 Emits an {Approval} event."
      },
      "balanceFrom(uint256)": {
        "params": {
          "_amount": "uint"
        },
        "returns": {
          "_0": "uint"
        }
      },
      "balanceOf(address)": {
        "details": "Returns the amount of tokens owned by `account`."
      },
      "balanceOfPANA(address)": {
        "params": {
          "_address": "address"
        },
        "returns": {
          "_0": "uint"
        }
      },
      "balanceTo(uint256)": {
        "params": {
          "_amount": "uint"
        },
        "returns": {
          "_0": "uint"
        }
      },
      "burn(address,uint256)": {
        "params": {
          "_amount": "uint",
          "_from": "address"
        }
      },
      "delegate(address)": {
        "params": {
          "delegatee": "The address to delegate votes to"
        }
      },
      "getCurrentVotes(address)": {
        "params": {
          "account": "The address to get votes balance"
        },
        "returns": {
          "_0": "The number of current votes for `account`"
        }
      },
      "getPriorVotes(address,uint256)": {
        "details": "Block number must be a finalized block or else this function will revert to prevent misinformation.",
        "params": {
          "account": "The address of the account to check",
          "blockNumber": "The block number to get the vote balance at"
        },
        "returns": {
          "_0": "The number of votes the account had as of the given block"
        }
      },
      "mint(address,uint256)": {
        "params": {
          "_amount": "uint",
          "_to": "address"
        }
      },
      "totalSupply()": {
        "details": "Returns the amount of tokens in existence."
      },
      "transfer(address,uint256)": {
        "params": {
          "_amount": "uint",
          "_to": "address"
        }
      },
      "transferFrom(address,address,uint256)": {
        "params": {
          "amount": "uint",
          "recipient": "address",
          "sender": "address"
        }
      }
    },
    "version": 1
  },
  "userdoc": {
    "kind": "user",
    "methods": {
      "balanceFrom(uint256)": {
        "notice": "converts KARSHA amount to PANA"
      },
      "balanceOfPANA(address)": {
        "notice": "converts KARSHA balance to PANA"
      },
      "balanceTo(uint256)": {
        "notice": "converts PANA amount to KARSHA"
      },
      "burn(address,uint256)": {
        "notice": "burn KARSHA"
      },
      "delegate(address)": {
        "notice": "Delegate votes from `msg.sender` to `delegatee`"
      },
      "getCurrentVotes(address)": {
        "notice": "Gets the current votes balance for `account`"
      },
      "getPriorVotes(address,uint256)": {
        "notice": "Determine the prior number of votes for an account as of a block number"
      },
      "index()": {
        "notice": "pull index from sPANA token"
      },
      "mint(address,uint256)": {
        "notice": "mint KARSHA"
      },
      "transfer(address,uint256)": {
        "notice": "transfer KARSHA"
      },
      "transferFrom(address,address,uint256)": {
        "notice": "transferFrom KARSHA"
      }
    },
    "version": 1
  },
  "storageLayout": {
    "storage": [
      {
        "astId": 9978,
        "contract": "contracts/tokens/regular/Karsha.sol:Karsha",
        "label": "_balances",
        "offset": 0,
        "slot": "0",
        "type": "t_mapping(t_address,t_uint256)"
      },
      {
        "astId": 9984,
        "contract": "contracts/tokens/regular/Karsha.sol:Karsha",
        "label": "_allowances",
        "offset": 0,
        "slot": "1",
        "type": "t_mapping(t_address,t_mapping(t_address,t_uint256))"
      },
      {
        "astId": 9986,
        "contract": "contracts/tokens/regular/Karsha.sol:Karsha",
        "label": "_totalSupply",
        "offset": 0,
        "slot": "2",
        "type": "t_uint256"
      },
      {
        "astId": 9988,
        "contract": "contracts/tokens/regular/Karsha.sol:Karsha",
        "label": "_name",
        "offset": 0,
        "slot": "3",
        "type": "t_string_storage"
      },
      {
        "astId": 9990,
        "contract": "contracts/tokens/regular/Karsha.sol:Karsha",
        "label": "_symbol",
        "offset": 0,
        "slot": "4",
        "type": "t_string_storage"
      },
      {
        "astId": 314,
        "contract": "contracts/tokens/regular/Karsha.sol:Karsha",
        "label": "UNAUTHORIZED",
        "offset": 0,
        "slot": "5",
        "type": "t_string_storage"
      },
      {
        "astId": 316,
        "contract": "contracts/tokens/regular/Karsha.sol:Karsha",
        "label": "authority",
        "offset": 0,
        "slot": "6",
        "type": "t_contract(IPanaAuthority)2684"
      },
      {
        "astId": 6958,
        "contract": "contracts/tokens/regular/Karsha.sol:Karsha",
        "label": "sPANA",
        "offset": 0,
        "slot": "7",
        "type": "t_contract(IsPana)3145"
      },
      {
        "astId": 6960,
        "contract": "contracts/tokens/regular/Karsha.sol:Karsha",
        "label": "staking",
        "offset": 0,
        "slot": "8",
        "type": "t_address"
      },
      {
        "astId": 6966,
        "contract": "contracts/tokens/regular/Karsha.sol:Karsha",
        "label": "checkpoints",
        "offset": 0,
        "slot": "9",
        "type": "t_mapping(t_address,t_mapping(t_uint256,t_struct(Checkpoint)6956_storage))"
      },
      {
        "astId": 6970,
        "contract": "contracts/tokens/regular/Karsha.sol:Karsha",
        "label": "numCheckpoints",
        "offset": 0,
        "slot": "10",
        "type": "t_mapping(t_address,t_uint256)"
      },
      {
        "astId": 6974,
        "contract": "contracts/tokens/regular/Karsha.sol:Karsha",
        "label": "delegates",
        "offset": 0,
        "slot": "11",
        "type": "t_mapping(t_address,t_address)"
      }
    ],
    "types": {
      "t_address": {
        "encoding": "inplace",
        "label": "address",
        "numberOfBytes": "20"
      },
      "t_contract(IPanaAuthority)2684": {
        "encoding": "inplace",
        "label": "contract IPanaAuthority",
        "numberOfBytes": "20"
      },
      "t_contract(IsPana)3145": {
        "encoding": "inplace",
        "label": "contract IsPana",
        "numberOfBytes": "20"
      },
      "t_mapping(t_address,t_address)": {
        "encoding": "mapping",
        "key": "t_address",
        "label": "mapping(address => address)",
        "numberOfBytes": "32",
        "value": "t_address"
      },
      "t_mapping(t_address,t_mapping(t_address,t_uint256))": {
        "encoding": "mapping",
        "key": "t_address",
        "label": "mapping(address => mapping(address => uint256))",
        "numberOfBytes": "32",
        "value": "t_mapping(t_address,t_uint256)"
      },
      "t_mapping(t_address,t_mapping(t_uint256,t_struct(Checkpoint)6956_storage))": {
        "encoding": "mapping",
        "key": "t_address",
        "label": "mapping(address => mapping(uint256 => struct Karsha.Checkpoint))",
        "numberOfBytes": "32",
        "value": "t_mapping(t_uint256,t_struct(Checkpoint)6956_storage)"
      },
      "t_mapping(t_address,t_uint256)": {
        "encoding": "mapping",
        "key": "t_address",
        "label": "mapping(address => uint256)",
        "numberOfBytes": "32",
        "value": "t_uint256"
      },
      "t_mapping(t_uint256,t_struct(Checkpoint)6956_storage)": {
        "encoding": "mapping",
        "key": "t_uint256",
        "label": "mapping(uint256 => struct Karsha.Checkpoint)",
        "numberOfBytes": "32",
        "value": "t_struct(Checkpoint)6956_storage"
      },
      "t_string_storage": {
        "encoding": "bytes",
        "label": "string",
        "numberOfBytes": "32"
      },
      "t_struct(Checkpoint)6956_storage": {
        "encoding": "inplace",
        "label": "struct Karsha.Checkpoint",
        "members": [
          {
            "astId": 6953,
            "contract": "contracts/tokens/regular/Karsha.sol:Karsha",
            "label": "fromBlock",
            "offset": 0,
            "slot": "0",
            "type": "t_uint256"
          },
          {
            "astId": 6955,
            "contract": "contracts/tokens/regular/Karsha.sol:Karsha",
            "label": "votes",
            "offset": 0,
            "slot": "1",
            "type": "t_uint256"
          }
        ],
        "numberOfBytes": "64"
      },
      "t_uint256": {
        "encoding": "inplace",
        "label": "uint256",
        "numberOfBytes": "32"
      }
    }
  }
}