{
  "address": "0x1875794551585d349b916deA2F45e0c14cF4929d",
  "abi": [
    {
      "inputs": [
        {
          "internalType": "address",
          "name": "_pana",
          "type": "address"
        },
        {
          "internalType": "uint256",
          "name": "_timelock",
          "type": "uint256"
        },
        {
          "internalType": "address",
          "name": "_authority",
          "type": "address"
        }
      ],
      "stateMutability": "nonpayable",
      "type": "constructor"
    },
    {
      "anonymous": false,
      "inputs": [
        {
          "indexed": true,
          "internalType": "contract IPanaAuthority",
          "name": "authority",
          "type": "address"
        }
      ],
      "name": "AuthorityUpdated",
      "type": "event"
    },
    {
      "anonymous": false,
      "inputs": [
        {
          "indexed": true,
          "internalType": "address",
          "name": "token",
          "type": "address"
        },
        {
          "indexed": false,
          "internalType": "uint256",
          "name": "amount",
          "type": "uint256"
        },
        {
          "indexed": false,
          "internalType": "uint256",
          "name": "payout",
          "type": "uint256"
        }
      ],
      "name": "Deposit",
      "type": "event"
    },
    {
      "anonymous": false,
      "inputs": [
        {
          "indexed": true,
          "internalType": "address",
          "name": "token",
          "type": "address"
        },
        {
          "indexed": false,
          "internalType": "uint256",
          "name": "amount",
          "type": "uint256"
        },
        {
          "indexed": false,
          "internalType": "uint256",
          "name": "send",
          "type": "uint256"
        }
      ],
      "name": "DepositForRedemption",
      "type": "event"
    },
    {
      "anonymous": false,
      "inputs": [
        {
          "indexed": true,
          "internalType": "address",
          "name": "token",
          "type": "address"
        },
        {
          "indexed": false,
          "internalType": "uint256",
          "name": "amount",
          "type": "uint256"
        }
      ],
      "name": "Managed",
      "type": "event"
    },
    {
      "anonymous": false,
      "inputs": [
        {
          "indexed": true,
          "internalType": "address",
          "name": "caller",
          "type": "address"
        },
        {
          "indexed": true,
          "internalType": "address",
          "name": "recipient",
          "type": "address"
        },
        {
          "indexed": false,
          "internalType": "uint256",
          "name": "amount",
          "type": "uint256"
        }
      ],
      "name": "Minted",
      "type": "event"
    },
    {
      "anonymous": false,
      "inputs": [
        {
          "indexed": false,
          "internalType": "uint256",
          "name": "amount",
          "type": "uint256"
        },
        {
          "indexed": false,
          "internalType": "address",
          "name": "treasury",
          "type": "address"
        }
      ],
      "name": "MintedForNFTTreasury",
      "type": "event"
    },
    {
      "anonymous": false,
      "inputs": [
        {
          "indexed": true,
          "internalType": "enum PanaTreasuryV2.STATUS",
          "name": "status",
          "type": "uint8"
        },
        {
          "indexed": false,
          "internalType": "address",
          "name": "queued",
          "type": "address"
        }
      ],
      "name": "PermissionQueued",
      "type": "event"
    },
    {
      "anonymous": false,
      "inputs": [
        {
          "indexed": false,
          "internalType": "address",
          "name": "addr",
          "type": "address"
        },
        {
          "indexed": true,
          "internalType": "enum PanaTreasuryV2.STATUS",
          "name": "status",
          "type": "uint8"
        },
        {
          "indexed": false,
          "internalType": "bool",
          "name": "result",
          "type": "bool"
        }
      ],
      "name": "Permissioned",
      "type": "event"
    },
    {
      "anonymous": false,
      "inputs": [
        {
          "indexed": true,
          "internalType": "address",
          "name": "caller",
          "type": "address"
        },
        {
          "indexed": true,
          "internalType": "address",
          "name": "recipient",
          "type": "address"
        },
        {
          "indexed": false,
          "internalType": "uint256",
          "name": "amount",
          "type": "uint256"
        }
      ],
      "name": "TreasuryPanaUsed",
      "type": "event"
    },
    {
      "inputs": [],
      "name": "PANA",
      "outputs": [
        {
          "internalType": "contract IPana",
          "name": "",
          "type": "address"
        }
      ],
      "stateMutability": "view",
      "type": "function"
    },
    {
      "inputs": [],
      "name": "authority",
      "outputs": [
        {
          "internalType": "contract IPanaAuthority",
          "name": "",
          "type": "address"
        }
      ],
      "stateMutability": "view",
      "type": "function"
    },
    {
      "inputs": [],
      "name": "availableForRedemption",
      "outputs": [
        {
          "internalType": "uint256",
          "name": "",
          "type": "uint256"
        }
      ],
      "stateMutability": "view",
      "type": "function"
    },
    {
      "inputs": [],
      "name": "baseSupply",
      "outputs": [
        {
          "internalType": "uint256",
          "name": "",
          "type": "uint256"
        }
      ],
      "stateMutability": "view",
      "type": "function"
    },
    {
      "inputs": [],
      "name": "blocksNeededForQueue",
      "outputs": [
        {
          "internalType": "uint256",
          "name": "",
          "type": "uint256"
        }
      ],
      "stateMutability": "view",
      "type": "function"
    },
    {
      "inputs": [
        {
          "internalType": "uint256",
          "name": "_amount",
          "type": "uint256"
        },
        {
          "internalType": "address",
          "name": "_token",
          "type": "address"
        },
        {
          "internalType": "uint256",
          "name": "_payout",
          "type": "uint256"
        }
      ],
      "name": "deposit",
      "outputs": [
        {
          "internalType": "uint256",
          "name": "",
          "type": "uint256"
        }
      ],
      "stateMutability": "nonpayable",
      "type": "function"
    },
    {
      "inputs": [
        {
          "internalType": "uint256",
          "name": "_amount",
          "type": "uint256"
        },
        {
          "internalType": "address",
          "name": "_token",
          "type": "address"
        }
      ],
      "name": "depositForRedemption",
      "outputs": [
        {
          "internalType": "uint256",
          "name": "send_",
          "type": "uint256"
        }
      ],
      "stateMutability": "nonpayable",
      "type": "function"
    },
    {
      "inputs": [
        {
          "internalType": "enum PanaTreasuryV2.STATUS",
          "name": "_status",
          "type": "uint8"
        },
        {
          "internalType": "address",
          "name": "_toDisable",
          "type": "address"
        }
      ],
      "name": "disable",
      "outputs": [],
      "stateMutability": "nonpayable",
      "type": "function"
    },
    {
      "inputs": [],
      "name": "disableTimelock",
      "outputs": [],
      "stateMutability": "nonpayable",
      "type": "function"
    },
    {
      "inputs": [
        {
          "internalType": "enum PanaTreasuryV2.STATUS",
          "name": "_status",
          "type": "uint8"
        },
        {
          "internalType": "address",
          "name": "_address",
          "type": "address"
        },
        {
          "internalType": "address",
          "name": "_supplyController",
          "type": "address"
        }
      ],
      "name": "enable",
      "outputs": [],
      "stateMutability": "nonpayable",
      "type": "function"
    },
    {
      "inputs": [
        {
          "internalType": "uint256",
          "name": "_index",
          "type": "uint256"
        }
      ],
      "name": "execute",
      "outputs": [],
      "stateMutability": "nonpayable",
      "type": "function"
    },
    {
      "inputs": [
        {
          "internalType": "address",
          "name": "_address",
          "type": "address"
        },
        {
          "internalType": "enum PanaTreasuryV2.STATUS",
          "name": "_status",
          "type": "uint8"
        }
      ],
      "name": "indexInRegistry",
      "outputs": [
        {
          "internalType": "bool",
          "name": "",
          "type": "bool"
        },
        {
          "internalType": "uint256",
          "name": "",
          "type": "uint256"
        }
      ],
      "stateMutability": "view",
      "type": "function"
    },
    {
      "inputs": [],
      "name": "initialize",
      "outputs": [],
      "stateMutability": "nonpayable",
      "type": "function"
    },
    {
      "inputs": [],
      "name": "initialized",
      "outputs": [
        {
          "internalType": "bool",
          "name": "",
          "type": "bool"
        }
      ],
      "stateMutability": "view",
      "type": "function"
    },
    {
      "inputs": [
        {
          "internalType": "address",
          "name": "_token",
          "type": "address"
        },
        {
          "internalType": "uint256",
          "name": "_amount",
          "type": "uint256"
        }
      ],
      "name": "manage",
      "outputs": [],
      "stateMutability": "nonpayable",
      "type": "function"
    },
    {
      "inputs": [
        {
          "internalType": "address",
          "name": "_recipient",
          "type": "address"
        },
        {
          "internalType": "uint256",
          "name": "_amount",
          "type": "uint256"
        }
      ],
      "name": "mint",
      "outputs": [],
      "stateMutability": "nonpayable",
      "type": "function"
    },
    {
      "inputs": [
        {
          "internalType": "uint256",
          "name": "_amount",
          "type": "uint256"
        }
      ],
      "name": "mintForNFTTreasury",
      "outputs": [],
      "stateMutability": "nonpayable",
      "type": "function"
    },
    {
      "inputs": [
        {
          "internalType": "uint256",
          "name": "_index",
          "type": "uint256"
        }
      ],
      "name": "nullify",
      "outputs": [],
      "stateMutability": "nonpayable",
      "type": "function"
    },
    {
      "inputs": [],
      "name": "onChainGovernanceTimelock",
      "outputs": [
        {
          "internalType": "uint256",
          "name": "",
          "type": "uint256"
        }
      ],
      "stateMutability": "view",
      "type": "function"
    },
    {
      "inputs": [
        {
          "internalType": "uint256",
          "name": "",
          "type": "uint256"
        }
      ],
      "name": "permissionQueue",
      "outputs": [
        {
          "internalType": "enum PanaTreasuryV2.STATUS",
          "name": "managing",
          "type": "uint8"
        },
        {
          "internalType": "address",
          "name": "toPermit",
          "type": "address"
        },
        {
          "internalType": "address",
          "name": "supplyController",
          "type": "address"
        },
        {
          "internalType": "uint256",
          "name": "timelockEnd",
          "type": "uint256"
        },
        {
          "internalType": "bool",
          "name": "nullify",
          "type": "bool"
        },
        {
          "internalType": "bool",
          "name": "executed",
          "type": "bool"
        }
      ],
      "stateMutability": "view",
      "type": "function"
    },
    {
      "inputs": [
        {
          "internalType": "enum PanaTreasuryV2.STATUS",
          "name": "",
          "type": "uint8"
        },
        {
          "internalType": "address",
          "name": "",
          "type": "address"
        }
      ],
      "name": "permissions",
      "outputs": [
        {
          "internalType": "bool",
          "name": "",
          "type": "bool"
        }
      ],
      "stateMutability": "view",
      "type": "function"
    },
    {
      "inputs": [
        {
          "internalType": "enum PanaTreasuryV2.STATUS",
          "name": "_status",
          "type": "uint8"
        },
        {
          "internalType": "address",
          "name": "_address",
          "type": "address"
        },
        {
          "internalType": "address",
          "name": "_supplyController",
          "type": "address"
        }
      ],
      "name": "queueTimelock",
      "outputs": [],
      "stateMutability": "nonpayable",
      "type": "function"
    },
    {
      "inputs": [],
      "name": "redemptionLimit",
      "outputs": [
        {
          "internalType": "uint256",
          "name": "",
          "type": "uint256"
        }
      ],
      "stateMutability": "view",
      "type": "function"
    },
    {
      "inputs": [
        {
          "internalType": "enum PanaTreasuryV2.STATUS",
          "name": "",
          "type": "uint8"
        },
        {
          "internalType": "uint256",
          "name": "",
          "type": "uint256"
        }
      ],
      "name": "registry",
      "outputs": [
        {
          "internalType": "address",
          "name": "",
          "type": "address"
        }
      ],
      "stateMutability": "view",
      "type": "function"
    },
    {
      "inputs": [],
      "name": "sPANA",
      "outputs": [
        {
          "internalType": "contract IsPana",
          "name": "",
          "type": "address"
        }
      ],
      "stateMutability": "view",
      "type": "function"
    },
    {
      "inputs": [
        {
          "internalType": "contract IPanaAuthority",
          "name": "_newAuthority",
          "type": "address"
        }
      ],
      "name": "setAuthority",
      "outputs": [],
      "stateMutability": "nonpayable",
      "type": "function"
    },
    {
      "inputs": [
        {
          "internalType": "uint256",
          "name": "_limit",
          "type": "uint256"
        }
      ],
      "name": "setRedemptionLimit",
      "outputs": [],
      "stateMutability": "nonpayable",
      "type": "function"
    },
    {
      "inputs": [
        {
          "internalType": "bool",
          "name": "_useTreasuryPana",
          "type": "bool"
        }
      ],
      "name": "setTreasuryPanaUsageFlag",
      "outputs": [],
      "stateMutability": "nonpayable",
      "type": "function"
    },
    {
      "inputs": [
        {
          "internalType": "address",
          "name": "",
          "type": "address"
        }
      ],
      "name": "supplyController",
      "outputs": [
        {
          "internalType": "address",
          "name": "",
          "type": "address"
        }
      ],
      "stateMutability": "view",
      "type": "function"
    },
    {
      "inputs": [],
      "name": "timelockEnabled",
      "outputs": [
        {
          "internalType": "bool",
          "name": "",
          "type": "bool"
        }
      ],
      "stateMutability": "view",
      "type": "function"
    },
    {
      "inputs": [
        {
          "internalType": "address",
          "name": "_token",
          "type": "address"
        },
        {
          "internalType": "uint256",
          "name": "_amount",
          "type": "uint256"
        }
      ],
      "name": "tokenValue",
      "outputs": [
        {
          "internalType": "uint256",
          "name": "value_",
          "type": "uint256"
        }
      ],
      "stateMutability": "view",
      "type": "function"
    },
    {
      "inputs": [
        {
          "internalType": "address",
          "name": "_lpToken",
          "type": "address"
        }
      ],
      "name": "updateSupplyRatio",
      "outputs": [],
      "stateMutability": "nonpayable",
      "type": "function"
    },
    {
      "inputs": [],
      "name": "useTreasuryPana",
      "outputs": [
        {
          "internalType": "bool",
          "name": "",
          "type": "bool"
        }
      ],
      "stateMutability": "view",
      "type": "function"
    }
  ],
  "transactionHash": "0x4c5a9345eabce0b16994478e472fe40c465e2431e95003fcdfc54e3a28c6f940",
  "args": [
    "0x369eB8197062093a20402935D3a707b4aE414E9D",
    0,
    "0xcc654fbB3C1B12Be82D36Bc9C7E1CE075A422F80"
  ],
  "solcInputHash": "dd129afb7ea71da05b99137f81b53eb5",
  "bytecode": "0x610100604052600c60c08190526b15539055551213d49256915160a21b60e090815262000030916000919062000240565b506040805180820190915260168082527f54726561737572793a206e6f742061636365707465640000000000000000000060209092019182526200007791600b9162000240565b506040805180820190915260168082527f54726561737572793a206e6f7420617070726f766564000000000000000000006020909201918252620000be91600c9162000240565b506040805180820190915260178082527f54726561737572793a20696e76616c696420746f6b656e00000000000000000060209092019182526200010591600d9162000240565b5060405180606001604052806026815260200162003aa26026913980516200013691600e9160209091019062000240565b503480156200014457600080fd5b5060405162003ac838038062003ac8833981810160405260608110156200016a57600080fd5b5080516020820151604092830151600180546001600160a01b0319166001600160a01b038316908117909155935192939192909182917f2f658b440c35314f52658ea8a740e05b284cdc84dc9ae01e891f21b8933e7cad90600090a2506001600160a01b03831662000218576040805162461bcd60e51b81526020600482015260126024820152715a65726f20616464726573733a2050414e4160701b604482015290519081900360640190fd5b5060609190911b6001600160601b0319166080526007805461ffff1916905560a052620002ec565b828054600181600116156101000203166002900490600052602060002090601f016020900481019282620002785760008555620002c3565b82601f106200029357805160ff1916838001178555620002c3565b82800160010185558215620002c3579182015b82811115620002c3578251825591602001919060010190620002a6565b50620002d1929150620002d5565b5090565b5b80821115620002d15760008155600101620002d6565b60805160601c60a05161374e62000354600039806109d05280610a2852806115595280611f5e52508061128a52806116ec5280611ec2528061238852806124335280612e775280612f245280612f92528061306852806132e7528061339e525061374e6000f3fe608060405234801561001057600080fd5b506004361061020b5760003560e01c806393988b531161012a578063bf7e214f116100bd578063f18217831161008c578063f417f22111610071578063f417f221146105fd578063fe0d94c11461061c578063ffb29023146106395761020b565b8063f1821783146105c9578063f2adbe57146105f55761020b565b8063bf7e214f1461055c578063ce2b7f0c14610564578063d07f390f1461058a578063e4e33ef8146105925761020b565b8063b39df88e116100f9578063b39df88e146104d9578063bbb11112146104e1578063bc157ac1146104fe578063bcb8e701146105305761020b565b806393988b53146104595780639fef32cc146104a3578063a44b8287146104ab578063b320f6a9146104d15761020b565b80635a941ea2116101a25780637a9e5e4b116101715780637a9e5e4b1461041b5780637d921af0146104415780638129fc1c14610449578063860f5048146104515761020b565b80635a941ea21461039a57806366e991c4146103b457806371a45c95146103da57806377e93ca8146103f75761020b565b806340c10f19116101de57806340c10f19146102c05780634146f103146102ec578063503edcf0146102f4578063529918311461036b5761020b565b80630b0eee3014610210578063158ef93e1461023e5780631d6d5f051461025a578063330dd34514610291575b600080fd5b61023c6004803603604081101561022657600080fd5b506001600160a01b038135169060200135610656565b005b61024661085f565b604080519115158252519081900360200190f35b61023c6004803603606081101561027057600080fd5b5060ff813516906001600160a01b036020820135811691604001351661086d565b610246600480360360408110156102a757600080fd5b50803560ff1690602001356001600160a01b0316610bbf565b61023c600480360360408110156102d657600080fd5b506001600160a01b038135169060200135610bdf565b610246610c86565b6103116004803603602081101561030a57600080fd5b5035610c8f565b6040518087600981111561032157fe5b8152602001866001600160a01b03168152602001856001600160a01b0316815260200184815260200183151581526020018215158152602001965050505050505060405180910390f35b61023c6004803603604081101561038157600080fd5b50803560ff1690602001356001600160a01b0316610ce6565b6103a2610eee565b60408051918252519081900360200190f35b61023c600480360360208110156103ca57600080fd5b50356001600160a01b0316610ef4565b61023c600480360360208110156103f057600080fd5b5035611168565b6103ff611288565b604080516001600160a01b039092168252519081900360200190f35b61023c6004803603602081101561043157600080fd5b50356001600160a01b03166112ac565b61023c6113e2565b61023c611585565b6103a26116e8565b6104886004803603604081101561046f57600080fd5b5080356001600160a01b0316906020013560ff16611774565b60408051921515835260208301919091528051918290030190f35b6103ff61185c565b6103ff600480360360408110156104c157600080fd5b5060ff813516906020013561186b565b6102466118a3565b6103a26118ac565b61023c600480360360208110156104f757600080fd5b50356118b2565b6103a26004803603606081101561051457600080fd5b508035906001600160a01b036020820135169060400135611992565b6103a26004803603604081101561054657600080fd5b50803590602001356001600160a01b0316611cfd565b6103ff611f32565b6103ff6004803603602081101561057a57600080fd5b50356001600160a01b0316611f41565b6103a2611f5c565b61023c600480360360608110156105a857600080fd5b5060ff813516906001600160a01b0360208201358116916040013516611f80565b6103a2600480360360408110156105df57600080fd5b506001600160a01b03813516906020013561224f565b6103a2612423565b61023c6004803603602081101561061357600080fd5b503515156124d5565b61023c6004803603602081101561063257600080fd5b50356125d4565b61023c6004803603602081101561064f57600080fd5b5035612ae5565b6001600160a01b03821660009081527f1a1e6821cde7d0159c0d293177871e09677b4e42307c7db3ba94f8648a5a050f602052604090205460ff161561076e573360009081527f04cde762ef08b6b6c5ded8e8c4c0b3f4e5c9ad7342c88fcc93681b4588b73f056020526040902054600c9060ff166107685760405162461bcd60e51b81526020600482019081528254600260001961010060018416150201909116046024830181905290918291604490910190849080156107595780601f1061072e57610100808354040283529160200191610759565b820191906000526020600020905b81548152906001019060200180831161073c57829003601f168201915b50509250505060405180910390fd5b50610808565b3360009081527f91da3fd0782e51c6b3986e9e672fd566868e71f3dbc2d6c2cd6fbb3e361af2a76020526040902054600c9060ff166108065760405162461bcd60e51b81526020600482019081528254600260001961010060018416150201909116046024830181905290918291604490910190849080156107595780601f1061072e57610100808354040283529160200191610759565b505b61081c6001600160a01b0383163383612c2d565b6040805182815290516001600160a01b038416917fb4460e34f1e91c4fa28eb7fac4cbd88cf530ef54a67e1978cd5edd9f77033ead919081900360200190a25050565b600754610100900460ff1681565b600160009054906101000a90046001600160a01b03166001600160a01b0316630c340a246040518163ffffffff1660e01b815260040160206040518083038186803b1580156108bb57600080fd5b505afa1580156108cf573d6000803e3d6000fd5b505050506040513d60208110156108e557600080fd5b50516000906001600160a01b031633146109585760405162461bcd60e51b81526020600482019081528254600260001961010060018416150201909116046024830181905290918291604490910190849080156107595780601f1061072e57610100808354040283529160200191610759565b506001600160a01b03821661096c57600080fd5b60075460ff1615156001146109c8576040805162461bcd60e51b815260206004820181905260248201527f54696d656c6f636b2069732064697361626c65642c2075736520656e61626c65604482015290519081900360640190fd5b60006109f4437f0000000000000000000000000000000000000000000000000000000000000000612dac565b90506002846009811115610a0457fe5b1480610a1b57506005846009811115610a1957fe5b145b15610a5857610a55610a4e7f00000000000000000000000000000000000000000000000000000000000000006002612e0f565b4390612dac565b90505b60066040518060c00160405280866009811115610a7157fe5b81526001600160a01b0380871660208084019190915290861660408301526060820185905260006080830181905260a090920182905283546001818101865594835291208251600490920201805492939092839160ff1990911690836009811115610ad857fe5b0217905550602082015181547fffffffffffffffffffffff0000000000000000000000000000000000000000ff166101006001600160a01b03928316810291909117835560408401516001840180546001600160a01b03191691909316179091556060830151600283015560808301516003909201805460a09094015160ff199094169215159290921761ff00191692151502919091179055836009811115610b7d57fe5b604080516001600160a01b038616815290517fc822ff41836a6dc998393c71843db8adcbbf01721f41b32389f6838ecb1ea9c89181900360200190a250505050565b600460209081526000928352604080842090915290825290205460ff1681565b3360009081527fc59312466997bb42aaaf719ece141047820e6b34531e1670dc1852a453648f0f6020526040902054600c9060ff16610c775760405162461bcd60e51b81526020600482019081528254600260001961010060018416150201909116046024830181905290918291604490910190849080156107595780601f1061072e57610100808354040283529160200191610759565b50610c828282612e68565b5050565b600a5460ff1681565b60068181548110610c9f57600080fd5b6000918252602090912060049091020180546001820154600283015460039093015460ff80841695506001600160a01b036101009485900481169593169382821692041686565b600160009054906101000a90046001600160a01b03166001600160a01b0316630c340a246040518163ffffffff1660e01b815260040160206040518083038186803b158015610d3457600080fd5b505afa158015610d48573d6000803e3d6000fd5b505050506040513d6020811015610d5e57600080fd5b50516001600160a01b0316331480610df75750600160009054906101000a90046001600160a01b03166001600160a01b031663452a93206040518163ffffffff1660e01b815260040160206040518083038186803b158015610dbf57600080fd5b505afa158015610dd3573d6000803e3d6000fd5b505050506040513d6020811015610de957600080fd5b50516001600160a01b031633145b610e48576040805162461bcd60e51b815260206004820152601960248201527f4f6e6c7920676f7665726e6f72206f7220677561726469616e00000000000000604482015290519081900360640190fd5b600060046000846009811115610e5a57fe5b6009811115610e6557fe5b8152602080820192909252604090810160009081206001600160a01b03861682529092529020805460ff1916911515919091179055816009811115610ea657fe5b604080516001600160a01b03841681526000602082015281517f7531a7aefe3985500c4dec2dcb6049a708f14c6a8a9022b435b8841bdb8e1713929181900390910190a25050565b60095481565b6001600160a01b03811660009081527f1a1e6821cde7d0159c0d293177871e09677b4e42307c7db3ba94f8648a5a050f602052604090205460ff16610f80576040805162461bcd60e51b815260206004820152600f60248201527f4e6f7420616e204c5020746f6b656e0000000000000000000000000000000000604482015290519081900360640190fd5b6001600160a01b0381811660009081526005602052604090205416610fd65760405162461bcd60e51b81526004018080602001828103825260238152602001806136da6023913960400191505060405180910390fd5b6001600160a01b038082166000908152600560209081526040918290205482516376ad5a4d60e01b815292519316926376ad5a4d926004808201939291829003018186803b15801561102757600080fd5b505afa15801561103b573d6000803e3d6000fd5b505050506040513d602081101561105157600080fd5b50516110a4576040805162461bcd60e51b815260206004820181905260248201527f537570706c7920636f6e74726f6c6c6572206973206e6f7420656e61626c6564604482015290519081900360640190fd5b6001600160a01b0380821660009081526005602090815260409182902054825163506bedc760e11b8152925193169263a0d7db8e926004808201939291829003018186803b1580156110f557600080fd5b505afa158015611109573d6000803e3d6000fd5b505050506040513d602081101561111f57600080fd5b505161115c5760405162461bcd60e51b81526004018080602001828103825260248152602001806136fd6024913960400191505060405180910390fd5b61116581613139565b50565b600160009054906101000a90046001600160a01b03166001600160a01b0316630c340a246040518163ffffffff1660e01b815260040160206040518083038186803b1580156111b657600080fd5b505afa1580156111ca573d6000803e3d6000fd5b505050506040513d60208110156111e057600080fd5b50516000906001600160a01b031633146112535760405162461bcd60e51b81526020600482019081528254600260001961010060018416150201909116046024830181905290918291604490910190849080156107595780601f1061072e57610100808354040283529160200191610759565b5060016006828154811061126357fe5b60009182526020909120600490910201600301805460ff191691151591909117905550565b7f000000000000000000000000000000000000000000000000000000000000000081565b600160009054906101000a90046001600160a01b03166001600160a01b0316630c340a246040518163ffffffff1660e01b815260040160206040518083038186803b1580156112fa57600080fd5b505afa15801561130e573d6000803e3d6000fd5b505050506040513d602081101561132457600080fd5b50516000906001600160a01b031633146113975760405162461bcd60e51b81526020600482019081528254600260001961010060018416150201909116046024830181905290918291604490910190849080156107595780601f1061072e57610100808354040283529160200191610759565b50600180546001600160a01b0319166001600160a01b0383169081179091556040517f2f658b440c35314f52658ea8a740e05b284cdc84dc9ae01e891f21b8933e7cad90600090a250565b600160009054906101000a90046001600160a01b03166001600160a01b0316630c340a246040518163ffffffff1660e01b815260040160206040518083038186803b15801561143057600080fd5b505afa158015611444573d6000803e3d6000fd5b505050506040513d602081101561145a57600080fd5b50516000906001600160a01b031633146114cd5760405162461bcd60e51b81526020600482019081528254600260001961010060018416150201909116046024830181905290918291604490910190849080156107595780601f1061072e57610100808354040283529160200191610759565b5060075460ff16151560011461152a576040805162461bcd60e51b815260206004820152601960248201527f74696d656c6f636b20616c72656164792064697361626c656400000000000000604482015290519081900360640190fd5b6008541580159061153d57504360085411155b15611551576007805460ff19169055611583565b61157f610a4e7f00000000000000000000000000000000000000000000000000000000000000006007612e0f565b6008555b565b600160009054906101000a90046001600160a01b03166001600160a01b0316630c340a246040518163ffffffff1660e01b815260040160206040518083038186803b1580156115d357600080fd5b505afa1580156115e7573d6000803e3d6000fd5b505050506040513d60208110156115fd57600080fd5b50516000906001600160a01b031633146116705760405162461bcd60e51b81526020600482019081528254600260001961010060018416150201909116046024830181905290918291604490910190849080156107595780601f1061072e57610100808354040283529160200191610759565b50600754610100900460ff16156116ce576040805162461bcd60e51b815260206004820152601360248201527f416c726561647920696e697469616c697a656400000000000000000000000000604482015290519081900360640190fd5b6007805461ff001960ff1990911660011716610100179055565b60007f00000000000000000000000000000000000000000000000000000000000000006001600160a01b03166318160ddd6040518163ffffffff1660e01b815260040160206040518083038186803b15801561174357600080fd5b505afa158015611757573d6000803e3d6000fd5b505050506040513d602081101561176d57600080fd5b5051905090565b60008060606003600085600981111561178957fe5b600981111561179457fe5b81526020019081526020016000208054806020026020016040519081016040528092919081815260200182805480156117f657602002820191906000526020600020905b81546001600160a01b031681526001909101906020018083116117d8575b5050505050905060005b815181101561184b5781818151811061181557fe5b60200260200101516001600160a01b0316866001600160a01b03161415611843576001935091506118559050565b600101611800565b5060008092509250505b9250929050565b6002546001600160a01b031681565b6003602052816000526040600020818154811061188757600080fd5b6000918252602090912001546001600160a01b03169150829050565b60075460ff1681565b60085481565b3360009081527f4ad5a04d53b5856f318545bb721f67d3f6d0a5a999f25eec7e20eaeb4c47b9336020526040902054600c9060ff1661194a5760405162461bcd60e51b81526020600482019081528254600260001961010060018416150201909116046024830181905290918291604490910190849080156107595780601f1061072e57610100808354040283529160200191610759565b506119553382612e68565b6040805182815233602082015281517f090407aa1149a57c208d834ce95f1e5f0dbc47bac5b4858b4a2e5306c650db96929181900390910190a150565b6001600160a01b03821660009081527fabd6e7cb50984ff9c2f3e18a2660c3353dadf4e3291deeb275dae2cd1e44fe05602052604081205460ff1615611a705760046000805b60098111156119e357fe5b815260208082019290925260409081016000908120338252909252902054600c9060ff16611a6a5760405162461bcd60e51b81526020600482019081528254600260001961010060018416150201909116046024830181905290918291604490910190849080156107595780601f1061072e57610100808354040283529160200191610759565b50611b1c565b6001600160a01b03831660009081527f1a1e6821cde7d0159c0d293177871e09677b4e42307c7db3ba94f8648a5a050f602052604090205460ff1615611abb576004600060036119d8565b60405162461bcd60e51b8152602060048201908152600d8054600260001961010060018416150201909116046024840181905290928291604490910190849080156107595780601f1061072e57610100808354040283529160200191610759565b611b316001600160a01b03841633308761342c565b611b3b3383612e68565b604080518581526020810184905281516001600160a01b038616927f90890809c654f11d6e72a28fa60149770a0d11ec6c92319d6ceb2bb0a4ea1a15928290030190a26001600160a01b03831660009081527f1a1e6821cde7d0159c0d293177871e09677b4e42307c7db3ba94f8648a5a050f602052604090205460ff168015611bde57506001600160a01b038381166000908152600560205260409020541615155b8015611c6357506001600160a01b038084166000908152600560209081526040918290205482516376ad5a4d60e01b815292519316926376ad5a4d926004808201939291829003018186803b158015611c3657600080fd5b505afa158015611c4a573d6000803e3d6000fd5b505050506040513d6020811015611c6057600080fd5b50515b8015611ce857506001600160a01b0380841660009081526005602090815260409182902054825163506bedc760e11b8152925193169263a0d7db8e926004808201939291829003018186803b158015611cbb57600080fd5b505afa158015611ccf573d6000803e3d6000fd5b505050506040513d6020811015611ce557600080fd5b50515b15611cf657611cf683613139565b5092915050565b6001600160a01b03811660009081527fabd6e7cb50984ff9c2f3e18a2660c3353dadf4e3291deeb275dae2cd1e44fe056020526040812054600b9060ff16611d9e5760405162461bcd60e51b81526020600482019081528254600260001961010060018416150201909116046024830181905290918291604490910190849080156107595780601f1061072e57610100808354040283529160200191610759565b503360009081527f2645749a946633740611cfc8178319f0958659d6922e4bf7e3a08b44789f53a46020526040902054600c9060ff16611e375760405162461bcd60e51b81526020600482019081528254600260001961010060018416150201909116046024830181905290918291604490910190849080156107595780601f1061072e57610100808354040283529160200191610759565b50611e42828461224f565b9050611e4c612423565b811115611ea0576040805162461bcd60e51b815260206004820152601860248201527f4e6f7420656e6f7567682050414e412072657365727665730000000000000000604482015290519081900360640190fd5b611eb56001600160a01b03831633308661342c565b611ee96001600160a01b037f0000000000000000000000000000000000000000000000000000000000000000163383612c2d565b604080518481526020810183905281516001600160a01b038516927f4a4b015d5d009102c176c319f709dd2078a8f42103ac46297c4ded381b1d9db9928290030190a292915050565b6001546001600160a01b031681565b6005602052600090815260409020546001600160a01b031681565b7f000000000000000000000000000000000000000000000000000000000000000081565b600160009054906101000a90046001600160a01b03166001600160a01b0316630c340a246040518163ffffffff1660e01b815260040160206040518083038186803b158015611fce57600080fd5b505afa158015611fe2573d6000803e3d6000fd5b505050506040513d6020811015611ff857600080fd5b50516000906001600160a01b0316331461206b5760405162461bcd60e51b81526020600482019081528254600260001961010060018416150201909116046024830181905290918291604490910190849080156107595780601f1061072e57610100808354040283529160200191610759565b5060075460ff16156120c4576040805162461bcd60e51b815260206004820152601160248201527f55736520717565756554696d656c6f636b000000000000000000000000000000604482015290519081900360640190fd5b60078360098111156120d257fe5b14156120f857600280546001600160a01b0319166001600160a01b0384161790556121fa565b60016004600085600981111561210a57fe5b600981111561211557fe5b8152602080820192909252604090810160009081206001600160a01b03871682529092529020805460ff1916911515919091179055600483600981111561215857fe5b141561218d576001600160a01b03828116600090815260056020526040902080546001600160a01b0319169183169190911790555b60006121998385611774565b509050806121f857600360008560098111156121b157fe5b60098111156121bc57fe5b8152602080820192909252604001600090812080546001810182559082529190200180546001600160a01b0319166001600160a01b0385161790555b505b82600981111561220657fe5b604080516001600160a01b03851681526001602082015281517f7531a7aefe3985500c4dec2dcb6049a708f14c6a8a9022b435b8841bdb8e1713929181900390910190a2505050565b6001600160a01b03821660009081527fabd6e7cb50984ff9c2f3e18a2660c3353dadf4e3291deeb275dae2cd1e44fe056020526040812054600e9060ff166122f05760405162461bcd60e51b81526020600482019081528254600260001961010060018416150201909116046024830181905290918291604490910190849080156107595780601f1061072e57610100808354040283529160200191610759565b5061241c836001600160a01b031663313ce5676040518163ffffffff1660e01b815260040160206040518083038186803b15801561232d57600080fd5b505afa158015612341573d6000803e3d6000fd5b505050506040513d602081101561235757600080fd5b50516040805163313ce56760e01b8152905160ff909216600a0a9161241691633b9aca009183916001600160a01b037f0000000000000000000000000000000000000000000000000000000000000000169163313ce56791600480820192602092909190829003018186803b1580156123cf57600080fd5b505afa1580156123e3573d6000803e3d6000fd5b505050506040513d60208110156123f957600080fd5b505160ff16600a0a6124108864174876e800612e0f565b90612e0f565b906135ac565b9392505050565b60006124d06127106124166009547f00000000000000000000000000000000000000000000000000000000000000006001600160a01b03166370a08231306040518263ffffffff1660e01b815260040180826001600160a01b0316815260200191505060206040518083038186803b15801561249e57600080fd5b505afa1580156124b2573d6000803e3d6000fd5b505050506040513d60208110156124c857600080fd5b505190612e0f565b905090565b600160009054906101000a90046001600160a01b03166001600160a01b0316630c340a246040518163ffffffff1660e01b815260040160206040518083038186803b15801561252357600080fd5b505afa158015612537573d6000803e3d6000fd5b505050506040513d602081101561254d57600080fd5b50516000906001600160a01b031633146125c05760405162461bcd60e51b81526020600482019081528254600260001961010060018416150201909116046024830181905290918291604490910190849080156107595780601f1061072e57610100808354040283529160200191610759565b50600a805460ff1916911515919091179055565b60075460ff161515600114612630576040805162461bcd60e51b815260206004820181905260248201527f54696d656c6f636b2069732064697361626c65642c2075736520656e61626c65604482015290519081900360640190fd5b6126386136a2565b6006828154811061264557fe5b600091825260209091206040805160c081019091526004909202018054829060ff16600981111561267257fe5b600981111561267d57fe5b815281546001600160a01b03610100918290048116602084015260018401541660408301526002830154606083015260039092015460ff80821615156080808501919091529390910416151560a09091015281015190915015612727576040805162461bcd60e51b815260206004820152601960248201527f416374696f6e20686173206265656e206e756c6c696669656400000000000000604482015290519081900360640190fd5b8060a001511561277e576040805162461bcd60e51b815260206004820181905260248201527f416374696f6e2068617320616c7265616479206265656e206578656375746564604482015290519081900360640190fd5b80606001514310156127d7576040805162461bcd60e51b815260206004820152601560248201527f54696d656c6f636b206e6f7420636f6d706c6574650000000000000000000000604482015290519081900360640190fd5b6007815160098111156127e657fe5b1415612815576020810151600280546001600160a01b0319166001600160a01b03909216919091179055612a4d565b6001600460008360000151600981111561282b57fe5b600981111561283657fe5b815260208082019290925260409081016000908120858401516001600160a01b031682529092529020805460ff191691151591909117905560048151600981111561287d57fe5b14156128be576040818101516020808401516001600160a01b039081166000908152600590925292902080546001600160a01b031916929091169190911790555b60006128d282602001518360000151611774565b50905080612a4b5760036000836000015160098111156128ee57fe5b60098111156128f957fe5b81526020808201929092526040016000908120848301518154600181018355918352929091200180546001600160a01b0319166001600160a01b0390921691909117905560048251600981111561294c57fe5b14156129c65760008061296484602001516001611774565b9150915081156129bf57600160005260036020527fa15bc60c955c405d20d9149c709e2460f1c2d9a497496a7f46004d1772c3054c8054829081106129a557fe5b600091825260209091200180546001600160a01b03191690555b5050612a4b565b6001825160098111156129d557fe5b1415612a4b576000806129ed84602001516004611774565b915091508115612a4857600460005260036020527f83ec6a1f0257b830b5e016457c9cf1435391bf56cc98f369a58a54fe93772465805482908110612a2e57fe5b600091825260209091200180546001600160a01b03191690555b50505b505b600160068381548110612a5c57fe5b6000918252602090912060036004909202010180549115156101000261ff001990921691909117905580516009811115612a9257fe5b7f7531a7aefe3985500c4dec2dcb6049a708f14c6a8a9022b435b8841bdb8e17138260200151600160405180836001600160a01b0316815260200182151581526020019250505060405180910390a25050565b600160009054906101000a90046001600160a01b03166001600160a01b0316630c340a246040518163ffffffff1660e01b815260040160206040518083038186803b158015612b3357600080fd5b505afa158015612b47573d6000803e3d6000fd5b505050506040513d6020811015612b5d57600080fd5b50516000906001600160a01b03163314612bd05760405162461bcd60e51b81526020600482019081528254600260001961010060018416150201909116046024830181905290918291604490910190849080156107595780601f1061072e57610100808354040283529160200191610759565b50612710811115612c28576040805162461bcd60e51b815260206004820152601f60248201527f4c696d69742063616e6e6f7420657863656564203130302070657263656e7400604482015290519081900360640190fd5b600955565b604080516001600160a01b038481166024830152604480830185905283518084039091018152606490920183526020820180517bffffffffffffffffffffffffffffffffffffffffffffffffffffffff1663a9059cbb60e01b178152925182516000946060949389169392918291908083835b60208310612cbf5780518252601f199092019160209182019101612ca0565b6001836020036101000a0380198251168184511680821785525050505050509050019150506000604051808303816000865af19150503d8060008114612d21576040519150601f19603f3d011682016040523d82523d6000602084013e612d26565b606091505b5091509150818015612d54575080511580612d545750808060200190516020811015612d5157600080fd5b50515b612da5576040805162461bcd60e51b815260206004820152600f60248201527f5452414e534645525f4641494c45440000000000000000000000000000000000604482015290519081900360640190fd5b5050505050565b600082820183811015612e06576040805162461bcd60e51b815260206004820152601b60248201527f536166654d6174683a206164646974696f6e206f766572666c6f770000000000604482015290519081900360640190fd5b90505b92915050565b600082612e1e57506000612e09565b82820282848281612e2b57fe5b0414612e065760405162461bcd60e51b81526004018080602001828103825260218152602001806137216021913960400191505060405180910390fd5b600a5460ff16156130665760007f00000000000000000000000000000000000000000000000000000000000000006001600160a01b03166370a08231306040518263ffffffff1660e01b815260040180826001600160a01b0316815260200191505060206040518083038186803b158015612ee257600080fd5b505afa158015612ef6573d6000803e3d6000fd5b505050506040513d6020811015612f0c57600080fd5b50519050818110612f9057612f4b6001600160a01b037f0000000000000000000000000000000000000000000000000000000000000000168484612c2d565b6040805183815290516001600160a01b0385169133917fbbcdd4054b9d2897b75da71421b17d4b9f024932923d789d0de25635d7b26ad39181900360200190a3613060565b7f00000000000000000000000000000000000000000000000000000000000000006001600160a01b03166340c10f1984846040518363ffffffff1660e01b815260040180836001600160a01b0316815260200182815260200192505050600060405180830381600087803b15801561300757600080fd5b505af115801561301b573d6000803e3d6000fd5b50506040805185815290516001600160a01b03871693503392507f9d228d69b5fdb8d273a2336f8fb8612d039631024ea9bf09c424a9503aa078f09181900360200190a35b50610c82565b7f00000000000000000000000000000000000000000000000000000000000000006001600160a01b03166340c10f1983836040518363ffffffff1660e01b815260040180836001600160a01b0316815260200182815260200192505050600060405180830381600087803b1580156130dd57600080fd5b505af11580156130f1573d6000803e3d6000fd5b50506040805184815290516001600160a01b03861693503392507f9d228d69b5fdb8d273a2336f8fb8612d039631024ea9bf09c424a9503aa078f09181900360200190a35050565b6001600160a01b03808216600090815260056020526040808220548151630348786760e31b81529151931692829182918591631a43c338916004808301926060929190829003018186803b15801561319057600080fd5b505afa1580156131a4573d6000803e3d6000fd5b505050506040513d60608110156131ba57600080fd5b508051602082015160409092015190945090925090508215612da55780156132e3576000856001600160a01b03166370a08231306040518263ffffffff1660e01b815260040180826001600160a01b0316815260200191505060206040518083038186803b15801561322b57600080fd5b505afa15801561323f573d6000803e3d6000fd5b505050506040513d602081101561325557600080fd5b5051905080156132dd578281111561326a5750815b61327e6001600160a01b0387168683612c2d565b846001600160a01b03166342966c68826040518263ffffffff1660e01b815260040180828152602001915050600060405180830381600087803b1580156132c457600080fd5b505af11580156132d8573d6000803e3d6000fd5b505050505b50612da5565b60007f00000000000000000000000000000000000000000000000000000000000000006001600160a01b03166370a08231306040518263ffffffff1660e01b815260040180826001600160a01b0316815260200191505060206040518083038186803b15801561335257600080fd5b505afa158015613366573d6000803e3d6000fd5b505050506040513d602081101561337c57600080fd5b50519050801561342457838111156133915750825b6133c56001600160a01b037f0000000000000000000000000000000000000000000000000000000000000000168683612c2d565b846001600160a01b0316631003e2d2826040518263ffffffff1660e01b815260040180828152602001915050600060405180830381600087803b15801561340b57600080fd5b505af115801561341f573d6000803e3d6000fd5b505050505b505050505050565b604080516001600160a01b0385811660248301528481166044830152606480830185905283518084039091018152608490920183526020820180517bffffffffffffffffffffffffffffffffffffffffffffffffffffffff166323b872dd60e01b17815292518251600094606094938a169392918291908083835b602083106134c65780518252601f1990920191602091820191016134a7565b6001836020036101000a0380198251168184511680821785525050505050509050019150506000604051808303816000865af19150503d8060008114613528576040519150601f19603f3d011682016040523d82523d6000602084013e61352d565b606091505b509150915081801561355b57508051158061355b575080806020019051602081101561355857600080fd5b50515b613424576040805162461bcd60e51b815260206004820152601460248201527f5452414e534645525f46524f4d5f4641494c4544000000000000000000000000604482015290519081900360640190fd5b600061241c83836040518060400160405280601a81526020017f536166654d6174683a206469766973696f6e206279207a65726f000000000000815250600081836136755760405162461bcd60e51b81526004018080602001828103825283818151815260200191508051906020019080838360005b8381101561363a578181015183820152602001613622565b50505050905090810190601f1680156136675780820380516001836020036101000a031916815260200191505b509250505060405180910390fd5b50600083858161368157fe5b04905083858161368d57fe5b0681850201851461369a57fe5b949350505050565b6040805160c08101909152806000815260006020820181905260408201819052606082018190526080820181905260a0909101529056fe537570706c7920636f6e74726f6c6c6572206973206e6f7420636f6e66696775726564537570706c7920636f6e74726f6c6c6572206973206e6f7420696e697469616c697a6564536166654d6174683a206d756c7469706c69636174696f6e206f766572666c6f77a164736f6c6343000705000a54726561737572793a206173736574206973206e6f742061207265736572766520746f6b656e",
  "devdoc": {
    "kind": "dev",
    "methods": {
      "availableForRedemption()": {
        "returns": {
          "_0": "uint256"
        }
      },
      "baseSupply()": {
        "details": "use this any time you need to query supply",
        "returns": {
          "_0": "uint256"
        }
      },
      "deposit(uint256,address,uint256)": {
        "params": {
          "_amount": "uint256",
          "_payout": "uint256",
          "_token": "address"
        },
        "returns": {
          "_0": "send_ uint256"
        }
      },
      "depositForRedemption(uint256,address)": {
        "params": {
          "_amount": "uint256",
          "_token": "address"
        },
        "returns": {
          "send_": "uint256"
        }
      },
      "disable(uint8,address)": {
        "params": {
          "_status": "STATUS",
          "_toDisable": "address"
        }
      },
      "enable(uint8,address,address)": {
        "params": {
          "_address": "address",
          "_status": "STATUS",
          "_supplyController": "address"
        }
      },
      "execute(uint256)": {
        "params": {
          "_index": "uint256"
        }
      },
      "indexInRegistry(address,uint8)": {
        "returns": {
          "_0": "(bool, uint256)"
        }
      },
      "manage(address,uint256)": {
        "params": {
          "_amount": "uint256",
          "_token": "address"
        }
      },
      "mint(address,uint256)": {
        "params": {
          "_amount": "uint256",
          "_recipient": "address"
        }
      },
      "mintForNFTTreasury(uint256)": {
        "params": {
          "_amount": "uint256 amount of Pana to mint"
        }
      },
      "nullify(uint256)": {
        "params": {
          "_index": "uint256"
        }
      },
      "queueTimelock(uint8,address,address)": {
        "params": {
          "_address": "address",
          "_status": "STATUS",
          "_supplyController": "address"
        }
      },
      "setRedemptionLimit(uint256)": {
        "params": {
          "_limit": "percentage (as a decimal with 4 precision digits) of PANA balance available for redemption"
        }
      },
      "setTreasuryPanaUsageFlag(bool)": {
        "params": {
          "_useTreasuryPana": "boolean value"
        }
      },
      "tokenValue(address,uint256)": {
        "params": {
          "_amount": "uint256",
          "_token": "address"
        },
        "returns": {
          "value_": "uint256"
        }
      },
      "updateSupplyRatio(address)": {
        "details": "performs additional configuration checks and reverts if any condition fails",
        "params": {
          "_lpToken": "a target liquidity token"
        }
      }
    },
    "version": 1
  },
  "userdoc": {
    "kind": "user",
    "methods": {
      "availableForRedemption()": {
        "notice": "returns current amount of PANA available for redemption"
      },
      "baseSupply()": {
        "notice": "returns supply metric"
      },
      "deposit(uint256,address,uint256)": {
        "notice": "allow approved address to deposit an asset for PANA"
      },
      "depositForRedemption(uint256,address)": {
        "notice": "allow approved address to deposit reserve token for available PANA. No new PANA is minted."
      },
      "disable(uint8,address)": {
        "notice": "disable permission from address"
      },
      "disableTimelock()": {
        "notice": "disables timelocked functions"
      },
      "enable(uint8,address,address)": {
        "notice": "enable permission from queue"
      },
      "execute(uint256)": {
        "notice": "enable queued permission"
      },
      "indexInRegistry(address,uint8)": {
        "notice": "check if registry contains address"
      },
      "initialize()": {
        "notice": "enables timelocks after initilization"
      },
      "manage(address,uint256)": {
        "notice": "allow approved address to withdraw assets"
      },
      "mint(address,uint256)": {
        "notice": "mint new PANA"
      },
      "mintForNFTTreasury(uint256)": {
        "notice": "allow approved Assurance/Parametrics Insurance NFT Treasury to mint Pana from Master Treasury."
      },
      "nullify(uint256)": {
        "notice": "cancel timelocked action"
      },
      "queueTimelock(uint8,address,address)": {
        "notice": "queue address to receive permission"
      },
      "setRedemptionLimit(uint256)": {
        "notice": "sets new PANA redemption limit"
      },
      "setTreasuryPanaUsageFlag(bool)": {
        "notice": "sets variable that drive decision to use Treasury funds before minting new Pana."
      },
      "tokenValue(address,uint256)": {
        "notice": "returns PANA valuation of asset as 1:100 The protocol has no intrinsic valuation for external tokens This function values any given asset at 100 PANA Only to be used for valuation of RESERVE TOKENS Not to be used to valuate LP tokens"
      },
      "updateSupplyRatio(address)": {
        "notice": "externally called version of _updateSupplyRatio"
      }
    },
    "version": 1
  },
  "storageLayout": {
    "storage": [
      {
        "astId": 314,
        "contract": "contracts/treasury/TreasuryV2.sol:PanaTreasuryV2",
        "label": "UNAUTHORIZED",
        "offset": 0,
        "slot": "0",
        "type": "t_string_storage"
      },
      {
        "astId": 316,
        "contract": "contracts/treasury/TreasuryV2.sol:PanaTreasuryV2",
        "label": "authority",
        "offset": 0,
        "slot": "1",
        "type": "t_contract(IPanaAuthority)2684"
      },
      {
        "astId": 10863,
        "contract": "contracts/treasury/TreasuryV2.sol:PanaTreasuryV2",
        "label": "sPANA",
        "offset": 0,
        "slot": "2",
        "type": "t_contract(IsPana)3143"
      },
      {
        "astId": 10868,
        "contract": "contracts/treasury/TreasuryV2.sol:PanaTreasuryV2",
        "label": "registry",
        "offset": 0,
        "slot": "3",
        "type": "t_mapping(t_enum(STATUS)10846,t_array(t_address)dyn_storage)"
      },
      {
        "astId": 10874,
        "contract": "contracts/treasury/TreasuryV2.sol:PanaTreasuryV2",
        "label": "permissions",
        "offset": 0,
        "slot": "4",
        "type": "t_mapping(t_enum(STATUS)10846,t_mapping(t_address,t_bool))"
      },
      {
        "astId": 10878,
        "contract": "contracts/treasury/TreasuryV2.sol:PanaTreasuryV2",
        "label": "supplyController",
        "offset": 0,
        "slot": "5",
        "type": "t_mapping(t_address,t_address)"
      },
      {
        "astId": 10881,
        "contract": "contracts/treasury/TreasuryV2.sol:PanaTreasuryV2",
        "label": "permissionQueue",
        "offset": 0,
        "slot": "6",
        "type": "t_array(t_struct(Queue)10859_storage)dyn_storage"
      },
      {
        "astId": 10885,
        "contract": "contracts/treasury/TreasuryV2.sol:PanaTreasuryV2",
        "label": "timelockEnabled",
        "offset": 0,
        "slot": "7",
        "type": "t_bool"
      },
      {
        "astId": 10887,
        "contract": "contracts/treasury/TreasuryV2.sol:PanaTreasuryV2",
        "label": "initialized",
        "offset": 1,
        "slot": "7",
        "type": "t_bool"
      },
      {
        "astId": 10889,
        "contract": "contracts/treasury/TreasuryV2.sol:PanaTreasuryV2",
        "label": "onChainGovernanceTimelock",
        "offset": 0,
        "slot": "8",
        "type": "t_uint256"
      },
      {
        "astId": 10891,
        "contract": "contracts/treasury/TreasuryV2.sol:PanaTreasuryV2",
        "label": "redemptionLimit",
        "offset": 0,
        "slot": "9",
        "type": "t_uint256"
      },
      {
        "astId": 10893,
        "contract": "contracts/treasury/TreasuryV2.sol:PanaTreasuryV2",
        "label": "useTreasuryPana",
        "offset": 0,
        "slot": "10",
        "type": "t_bool"
      },
      {
        "astId": 10896,
        "contract": "contracts/treasury/TreasuryV2.sol:PanaTreasuryV2",
        "label": "notAccepted",
        "offset": 0,
        "slot": "11",
        "type": "t_string_storage"
      },
      {
        "astId": 10899,
        "contract": "contracts/treasury/TreasuryV2.sol:PanaTreasuryV2",
        "label": "notApproved",
        "offset": 0,
        "slot": "12",
        "type": "t_string_storage"
      },
      {
        "astId": 10902,
        "contract": "contracts/treasury/TreasuryV2.sol:PanaTreasuryV2",
        "label": "invalidToken",
        "offset": 0,
        "slot": "13",
        "type": "t_string_storage"
      },
      {
        "astId": 10905,
        "contract": "contracts/treasury/TreasuryV2.sol:PanaTreasuryV2",
        "label": "noValuation",
        "offset": 0,
        "slot": "14",
        "type": "t_string_storage"
      }
    ],
    "types": {
      "t_address": {
        "encoding": "inplace",
        "label": "address",
        "numberOfBytes": "20"
      },
      "t_array(t_address)dyn_storage": {
        "base": "t_address",
        "encoding": "dynamic_array",
        "label": "address[]",
        "numberOfBytes": "32"
      },
      "t_array(t_struct(Queue)10859_storage)dyn_storage": {
        "base": "t_struct(Queue)10859_storage",
        "encoding": "dynamic_array",
        "label": "struct PanaTreasuryV2.Queue[]",
        "numberOfBytes": "32"
      },
      "t_bool": {
        "encoding": "inplace",
        "label": "bool",
        "numberOfBytes": "1"
      },
      "t_contract(IPanaAuthority)2684": {
        "encoding": "inplace",
        "label": "contract IPanaAuthority",
        "numberOfBytes": "20"
      },
      "t_contract(IsPana)3143": {
        "encoding": "inplace",
        "label": "contract IsPana",
        "numberOfBytes": "20"
      },
      "t_enum(STATUS)10846": {
        "encoding": "inplace",
        "label": "enum PanaTreasuryV2.STATUS",
        "numberOfBytes": "1"
      },
      "t_mapping(t_address,t_address)": {
        "encoding": "mapping",
        "key": "t_address",
        "label": "mapping(address => address)",
        "numberOfBytes": "32",
        "value": "t_address"
      },
      "t_mapping(t_address,t_bool)": {
        "encoding": "mapping",
        "key": "t_address",
        "label": "mapping(address => bool)",
        "numberOfBytes": "32",
        "value": "t_bool"
      },
      "t_mapping(t_enum(STATUS)10846,t_array(t_address)dyn_storage)": {
        "encoding": "mapping",
        "key": "t_enum(STATUS)10846",
        "label": "mapping(enum PanaTreasuryV2.STATUS => address[])",
        "numberOfBytes": "32",
        "value": "t_array(t_address)dyn_storage"
      },
      "t_mapping(t_enum(STATUS)10846,t_mapping(t_address,t_bool))": {
        "encoding": "mapping",
        "key": "t_enum(STATUS)10846",
        "label": "mapping(enum PanaTreasuryV2.STATUS => mapping(address => bool))",
        "numberOfBytes": "32",
        "value": "t_mapping(t_address,t_bool)"
      },
      "t_string_storage": {
        "encoding": "bytes",
        "label": "string",
        "numberOfBytes": "32"
      },
      "t_struct(Queue)10859_storage": {
        "encoding": "inplace",
        "label": "struct PanaTreasuryV2.Queue",
        "members": [
          {
            "astId": 10848,
            "contract": "contracts/treasury/TreasuryV2.sol:PanaTreasuryV2",
            "label": "managing",
            "offset": 0,
            "slot": "0",
            "type": "t_enum(STATUS)10846"
          },
          {
            "astId": 10850,
            "contract": "contracts/treasury/TreasuryV2.sol:PanaTreasuryV2",
            "label": "toPermit",
            "offset": 1,
            "slot": "0",
            "type": "t_address"
          },
          {
            "astId": 10852,
            "contract": "contracts/treasury/TreasuryV2.sol:PanaTreasuryV2",
            "label": "supplyController",
            "offset": 0,
            "slot": "1",
            "type": "t_address"
          },
          {
            "astId": 10854,
            "contract": "contracts/treasury/TreasuryV2.sol:PanaTreasuryV2",
            "label": "timelockEnd",
            "offset": 0,
            "slot": "2",
            "type": "t_uint256"
          },
          {
            "astId": 10856,
            "contract": "contracts/treasury/TreasuryV2.sol:PanaTreasuryV2",
            "label": "nullify",
            "offset": 0,
            "slot": "3",
            "type": "t_bool"
          },
          {
            "astId": 10858,
            "contract": "contracts/treasury/TreasuryV2.sol:PanaTreasuryV2",
            "label": "executed",
            "offset": 1,
            "slot": "3",
            "type": "t_bool"
          }
        ],
        "numberOfBytes": "128"
      },
      "t_uint256": {
        "encoding": "inplace",
        "label": "uint256",
        "numberOfBytes": "32"
      }
    }
  }
}