{
  "address": "0x1927d180e66cF627168ef2029136a772abFCe8C8",
  "abi": [
    {
      "inputs": [
        {
          "internalType": "address",
          "name": "_oldTreasury",
          "type": "address"
        },
        {
          "internalType": "address",
          "name": "_authority",
          "type": "address"
        }
      ],
      "stateMutability": "nonpayable",
      "type": "constructor"
    },
    {
      "anonymous": false,
      "inputs": [
        {
          "indexed": true,
          "internalType": "contract IPanaAuthority",
          "name": "authority",
          "type": "address"
        }
      ],
      "name": "AuthorityUpdated",
      "type": "event"
    },
    {
      "anonymous": false,
      "inputs": [
        {
          "indexed": false,
          "internalType": "address",
          "name": "treasury",
          "type": "address"
        }
      ],
      "name": "Migrated",
      "type": "event"
    },
    {
      "inputs": [],
      "name": "authority",
      "outputs": [
        {
          "internalType": "contract IPanaAuthority",
          "name": "",
          "type": "address"
        }
      ],
      "stateMutability": "view",
      "type": "function"
    },
    {
      "inputs": [
        {
          "internalType": "address",
          "name": "_newTreasury",
          "type": "address"
        }
      ],
      "name": "migrateContracts",
      "outputs": [],
      "stateMutability": "nonpayable",
      "type": "function"
    },
    {
      "inputs": [
        {
          "internalType": "address",
          "name": "token",
          "type": "address"
        }
      ],
      "name": "migrateToken",
      "outputs": [],
      "stateMutability": "nonpayable",
      "type": "function"
    },
    {
      "inputs": [],
      "name": "newTreasury",
      "outputs": [
        {
          "internalType": "contract ITreasury",
          "name": "",
          "type": "address"
        }
      ],
      "stateMutability": "view",
      "type": "function"
    },
    {
      "inputs": [],
      "name": "oldTreasury",
      "outputs": [
        {
          "internalType": "contract ITreasury",
          "name": "",
          "type": "address"
        }
      ],
      "stateMutability": "view",
      "type": "function"
    },
    {
      "inputs": [
        {
          "internalType": "contract IPanaAuthority",
          "name": "_newAuthority",
          "type": "address"
        }
      ],
      "name": "setAuthority",
      "outputs": [],
      "stateMutability": "nonpayable",
      "type": "function"
    }
  ],
  "transactionHash": "0x52a26f76a8673f34a7d064783ec3265bac19908bc0c8d29a2064070f36c00031",
  "args": [
    "0xf4414eeb85Da1932889997d13edA5B5ed137C19d",
    "0xcc654fbB3C1B12Be82D36Bc9C7E1CE075A422F80"
  ],
  "solcInputHash": "dd129afb7ea71da05b99137f81b53eb5",
  "bytecode": "0x60e0604052600c60a08190526b15539055551213d49256915160a21b60c090815261002d9160009190610122565b5034801561003a57600080fd5b50604051610af5380380610af58339818101604052604081101561005d57600080fd5b508051602090910151600180546001600160a01b0319166001600160a01b0383169081179091556040518291907f2f658b440c35314f52658ea8a740e05b284cdc84dc9ae01e891f21b8933e7cad90600090a2506001600160a01b03821661010c576040805162461bcd60e51b815260206004820152601660248201527f5a65726f20616464726573733a20547265617375727900000000000000000000604482015290519081900360640190fd5b5060601b6001600160601b0319166080526101c3565b828054600181600116156101000203166002900490600052602060002090601f016020900481019282610158576000855561019e565b82601f1061017157805160ff191683800117855561019e565b8280016001018555821561019e579182015b8281111561019e578251825591602001919060010190610183565b506101aa9291506101ae565b5090565b5b808211156101aa57600081556001016101af565b60805160601c61090b6101ea600039806104c2528061064c52806106ff525061090b6000f3fe608060405234801561001057600080fd5b50600436106100725760003560e01c8063bf7e214f11610050578063bf7e214f146100e9578063cf0ef516146100f1578063f96a6006146100f957610072565b80634579b8b4146100775780637a9e5e4b1461009b57806386189d16146100c3575b600080fd5b61007f61011f565b604080516001600160a01b039092168252519081900360200190f35b6100c1600480360360208110156100b157600080fd5b50356001600160a01b031661012e565b005b6100c1600480360360208110156100d957600080fd5b50356001600160a01b03166102ab565b61007f6104b1565b61007f6104c0565b6100c16004803603602081101561010f57600080fd5b50356001600160a01b03166104e4565b6002546001600160a01b031681565b600160009054906101000a90046001600160a01b03166001600160a01b0316630c340a246040518163ffffffff1660e01b815260040160206040518083038186803b15801561017c57600080fd5b505afa158015610190573d6000803e3d6000fd5b505050506040513d60208110156101a657600080fd5b50516000906001600160a01b031633146102535760405162461bcd60e51b81526020600482019081528254600260001961010060018416150201909116046024830181905290918291604490910190849080156102445780601f1061021957610100808354040283529160200191610244565b820191906000526020600020905b81548152906001019060200180831161022757829003601f168201915b50509250505060405180910390fd5b506001805473ffffffffffffffffffffffffffffffffffffffff19166001600160a01b0383169081179091556040517f2f658b440c35314f52658ea8a740e05b284cdc84dc9ae01e891f21b8933e7cad90600090a250565b600160009054906101000a90046001600160a01b03166001600160a01b0316630c340a246040518163ffffffff1660e01b815260040160206040518083038186803b1580156102f957600080fd5b505afa15801561030d573d6000803e3d6000fd5b505050506040513d602081101561032357600080fd5b50516000906001600160a01b031633146103965760405162461bcd60e51b81526020600482019081528254600260001961010060018416150201909116046024830181905290918291604490910190849080156102445780601f1061021957610100808354040283529160200191610244565b506001600160a01b0381166103f2576040805162461bcd60e51b815260206004820152601660248201527f5a65726f20616464726573733a20547265617375727900000000000000000000604482015290519081900360640190fd5b6002546001600160a01b031615610450576040805162461bcd60e51b815260206004820152601f60248201527f4e657720547265617375727920616c726561647920696e7469616c697a656400604482015290519081900360640190fd5b600280546001600160a01b03831673ffffffffffffffffffffffffffffffffffffffff19909116811790915560408051918252517fa2e7361c23d7820040603b83c0cd3f494d377bac69736377d75bb56c651a50989181900360200190a150565b6001546001600160a01b031681565b7f000000000000000000000000000000000000000000000000000000000000000081565b600160009054906101000a90046001600160a01b03166001600160a01b0316630c340a246040518163ffffffff1660e01b815260040160206040518083038186803b15801561053257600080fd5b505afa158015610546573d6000803e3d6000fd5b505050506040513d602081101561055c57600080fd5b50516000906001600160a01b031633146105cf5760405162461bcd60e51b81526020600482019081528254600260001961010060018416150201909116046024830181905290918291604490910190849080156102445780601f1061021957610100808354040283529160200191610244565b506002546001600160a01b031661062d576040805162461bcd60e51b815260206004820152601b60248201527f4e6577205472656173757279206e6f7420696e7469616c697a65640000000000604482015290519081900360640190fd5b61063681610639565b50565b6000816001600160a01b03166370a082317f00000000000000000000000000000000000000000000000000000000000000006040518263ffffffff1660e01b815260040180826001600160a01b0316815260200191505060206040518083038186803b1580156106a857600080fd5b505afa1580156106bc573d6000803e3d6000fd5b505050506040513d60208110156106d257600080fd5b50516040805162b0eee360e41b81526001600160a01b0385811660048301526024820184905291519293507f000000000000000000000000000000000000000000000000000000000000000090911691630b0eee309160448082019260009290919082900301818387803b15801561074957600080fd5b505af115801561075d573d6000803e3d6000fd5b505060025461077b92506001600160a01b038581169250168361077f565b5050565b604080516001600160a01b038481166024830152604480830185905283518084039091018152606490920183526020820180517bffffffffffffffffffffffffffffffffffffffffffffffffffffffff1663a9059cbb60e01b178152925182516000946060949389169392918291908083835b602083106108115780518252601f1990920191602091820191016107f2565b6001836020036101000a0380198251168184511680821785525050505050509050019150506000604051808303816000865af19150503d8060008114610873576040519150601f19603f3d011682016040523d82523d6000602084013e610878565b606091505b50915091508180156108a65750805115806108a657508080602001905160208110156108a357600080fd5b50515b6108f7576040805162461bcd60e51b815260206004820152600f60248201527f5452414e534645525f4641494c45440000000000000000000000000000000000604482015290519081900360640190fd5b505050505056fea164736f6c6343000705000a",
  "devdoc": {
    "kind": "dev",
    "methods": {},
    "version": 1
  },
  "userdoc": {
    "kind": "user",
    "methods": {},
    "version": 1
  },
  "storageLayout": {
    "storage": [
      {
        "astId": 314,
        "contract": "contracts/treasury/TreasuryMigrator.sol:TreasuryMigrator",
        "label": "UNAUTHORIZED",
        "offset": 0,
        "slot": "0",
        "type": "t_string_storage"
      },
      {
        "astId": 316,
        "contract": "contracts/treasury/TreasuryMigrator.sol:TreasuryMigrator",
        "label": "authority",
        "offset": 0,
        "slot": "1",
        "type": "t_contract(IPanaAuthority)2684"
      },
      {
        "astId": 10622,
        "contract": "contracts/treasury/TreasuryMigrator.sol:TreasuryMigrator",
        "label": "newTreasury",
        "offset": 0,
        "slot": "2",
        "type": "t_contract(ITreasury)2916"
      }
    ],
    "types": {
      "t_contract(IPanaAuthority)2684": {
        "encoding": "inplace",
        "label": "contract IPanaAuthority",
        "numberOfBytes": "20"
      },
      "t_contract(ITreasury)2916": {
        "encoding": "inplace",
        "label": "contract ITreasury",
        "numberOfBytes": "20"
      },
      "t_string_storage": {
        "encoding": "bytes",
        "label": "string",
        "numberOfBytes": "32"
      }
    }
  }
}