{
  "address": "0xe75c7C6C1491B91887FB4b72C4F42b0cD6B6eeBC",
  "abi": [
    {
      "inputs": [
        {
          "internalType": "address",
          "name": "_pana",
          "type": "address"
        },
        {
          "internalType": "uint256",
          "name": "_timelock",
          "type": "uint256"
        },
        {
          "internalType": "address",
          "name": "_authority",
          "type": "address"
        }
      ],
      "stateMutability": "nonpayable",
      "type": "constructor"
    },
    {
      "anonymous": false,
      "inputs": [
        {
          "indexed": true,
          "internalType": "contract IPanaAuthority",
          "name": "authority",
          "type": "address"
        }
      ],
      "name": "AuthorityUpdated",
      "type": "event"
    },
    {
      "anonymous": false,
      "inputs": [
        {
          "indexed": true,
          "internalType": "address",
          "name": "debtor",
          "type": "address"
        },
        {
          "indexed": true,
          "internalType": "address",
          "name": "token",
          "type": "address"
        },
        {
          "indexed": false,
          "internalType": "uint256",
          "name": "amount",
          "type": "uint256"
        },
        {
          "indexed": false,
          "internalType": "uint256",
          "name": "value",
          "type": "uint256"
        }
      ],
      "name": "CreateDebt",
      "type": "event"
    },
    {
      "anonymous": false,
      "inputs": [
        {
          "indexed": true,
          "internalType": "address",
          "name": "token",
          "type": "address"
        },
        {
          "indexed": false,
          "internalType": "uint256",
          "name": "amount",
          "type": "uint256"
        },
        {
          "indexed": false,
          "internalType": "uint256",
          "name": "value",
          "type": "uint256"
        }
      ],
      "name": "Deposit",
      "type": "event"
    },
    {
      "anonymous": false,
      "inputs": [
        {
          "indexed": true,
          "internalType": "address",
          "name": "token",
          "type": "address"
        },
        {
          "indexed": false,
          "internalType": "uint256",
          "name": "amount",
          "type": "uint256"
        }
      ],
      "name": "Managed",
      "type": "event"
    },
    {
      "anonymous": false,
      "inputs": [
        {
          "indexed": true,
          "internalType": "address",
          "name": "caller",
          "type": "address"
        },
        {
          "indexed": true,
          "internalType": "address",
          "name": "recipient",
          "type": "address"
        },
        {
          "indexed": false,
          "internalType": "uint256",
          "name": "amount",
          "type": "uint256"
        }
      ],
      "name": "Minted",
      "type": "event"
    },
    {
      "anonymous": false,
      "inputs": [
        {
          "indexed": true,
          "internalType": "enum PanaTreasury.STATUS",
          "name": "status",
          "type": "uint8"
        },
        {
          "indexed": false,
          "internalType": "address",
          "name": "queued",
          "type": "address"
        }
      ],
      "name": "PermissionQueued",
      "type": "event"
    },
    {
      "anonymous": false,
      "inputs": [
        {
          "indexed": false,
          "internalType": "address",
          "name": "addr",
          "type": "address"
        },
        {
          "indexed": true,
          "internalType": "enum PanaTreasury.STATUS",
          "name": "status",
          "type": "uint8"
        },
        {
          "indexed": false,
          "internalType": "bool",
          "name": "result",
          "type": "bool"
        }
      ],
      "name": "Permissioned",
      "type": "event"
    },
    {
      "anonymous": false,
      "inputs": [
        {
          "indexed": true,
          "internalType": "address",
          "name": "debtor",
          "type": "address"
        },
        {
          "indexed": true,
          "internalType": "address",
          "name": "token",
          "type": "address"
        },
        {
          "indexed": false,
          "internalType": "uint256",
          "name": "amount",
          "type": "uint256"
        },
        {
          "indexed": false,
          "internalType": "uint256",
          "name": "value",
          "type": "uint256"
        }
      ],
      "name": "RepayDebt",
      "type": "event"
    },
    {
      "anonymous": false,
      "inputs": [
        {
          "indexed": true,
          "internalType": "uint256",
          "name": "totalReserves",
          "type": "uint256"
        }
      ],
      "name": "ReservesAudited",
      "type": "event"
    },
    {
      "anonymous": false,
      "inputs": [
        {
          "indexed": true,
          "internalType": "address",
          "name": "token",
          "type": "address"
        },
        {
          "indexed": false,
          "internalType": "uint256",
          "name": "amount",
          "type": "uint256"
        },
        {
          "indexed": false,
          "internalType": "uint256",
          "name": "value",
          "type": "uint256"
        }
      ],
      "name": "Withdrawal",
      "type": "event"
    },
    {
      "inputs": [],
      "name": "PANA",
      "outputs": [
        {
          "internalType": "contract IPana",
          "name": "",
          "type": "address"
        }
      ],
      "stateMutability": "view",
      "type": "function"
    },
    {
      "inputs": [],
      "name": "auditReserves",
      "outputs": [],
      "stateMutability": "nonpayable",
      "type": "function"
    },
    {
      "inputs": [],
      "name": "authority",
      "outputs": [
        {
          "internalType": "contract IPanaAuthority",
          "name": "",
          "type": "address"
        }
      ],
      "stateMutability": "view",
      "type": "function"
    },
    {
      "inputs": [],
      "name": "baseSupply",
      "outputs": [
        {
          "internalType": "uint256",
          "name": "",
          "type": "uint256"
        }
      ],
      "stateMutability": "view",
      "type": "function"
    },
    {
      "inputs": [],
      "name": "baseValue",
      "outputs": [
        {
          "internalType": "uint256",
          "name": "",
          "type": "uint256"
        }
      ],
      "stateMutability": "view",
      "type": "function"
    },
    {
      "inputs": [],
      "name": "blocksNeededForQueue",
      "outputs": [
        {
          "internalType": "uint256",
          "name": "",
          "type": "uint256"
        }
      ],
      "stateMutability": "view",
      "type": "function"
    },
    {
      "inputs": [
        {
          "internalType": "address",
          "name": "",
          "type": "address"
        }
      ],
      "name": "bondCalculator",
      "outputs": [
        {
          "internalType": "address",
          "name": "",
          "type": "address"
        }
      ],
      "stateMutability": "view",
      "type": "function"
    },
    {
      "inputs": [
        {
          "internalType": "address",
          "name": "",
          "type": "address"
        }
      ],
      "name": "debtLimit",
      "outputs": [
        {
          "internalType": "uint256",
          "name": "",
          "type": "uint256"
        }
      ],
      "stateMutability": "view",
      "type": "function"
    },
    {
      "inputs": [
        {
          "internalType": "uint256",
          "name": "_amount",
          "type": "uint256"
        },
        {
          "internalType": "address",
          "name": "_token",
          "type": "address"
        },
        {
          "internalType": "uint256",
          "name": "_profit",
          "type": "uint256"
        }
      ],
      "name": "deposit",
      "outputs": [
        {
          "internalType": "uint256",
          "name": "send_",
          "type": "uint256"
        }
      ],
      "stateMutability": "nonpayable",
      "type": "function"
    },
    {
      "inputs": [
        {
          "internalType": "enum PanaTreasury.STATUS",
          "name": "_status",
          "type": "uint8"
        },
        {
          "internalType": "address",
          "name": "_toDisable",
          "type": "address"
        }
      ],
      "name": "disable",
      "outputs": [],
      "stateMutability": "nonpayable",
      "type": "function"
    },
    {
      "inputs": [],
      "name": "disableTimelock",
      "outputs": [],
      "stateMutability": "nonpayable",
      "type": "function"
    },
    {
      "inputs": [
        {
          "internalType": "enum PanaTreasury.STATUS",
          "name": "_status",
          "type": "uint8"
        },
        {
          "internalType": "address",
          "name": "_address",
          "type": "address"
        },
        {
          "internalType": "address",
          "name": "_calculator",
          "type": "address"
        },
        {
          "internalType": "address",
          "name": "_supplyController",
          "type": "address"
        }
      ],
      "name": "enable",
      "outputs": [],
      "stateMutability": "nonpayable",
      "type": "function"
    },
    {
      "inputs": [],
      "name": "excessReserves",
      "outputs": [
        {
          "internalType": "uint256",
          "name": "",
          "type": "uint256"
        }
      ],
      "stateMutability": "view",
      "type": "function"
    },
    {
      "inputs": [
        {
          "internalType": "uint256",
          "name": "_index",
          "type": "uint256"
        }
      ],
      "name": "execute",
      "outputs": [],
      "stateMutability": "nonpayable",
      "type": "function"
    },
    {
      "inputs": [
        {
          "internalType": "uint256",
          "name": "_amount",
          "type": "uint256"
        },
        {
          "internalType": "address",
          "name": "_token",
          "type": "address"
        }
      ],
      "name": "incurDebt",
      "outputs": [],
      "stateMutability": "nonpayable",
      "type": "function"
    },
    {
      "inputs": [
        {
          "internalType": "address",
          "name": "_address",
          "type": "address"
        },
        {
          "internalType": "enum PanaTreasury.STATUS",
          "name": "_status",
          "type": "uint8"
        }
      ],
      "name": "indexInRegistry",
      "outputs": [
        {
          "internalType": "bool",
          "name": "",
          "type": "bool"
        },
        {
          "internalType": "uint256",
          "name": "",
          "type": "uint256"
        }
      ],
      "stateMutability": "view",
      "type": "function"
    },
    {
      "inputs": [],
      "name": "initialize",
      "outputs": [],
      "stateMutability": "nonpayable",
      "type": "function"
    },
    {
      "inputs": [],
      "name": "initialized",
      "outputs": [
        {
          "internalType": "bool",
          "name": "",
          "type": "bool"
        }
      ],
      "stateMutability": "view",
      "type": "function"
    },
    {
      "inputs": [
        {
          "internalType": "address",
          "name": "_token",
          "type": "address"
        },
        {
          "internalType": "uint256",
          "name": "_amount",
          "type": "uint256"
        }
      ],
      "name": "manage",
      "outputs": [],
      "stateMutability": "nonpayable",
      "type": "function"
    },
    {
      "inputs": [
        {
          "internalType": "address",
          "name": "_recipient",
          "type": "address"
        },
        {
          "internalType": "uint256",
          "name": "_amount",
          "type": "uint256"
        }
      ],
      "name": "mint",
      "outputs": [],
      "stateMutability": "nonpayable",
      "type": "function"
    },
    {
      "inputs": [
        {
          "internalType": "uint256",
          "name": "_index",
          "type": "uint256"
        }
      ],
      "name": "nullify",
      "outputs": [],
      "stateMutability": "nonpayable",
      "type": "function"
    },
    {
      "inputs": [],
      "name": "onChainGovernanceTimelock",
      "outputs": [
        {
          "internalType": "uint256",
          "name": "",
          "type": "uint256"
        }
      ],
      "stateMutability": "view",
      "type": "function"
    },
    {
      "inputs": [],
      "name": "panaDebt",
      "outputs": [
        {
          "internalType": "uint256",
          "name": "",
          "type": "uint256"
        }
      ],
      "stateMutability": "view",
      "type": "function"
    },
    {
      "inputs": [
        {
          "internalType": "uint256",
          "name": "",
          "type": "uint256"
        }
      ],
      "name": "permissionQueue",
      "outputs": [
        {
          "internalType": "enum PanaTreasury.STATUS",
          "name": "managing",
          "type": "uint8"
        },
        {
          "internalType": "address",
          "name": "toPermit",
          "type": "address"
        },
        {
          "internalType": "address",
          "name": "calculator",
          "type": "address"
        },
        {
          "internalType": "address",
          "name": "supplyController",
          "type": "address"
        },
        {
          "internalType": "uint256",
          "name": "timelockEnd",
          "type": "uint256"
        },
        {
          "internalType": "bool",
          "name": "nullify",
          "type": "bool"
        },
        {
          "internalType": "bool",
          "name": "executed",
          "type": "bool"
        }
      ],
      "stateMutability": "view",
      "type": "function"
    },
    {
      "inputs": [
        {
          "internalType": "enum PanaTreasury.STATUS",
          "name": "",
          "type": "uint8"
        },
        {
          "internalType": "address",
          "name": "",
          "type": "address"
        }
      ],
      "name": "permissions",
      "outputs": [
        {
          "internalType": "bool",
          "name": "",
          "type": "bool"
        }
      ],
      "stateMutability": "view",
      "type": "function"
    },
    {
      "inputs": [
        {
          "internalType": "enum PanaTreasury.STATUS",
          "name": "_status",
          "type": "uint8"
        },
        {
          "internalType": "address",
          "name": "_address",
          "type": "address"
        },
        {
          "internalType": "address",
          "name": "_calculator",
          "type": "address"
        },
        {
          "internalType": "address",
          "name": "_supplyController",
          "type": "address"
        }
      ],
      "name": "queueTimelock",
      "outputs": [],
      "stateMutability": "nonpayable",
      "type": "function"
    },
    {
      "inputs": [
        {
          "internalType": "enum PanaTreasury.STATUS",
          "name": "",
          "type": "uint8"
        },
        {
          "internalType": "uint256",
          "name": "",
          "type": "uint256"
        }
      ],
      "name": "registry",
      "outputs": [
        {
          "internalType": "address",
          "name": "",
          "type": "address"
        }
      ],
      "stateMutability": "view",
      "type": "function"
    },
    {
      "inputs": [
        {
          "internalType": "uint256",
          "name": "_amount",
          "type": "uint256"
        }
      ],
      "name": "repayDebtWithPANA",
      "outputs": [],
      "stateMutability": "nonpayable",
      "type": "function"
    },
    {
      "inputs": [
        {
          "internalType": "uint256",
          "name": "_amount",
          "type": "uint256"
        },
        {
          "internalType": "address",
          "name": "_token",
          "type": "address"
        }
      ],
      "name": "repayDebtWithReserve",
      "outputs": [],
      "stateMutability": "nonpayable",
      "type": "function"
    },
    {
      "inputs": [],
      "name": "sPANA",
      "outputs": [
        {
          "internalType": "contract IsPana",
          "name": "",
          "type": "address"
        }
      ],
      "stateMutability": "view",
      "type": "function"
    },
    {
      "inputs": [
        {
          "internalType": "contract IPanaAuthority",
          "name": "_newAuthority",
          "type": "address"
        }
      ],
      "name": "setAuthority",
      "outputs": [],
      "stateMutability": "nonpayable",
      "type": "function"
    },
    {
      "inputs": [
        {
          "internalType": "uint256",
          "name": "_baseValue",
          "type": "uint256"
        }
      ],
      "name": "setBaseValue",
      "outputs": [],
      "stateMutability": "nonpayable",
      "type": "function"
    },
    {
      "inputs": [
        {
          "internalType": "address",
          "name": "_address",
          "type": "address"
        },
        {
          "internalType": "uint256",
          "name": "_limit",
          "type": "uint256"
        }
      ],
      "name": "setDebtLimit",
      "outputs": [],
      "stateMutability": "nonpayable",
      "type": "function"
    },
    {
      "inputs": [
        {
          "internalType": "address",
          "name": "",
          "type": "address"
        }
      ],
      "name": "supplyController",
      "outputs": [
        {
          "internalType": "address",
          "name": "",
          "type": "address"
        }
      ],
      "stateMutability": "view",
      "type": "function"
    },
    {
      "inputs": [],
      "name": "timelockEnabled",
      "outputs": [
        {
          "internalType": "bool",
          "name": "",
          "type": "bool"
        }
      ],
      "stateMutability": "view",
      "type": "function"
    },
    {
      "inputs": [
        {
          "internalType": "address",
          "name": "_token",
          "type": "address"
        },
        {
          "internalType": "uint256",
          "name": "_amount",
          "type": "uint256"
        }
      ],
      "name": "tokenValue",
      "outputs": [
        {
          "internalType": "uint256",
          "name": "value_",
          "type": "uint256"
        }
      ],
      "stateMutability": "view",
      "type": "function"
    },
    {
      "inputs": [],
      "name": "totalDebt",
      "outputs": [
        {
          "internalType": "uint256",
          "name": "",
          "type": "uint256"
        }
      ],
      "stateMutability": "view",
      "type": "function"
    },
    {
      "inputs": [],
      "name": "totalReserves",
      "outputs": [
        {
          "internalType": "uint256",
          "name": "",
          "type": "uint256"
        }
      ],
      "stateMutability": "view",
      "type": "function"
    },
    {
      "inputs": [
        {
          "internalType": "uint256",
          "name": "_amount",
          "type": "uint256"
        },
        {
          "internalType": "address",
          "name": "_token",
          "type": "address"
        }
      ],
      "name": "withdraw",
      "outputs": [],
      "stateMutability": "nonpayable",
      "type": "function"
    }
  ],
  "transactionHash": "0x498869388691234a472f50aa519cf23c45741840ec19897aa1e5bda31aba9f2a",
  "args": [
    "0x17382e3636f8a5c590Ef07Ee6Ef82fc9Ea93e10F",
    0,
    "0x496f1c34b517aEA2a1aFca60F83df1B346e3b274"
  ],
  "solcInputHash": "e0cf5b0272a43d8bcfbeb7c6531464a4",
  "bytecode": "0x610100604052600c60c08190526b15539055551213d49256915160a21b60e090815262000030916000919062000256565b506040805180820190915260168082527f54726561737572793a206e6f742061636365707465640000000000000000000060209092019182526200007791600f9162000256565b506040805180820190915260168082527f54726561737572793a206e6f7420617070726f766564000000000000000000006020909201918252620000be9160109162000256565b506040805180820190915260178082527f54726561737572793a20696e76616c696420746f6b656e0000000000000000006020909201918252620001059160119162000256565b5060408051808201909152601f8082527f54726561737572793a20696e73756666696369656e742072657365727665730060209092019182526200014c9160129162000256565b503480156200015a57600080fd5b5060405162004a8238038062004a82833981810160405260608110156200018057600080fd5b5080516020820151604092830151600180546001600160a01b0319166001600160a01b038316908117909155935192939192909182917f2f658b440c35314f52658ea8a740e05b284cdc84dc9ae01e891f21b8933e7cad90600090a2506001600160a01b0383166200022e576040805162461bcd60e51b81526020600482015260126024820152715a65726f20616464726573733a2050414e4160701b604482015290519081900360640190fd5b5060609190911b6001600160601b031916608052600c805461ffff1916905560a05262000302565b828054600181600116156101000203166002900490600052602060002090601f0160209004810192826200028e5760008555620002d9565b82601f10620002a957805160ff1916838001178555620002d9565b82800160010185558215620002d9579182015b82811115620002d9578251825591602001919060010190620002bc565b50620002e7929150620002eb565b5090565b5b80821115620002e75760008155600101620002ec565b60805160601c60a05161470962000379600039806125c3528061319e528061356052806135b85250806109435280610d2d5280610dc852806111b25280611211528061141952806115225280611b9752806122f452806127605280612bef528061300b52806130c7528061393852506147096000f3fe608060405234801561001057600080fd5b50600436106102ac5760003560e01c80637d921af01161017b578063bc157ac1116100d8578063d796ffb81161008c578063f182178311610071578063f18217831461076d578063fc7b9c1814610799578063fe0d94c1146107a1576102ac565b8063d796ffb814610700578063dc92552d1461072c576102ac565b8063c77af709116100bd578063c77af709146106ca578063ce2b7f0c146106d2578063d07f390f146106f8576102ac565b8063bc157ac114610690578063bf7e214f146106c2576102ac565b80639edd8d431161012f578063a44b828711610114578063a44b82871461065a578063b320f6a914610680578063b39df88e14610688576102ac565b80639edd8d43146106265780639fef32cc14610652576102ac565b8063860f504811610160578063860f5048146105cc5780638f840ddd146105d457806393988b53146105dc576102ac565b80637d921af0146105bc5780638129fc1c146105c4576102ac565b80633faf24a1116102295780635619004b116101dd57806371a45c95116101c257806371a45c951461057157806377e93ca81461058e5780637a9e5e4b14610596576102ac565b80635619004b1461054357806361bb9c5214610569576102ac565b8063503edcf01161020e578063503edcf01461044c578063505f4329146104d35780635299183114610514576102ac565b80633faf24a11461040357806340c10f1914610420576102ac565b8063158ef93e1161028057806328d58adf1161026557806328d58adf146103af5780632b7ce500146103cc578063330dd345146103d4576102ac565b8063158ef93e146103515780631af4da701461036d576102ac565b8062f714ce146102b15780630b0eee30146102df5780630c3513a81461030b57806312422d2314610325575b600080fd5b6102dd600480360360408110156102c757600080fd5b50803590602001356001600160a01b03166107be565b005b6102dd600480360360408110156102f557600080fd5b506001600160a01b038135169060200135610a3d565b610313610d20565b60408051918252519081900360200190f35b6102dd6004803603604081101561033b57600080fd5b50803590602001356001600160a01b0316610dc4565b6103596112f7565b604080519115158252519081900360200190f35b6103936004803603602081101561038357600080fd5b50356001600160a01b0316611305565b604080516001600160a01b039092168252519081900360200190f35b6102dd600480360360208110156103c557600080fd5b5035611320565b6102dd611573565b610359600480360360408110156103ea57600080fd5b50803560ff1690602001356001600160a01b0316611971565b6102dd6004803603602081101561041957600080fd5b5035611991565b6102dd6004803603604081101561043657600080fd5b506001600160a01b038135169060200135611a82565b6104696004803603602081101561046257600080fd5b5035611c68565b6040518088600a81111561047957fe5b8152602001876001600160a01b03168152602001866001600160a01b03168152602001856001600160a01b031681526020018481526020018315158152602001821515815260200197505050505050505060405180910390f35b6102dd600480360360808110156104e957600080fd5b5060ff813516906001600160a01b036020820135811691604081013582169160609091013516611cc9565b6102dd6004803603604081101561052a57600080fd5b50803560ff1690602001356001600160a01b0316611fb2565b6103136004803603602081101561055957600080fd5b50356001600160a01b03166121ba565b6103136121cc565b6102dd6004803603602081101561058757600080fd5b50356121d2565b6103936122f2565b6102dd600480360360208110156105ac57600080fd5b50356001600160a01b0316612316565b6102dd61244c565b6102dd6125f6565b610313612759565b6103136127e9565b61060b600480360360408110156105f257600080fd5b5080356001600160a01b0316906020013560ff166127ef565b60408051921515835260208301919091528051918290030190f35b6102dd6004803603604081101561063c57600080fd5b506001600160a01b0381351690602001356128d7565b6103936129df565b6103936004803603604081101561067057600080fd5b5060ff81351690602001356129ee565b610359612a26565b610313612a2f565b610313600480360360608110156106a657600080fd5b508035906001600160a01b036020820135169060400135612a35565b61039361316c565b61031361317b565b610393600480360360208110156106e857600080fd5b50356001600160a01b0316613181565b61031361319c565b6102dd6004803603604081101561071657600080fd5b50803590602001356001600160a01b03166131c0565b6102dd6004803603608081101561074257600080fd5b5060ff813516906001600160a01b0360208201358116916040810135821691606090910135166133fd565b6103136004803603604081101561078357600080fd5b506001600160a01b03813516906020013561376b565b6103136139d7565b6102dd600480360360208110156107b757600080fd5b50356139dd565b6001600160a01b03811660009081527f91da3fd0782e51c6b3986e9e672fd566868e71f3dbc2d6c2cd6fbb3e361af2a76020526040902054600f9060ff166108995760405162461bcd60e51b815260206004820190815282546002600019610100600184161502019091160460248301819052909182916044909101908490801561088a5780601f1061085f5761010080835404028352916020019161088a565b820191906000526020600020905b81548152906001019060200180831161086d57829003601f168201915b50509250505060405180910390fd5b503360009081527fabd6e7cb50984ff9c2f3e18a2660c3353dadf4e3291deeb275dae2cd1e44fe05602052604090205460109060ff166109325760405162461bcd60e51b815260206004820190815282546002600019610100600184161502019091160460248301819052909182916044909101908490801561088a5780601f1061085f5761010080835404028352916020019161088a565b50600061093f828461376b565b90507f00000000000000000000000000000000000000000000000000000000000000006001600160a01b03166379cc679033836040518363ffffffff1660e01b815260040180836001600160a01b0316815260200182815260200192505050600060405180830381600087803b1580156109b857600080fd5b505af11580156109cc573d6000803e3d6000fd5b50506008546109de9250905082613f17565b6008556109f56001600160a01b0383163385613f59565b604080518481526020810183905281516001600160a01b038516927fdf273cb619d95419a9cd0ec88123a0538c85064229baa6363788f743fff90deb928290030190a2505050565b6001600160a01b03821660009081527f04cde762ef08b6b6c5ded8e8c4c0b3f4e5c9ad7342c88fcc93681b4588b73f05602052604090205460ff1615610b1b573360009081527fc59312466997bb42aaaf719ece141047820e6b34531e1670dc1852a453648f0f602052604090205460109060ff16610b155760405162461bcd60e51b815260206004820190815282546002600019610100600184161502019091160460248301819052909182916044909101908490801561088a5780601f1061085f5761010080835404028352916020019161088a565b50610bb5565b3360009081527f2e174c10e159ea99b867ce3205125c24a42d128804e4070ed6fcc8cc98166aa0602052604090205460109060ff16610bb35760405162461bcd60e51b815260206004820190815282546002600019610100600184161502019091160460248301819052909182916044909101908490801561088a5780601f1061085f5761010080835404028352916020019161088a565b505b6001600160a01b03821660009081527f91da3fd0782e51c6b3986e9e672fd566868e71f3dbc2d6c2cd6fbb3e361af2a7602052604090205460ff1680610c3257506001600160a01b03821660009081527f04cde762ef08b6b6c5ded8e8c4c0b3f4e5c9ad7342c88fcc93681b4588b73f05602052604090205460ff165b15610cc9576000610c43838361376b565b9050610c4d610d20565b811115601290610cb65760405162461bcd60e51b815260206004820190815282546002600019610100600184161502019091160460248301819052909182916044909101908490801561088a5780601f1061085f5761010080835404028352916020019161088a565b50600854610cc49082613f17565b600855505b610cdd6001600160a01b0383163383613f59565b6040805182815290516001600160a01b038416917fb4460e34f1e91c4fa28eb7fac4cbd88cf530ef54a67e1978cd5edd9f77033ead919081900360200190a25050565b6000610dbf610db66009547f00000000000000000000000000000000000000000000000000000000000000006001600160a01b03166318160ddd6040518163ffffffff1660e01b815260040160206040518083038186803b158015610d8457600080fd5b505afa158015610d98573d6000803e3d6000fd5b505050506040513d6020811015610dae57600080fd5b505190613f17565b60085490613f17565b905090565b60007f00000000000000000000000000000000000000000000000000000000000000006001600160a01b0316826001600160a01b03161415610ea1573360009081527f5c6b02db8b672415ffad906d7ccee10bd53dbad7d0b29e2bc0e50c93d5f31093602052604090205460109060ff16610e985760405162461bcd60e51b815260206004820190815282546002600019610100600184161502019091160460248301819052909182916044909101908490801561088a5780601f1061085f5761010080835404028352916020019161088a565b50829050610fe9565b3360009081527fbeb3bad75134cb432e5707980e3245c52c5998a1125ee30f2f0dbf3925b1e551602052604090205460109060ff16610f395760405162461bcd60e51b815260206004820190815282546002600019610100600184161502019091160460248301819052909182916044909101908490801561088a5780601f1061085f5761010080835404028352916020019161088a565b506001600160a01b03821660009081527f91da3fd0782e51c6b3986e9e672fd566868e71f3dbc2d6c2cd6fbb3e361af2a76020526040902054600f9060ff16610fdb5760405162461bcd60e51b815260206004820190815282546002600019610100600184161502019091160460248301819052909182916044909101908490801561088a5780601f1061085f5761010080835404028352916020019161088a565b50610fe6828461376b565b90505b60118161104f5760405162461bcd60e51b815260206004820190815282546002600019610100600184161502019091160460248301819052909182916044909101908490801561088a5780601f1061085f5761010080835404028352916020019161088a565b506002546040805163ae5c6cd360e01b8152600481018490523360248201526001604482015290516001600160a01b039092169163ae5c6cd39160648082019260009290919082900301818387803b1580156110aa57600080fd5b505af11580156110be573d6000803e3d6000fd5b50503360008181526007602090815260409182902054600254835163313bc71360e21b8152600481019590955292519095506001600160a01b03909216935063c4ef1c4c9260248082019391829003018186803b15801561111e57600080fd5b505afa158015611132573d6000803e3d6000fd5b505050506040513d602081101561114857600080fd5b5051111561119d576040805162461bcd60e51b815260206004820152601760248201527f54726561737572793a2065786365656473206c696d6974000000000000000000604482015290519081900360640190fd5b6009546111aa90826140d8565b6009819055507f00000000000000000000000000000000000000000000000000000000000000006001600160a01b0316826001600160a01b0316141561128657604080516340c10f1960e01b81523360048201526024810183905290516001600160a01b037f000000000000000000000000000000000000000000000000000000000000000016916340c10f1991604480830192600092919082900301818387803b15801561125857600080fd5b505af115801561126c573d6000803e3d6000fd5b5050600a5461127e92509050826140d8565b600a556112aa565b6008546112939082613f17565b6008556112aa6001600160a01b0383163385613f59565b604080518481526020810183905281516001600160a01b0385169233927f7e1a939bed137a819b5d2979822c67f877689f7a863d5e4cb57cdca97b2977d6929081900390910190a3505050565b600c54610100900460ff1681565b6005602052600090815260409020546001600160a01b031681565b3360009081527fbeb3bad75134cb432e5707980e3245c52c5998a1125ee30f2f0dbf3925b1e551602052604090205460ff168061138b57503360009081527f5c6b02db8b672415ffad906d7ccee10bd53dbad7d0b29e2bc0e50c93d5f31093602052604090205460ff165b6010906113f15760405162461bcd60e51b815260206004820190815282546002600019610100600184161502019091160460248301819052909182916044909101908490801561088a5780601f1061085f5761010080835404028352916020019161088a565b506040805163079cc67960e41b81523360048201526024810183905290516001600160a01b037f000000000000000000000000000000000000000000000000000000000000000016916379cc679091604480830192600092919082900301818387803b15801561146057600080fd5b505af1158015611474573d6000803e3d6000fd5b50506002546040805163ae5c6cd360e01b81526004810186905233602482015260006044820181905291516001600160a01b03909316945063ae5c6cd393506064808201939182900301818387803b1580156114cf57600080fd5b505af11580156114e3573d6000803e3d6000fd5b50506009546114f59250905082613f17565b600955600a546115059082613f17565b600a55604080518281526020810183905281516001600160a01b037f0000000000000000000000000000000000000000000000000000000000000000169233927fc6d98eecfc9c78ab62c89a82950079b54874749f1f6f24090f7acc758bc2f309929081900390910190a350565b600160009054906101000a90046001600160a01b03166001600160a01b0316630c340a246040518163ffffffff1660e01b815260040160206040518083038186803b1580156115c157600080fd5b505afa1580156115d5573d6000803e3d6000fd5b505050506040513d60208110156115eb57600080fd5b50516000906001600160a01b0316331461165e5760405162461bcd60e51b815260206004820190815282546002600019610100600184161502019091160460248301819052909182916044909101908490801561088a5780601f1061085f5761010080835404028352916020019161088a565b5060026000908152600360209081527fc3a24b0501bd2c13a7e57f2db4369ec4c223447539fc0724a9d55ac4a06ebd4d80546040805182850281018501909152818152606093909291908301828280156116e157602002820191906000526020600020905b81546001600160a01b031681526001909101906020018083116116c3575b5050505050905060005b815181101561181a5760026000908152600460205282517f91da3fd0782e51c6b3986e9e672fd566868e71f3dbc2d6c2cd6fbb3e361af2a7919084908490811061173157fe5b6020908102919091018101516001600160a01b031682528101919091526040016000205460ff16156118125761180f61180883838151811061176f57fe5b602002602001015184848151811061178357fe5b60200260200101516001600160a01b03166370a08231306040518263ffffffff1660e01b815260040180826001600160a01b0316815260200191505060206040518083038186803b1580156117d757600080fd5b505afa1580156117eb573d6000803e3d6000fd5b505050506040513d602081101561180157600080fd5b505161376b565b84906140d8565b92505b6001016116eb565b506005600052600360209081527f405aad32e1adbac89bb7f176e338b8fc6e994ca210c9bb7bdca249b465942250805460408051828502810185019091528181526060939092919083018282801561189b57602002820191906000526020600020905b81546001600160a01b0316815260019091019060200180831161187d575b5050505050905060005b815181101561193b5760056000908152600460205282517f04cde762ef08b6b6c5ded8e8c4c0b3f4e5c9ad7342c88fcc93681b4588b73f0591908490849081106118eb57fe5b6020908102919091018101516001600160a01b031682528101919091526040016000205460ff16156119335761193061192983838151811061176f57fe5b85906140d8565b93505b6001016118a5565b50600883905560405183907fec691f09f6924b27932253f85caf99bacc30360cc0e50a1cc4d2acc24601446690600090a2505050565b600460209081526000928352604080842090915290825290205460ff1681565b600160009054906101000a90046001600160a01b03166001600160a01b0316630c340a246040518163ffffffff1660e01b815260040160206040518083038186803b1580156119df57600080fd5b505afa1580156119f3573d6000803e3d6000fd5b505050506040513d6020811015611a0957600080fd5b50516000906001600160a01b03163314611a7c5760405162461bcd60e51b815260206004820190815282546002600019610100600184161502019091160460248301819052909182916044909101908490801561088a5780601f1061085f5761010080835404028352916020019161088a565b50600e55565b3360009081527f2645749a946633740611cfc8178319f0958659d6922e4bf7e3a08b44789f53a4602052604090205460109060ff16611b1a5760405162461bcd60e51b815260206004820190815282546002600019610100600184161502019091160460248301819052909182916044909101908490801561088a5780601f1061085f5761010080835404028352916020019161088a565b50611b23614132565b611b2b610d20565b811115601290611b945760405162461bcd60e51b815260206004820190815282546002600019610100600184161502019091160460248301819052909182916044909101908490801561088a5780601f1061085f5761010080835404028352916020019161088a565b507f00000000000000000000000000000000000000000000000000000000000000006001600160a01b03166340c10f1983836040518363ffffffff1660e01b815260040180836001600160a01b0316815260200182815260200192505050600060405180830381600087803b158015611c0c57600080fd5b505af1158015611c20573d6000803e3d6000fd5b50506040805184815290516001600160a01b03861693503392507f9d228d69b5fdb8d273a2336f8fb8612d039631024ea9bf09c424a9503aa078f09181900360200190a35050565b600b8181548110611c7857600080fd5b60009182526020909120600590910201805460018201546002830154600384015460049094015460ff80851696506001600160a01b0361010095869004811696948116959316939282821692041687565b600160009054906101000a90046001600160a01b03166001600160a01b0316630c340a246040518163ffffffff1660e01b815260040160206040518083038186803b158015611d1757600080fd5b505afa158015611d2b573d6000803e3d6000fd5b505050506040513d6020811015611d4157600080fd5b50516000906001600160a01b03163314611db45760405162461bcd60e51b815260206004820190815282546002600019610100600184161502019091160460248301819052909182916044909101908490801561088a5780601f1061085f5761010080835404028352916020019161088a565b50600c5460ff1615611e0d576040805162461bcd60e51b815260206004820152601160248201527f55736520717565756554696d656c6f636b000000000000000000000000000000604482015290519081900360640190fd5b600984600a811115611e1b57fe5b1415611e4157600280546001600160a01b0319166001600160a01b038516179055611f5c565b60016004600086600a811115611e5357fe5b600a811115611e5e57fe5b8152602080820192909252604090810160009081206001600160a01b03881682529092529020805460ff1916911515919091179055600584600a811115611ea157fe5b1415611eef576001600160a01b03838116600090815260056020908152604080832080546001600160a01b031990811688871617909155600690925290912080549091169183169190911790555b6000611efb84866127ef565b50905080611f5a576003600086600a811115611f1357fe5b600a811115611f1e57fe5b8152602080820192909252604001600090812080546001810182559082529190200180546001600160a01b0319166001600160a01b0386161790555b505b83600a811115611f6857fe5b604080516001600160a01b03861681526001602082015281517f7531a7aefe3985500c4dec2dcb6049a708f14c6a8a9022b435b8841bdb8e1713929181900390910190a250505050565b600160009054906101000a90046001600160a01b03166001600160a01b0316630c340a246040518163ffffffff1660e01b815260040160206040518083038186803b15801561200057600080fd5b505afa158015612014573d6000803e3d6000fd5b505050506040513d602081101561202a57600080fd5b50516001600160a01b03163314806120c35750600160009054906101000a90046001600160a01b03166001600160a01b031663452a93206040518163ffffffff1660e01b815260040160206040518083038186803b15801561208b57600080fd5b505afa15801561209f573d6000803e3d6000fd5b505050506040513d60208110156120b557600080fd5b50516001600160a01b031633145b612114576040805162461bcd60e51b815260206004820152601960248201527f4f6e6c7920676f7665726e6f72206f7220677561726469616e00000000000000604482015290519081900360640190fd5b60006004600084600a81111561212657fe5b600a81111561213157fe5b8152602080820192909252604090810160009081206001600160a01b03861682529092529020805460ff191691151591909117905581600a81111561217257fe5b604080516001600160a01b03841681526000602082015281517f7531a7aefe3985500c4dec2dcb6049a708f14c6a8a9022b435b8841bdb8e1713929181900390910190a25050565b60076020526000908152604090205481565b600e5481565b600160009054906101000a90046001600160a01b03166001600160a01b0316630c340a246040518163ffffffff1660e01b815260040160206040518083038186803b15801561222057600080fd5b505afa158015612234573d6000803e3d6000fd5b505050506040513d602081101561224a57600080fd5b50516000906001600160a01b031633146122bd5760405162461bcd60e51b815260206004820190815282546002600019610100600184161502019091160460248301819052909182916044909101908490801561088a5780601f1061085f5761010080835404028352916020019161088a565b506001600b82815481106122cd57fe5b60009182526020909120600590910201600401805460ff191691151591909117905550565b7f000000000000000000000000000000000000000000000000000000000000000081565b600160009054906101000a90046001600160a01b03166001600160a01b0316630c340a246040518163ffffffff1660e01b815260040160206040518083038186803b15801561236457600080fd5b505afa158015612378573d6000803e3d6000fd5b505050506040513d602081101561238e57600080fd5b50516000906001600160a01b031633146124015760405162461bcd60e51b815260206004820190815282546002600019610100600184161502019091160460248301819052909182916044909101908490801561088a5780601f1061085f5761010080835404028352916020019161088a565b50600180546001600160a01b0319166001600160a01b0383169081179091556040517f2f658b440c35314f52658ea8a740e05b284cdc84dc9ae01e891f21b8933e7cad90600090a250565b600160009054906101000a90046001600160a01b03166001600160a01b0316630c340a246040518163ffffffff1660e01b815260040160206040518083038186803b15801561249a57600080fd5b505afa1580156124ae573d6000803e3d6000fd5b505050506040513d60208110156124c457600080fd5b50516000906001600160a01b031633146125375760405162461bcd60e51b815260206004820190815282546002600019610100600184161502019091160460248301819052909182916044909101908490801561088a5780601f1061085f5761010080835404028352916020019161088a565b50600c5460ff161515600114612594576040805162461bcd60e51b815260206004820152601960248201527f74696d656c6f636b20616c72656164792064697361626c656400000000000000604482015290519081900360640190fd5b600d54158015906125a7575043600d5411155b156125bb57600c805460ff191690556125f4565b6125f06125e97f00000000000000000000000000000000000000000000000000000000000000006007614367565b43906140d8565b600d555b565b600160009054906101000a90046001600160a01b03166001600160a01b0316630c340a246040518163ffffffff1660e01b815260040160206040518083038186803b15801561264457600080fd5b505afa158015612658573d6000803e3d6000fd5b505050506040513d602081101561266e57600080fd5b50516000906001600160a01b031633146126e15760405162461bcd60e51b815260206004820190815282546002600019610100600184161502019091160460248301819052909182916044909101908490801561088a5780601f1061085f5761010080835404028352916020019161088a565b50600c54610100900460ff161561273f576040805162461bcd60e51b815260206004820152601360248201527f416c726561647920696e697469616c697a656400000000000000000000000000604482015290519081900360640190fd5b600c805461ff001960ff1990911660011716610100179055565b6000600a547f00000000000000000000000000000000000000000000000000000000000000006001600160a01b03166318160ddd6040518163ffffffff1660e01b815260040160206040518083038186803b1580156127b757600080fd5b505afa1580156127cb573d6000803e3d6000fd5b505050506040513d60208110156127e157600080fd5b505103905090565b60085481565b60008060606003600085600a81111561280457fe5b600a81111561280f57fe5b815260200190815260200160002080548060200260200160405190810160405280929190818152602001828054801561287157602002820191906000526020600020905b81546001600160a01b03168152600190910190602001808311612853575b5050505050905060005b81518110156128c65781818151811061289057fe5b60200260200101516001600160a01b0316866001600160a01b031614156128be576001935091506128d09050565b60010161287b565b5060008092509250505b9250929050565b600160009054906101000a90046001600160a01b03166001600160a01b0316630c340a246040518163ffffffff1660e01b815260040160206040518083038186803b15801561292557600080fd5b505afa158015612939573d6000803e3d6000fd5b505050506040513d602081101561294f57600080fd5b50516000906001600160a01b031633146129c25760405162461bcd60e51b815260206004820190815282546002600019610100600184161502019091160460248301819052909182916044909101908490801561088a5780601f1061085f5761010080835404028352916020019161088a565b506001600160a01b03909116600090815260076020526040902055565b6002546001600160a01b031681565b60036020528160005260406000208181548110612a0a57600080fd5b6000918252602090912001546001600160a01b03169150829050565b600c5460ff1681565b600d5481565b6001600160a01b03821660009081527f91da3fd0782e51c6b3986e9e672fd566868e71f3dbc2d6c2cd6fbb3e361af2a7602052604081205460ff1615612b135760046000805b600a811115612a8657fe5b81526020808201929092526040908101600090812033825290925290205460109060ff16612b0d5760405162461bcd60e51b815260206004820190815282546002600019610100600184161502019091160460248301819052909182916044909101908490801561088a5780601f1061085f5761010080835404028352916020019161088a565b50612bbe565b6001600160a01b03831660009081527f04cde762ef08b6b6c5ded8e8c4c0b3f4e5c9ad7342c88fcc93681b4588b73f05602052604090205460ff1615612b5d576004600081612a7b565b60405162461bcd60e51b8152602060048201908152601180546002600019610100600184161502019091160460248401819052909282916044909101908490801561088a5780601f1061085f5761010080835404028352916020019161088a565b612bd36001600160a01b0384163330876143c0565b6000612bdf848661376b565b9050612beb8184613f17565b91507f00000000000000000000000000000000000000000000000000000000000000006001600160a01b03166340c10f1933846040518363ffffffff1660e01b815260040180836001600160a01b0316815260200182815260200192505050600060405180830381600087803b158015612c6457600080fd5b505af1158015612c78573d6000803e3d6000fd5b5050600854612c8a92509050826140d8565b600855604080518681526020810183905281516001600160a01b038716927f90890809c654f11d6e72a28fa60149770a0d11ec6c92319d6ceb2bb0a4ea1a15928290030190a26001600160a01b03841660009081527f04cde762ef08b6b6c5ded8e8c4c0b3f4e5c9ad7342c88fcc93681b4588b73f05602052604090205460ff168015612d3057506001600160a01b038481166000908152600660205260409020541615155b8015612db557506001600160a01b038085166000908152600660209081526040918290205482516376ad5a4d60e01b815292519316926376ad5a4d926004808201939291829003018186803b158015612d8857600080fd5b505afa158015612d9c573d6000803e3d6000fd5b505050506040513d6020811015612db257600080fd5b50515b8015612e3a57506001600160a01b0380851660009081526006602090815260409182902054825163506bedc760e11b8152925193169263a0d7db8e926004808201939291829003018186803b158015612e0d57600080fd5b505afa158015612e21573d6000803e3d6000fd5b505050506040513d6020811015612e3757600080fd5b50515b15613164576001600160a01b038085166000908152600660205260408082205481516366ac5b0b60e11b81529151929384938493929091169163cd58b616916004808301926060929190829003018186803b158015612e9857600080fd5b505afa158015612eac573d6000803e3d6000fd5b505050506040513d6060811015612ec257600080fd5b50805160208201516040909201519094509092509050821561316057808015612f63575081876001600160a01b03166370a08231306040518263ffffffff1660e01b815260040180826001600160a01b0316815260200191505060206040518083038186803b158015612f3457600080fd5b505afa158015612f48573d6000803e3d6000fd5b505050506040513d6020811015612f5e57600080fd5b505110155b15613008576001600160a01b03808816600081815260066020526040902054612f8d921684613f59565b6001600160a01b0380881660009081526006602052604080822054815163b390c0ab60e01b81526004810188905260248101879052915193169263b390c0ab9260448084019391929182900301818387803b158015612feb57600080fd5b505af1158015612fff573d6000803e3d6000fd5b50505050613160565b827f00000000000000000000000000000000000000000000000000000000000000006001600160a01b03166370a08231306040518263ffffffff1660e01b815260040180826001600160a01b0316815260200191505060206040518083038186803b15801561307657600080fd5b505afa15801561308a573d6000803e3d6000fd5b505050506040513d60208110156130a057600080fd5b505110613160576001600160a01b038088166000908152600660205260409020546130f0917f00000000000000000000000000000000000000000000000000000000000000008116911685613f59565b6001600160a01b03808816600090815260066020526040808220548151630801f16960e11b8152600481018890529151931692631003e2d29260248084019391929182900301818387803b15801561314757600080fd5b505af115801561315b573d6000803e3d6000fd5b505050505b5050505b509392505050565b6001546001600160a01b031681565b600a5481565b6006602052600090815260409020546001600160a01b031681565b7f000000000000000000000000000000000000000000000000000000000000000081565b3360009081527fbeb3bad75134cb432e5707980e3245c52c5998a1125ee30f2f0dbf3925b1e551602052604090205460109060ff166132585760405162461bcd60e51b815260206004820190815282546002600019610100600184161502019091160460248301819052909182916044909101908490801561088a5780601f1061085f5761010080835404028352916020019161088a565b506001600160a01b03811660009081527f91da3fd0782e51c6b3986e9e672fd566868e71f3dbc2d6c2cd6fbb3e361af2a76020526040902054600f9060ff166132fa5760405162461bcd60e51b815260206004820190815282546002600019610100600184161502019091160460248301819052909182916044909101908490801561088a5780601f1061085f5761010080835404028352916020019161088a565b506133106001600160a01b0382163330856143c0565b600061331c828461376b565b6002546040805163ae5c6cd360e01b81526004810184905233602482015260006044820181905291519394506001600160a01b039092169263ae5c6cd392606480820193929182900301818387803b15801561337757600080fd5b505af115801561338b573d6000803e3d6000fd5b505060095461339d9250905082613f17565b6009556008546133ad90826140d8565b600855604080518481526020810183905281516001600160a01b0385169233927fc6d98eecfc9c78ab62c89a82950079b54874749f1f6f24090f7acc758bc2f309929081900390910190a3505050565b600160009054906101000a90046001600160a01b03166001600160a01b0316630c340a246040518163ffffffff1660e01b815260040160206040518083038186803b15801561344b57600080fd5b505afa15801561345f573d6000803e3d6000fd5b505050506040513d602081101561347557600080fd5b50516000906001600160a01b031633146134e85760405162461bcd60e51b815260206004820190815282546002600019610100600184161502019091160460248301819052909182916044909101908490801561088a5780601f1061085f5761010080835404028352916020019161088a565b506001600160a01b0383166134fc57600080fd5b600c5460ff161515600114613558576040805162461bcd60e51b815260206004820181905260248201527f54696d656c6f636b2069732064697361626c65642c2075736520656e61626c65604482015290519081900360640190fd5b6000613584437f00000000000000000000000000000000000000000000000000000000000000006140d8565b9050600385600a81111561359457fe5b14806135ab5750600685600a8111156135a957fe5b145b156135e1576135de6125e97f00000000000000000000000000000000000000000000000000000000000000006002614367565b90505b600b6040518060e0016040528087600a8111156135fa57fe5b81526001600160a01b038088166020808401919091528782166040840152908616606083015260808201859052600060a0830181905260c090920182905283546001818101865594835291208251600590920201805492939092839160ff199091169083600a81111561366957fe5b0217905550602082015181547fffffffffffffffffffffff0000000000000000000000000000000000000000ff166101006001600160a01b03928316810291909117835560408401516001840180546001600160a01b031990811692851692909217905560608501516002850180549092169316929092179091556080830151600383015560a08301516004909201805460c09094015160ff199094169215159290921761ff0019169215150291909117905584600a81111561372857fe5b604080516001600160a01b038716815290517fc822ff41836a6dc998393c71843db8adcbbf01721f41b32389f6838ecb1ea9c89181900360200190a25050505050565b6000600e54600014156137c5576040805162461bcd60e51b815260206004820152601560248201527f426173652076616c7565206973206e6f74207365740000000000000000000000604482015290519081900360640190fd5b6001600160a01b03831660009081527f04cde762ef08b6b6c5ded8e8c4c0b3f4e5c9ad7342c88fcc93681b4588b73f05602052604090205460ff16156138a1576001600160a01b0380841660008181526005602090815260409182902054600e54835163bd689a4560e01b815260048101959095526024850188905260448501529151919093169263bd689a459260648082019391829003018186803b15801561386e57600080fd5b505afa158015613882573d6000803e3d6000fd5b505050506040513d602081101561389857600080fd5b505190506139d1565b6139ce836001600160a01b031663313ce5676040518163ffffffff1660e01b815260040160206040518083038186803b1580156138dd57600080fd5b505afa1580156138f1573d6000803e3d6000fd5b505050506040513d602081101561390757600080fd5b50516040805163313ce56760e01b8152905160ff909216600a0a916139c891633b9aca009183916001600160a01b037f0000000000000000000000000000000000000000000000000000000000000000169163313ce56791600480820192602092909190829003018186803b15801561397f57600080fd5b505afa158015613993573d6000803e3d6000fd5b505050506040513d60208110156139a957600080fd5b5051600e5460ff909116600a0a906139c2908990614367565b90614367565b90614548565b90505b92915050565b60095481565b600c5460ff161515600114613a39576040805162461bcd60e51b815260206004820181905260248201527f54696d656c6f636b2069732064697361626c65642c2075736520656e61626c65604482015290519081900360640190fd5b613a4161469d565b600b8281548110613a4e57fe5b600091825260209091206040805160e081019091526005909202018054829060ff16600a811115613a7b57fe5b600a811115613a8657fe5b815281546001600160a01b03610100918290048116602084015260018401548116604084015260028401541660608301526003830154608083015260049092015460ff808216151560a0808501919091529390910416151560c09091015281015190915015613b3c576040805162461bcd60e51b815260206004820152601960248201527f416374696f6e20686173206265656e206e756c6c696669656400000000000000604482015290519081900360640190fd5b8060c0015115613b93576040805162461bcd60e51b815260206004820181905260248201527f416374696f6e2068617320616c7265616479206265656e206578656375746564604482015290519081900360640190fd5b8060800151431015613bec576040805162461bcd60e51b815260206004820152601560248201527f54696d656c6f636b206e6f7420636f6d706c6574650000000000000000000000604482015290519081900360640190fd5b60098151600a811115613bfb57fe5b1415613c2a576020810151600280546001600160a01b0319166001600160a01b03909216919091179055613e7f565b6001600460008360000151600a811115613c4057fe5b600a811115613c4b57fe5b815260208082019290925260409081016000908120858401516001600160a01b031682529092529020805460ff191691151591909117905560058151600a811115613c9257fe5b1415613cf057604080820151602080840180516001600160a01b0390811660009081526005845285812080549583166001600160a01b0319968716179055606087015192518216815260069093529390912080549190931691161790555b6000613d04826020015183600001516127ef565b50905080613e7d57600360008360000151600a811115613d2057fe5b600a811115613d2b57fe5b81526020808201929092526040016000908120848301518154600181018355918352929091200180546001600160a01b0319166001600160a01b0390921691909117905560058251600a811115613d7e57fe5b1415613df857600080613d96846020015160026127ef565b915091508115613df157600260005260036020527fc3a24b0501bd2c13a7e57f2db4369ec4c223447539fc0724a9d55ac4a06ebd4d805482908110613dd757fe5b600091825260209091200180546001600160a01b03191690555b5050613e7d565b60028251600a811115613e0757fe5b1415613e7d57600080613e1f846020015160056127ef565b915091508115613e7a57600560005260036020527f405aad32e1adbac89bb7f176e338b8fc6e994ca210c9bb7bdca249b465942250805482908110613e6057fe5b600091825260209091200180546001600160a01b03191690555b50505b505b6001600b8381548110613e8e57fe5b6000918252602090912060046005909202010180549115156101000261ff00199092169190911790558051600a811115613ec457fe5b7f7531a7aefe3985500c4dec2dcb6049a708f14c6a8a9022b435b8841bdb8e17138260200151600160405180836001600160a01b0316815260200182151581526020019250505060405180910390a25050565b60006139ce83836040518060400160405280601e81526020017f536166654d6174683a207375627472616374696f6e206f766572666c6f77000081525061458a565b604080516001600160a01b038481166024830152604480830185905283518084039091018152606490920183526020820180517bffffffffffffffffffffffffffffffffffffffffffffffffffffffff1663a9059cbb60e01b178152925182516000946060949389169392918291908083835b60208310613feb5780518252601f199092019160209182019101613fcc565b6001836020036101000a0380198251168184511680821785525050505050509050019150506000604051808303816000865af19150503d806000811461404d576040519150601f19603f3d011682016040523d82523d6000602084013e614052565b606091505b5091509150818015614080575080511580614080575080806020019051602081101561407d57600080fd5b50515b6140d1576040805162461bcd60e51b815260206004820152600f60248201527f5452414e534645525f4641494c45440000000000000000000000000000000000604482015290519081900360640190fd5b5050505050565b6000828201838110156139ce576040805162461bcd60e51b815260206004820152601b60248201527f536166654d6174683a206164646974696f6e206f766572666c6f770000000000604482015290519081900360640190fd5b60026000908152600360209081527fc3a24b0501bd2c13a7e57f2db4369ec4c223447539fc0724a9d55ac4a06ebd4d80546040805182850281018501909152818152606093909291908301828280156141b457602002820191906000526020600020905b81546001600160a01b03168152600190910190602001808311614196575b5050505050905060005b815181101561424d5760026000908152600460205282517f91da3fd0782e51c6b3986e9e672fd566868e71f3dbc2d6c2cd6fbb3e361af2a7919084908490811061420457fe5b6020908102919091018101516001600160a01b031682528101919091526040016000205460ff16156142455761424261180883838151811061176f57fe5b92505b6001016141be565b506005600052600360209081527f405aad32e1adbac89bb7f176e338b8fc6e994ca210c9bb7bdca249b46594225080546040805182850281018501909152818152606093909291908301828280156142ce57602002820191906000526020600020905b81546001600160a01b031681526001909101906020018083116142b0575b5050505050905060005b815181101561193b5760056000908152600460205282517f04cde762ef08b6b6c5ded8e8c4c0b3f4e5c9ad7342c88fcc93681b4588b73f05919084908490811061431e57fe5b6020908102919091018101516001600160a01b031682528101919091526040016000205460ff161561435f5761435c61192983838151811061176f57fe5b93505b6001016142d8565b600082614376575060006139d1565b8282028284828161438357fe5b04146139ce5760405162461bcd60e51b81526004018080602001828103825260218152602001806146dc6021913960400191505060405180910390fd5b604080516001600160a01b0385811660248301528481166044830152606480830185905283518084039091018152608490920183526020820180517bffffffffffffffffffffffffffffffffffffffffffffffffffffffff166323b872dd60e01b17815292518251600094606094938a169392918291908083835b6020831061445a5780518252601f19909201916020918201910161443b565b6001836020036101000a0380198251168184511680821785525050505050509050019150506000604051808303816000865af19150503d80600081146144bc576040519150601f19603f3d011682016040523d82523d6000602084013e6144c1565b606091505b50915091508180156144ef5750805115806144ef57508080602001905160208110156144ec57600080fd5b50515b614540576040805162461bcd60e51b815260206004820152601460248201527f5452414e534645525f46524f4d5f4641494c4544000000000000000000000000604482015290519081900360640190fd5b505050505050565b60006139ce83836040518060400160405280601a81526020017f536166654d6174683a206469766973696f6e206279207a65726f000000000000815250614621565b600081848411156146195760405162461bcd60e51b81526004018080602001828103825283818151815260200191508051906020019080838360005b838110156145de5781810151838201526020016145c6565b50505050905090810190601f16801561460b5780820380516001836020036101000a031916815260200191505b509250505060405180910390fd5b505050900390565b600081836146705760405162461bcd60e51b81526020600482018181528351602484015283519092839260449091019190850190808383600083156145de5781810151838201526020016145c6565b50600083858161467c57fe5b04905083858161468857fe5b0681850201851461469557fe5b949350505050565b6040805160e08101909152806000815260006020820181905260408201819052606082018190526080820181905260a0820181905260c0909101529056fe536166654d6174683a206d756c7469706c69636174696f6e206f766572666c6f77a164736f6c6343000705000a",
  "devdoc": {
    "kind": "dev",
    "methods": {
      "baseSupply()": {
        "details": "use this any time you need to query supply",
        "returns": {
          "_0": "uint256"
        }
      },
      "deposit(uint256,address,uint256)": {
        "params": {
          "_amount": "uint256",
          "_profit": "uint256",
          "_token": "address"
        },
        "returns": {
          "send_": "uint256"
        }
      },
      "disable(uint8,address)": {
        "params": {
          "_status": "STATUS",
          "_toDisable": "address"
        }
      },
      "enable(uint8,address,address,address)": {
        "params": {
          "_address": "address",
          "_calculator": "address",
          "_status": "STATUS"
        }
      },
      "excessReserves()": {
        "returns": {
          "_0": "uint"
        }
      },
      "execute(uint256)": {
        "params": {
          "_index": "uint256"
        }
      },
      "incurDebt(uint256,address)": {
        "params": {
          "_amount": "uint256",
          "_token": "address"
        }
      },
      "indexInRegistry(address,uint8)": {
        "returns": {
          "_0": "(bool, uint256)"
        }
      },
      "manage(address,uint256)": {
        "params": {
          "_amount": "uint256",
          "_token": "address"
        }
      },
      "mint(address,uint256)": {
        "params": {
          "_amount": "uint256",
          "_recipient": "address"
        }
      },
      "nullify(uint256)": {
        "params": {
          "_index": "uint256"
        }
      },
      "queueTimelock(uint8,address,address,address)": {
        "params": {
          "_address": "address",
          "_calculator": "address",
          "_status": "STATUS"
        }
      },
      "repayDebtWithPANA(uint256)": {
        "params": {
          "_amount": "uint256"
        }
      },
      "repayDebtWithReserve(uint256,address)": {
        "params": {
          "_amount": "uint256",
          "_token": "address"
        }
      },
      "setBaseValue(uint256)": {
        "params": {
          "_baseValue": "base value of PANA expressed in terms of X PANA per 1 reserve token (DAI), 9 decimals "
        }
      },
      "setDebtLimit(address,uint256)": {
        "params": {
          "_address": "address",
          "_limit": "uint256"
        }
      },
      "tokenValue(address,uint256)": {
        "params": {
          "_amount": "uint256",
          "_token": "address"
        },
        "returns": {
          "value_": "uint256"
        }
      },
      "withdraw(uint256,address)": {
        "params": {
          "_amount": "uint256",
          "_token": "address"
        }
      }
    },
    "version": 1
  },
  "userdoc": {
    "kind": "user",
    "methods": {
      "auditReserves()": {
        "notice": "takes inventory of all tracked assetsalways consolidate to recognized reserves before audit"
      },
      "baseSupply()": {
        "notice": "returns supply metric that cannot be manipulated by debt"
      },
      "deposit(uint256,address,uint256)": {
        "notice": "allow approved address to deposit an asset for PANA"
      },
      "disable(uint8,address)": {
        "notice": "disable permission from address"
      },
      "disableTimelock()": {
        "notice": "disables timelocked functions"
      },
      "enable(uint8,address,address,address)": {
        "notice": "enable permission from queue"
      },
      "excessReserves()": {
        "notice": "returns excess reserves not backing tokens"
      },
      "execute(uint256)": {
        "notice": "enable queued permission"
      },
      "incurDebt(uint256,address)": {
        "notice": "allow approved address to borrow reserves"
      },
      "indexInRegistry(address,uint8)": {
        "notice": "check if registry contains address"
      },
      "initialize()": {
        "notice": "enables timelocks after initilization"
      },
      "manage(address,uint256)": {
        "notice": "allow approved address to withdraw assets"
      },
      "mint(address,uint256)": {
        "notice": "mint new PANA using excess reserves"
      },
      "nullify(uint256)": {
        "notice": "cancel timelocked action"
      },
      "queueTimelock(uint8,address,address,address)": {
        "notice": "queue address to receive permission"
      },
      "repayDebtWithPANA(uint256)": {
        "notice": "allow approved address to repay borrowed reserves with PANA"
      },
      "repayDebtWithReserve(uint256,address)": {
        "notice": "allow approved address to repay borrowed reserves with reserves"
      },
      "setBaseValue(uint256)": {
        "notice": "sets PANA token base value"
      },
      "setDebtLimit(address,uint256)": {
        "notice": "set max debt for address"
      },
      "tokenValue(address,uint256)": {
        "notice": "returns PANA valuation of asset"
      },
      "withdraw(uint256,address)": {
        "notice": "allow approved address to burn PANA for reserves"
      }
    },
    "version": 1
  },
  "storageLayout": {
    "storage": [
      {
        "astId": 314,
        "contract": "contracts/treasury/Treasury.sol:PanaTreasury",
        "label": "UNAUTHORIZED",
        "offset": 0,
        "slot": "0",
        "type": "t_string_storage"
      },
      {
        "astId": 316,
        "contract": "contracts/treasury/Treasury.sol:PanaTreasury",
        "label": "authority",
        "offset": 0,
        "slot": "1",
        "type": "t_contract(IPanaAuthority)1953"
      },
      {
        "astId": 7973,
        "contract": "contracts/treasury/Treasury.sol:PanaTreasury",
        "label": "sPANA",
        "offset": 0,
        "slot": "2",
        "type": "t_contract(IsPana)2409"
      },
      {
        "astId": 7978,
        "contract": "contracts/treasury/Treasury.sol:PanaTreasury",
        "label": "registry",
        "offset": 0,
        "slot": "3",
        "type": "t_mapping(t_enum(STATUS)7954,t_array(t_address)dyn_storage)"
      },
      {
        "astId": 7984,
        "contract": "contracts/treasury/Treasury.sol:PanaTreasury",
        "label": "permissions",
        "offset": 0,
        "slot": "4",
        "type": "t_mapping(t_enum(STATUS)7954,t_mapping(t_address,t_bool))"
      },
      {
        "astId": 7988,
        "contract": "contracts/treasury/Treasury.sol:PanaTreasury",
        "label": "bondCalculator",
        "offset": 0,
        "slot": "5",
        "type": "t_mapping(t_address,t_address)"
      },
      {
        "astId": 7992,
        "contract": "contracts/treasury/Treasury.sol:PanaTreasury",
        "label": "supplyController",
        "offset": 0,
        "slot": "6",
        "type": "t_mapping(t_address,t_address)"
      },
      {
        "astId": 7996,
        "contract": "contracts/treasury/Treasury.sol:PanaTreasury",
        "label": "debtLimit",
        "offset": 0,
        "slot": "7",
        "type": "t_mapping(t_address,t_uint256)"
      },
      {
        "astId": 7998,
        "contract": "contracts/treasury/Treasury.sol:PanaTreasury",
        "label": "totalReserves",
        "offset": 0,
        "slot": "8",
        "type": "t_uint256"
      },
      {
        "astId": 8000,
        "contract": "contracts/treasury/Treasury.sol:PanaTreasury",
        "label": "totalDebt",
        "offset": 0,
        "slot": "9",
        "type": "t_uint256"
      },
      {
        "astId": 8002,
        "contract": "contracts/treasury/Treasury.sol:PanaTreasury",
        "label": "panaDebt",
        "offset": 0,
        "slot": "10",
        "type": "t_uint256"
      },
      {
        "astId": 8005,
        "contract": "contracts/treasury/Treasury.sol:PanaTreasury",
        "label": "permissionQueue",
        "offset": 0,
        "slot": "11",
        "type": "t_array(t_struct(Queue)7969_storage)dyn_storage"
      },
      {
        "astId": 8009,
        "contract": "contracts/treasury/Treasury.sol:PanaTreasury",
        "label": "timelockEnabled",
        "offset": 0,
        "slot": "12",
        "type": "t_bool"
      },
      {
        "astId": 8011,
        "contract": "contracts/treasury/Treasury.sol:PanaTreasury",
        "label": "initialized",
        "offset": 1,
        "slot": "12",
        "type": "t_bool"
      },
      {
        "astId": 8013,
        "contract": "contracts/treasury/Treasury.sol:PanaTreasury",
        "label": "onChainGovernanceTimelock",
        "offset": 0,
        "slot": "13",
        "type": "t_uint256"
      },
      {
        "astId": 8015,
        "contract": "contracts/treasury/Treasury.sol:PanaTreasury",
        "label": "baseValue",
        "offset": 0,
        "slot": "14",
        "type": "t_uint256"
      },
      {
        "astId": 8018,
        "contract": "contracts/treasury/Treasury.sol:PanaTreasury",
        "label": "notAccepted",
        "offset": 0,
        "slot": "15",
        "type": "t_string_storage"
      },
      {
        "astId": 8021,
        "contract": "contracts/treasury/Treasury.sol:PanaTreasury",
        "label": "notApproved",
        "offset": 0,
        "slot": "16",
        "type": "t_string_storage"
      },
      {
        "astId": 8024,
        "contract": "contracts/treasury/Treasury.sol:PanaTreasury",
        "label": "invalidToken",
        "offset": 0,
        "slot": "17",
        "type": "t_string_storage"
      },
      {
        "astId": 8027,
        "contract": "contracts/treasury/Treasury.sol:PanaTreasury",
        "label": "insufficientReserves",
        "offset": 0,
        "slot": "18",
        "type": "t_string_storage"
      }
    ],
    "types": {
      "t_address": {
        "encoding": "inplace",
        "label": "address",
        "numberOfBytes": "20"
      },
      "t_array(t_address)dyn_storage": {
        "base": "t_address",
        "encoding": "dynamic_array",
        "label": "address[]",
        "numberOfBytes": "32"
      },
      "t_array(t_struct(Queue)7969_storage)dyn_storage": {
        "base": "t_struct(Queue)7969_storage",
        "encoding": "dynamic_array",
        "label": "struct PanaTreasury.Queue[]",
        "numberOfBytes": "32"
      },
      "t_bool": {
        "encoding": "inplace",
        "label": "bool",
        "numberOfBytes": "1"
      },
      "t_contract(IPanaAuthority)1953": {
        "encoding": "inplace",
        "label": "contract IPanaAuthority",
        "numberOfBytes": "20"
      },
      "t_contract(IsPana)2409": {
        "encoding": "inplace",
        "label": "contract IsPana",
        "numberOfBytes": "20"
      },
      "t_enum(STATUS)7954": {
        "encoding": "inplace",
        "label": "enum PanaTreasury.STATUS",
        "numberOfBytes": "1"
      },
      "t_mapping(t_address,t_address)": {
        "encoding": "mapping",
        "key": "t_address",
        "label": "mapping(address => address)",
        "numberOfBytes": "32",
        "value": "t_address"
      },
      "t_mapping(t_address,t_bool)": {
        "encoding": "mapping",
        "key": "t_address",
        "label": "mapping(address => bool)",
        "numberOfBytes": "32",
        "value": "t_bool"
      },
      "t_mapping(t_address,t_uint256)": {
        "encoding": "mapping",
        "key": "t_address",
        "label": "mapping(address => uint256)",
        "numberOfBytes": "32",
        "value": "t_uint256"
      },
      "t_mapping(t_enum(STATUS)7954,t_array(t_address)dyn_storage)": {
        "encoding": "mapping",
        "key": "t_enum(STATUS)7954",
        "label": "mapping(enum PanaTreasury.STATUS => address[])",
        "numberOfBytes": "32",
        "value": "t_array(t_address)dyn_storage"
      },
      "t_mapping(t_enum(STATUS)7954,t_mapping(t_address,t_bool))": {
        "encoding": "mapping",
        "key": "t_enum(STATUS)7954",
        "label": "mapping(enum PanaTreasury.STATUS => mapping(address => bool))",
        "numberOfBytes": "32",
        "value": "t_mapping(t_address,t_bool)"
      },
      "t_string_storage": {
        "encoding": "bytes",
        "label": "string",
        "numberOfBytes": "32"
      },
      "t_struct(Queue)7969_storage": {
        "encoding": "inplace",
        "label": "struct PanaTreasury.Queue",
        "members": [
          {
            "astId": 7956,
            "contract": "contracts/treasury/Treasury.sol:PanaTreasury",
            "label": "managing",
            "offset": 0,
            "slot": "0",
            "type": "t_enum(STATUS)7954"
          },
          {
            "astId": 7958,
            "contract": "contracts/treasury/Treasury.sol:PanaTreasury",
            "label": "toPermit",
            "offset": 1,
            "slot": "0",
            "type": "t_address"
          },
          {
            "astId": 7960,
            "contract": "contracts/treasury/Treasury.sol:PanaTreasury",
            "label": "calculator",
            "offset": 0,
            "slot": "1",
            "type": "t_address"
          },
          {
            "astId": 7962,
            "contract": "contracts/treasury/Treasury.sol:PanaTreasury",
            "label": "supplyController",
            "offset": 0,
            "slot": "2",
            "type": "t_address"
          },
          {
            "astId": 7964,
            "contract": "contracts/treasury/Treasury.sol:PanaTreasury",
            "label": "timelockEnd",
            "offset": 0,
            "slot": "3",
            "type": "t_uint256"
          },
          {
            "astId": 7966,
            "contract": "contracts/treasury/Treasury.sol:PanaTreasury",
            "label": "nullify",
            "offset": 0,
            "slot": "4",
            "type": "t_bool"
          },
          {
            "astId": 7968,
            "contract": "contracts/treasury/Treasury.sol:PanaTreasury",
            "label": "executed",
            "offset": 1,
            "slot": "4",
            "type": "t_bool"
          }
        ],
        "numberOfBytes": "160"
      },
      "t_uint256": {
        "encoding": "inplace",
        "label": "uint256",
        "numberOfBytes": "32"
      }
    }
  }
}