{
  "address": "0x1d9b9A9C9c629aF1ec467C639cf84DfE23EDe152",
  "abi": [
    {
      "inputs": [
        {
          "internalType": "address",
          "name": "_authority",
          "type": "address"
        }
      ],
      "stateMutability": "nonpayable",
      "type": "constructor"
    },
    {
      "anonymous": false,
      "inputs": [
        {
          "indexed": true,
          "internalType": "address",
          "name": "owner",
          "type": "address"
        },
        {
          "indexed": true,
          "internalType": "address",
          "name": "spender",
          "type": "address"
        },
        {
          "indexed": false,
          "internalType": "uint256",
          "name": "value",
          "type": "uint256"
        }
      ],
      "name": "Approval",
      "type": "event"
    },
    {
      "anonymous": false,
      "inputs": [
        {
          "indexed": true,
          "internalType": "contract IPanaAuthority",
          "name": "authority",
          "type": "address"
        }
      ],
      "name": "AuthorityUpdated",
      "type": "event"
    },
    {
      "anonymous": false,
      "inputs": [
        {
          "indexed": false,
          "internalType": "uint256",
          "name": "totalDistributed",
          "type": "uint256"
        }
      ],
      "name": "DistributionConcluded",
      "type": "event"
    },
    {
      "anonymous": false,
      "inputs": [
        {
          "indexed": true,
          "internalType": "address",
          "name": "from",
          "type": "address"
        },
        {
          "indexed": true,
          "internalType": "address",
          "name": "to",
          "type": "address"
        },
        {
          "indexed": false,
          "internalType": "uint256",
          "name": "value",
          "type": "uint256"
        }
      ],
      "name": "Transfer",
      "type": "event"
    },
    {
      "inputs": [],
      "name": "DOMAIN_SEPARATOR",
      "outputs": [
        {
          "internalType": "bytes32",
          "name": "",
          "type": "bytes32"
        }
      ],
      "stateMutability": "view",
      "type": "function"
    },
    {
      "inputs": [
        {
          "internalType": "address",
          "name": "owner",
          "type": "address"
        },
        {
          "internalType": "address",
          "name": "spender",
          "type": "address"
        }
      ],
      "name": "allowance",
      "outputs": [
        {
          "internalType": "uint256",
          "name": "",
          "type": "uint256"
        }
      ],
      "stateMutability": "view",
      "type": "function"
    },
    {
      "inputs": [
        {
          "internalType": "address",
          "name": "spender",
          "type": "address"
        },
        {
          "internalType": "uint256",
          "name": "amount",
          "type": "uint256"
        }
      ],
      "name": "approve",
      "outputs": [
        {
          "internalType": "bool",
          "name": "",
          "type": "bool"
        }
      ],
      "stateMutability": "nonpayable",
      "type": "function"
    },
    {
      "inputs": [],
      "name": "authority",
      "outputs": [
        {
          "internalType": "contract IPanaAuthority",
          "name": "",
          "type": "address"
        }
      ],
      "stateMutability": "view",
      "type": "function"
    },
    {
      "inputs": [
        {
          "internalType": "address",
          "name": "account",
          "type": "address"
        }
      ],
      "name": "balanceOf",
      "outputs": [
        {
          "internalType": "uint256",
          "name": "",
          "type": "uint256"
        }
      ],
      "stateMutability": "view",
      "type": "function"
    },
    {
      "inputs": [
        {
          "internalType": "uint256",
          "name": "amount",
          "type": "uint256"
        }
      ],
      "name": "burn",
      "outputs": [],
      "stateMutability": "nonpayable",
      "type": "function"
    },
    {
      "inputs": [
        {
          "internalType": "address",
          "name": "account_",
          "type": "address"
        },
        {
          "internalType": "uint256",
          "name": "amount_",
          "type": "uint256"
        }
      ],
      "name": "burnFrom",
      "outputs": [],
      "stateMutability": "nonpayable",
      "type": "function"
    },
    {
      "inputs": [],
      "name": "concludeDistribution",
      "outputs": [],
      "stateMutability": "nonpayable",
      "type": "function"
    },
    {
      "inputs": [],
      "name": "decimals",
      "outputs": [
        {
          "internalType": "uint8",
          "name": "",
          "type": "uint8"
        }
      ],
      "stateMutability": "view",
      "type": "function"
    },
    {
      "inputs": [
        {
          "internalType": "address",
          "name": "spender",
          "type": "address"
        },
        {
          "internalType": "uint256",
          "name": "subtractedValue",
          "type": "uint256"
        }
      ],
      "name": "decreaseAllowance",
      "outputs": [
        {
          "internalType": "bool",
          "name": "",
          "type": "bool"
        }
      ],
      "stateMutability": "nonpayable",
      "type": "function"
    },
    {
      "inputs": [],
      "name": "distributionConcluded",
      "outputs": [
        {
          "internalType": "bool",
          "name": "",
          "type": "bool"
        }
      ],
      "stateMutability": "view",
      "type": "function"
    },
    {
      "inputs": [
        {
          "internalType": "address",
          "name": "spender",
          "type": "address"
        },
        {
          "internalType": "uint256",
          "name": "addedValue",
          "type": "uint256"
        }
      ],
      "name": "increaseAllowance",
      "outputs": [
        {
          "internalType": "bool",
          "name": "",
          "type": "bool"
        }
      ],
      "stateMutability": "nonpayable",
      "type": "function"
    },
    {
      "inputs": [
        {
          "internalType": "address",
          "name": "account_",
          "type": "address"
        },
        {
          "internalType": "uint256",
          "name": "amount_",
          "type": "uint256"
        }
      ],
      "name": "mint",
      "outputs": [],
      "stateMutability": "nonpayable",
      "type": "function"
    },
    {
      "inputs": [
        {
          "internalType": "uint256",
          "name": "amount_",
          "type": "uint256"
        }
      ],
      "name": "mintForDistribution",
      "outputs": [],
      "stateMutability": "nonpayable",
      "type": "function"
    },
    {
      "inputs": [],
      "name": "name",
      "outputs": [
        {
          "internalType": "string",
          "name": "",
          "type": "string"
        }
      ],
      "stateMutability": "view",
      "type": "function"
    },
    {
      "inputs": [
        {
          "internalType": "address",
          "name": "owner",
          "type": "address"
        }
      ],
      "name": "nonces",
      "outputs": [
        {
          "internalType": "uint256",
          "name": "",
          "type": "uint256"
        }
      ],
      "stateMutability": "view",
      "type": "function"
    },
    {
      "inputs": [
        {
          "internalType": "address",
          "name": "owner",
          "type": "address"
        },
        {
          "internalType": "address",
          "name": "spender",
          "type": "address"
        },
        {
          "internalType": "uint256",
          "name": "value",
          "type": "uint256"
        },
        {
          "internalType": "uint256",
          "name": "deadline",
          "type": "uint256"
        },
        {
          "internalType": "uint8",
          "name": "v",
          "type": "uint8"
        },
        {
          "internalType": "bytes32",
          "name": "r",
          "type": "bytes32"
        },
        {
          "internalType": "bytes32",
          "name": "s",
          "type": "bytes32"
        }
      ],
      "name": "permit",
      "outputs": [],
      "stateMutability": "nonpayable",
      "type": "function"
    },
    {
      "inputs": [
        {
          "internalType": "contract IPanaAuthority",
          "name": "_newAuthority",
          "type": "address"
        }
      ],
      "name": "setAuthority",
      "outputs": [],
      "stateMutability": "nonpayable",
      "type": "function"
    },
    {
      "inputs": [],
      "name": "symbol",
      "outputs": [
        {
          "internalType": "string",
          "name": "",
          "type": "string"
        }
      ],
      "stateMutability": "view",
      "type": "function"
    },
    {
      "inputs": [],
      "name": "totalDistributed",
      "outputs": [
        {
          "internalType": "uint256",
          "name": "",
          "type": "uint256"
        }
      ],
      "stateMutability": "view",
      "type": "function"
    },
    {
      "inputs": [],
      "name": "totalSupply",
      "outputs": [
        {
          "internalType": "uint256",
          "name": "",
          "type": "uint256"
        }
      ],
      "stateMutability": "view",
      "type": "function"
    },
    {
      "inputs": [
        {
          "internalType": "address",
          "name": "recipient",
          "type": "address"
        },
        {
          "internalType": "uint256",
          "name": "amount",
          "type": "uint256"
        }
      ],
      "name": "transfer",
      "outputs": [
        {
          "internalType": "bool",
          "name": "",
          "type": "bool"
        }
      ],
      "stateMutability": "nonpayable",
      "type": "function"
    },
    {
      "inputs": [
        {
          "internalType": "address",
          "name": "sender",
          "type": "address"
        },
        {
          "internalType": "address",
          "name": "recipient",
          "type": "address"
        },
        {
          "internalType": "uint256",
          "name": "amount",
          "type": "uint256"
        }
      ],
      "name": "transferFrom",
      "outputs": [
        {
          "internalType": "bool",
          "name": "",
          "type": "bool"
        }
      ],
      "stateMutability": "nonpayable",
      "type": "function"
    }
  ],
  "transactionHash": "0x3ed897af19c00d6401efa6a62a2908993298ed1e931559fd8bd5a3b2a1b3ce66",
  "args": [
    "0x605A266692c9d1cF4C698970108776b7E6E56402"
  ],
  "solcInputHash": "8a54ff99544e9d90edafe789562ed5c5",
  "bytecode": "0x7f6e71edae12b1b97f4d1f60370fef10105fa2faae0126114a169c64845d6126c9610140526101a0604052600c6101608190526b15539055551213d49256915160a21b61018090815262000057916006919062000244565b503480156200006557600080fd5b5060405162001f2338038062001f23833981810160405260208110156200008b57600080fd5b505160408051808201825260088082526750616e612044414f60c01b60208381018290528451808601865260018152603160f81b81830152855180870187529384528382019283528551808701909652600486526350414e4160e01b91860191909152825186958594929390916012916200010a916003919062000244565b5081516200012090600490602085019062000244565b5060f81b7fff00000000000000000000000000000000000000000000000000000000000000166080525050815160208084019190912082519183019190912060e08290526101008190524660c081905291907f8b73c3c69bb8fe3d512ecc4cf759cc79239f7b179b0ffacaa9a75d522b39400f620001a0818484620001ff565b60a052610120525050600780546001600160a01b0319166001600160a01b0387169081179091556040519094507f2f658b440c35314f52658ea8a740e05b284cdc84dc9ae01e891f21b8933e7cad9350600092509050a25050620002f0565b604080516020808201959095528082019390935260608301919091524660808301523060a0808401919091528151808403909101815260c09092019052805191012090565b828054600181600116156101000203166002900490600052602060002090601f0160209004810192826200027c5760008555620002c7565b82601f106200029757805160ff1916838001178555620002c7565b82800160010185558215620002c7579182015b82811115620002c7578251825591602001919060010190620002aa565b50620002d5929150620002d9565b5090565b5b80821115620002d55760008155600101620002da565b60805160f81c60a05160c05160e051610100516101205161014051611bdc6200034760003980610edf52508061146a5250806114ac52508061148b52508061141652508061143e5250806109055250611bdc6000f3fe608060405234801561001057600080fd5b506004361061018d5760003560e01c806379cc6790116100e3578063a9059cbb1161008c578063dd62ed3e11610066578063dd62ed3e146104d4578063efca2eed14610502578063f812b2c81461050a5761018d565b8063a9059cbb14610433578063bf7e214f1461045f578063d505accf146104835761018d565b80637fa79fde116100bd5780637fa79fde146103f757806395d89b41146103ff578063a457c2d7146104075761018d565b806379cc67901461037f5780637a9e5e4b146103ab5780637ecebe00146103d15761018d565b8063313ce5671161014557806340c10f191161011f57806340c10f191461031057806342966c681461033c57806370a08231146103595761018d565b8063313ce567146102be5780633644e515146102dc57806339509351146102e45761018d565b8063095ea7b311610176578063095ea7b31461022e57806318160ddd1461026e57806323b872dd146102885761018d565b806306fdde0314610192578063091f092f1461020f575b600080fd5b61019a610512565b6040805160208082528351818301528351919283929083019185019080838360005b838110156101d45781810151838201526020016101bc565b50505050905090810190601f1680156102015780820380516001836020036101000a031916815260200191505b509250505060405180910390f35b61022c6004803603602081101561022557600080fd5b50356105a9565b005b61025a6004803603604081101561024457600080fd5b506001600160a01b03813516906020013561087e565b604080519115158252519081900360200190f35b610276610894565b60408051918252519081900360200190f35b61025a6004803603606081101561029e57600080fd5b506001600160a01b0381358116916020810135909116906040013561089a565b6102c6610903565b6040805160ff9092168252519081900360200190f35b610276610927565b61025a600480360360408110156102fa57600080fd5b506001600160a01b038135169060200135610936565b61022c6004803603604081101561032657600080fd5b506001600160a01b03813516906020013561096c565b61022c6004803603602081101561035257600080fd5b5035610a66565b6102766004803603602081101561036f57600080fd5b50356001600160a01b0316610a70565b61022c6004803603604081101561039557600080fd5b506001600160a01b038135169060200135610a8b565b61022c600480360360208110156103c157600080fd5b50356001600160a01b0316610a95565b610276600480360360208110156103e757600080fd5b50356001600160a01b0316610be3565b61022c610c0a565b61019a610dba565b61025a6004803603604081101561041d57600080fd5b506001600160a01b038135169060200135610e1b565b61025a6004803603604081101561044957600080fd5b506001600160a01b038135169060200135610e6a565b610467610e77565b604080516001600160a01b039092168252519081900360200190f35b61022c600480360360e081101561049957600080fd5b506001600160a01b03813581169160208101359091169060408101359060608101359060ff6080820135169060a08101359060c00135610e86565b610276600480360360408110156104ea57600080fd5b506001600160a01b0381358116916020013516611002565b61027661102d565b61025a611033565b60038054604080516020601f600260001961010060018816150201909516949094049384018190048102820181019092528281526060939092909183018282801561059e5780601f106105735761010080835404028352916020019161059e565b820191906000526020600020905b81548152906001019060200180831161058157829003601f168201915b505050505090505b90565b600760009054906101000a90046001600160a01b03166001600160a01b0316630c340a246040518163ffffffff1660e01b815260040160206040518083038186803b1580156105f757600080fd5b505afa15801561060b573d6000803e3d6000fd5b505050506040513d602081101561062157600080fd5b50516006906001600160a01b031633146106ce5760405162461bcd60e51b81526020600482019081528254600260001961010060018416150201909116046024830181905290918291604490910190849080156106bf5780601f10610694576101008083540402835291602001916106bf565b820191906000526020600020905b8154815290600101906020018083116106a257829003601f168201915b50509250505060405180910390fd5b5060075460408051635b54ea8f60e01b815290516000926001600160a01b031691635b54ea8f916004808301926020929190829003018186803b15801561071457600080fd5b505afa158015610728573d6000803e3d6000fd5b505050506040513d602081101561073e57600080fd5b50516001600160a01b0316141561079c576040805162461bcd60e51b815260206004820152601f60248201527f5a65726f20616464726573733a20646973747269627574696f6e5661756c7400604482015290519081900360640190fd5b600754600160a01b900460ff16156107fb576040805162461bcd60e51b815260206004820152601660248201527f446973747269627574696f6e20636f6e636c7564656400000000000000000000604482015290519081900360640190fd5b600880548201905560075460408051635b54ea8f60e01b8152905161087b926001600160a01b031691635b54ea8f916004808301926020929190829003018186803b15801561084957600080fd5b505afa15801561085d573d6000803e3d6000fd5b505050506040513d602081101561087357600080fd5b505182611043565b50565b600061088b338484611133565b50600192915050565b60025490565b60006108a784848461121f565b6108f984336108f485604051806060016040528060288152602001611af5602891396001600160a01b038a166000908152600160209081526040808320338452909152902054919061137a565b611133565b5060019392505050565b7f000000000000000000000000000000000000000000000000000000000000000090565b6000610931611411565b905090565b3360008181526001602090815260408083206001600160a01b0387168452909152812054909161088b9185906108f490866114d8565b600760009054906101000a90046001600160a01b03166001600160a01b031663fbfa77cf6040518163ffffffff1660e01b815260040160206040518083038186803b1580156109ba57600080fd5b505afa1580156109ce573d6000803e3d6000fd5b505050506040513d60208110156109e457600080fd5b50516006906001600160a01b03163314610a575760405162461bcd60e51b81526020600482019081528254600260001961010060018416150201909116046024830181905290918291604490910190849080156106bf5780601f10610694576101008083540402835291602001916106bf565b50610a628282611043565b5050565b61087b3382611539565b6001600160a01b031660009081526020819052604090205490565b610a628282611635565b600760009054906101000a90046001600160a01b03166001600160a01b0316630c340a246040518163ffffffff1660e01b815260040160206040518083038186803b158015610ae357600080fd5b505afa158015610af7573d6000803e3d6000fd5b505050506040513d6020811015610b0d57600080fd5b50516006906001600160a01b03163314610b805760405162461bcd60e51b81526020600482019081528254600260001961010060018416150201909116046024830181905290918291604490910190849080156106bf5780601f10610694576101008083540402835291602001916106bf565b50600780547fffffffffffffffffffffffff0000000000000000000000000000000000000000166001600160a01b0383169081179091556040517f2f658b440c35314f52658ea8a740e05b284cdc84dc9ae01e891f21b8933e7cad90600090a250565b6001600160a01b0381166000908152600560205260408120610c0490611681565b92915050565b600760009054906101000a90046001600160a01b03166001600160a01b0316630c340a246040518163ffffffff1660e01b815260040160206040518083038186803b158015610c5857600080fd5b505afa158015610c6c573d6000803e3d6000fd5b505050506040513d6020811015610c8257600080fd5b50516006906001600160a01b03163314610cf55760405162461bcd60e51b81526020600482019081528254600260001961010060018416150201909116046024830181905290918291604490910190849080156106bf5780601f10610694576101008083540402835291602001916106bf565b50600754600160a01b900460ff1615610d55576040805162461bcd60e51b815260206004820152601160248201527f416c726561647920636f6e636c75646564000000000000000000000000000000604482015290519081900360640190fd5b600780547fffffffffffffffffffffff00ffffffffffffffffffffffffffffffffffffffff16600160a01b17905560085460408051918252517f1044f659e349aa67405791dec21dcbab73d6b594ca8b4c3271b268b866aa26fb9181900360200190a1565b60048054604080516020601f600260001961010060018816150201909516949094049384018190048102820181019092528281526060939092909183018282801561059e5780601f106105735761010080835404028352916020019161059e565b600061088b33846108f485604051806060016040528060258152602001611bab602591393360009081526001602090815260408083206001600160a01b038d168452909152902054919061137a565b600061088b33848461121f565b6007546001600160a01b031681565b83421115610edb576040805162461bcd60e51b815260206004820152601d60248201527f45524332305065726d69743a206578706972656420646561646c696e65000000604482015290519081900360640190fd5b60007f0000000000000000000000000000000000000000000000000000000000000000888888610f0a8c611685565b8960405160200180878152602001866001600160a01b03168152602001856001600160a01b0316815260200184815260200183815260200182815260200196505050505050506040516020818303038152906040528051906020012090506000610f73826116b7565b90506000610f83828787876116ca565b9050896001600160a01b0316816001600160a01b031614610feb576040805162461bcd60e51b815260206004820152601e60248201527f45524332305065726d69743a20696e76616c6964207369676e61747572650000604482015290519081900360640190fd5b610ff68a8a8a611133565b50505050505050505050565b6001600160a01b03918216600090815260016020908152604080832093909416825291909152205490565b60085481565b600754600160a01b900460ff1681565b6001600160a01b03821661109e576040805162461bcd60e51b815260206004820152601f60248201527f45524332303a206d696e7420746f20746865207a65726f206164647265737300604482015290519081900360640190fd5b6110aa6000838361167c565b6002546110b790826114d8565b6002556001600160a01b0382166000908152602081905260409020546110dd90826114d8565b6001600160a01b0383166000818152602081815260408083209490945583518581529351929391927fddf252ad1be2c89b69c2b068fc378daa952ba7f163c4a11628f55a4df523b3ef9281900390910190a35050565b6001600160a01b0383166111785760405162461bcd60e51b8152600401808060200182810382526024815260200180611b876024913960400191505060405180910390fd5b6001600160a01b0382166111bd5760405162461bcd60e51b8152600401808060200182810382526022815260200180611a696022913960400191505060405180910390fd5b6001600160a01b03808416600081815260016020908152604080832094871680845294825291829020859055815185815291517f8c5be1e5ebec7d5bd14f71427d1e84f3dd0314c0f7b2291e5b200ac8c7c3b9259281900390910190a3505050565b6001600160a01b0383166112645760405162461bcd60e51b8152600401808060200182810382526025815260200180611b626025913960400191505060405180910390fd5b6001600160a01b0382166112a95760405162461bcd60e51b8152600401808060200182810382526023815260200180611a246023913960400191505060405180910390fd5b6112b483838361167c565b6112f181604051806060016040528060268152602001611a8b602691396001600160a01b038616600090815260208190526040902054919061137a565b6001600160a01b03808516600090815260208190526040808220939093559084168152205461132090826114d8565b6001600160a01b038084166000818152602081815260409182902094909455805185815290519193928716927fddf252ad1be2c89b69c2b068fc378daa952ba7f163c4a11628f55a4df523b3ef92918290030190a3505050565b600081848411156114095760405162461bcd60e51b81526004018080602001828103825283818151815260200191508051906020019080838360005b838110156113ce5781810151838201526020016113b6565b50505050905090810190601f1680156113fb5780820380516001836020036101000a031916815260200191505b509250505060405180910390fd5b505050900390565b6000467f0000000000000000000000000000000000000000000000000000000000000000811415611465577f00000000000000000000000000000000000000000000000000000000000000009150506105a6565b6114d07f00000000000000000000000000000000000000000000000000000000000000007f00000000000000000000000000000000000000000000000000000000000000007f00000000000000000000000000000000000000000000000000000000000000006116f2565b9150506105a6565b600082820183811015611532576040805162461bcd60e51b815260206004820152601b60248201527f536166654d6174683a206164646974696f6e206f766572666c6f770000000000604482015290519081900360640190fd5b9392505050565b6001600160a01b03821661157e5760405162461bcd60e51b8152600401808060200182810382526021815260200180611b416021913960400191505060405180910390fd5b61158a8260008361167c565b6115c781604051806060016040528060228152602001611a47602291396001600160a01b038516600090815260208190526040902054919061137a565b6001600160a01b0383166000908152602081905260409020556002546115ed9082611737565b6002556040805182815290516000916001600160a01b038516917fddf252ad1be2c89b69c2b068fc378daa952ba7f163c4a11628f55a4df523b3ef9181900360200190a35050565b600061166582604051806060016040528060248152602001611b1d6024913961165e8633611002565b919061137a565b9050611672833383611133565b61167c8383611539565b505050565b5490565b6001600160a01b03811660009081526005602052604081206116a681611681565b91506116b181611779565b50919050565b6000610c046116c4611411565b83611782565b60008060006116db878787876117bd565b915091506116e8816118b2565b5095945050505050565b604080516020808201959095528082019390935260608301919091524660808301523060a0808401919091528151808403909101815260c09092019052805191012090565b600061153283836040518060400160405280601e81526020017f536166654d6174683a207375627472616374696f6e206f766572666c6f77000081525061137a565b80546001019055565b6040805161190160f01b6020808301919091526022820194909452604280820193909352815180820390930183526062019052805191012090565b6000807f7fffffffffffffffffffffffffffffff5d576e7357a4501ddfe92f46681b20a08311156117f457506000905060036118a9565b8460ff16601b1415801561180c57508460ff16601c14155b1561181d57506000905060046118a9565b600060018787878760405160008152602001604052604051808581526020018460ff1681526020018381526020018281526020019450505050506020604051602081039080840390855afa158015611879573d6000803e3d6000fd5b5050604051601f1901519150506001600160a01b0381166118a2576000600192509250506118a9565b9150600090505b94509492505050565b60008160048111156118c057fe5b14156118cb5761087b565b60018160048111156118d957fe5b141561192c576040805162461bcd60e51b815260206004820152601860248201527f45434453413a20696e76616c6964207369676e61747572650000000000000000604482015290519081900360640190fd5b600281600481111561193a57fe5b141561198d576040805162461bcd60e51b815260206004820152601f60248201527f45434453413a20696e76616c6964207369676e6174757265206c656e67746800604482015290519081900360640190fd5b600381600481111561199b57fe5b14156119d85760405162461bcd60e51b8152600401808060200182810382526022815260200180611ab16022913960400191505060405180910390fd5b60048160048111156119e657fe5b141561087b5760405162461bcd60e51b8152600401808060200182810382526022815260200180611ad36022913960400191505060405180910390fdfe45524332303a207472616e7366657220746f20746865207a65726f206164647265737345524332303a206275726e20616d6f756e7420657863656564732062616c616e636545524332303a20617070726f766520746f20746865207a65726f206164647265737345524332303a207472616e7366657220616d6f756e7420657863656564732062616c616e636545434453413a20696e76616c6964207369676e6174757265202773272076616c756545434453413a20696e76616c6964207369676e6174757265202776272076616c756545524332303a207472616e7366657220616d6f756e74206578636565647320616c6c6f77616e636545524332303a206275726e20616d6f756e74206578636565647320616c6c6f77616e636545524332303a206275726e2066726f6d20746865207a65726f206164647265737345524332303a207472616e736665722066726f6d20746865207a65726f206164647265737345524332303a20617070726f76652066726f6d20746865207a65726f206164647265737345524332303a2064656372656173656420616c6c6f77616e63652062656c6f77207a65726fa164736f6c6343000705000a",
  "devdoc": {
    "kind": "dev",
    "methods": {
      "DOMAIN_SEPARATOR()": {
        "details": "See {IERC20Permit-DOMAIN_SEPARATOR}."
      },
      "allowance(address,address)": {
        "details": "Returns the remaining number of tokens that `spender` will be allowed to spend on behalf of `owner` through {transferFrom}. This is zero by default. This value changes when {approve} or {transferFrom} are called."
      },
      "approve(address,uint256)": {
        "details": "Sets `amount` as the allowance of `spender` over the caller's tokens. Returns a boolean value indicating whether the operation succeeded. IMPORTANT: Beware that changing an allowance with this method brings the risk that someone may use both the old and the new allowance by unfortunate transaction ordering. One possible solution to mitigate this race condition is to first reduce the spender's allowance to 0 and set the desired value afterwards: https://github.com/ethereum/EIPs/issues/20#issuecomment-263524729 Emits an {Approval} event."
      },
      "balanceOf(address)": {
        "details": "Returns the amount of tokens owned by `account`."
      },
      "nonces(address)": {
        "details": "See {IERC20Permit-nonces}."
      },
      "permit(address,address,uint256,uint256,uint8,bytes32,bytes32)": {
        "details": "See {IERC20Permit-permit}."
      },
      "totalSupply()": {
        "details": "Returns the amount of tokens in existence."
      },
      "transfer(address,uint256)": {
        "details": "Moves `amount` tokens from the caller's account to `recipient`. Returns a boolean value indicating whether the operation succeeded. Emits a {Transfer} event."
      },
      "transferFrom(address,address,uint256)": {
        "details": "Moves `amount` tokens from `sender` to `recipient` using the allowance mechanism. `amount` is then deducted from the caller's allowance. Returns a boolean value indicating whether the operation succeeded. Emits a {Transfer} event."
      }
    },
    "version": 1
  },
  "userdoc": {
    "kind": "user",
    "methods": {
      "concludeDistribution()": {
        "notice": "concludes token launch Pana distribution. This effectively turns the possibility to mint Pana via mintForDistribution() off. distributionConcluded is one-way switch and it cannot be turned on again."
      },
      "mintForDistribution(uint256)": {
        "notice": "mints Pana to the distribution vault"
      }
    },
    "version": 1
  },
  "storageLayout": {
    "storage": [
      {
        "astId": 9950,
        "contract": "contracts/tokens/regular/PanaERC20.sol:PanaERC20Token",
        "label": "_balances",
        "offset": 0,
        "slot": "0",
        "type": "t_mapping(t_address,t_uint256)"
      },
      {
        "astId": 9956,
        "contract": "contracts/tokens/regular/PanaERC20.sol:PanaERC20Token",
        "label": "_allowances",
        "offset": 0,
        "slot": "1",
        "type": "t_mapping(t_address,t_mapping(t_address,t_uint256))"
      },
      {
        "astId": 9958,
        "contract": "contracts/tokens/regular/PanaERC20.sol:PanaERC20Token",
        "label": "_totalSupply",
        "offset": 0,
        "slot": "2",
        "type": "t_uint256"
      },
      {
        "astId": 9960,
        "contract": "contracts/tokens/regular/PanaERC20.sol:PanaERC20Token",
        "label": "_name",
        "offset": 0,
        "slot": "3",
        "type": "t_string_storage"
      },
      {
        "astId": 9962,
        "contract": "contracts/tokens/regular/PanaERC20.sol:PanaERC20Token",
        "label": "_symbol",
        "offset": 0,
        "slot": "4",
        "type": "t_string_storage"
      },
      {
        "astId": 10431,
        "contract": "contracts/tokens/regular/PanaERC20.sol:PanaERC20Token",
        "label": "_nonces",
        "offset": 0,
        "slot": "5",
        "type": "t_mapping(t_address,t_struct(Counter)2895_storage)"
      },
      {
        "astId": 314,
        "contract": "contracts/tokens/regular/PanaERC20.sol:PanaERC20Token",
        "label": "UNAUTHORIZED",
        "offset": 0,
        "slot": "6",
        "type": "t_string_storage"
      },
      {
        "astId": 316,
        "contract": "contracts/tokens/regular/PanaERC20.sol:PanaERC20Token",
        "label": "authority",
        "offset": 0,
        "slot": "7",
        "type": "t_contract(IPanaAuthority)1976"
      },
      {
        "astId": 6825,
        "contract": "contracts/tokens/regular/PanaERC20.sol:PanaERC20Token",
        "label": "distributionConcluded",
        "offset": 20,
        "slot": "7",
        "type": "t_bool"
      },
      {
        "astId": 6827,
        "contract": "contracts/tokens/regular/PanaERC20.sol:PanaERC20Token",
        "label": "totalDistributed",
        "offset": 0,
        "slot": "8",
        "type": "t_uint256"
      }
    ],
    "types": {
      "t_address": {
        "encoding": "inplace",
        "label": "address",
        "numberOfBytes": "20"
      },
      "t_bool": {
        "encoding": "inplace",
        "label": "bool",
        "numberOfBytes": "1"
      },
      "t_contract(IPanaAuthority)1976": {
        "encoding": "inplace",
        "label": "contract IPanaAuthority",
        "numberOfBytes": "20"
      },
      "t_mapping(t_address,t_mapping(t_address,t_uint256))": {
        "encoding": "mapping",
        "key": "t_address",
        "label": "mapping(address => mapping(address => uint256))",
        "numberOfBytes": "32",
        "value": "t_mapping(t_address,t_uint256)"
      },
      "t_mapping(t_address,t_struct(Counter)2895_storage)": {
        "encoding": "mapping",
        "key": "t_address",
        "label": "mapping(address => struct Counters.Counter)",
        "numberOfBytes": "32",
        "value": "t_struct(Counter)2895_storage"
      },
      "t_mapping(t_address,t_uint256)": {
        "encoding": "mapping",
        "key": "t_address",
        "label": "mapping(address => uint256)",
        "numberOfBytes": "32",
        "value": "t_uint256"
      },
      "t_string_storage": {
        "encoding": "bytes",
        "label": "string",
        "numberOfBytes": "32"
      },
      "t_struct(Counter)2895_storage": {
        "encoding": "inplace",
        "label": "struct Counters.Counter",
        "members": [
          {
            "astId": 2894,
            "contract": "contracts/tokens/regular/PanaERC20.sol:PanaERC20Token",
            "label": "_value",
            "offset": 0,
            "slot": "0",
            "type": "t_uint256"
          }
        ],
        "numberOfBytes": "32"
      },
      "t_uint256": {
        "encoding": "inplace",
        "label": "uint256",
        "numberOfBytes": "32"
      }
    }
  }
}